:10000000D82000202D010000290100002901000056
:1000100000000000000000000000000000000000E0
:1000200000000000000000000000000029010000A6
:10003000000000000000000029010000290100006C
:100040002901000029010000290100002901000008
:10005000910500002901000029010000290100008C
:1000600029010000290100002901000029010000E8
:1000700029010000290100002901000029010000D8
:1000800029010000290100002901000029010000C8
:1000900029010000290100002901000029010000B8
:1000A00029010000290100002901000029010000A8
:1000B0000000000010B5064C2378002B07D1054B3B
:1000C000002B02D0044800E000BF0123237010BDC4
:1000D0008400002000000000243E0000084B10B502
:1000E000002B03D00749084800E000BF0748036819
:1000F000002B00D110BD064B002BFBD09847F9E731
:100100000000000088000020243E0000243E000083
:100110000000000010B5024B9847024B984710BDF5
:100120000D02000059020000FEE7000010B51A4A57
:100130001A4B9A4211D01A00194B9A420DD2194A01
:1001400003339B1A9B0801339B000022134812497A
:100150008C58845004329A42FAD1134A134B9A4273
:100160000AD2D34311495B1803218B4304339B18F4
:10017000002102C29342FCD10D4AFF210D4B8B435B
:1001800093600D4A53687F390B4353600B4B98477C
:100190000B4B9847FEE7C046243E000000000020BD
:1001A000840000200400002084000020D4000020EF
:1001B00000ED00E00000000000400041191A0000BE
:1001C000490A0000034A116980235B000B43136155
:1001D0007047C0460004004010B5034B98470349E0
:1001E0000348044B984710BDC50100000040004182
:1001F000B40000205D03000010B50248024B984790
:1002000010BDC04610E000E01103000010B50D4B1A
:100210009847C023DB058022D20094215A500C3924
:100220005A50094BA82209499950C02109069950F2
:10023000CA215A5C012082435A54054B9847054B0A
:10024000984710BDD903000000280040000400407A
:10025000D9010000F9010000F0B5C64600B5C02282
:10026000D2050223942153508021490251618027F5
:100270007F03576180208003804650618826935118
:100280001C4BA8201C4D1D50C0252D061D509160F3
:100290008021C9059962194C9C6297609962184F38
:1002A0009F6244469460996216499962C127DC5D59
:1002B00001218C43DC55713FDC5D8C43DC550437F8
:1002C000DC5D8C43DC550137DC5D8C43DC558024E0
:1002D000E4004337D45194510B4A1A501D50223038
:1002E0001A5C8A431A54C038084B984704BC90469D
:1002F000F0BDC0460028004002000040010000C0E0
:10030000100000C0200000C00004004025030000D1
:1003100010B5024B1860024B984710BDA00000209A
:10032000C107000010B5044B1C68044B984701003E
:100330002000034B984710BDA0000020D10300000F
:10034000D507000010B54369002B00D0984710BDB9
:1003500010B58369002B00D0984710BD70B505001B
:100360000C00002812D00800431E9841C0B2382269
:100370000749084B984721002800074B9847002859
:1003800003D1064B2B60064B6B6070BD0020EEE77F
:10039000241C0000A5030000E10400004503000048
:1003A00051030000002800D100BE70470300064A38
:1003B0001268002A04D0044A1068C31813607047FA
:1003C0000249014A1160F6E7A4000020D82000206D
:1003D000FA231B015843704710B5094B5A685A60FD
:1003E0000220084B9847084B9847084B9847084B02
:1003F0009847084B9847FF20074B984710BDC046C9
:100400000040004197070000450700005D0700001D
:1004100041040000950700001D040000C30707D534
:10042000044A054B1A621900044A4B681342FCD176
:100430007047C0460601010000180040FD0700009B
:10044000034B08229A71043A5A71033A1A717047A1
:1004500000040040F8B504000D0017001E00012341
:100460004B4001201840C52252001949194B9847AA
:1004700068080122237D1342FCD0174B2380012200
:10048000237D1342FCD02023FF332383002E0ED084
:100490001F3BFF3B290099430023FD5CAAB23E2B82
:1004A00010D90A8002339BB202319E42F5D8012254
:1004B000237D1342FCD0E061084B069A13439BB2A4
:1004C0002380F8BDFA18527812022A43E9E7C046A1
:1004D0003C1C0000A503000044A5FFFF00A5FFFF92
:1004E00070B505000C0000281DD0104BC818434201
:1004F0005841C0B246220E490E4B98472C616268A3
:100500009E23134063600C4B1D600C4B1022802116
:100510005A50BFF34F8FBFF36F8F0131FF315A50E5
:100520001A60002070BD0020E4E7C04600C0FFBE96
:100530003C1C0000A5030000A800002000E100E032
:1005400070B54C0805690126287D3042FCD020207A
:10055000FF3028830020CD0705D5013401308143C9
:100560000988090A1170984211D212186400241ADD
:100570005D1E03E002300232834208D92118098847
:1005800089B211708542F5D9090A5170F2E770BD40
:1005900010B50A4B186803691A7DD20704D50368A1
:1005A000002B00D0984710BD1A7D9207FBD5022280
:1005B0001A754368002BF6D09847F4E7A80000208E
:1005C00070B50B4C0D198024A401A5420AD8084C23
:1005D0001C1964188025AD01AC4206D8054CA04713
:1005E000002070BD0E204042FBE70E204042F8E79D
:1005F0000000C0FF41050000F0B5DE4657464E46FC
:100600004546E0B5C5B0834616001D00494BCA18E3
:1006100080239B019A4200D986E0464BEB185B1879
:1006200080229201934200D981E00C002FE0BA466B
:1006300067465B461A690121137D0B42FCD02023DB
:10064000FF3313834B465B08D3613B4B13804B4610
:10065000A04603972A004D46B1465E4693461F00CA
:100660007A1B04AB9C4662441C230093243339005C
:100670003069324CA0474037039BBB42F0D144461F
:100680005D46B3464E462B19013B9A4544D2FF23A3
:1006900022009A4391464B449A4680235B004B4488
:1006A0009846170042460392A0464C46B1465E4625
:1006B000AB463A1B04AB9C466244402339003000F1
:1006C0001F4DA8474037039B9F42F2D15D46B3467A
:1006D0004E46A14644464B46E31A99093F22134031
:1006E0005445A6D8002DA4D0BC4657468A0104A87C
:1006F000804642443078D05401333F2213405A425E
:100700005A41891801340136013DA7428FD3002D8B
:10071000ECD1BA4667468CE7002045B03CBC904619
:100720009946A246AB46F0BD0E204042F5E70E20AA
:100730004042F2E70000C0FF1AA5FFFF5504000089
:10074000C1050000044BDA69F82149010A40DA6169
:1007500001221A617047C0460010004082220C4BF3
:100760001A7518003821803A435C1342FCD10849BD
:100770001022CB681A42FCD0054A137D80210B431E
:100780001375100048390E22435C1342FCD17047A8
:10079000000C004070478023DB059B780322134048
:1007A00098420CD08022D205FF23937193780321C5
:1007B0008B430840184390709379002BFCD070470E
:1007C000024B034A5A6005221A60704710E000E0AD
:1007D000FFFFFF0070B50B0E5E1EF6B2002B13D0AC
:1007E00034000E4A0E4D802040025560956013681B
:1007F0000342FCD0013CE4B2FF2CF6D13306F61ADA
:10080000084B9C4661447118044B5960996019006B
:10081000802252020B681342FCD070BD10E000E051
:10082000FFFFFF00010000FFF0B5D6464F464646E9
:10083000C0B5784CA5447848784B984705000A2005
:10084000774B98471027774B1033039316E0FEE75A
:100850002200210004A8D047013610344E45F7D1BC
:1008600080225203C023DB055A6102206C4B98475B
:100870001037BC235B019F4200D180E00023002F92
:1008800000D198E0EB540133BB42FBD1002300932D
:10089000644B202264494BA8644CA0470220604B63
:1008A000984780225203C023DB059A613B09994691
:1008B0000BD02C0000265E4B9A46220021004BA84C
:1008C000D047013610344E45F7D1C024E4058023CB
:1008D0005B0363610220524EB0470220B047802381
:1008E0009B03A3613B002A008021C9035148524C5D
:1008F000A047002800D08CE080229203C023DB05B3
:100900005A610220464CA0470220A0472B00E9195B
:10091000FE221A7001338B42FBD10220404B9847D4
:1009200080229203C023DB059A613B002A008021CC
:10093000C9034048414CA047002888D1C023DB05AB
:10094000984680239B03424653610220344EB047B1
:1009500001230093039B2022334904A8334CA04772
:100960000220B04780235B03424693614B46002B35
:1009700000D175E72C000026314B9A4668E7280025
:10098000304B98470A20264B9847C023DB050221AD
:1009900098229950802252029A61802252039A61D1
:1009A000802292039A6192239B009D441CBC904636
:1009B0009946A246F0BD002300931A4B20221A4903
:1009C0004BA81A4CA0470220154EB047C024E4059E
:1009D00080235B03A36163610220B0470220B0471C
:1009E00080239B03A3613B002A008021C903114897
:1009F000114CA04700280BD180229203C023DB05B5
:100A00005A610220064CA0470220A047B94684E75D
:100A1000FFE7FEE7B8FDFFFF70170000611A000056
:100A200025030000000000205C1C0000B11900003C
:100A3000F1190000B4000020F9050000C105000014
:100A4000051A0000751A000010B5034B9847034BB8
:100A50009847002010BDC04615010000290800007D
:100A6000F0B5DE4657464E464546E0B589B081466C
:100A70000C000392F023C3585B089846013B062BF9
:100A800006D909B03CBC90469946A246AB46F0BD9B
:100A9000042207A8CC4DA847211D042206A8A84778
:100AA00021000831042205A8A84721000C310422A6
:100AB00004A8A84707980699059A060AC34B9C46BE
:100AC0001E400002C24B184006431025EE41484626
:100AD000006846400F0A60460740090219400F436C
:100AE000EF41494649684F40100A614608401202EA
:100AF0001A401043E8414A4692685040049A140252
:100B00001C40130A0B401C43EC414B46DB685C4025
:100B100004222023013B002BFCD1013A002AF8D10A
:100B20004D4643465B014B449A46AA4B9846FF23E9
:100B30009C46C14653460293320E920063462340C0
:100B4000C02189008B465B449B00414652585B584C
:100B50005A402B695A403B0C61460B400133FF332E
:100B60009B0041465B585A40030A61460B40802176
:100B700089008B465B449B0041465B585A4000927B
:100B80003B0E9B0061463140C0229200934659447F
:100B9000890042469B5889584B406A695340010C72
:100BA000624611400131FF318900424689584B406D
:100BB000210A6246114080229200934659448900DE
:100BC000424689584B400193010E8A009346614684
:100BD0003940C022920092465144890042465B4609
:100BE0009B589B4689585B465940AB695940230C3A
:100BF0001A0063461A40934680235B009A46D3440A
:100C00005B469B009B4643465A46D3585940330A9D
:100C10001A0063461A40934680239B009A46D344A9
:100C20005B469B009B4643465A46D3585940240E88
:100C3000A40063461840C0239B009A46504480009D
:100C40004346E458C0584440EB695C40360C634668
:100C50001E400136FF36B6004346F05844403F0A76
:100C600063461F4080239B009A465744BF0043467B
:100C7000F85844402035029EAE4200D1ACE00098C6
:100C8000060EB60060462040C0239B009A465044A2
:100C900080004B46F658C05846402B685E40019A8B
:100CA000100C634618400130FF3080004B46C0589E
:100CB0004640080A6346184080239B009A465044E9
:100CC00080004B46C0584640170EBF006046009B50
:100CD0001840C0239B009A46504480004B46FF5862
:100CE000C05847406B685F40080C634618400130AD
:100CF000FF3080004B46C0584740200A63461840EA
:100D000080239B009A46504480004B46C058474081
:100D1000080E83009B4660461040C0239B009A4605
:100D2000504480004B465A46D3589B464B46C058C9
:100D30005B465840AB685840230C1A0063461A4083
:100D4000934680235B009A46D3445B469B009B46B8
:100D50004B465A46D3585840009A130A1A00634625
:100D60001A40934680239B009A46D3445B469B00DF
:100D70009B464B465A46D3585840240EA40063461F
:100D80001940C0239B009A46514489004B46E458C1
:100D9000C9584C40EB685C4000990A0C63461A4005
:100DA0000132FF3292004B46D2585440019B1B0A3D
:100DB0006246134080229200924653449B004A466A
:100DC0009B585C40B8E6C046891A0000FF00FF004F
:100DD00000FF00FF7C1C0000009A824EFF200700ED
:100DE00027400137FF37BF00BF5907402B685F40DE
:100DF00000910B0A03409B009B599C46FF231B025A
:100E00009B46634659460B405F40019B1B0C0340C9
:100E10009C46C0239B009846C44463469B009B5954
:100E20009C46FF231B049A46634651460B409C4652
:100E3000130E984680239B009946C84443469B0066
:100E40009B591B0E1B069846634641460B437B404D
:100E50000293070017400137FF37BF00BF59074013
:100E600069684F40210A0B000340990089590B0023
:100E700059460B405F400099090C0B0003409C460B
:100E8000C02189008846C4446146890089590B0005
:100E900051460B409C46019B190E8846C84441466A
:100EA00089008959090E090663460B435F40030018
:100EB00001990B409C46802149008846C444614604
:100EC000890089590B000340A9684B409846110AD4
:100ED0000B000340990089590B0059460B409C4672
:100EE000434661464B409846210C0B0003409C460C
:100EF000C02189008946CC446146890089590B008C
:100F000051460B400099090E8946802189008C4684
:100F1000E144494689008959090E09060B439C465C
:100F2000434661464B409C46009901400131FF31E8
:100F3000890089590140ED686940019B1B0A034003
:100F40009B009B595D462B405940120C0240C0202B
:100F50008000804642449200935950460340240E3C
:100F60008020800080464444A400A259120E12063C
:100F700013435940029A130A1B4D2B4012021B4C7B
:100F800022401343F138FF38C34107933B0A2B40FB
:100F90003F0227403B43C341069363461A0A2A4057
:100FA0001B0223401A43C24105920B0A2B4009023F
:100FB0000C402343C3410493042207A9039D280046
:100FC0000B4CA047281D042206A9A0472800083082
:100FD000042205A9A04728000C30042204A9A04738
:100FE0004FE5C0467C1C0000FF00FF0000FF00FF33
:100FF000891A0000F0B5DE4657464E464546E0B534
:1010000089B082460C000392F023C5586D086B1E10
:10101000062B06D909B03CBC90469946A246AB4681
:10102000F0BD042207A8C74EB047211D042206A820
:10103000B04721000831042205A8B04721000C3137
:10104000042204A8B04707980699059A060ABE4BE1
:101050009C461E400002BD4B184006431020C6416E
:101060005446246866400C0A67463C400902194011
:101070000C43C441514649684C40110A39401202A0
:101080001A401143C141524692685140049A1702D6
:101090001F40130A624613401F43C7415346DB6893
:1010A0005F4004222023013B002BFCD1013A002A9F
:1010B000F8D1D1466D01AA44A54B9C46FF20984625
:1010C00053460293320E920003002340C025AD0028
:1010D000AB465B449B006546555962469B585D4054
:1010E0004B461B695D403B0C03400133FF339B00C3
:1010F0009B585D400B0A03408022920093465B445C
:101100009B0062469B585D400095220E92000300B2
:101110000B40C025AD00AB465B449B006546525971
:101120005B595A404B465B695A40330C03400133CC
:10113000FF339B005B595A403B0A03408025AD00BA
:10114000AB465B449B0065465B595A4001920B0ECF
:101150009B009B4603003B40C025AD00AA4653447C
:101160009B0065465A46525993465B595A4653402E
:101170004A4692695340220C15000540AB46802236
:1011800052009246D3445A469200934662465D46C8
:10119000AA585340320A15000540AB4680229200FF
:1011A0009246D3445A469200934662465D46AA58F8
:1011B00053403F0EBF000640C02292009246564464
:1011C000B6006246BF58B65877404A46D269574083
:1011D000090C01400131FF318900624689584F40B6
:1011E000240A04408022920092465444A40062469D
:1011F000A1584F4020229246D1440299894500D1FE
:10120000A8E0009D2C0EA4000100019A1140C0220C
:1012100092009246514489004246A65889584E4051
:101220004A4612685640390C01400131FF318900AD
:10123000424689584E40190A014080229200924647
:1012400051448900424689584E40019A140EA40028
:1012500001001940C0229200924651448900424642
:10126000A45889584C404A4652685440290C0140C1
:101270000131FF318900424689584C40390A01400A
:1012800080229200924651448900424689584C403F
:10129000190E8A00934601003940C02292009246FE
:1012A0005144890042465D46AA58934642468958B1
:1012B0005A4651404A4692685140019A120C150014
:1012C0000540AB46802252009246D3445A469200D3
:1012D000934642465D46AA585140009D2A0A150091
:1012E0000540AB46802292009246D3445A46920073
:1012F000934642465D46AA5851403F0EBF00009DAE
:101300000540C022920092465544AD004246BF5867
:10131000AD586F404A46D26857401B0C034001331A
:10132000FF339B0042469B585F40019B1A0A0240D4
:1013300080239B009A46524492004346D3585F4014
:10134000C0E6C046891A0000FF00FF0000FF00FF52
:101350007C2C0000009D019A02998A464A49FF2090
:10136000844610400E5C504600684640280E085CDB
:1013700000064640380C64462040085C00044640A5
:10138000180A2040085C00024640B14660461840FA
:101390000C5C504640684440100E085C0006444017
:1013A000280C66463040085C00044440380A30404F
:1013B000085C00024440A34660463840085C56463C
:1013C000B6684640180E085C00067040160C64466D
:1013D00026408C5D240460402C0A2600644626408A
:1013E0008C5D24026040644625404D5D5446E468AF
:1013F00065403F0ECF5D3F067D401B0C6446234099
:10140000CB5C1B046B40120A22408A5C12025340E0
:101410004A46120A1D498C460A4049460E021C4F94
:101420003E4032431025EA4107925A46120A61466D
:101430000A4059460C023C402243EA410692010A06
:1014400062461140000238400143E94105911A0A01
:1014500061460A401B023B401343EB4104930422C4
:1014600007A9039D28000B4CA047281D042206A9AC
:10147000A04728000830042205A9A04728000C3006
:10148000042204A9A047C5E57C3C0000FF00FF0042
:1014900000FF00FF891A000010B500280ED00029B7
:1014A00005D0F8301022074B9847002010BDF830C7
:1014B00010220021044B98470020F7E7AD2040425E
:1014C000F4E7C046891A00009B1A0000F0B5DE461A
:1014D00057464E464546E0B585B007009146019314
:1014E0000500F423C2509608B21DF023C2504A46AC
:1014F000AA4B9847002E13D03A000323494699433C
:101500007918A74CA74E1020BC4615682B0A23401B
:101510002D0235402B43C34108C28A42F5D16546AE
:101520004B46182B4FD0202B00D1A2E0102B02D01D
:10153000AD20404225E19C4E80339946B9443900A4
:101540009A4CFF20FF231B029846FF231B049C4656
:101550004B46A946BA460093CA6880CE0B685F40E6
:10156000030013409B001B5945462B407B40170E40
:101570000137FF37BF003F5907407B40170C07403A
:101580008025AD00AB465F44BF003F593F0E3F068C
:101590007B40170A07400135FF35AB465F44BF006B
:1015A0003F5965462F407B400B614D686B404B6156
:1015B0008D686B408B615340CB61009B994200D199
:1015C000D6E01031C8E7784EA8239946B9443900CF
:1015D000764CFF20FF231B029846FF231B049C46EA
:1015E0004B460295BB4600934A6980CE0B685F402C
:1015F000030013409B001B5945462B407B40170EB0
:101600007D1CFF35AD002D592F0007407B40150C88
:101610002F000740BA468025AD00A946CA4455466A
:10162000AD002D592D0E2D066B40150A2F000740D9
:10163000BA46C025AD00A946CA445546AD002D594D
:101640002F0065462F407B408B614D686B40CB611E
:101650008D686B400B62CD686B404B62009DA94268
:1016600000D195E00D696B408B625340CB6218311D
:10167000BAE74D4B9946C0239C46BC4463463C00A8
:101680004A4A9446FF26FF2212029346FF22120482
:101690009246E0464A46029503971F000092E16990
:1016A00033000B409B0062469B585A4613400098FB
:1016B00004C800902068424053400A0E0132FF32B5
:1016C000920060461258324053400A0C324080204B
:1016D000800081464A44920060461258120E12065B
:1016E00053400A0A3240C020800081464A4492009A
:1016F000604612585046024053402362626853408D
:101700006362A2685340A362E2685340E362BC4252
:1017100041D01A0C32404A4492004046125850467A
:101720000240180A30408000454640595D46284036
:10173000024320694240180E8025AD00A946484466
:10174000800045464059000E000633400133FF3308
:101750009B005B59334018434240226363695A40FF
:101760006263A3695A40A2635140E163203496E763
:101770004D4657460E9B012B1CD0019938000C4B4F
:10178000984705B03CBC90469946A246AB46F0BD92
:10179000029D5F46EEE7029D039FEBE7891A00007A
:1017A000FF00FF0000FF00FF7C3D00007C1C0000EC
:1017B00099140000EF33FC58A40019D03A00A3009C
:1017C000FB18002110681E681660186050685E687B
:1017D0005660586090689E6896609860D068DE6831
:1017E000D660D86004311032103B601A8142E9D3D0
:1017F000F023FB58012BC0D901266B496B4AFF230C
:10180000F0208446BA4610352868040E0134FF34AF
:10181000A400A4581C40A400A0461C0004400134AD
:10182000FF34A400A4581C40C027BF00B9464C4454
:10183000A40047467F5864586740040C1C4001349C
:10184000FF34A400A4581C400134FF34A4006458A1
:101850007C40000A18400130FF308000805818405A
:101860008027BF00B84640448000405844402C6068
:101870006868040E0134FF34A400A4581C40A4007E
:10188000A0461C0004400134FF34A400A4581C40AE
:101890004C44A40047467F5864586740040C1C40E1
:1018A0000134FF34A400A4581C400134FF34A400C8
:1018B00064587C40000A18400130FF308000805896
:1018C00018408027BF00B84640448000405844403C
:1018D0006C60A868040E0134FF34A400A4581C40B6
:1018E000A400A0461C0004400134FF34A400A45806
:1018F0001C404C44A40047467F5864586740040C81
:101900001C400134FF34A400A4581C400134FF34AF
:10191000A40064587C40000A18400130FF30800069
:10192000805818408027BF00B84640448000405887
:101930004440AC60E868040E0134FF34A400A458AD
:101940001C40A400A0461C0004400134FF34A40045
:10195000A4581C404C44A40047467F586458674034
:10196000040C1C400134FF34A400A4581C40013472
:10197000FF34A40064587C40000A18400130FF3056
:101980008000805818408027BF00B846404480003F
:1019900040584440EC600136604654462058B042FE
:1019A00000D930E75746E8E67C2C00007C1C00009C
:1019B00030B583B0002812D008241500A543102D9F
:1019C00001D0202A0ED1F424025194080634F025C7
:1019D0004451069C0094054CA04703B030BDAD2097
:1019E0004042FAE7AD204042F7E7C046CD14000080
:1019F00010B513000A001900014B984710BDC046EE
:101A0000610A000010B513000A001900014B984745
:101A100010BDC046F50F000070B500260C4D0D4CF2
:101A2000641BA410A64209D1002602F0EBF90A4D6E
:101A30000A4C641BA410A64205D170BDB300EB583C
:101A400098470136EEE7B300EB5898470136F2E7C6
:101A5000103E0000103E0000103E0000143E00004A
:101A600010B5034B0100186800F06AF810BDC046BD
:101A70002000002010B5034B0100186800F016F894
:101A800010BDC04620000020002310B59A4200D1AE
:101A900010BDCC5CC4540133F8E7030082189342B4
:101AA00000D1704719700133F9E7000070B50500E7
:101AB000002910D00C1F2368002B00DAE41828003E
:101AC00000F0AEF81D4A1368002B05D16360146066
:101AD000280000F0A6F870BDA34209D9216860185B
:101AE0008342F3D118685B6841182160EEE7130068
:101AF0005A68002A01D0A242F9D919685818A042A0
:101B00000BD120680918581819608242E0D110687A
:101B10005268411819605A60DAE7A04202D90C23D2
:101B20002B60D5E721686018824203D110685268A3
:101B30004118216062605C60CAE7C046AC000020CA
:101B4000032370B5CD1C9D43083506000C2D1ED215
:101B50000C25A9421DD8300000F062F8254A14680F
:101B60002100002919D1244C2368002B03D1300017
:101B700000F044F820602900300000F03FF8431CDA
:101B80002CD10C233000336000F04BF803E0002D23
:101B9000DFDA0C233360002070BD0B685B1B1AD4A6
:101BA0000B2B03D90B60CC18256003E08C420ED1BF
:101BB00063681360300000F034F8200007220B3017
:101BC000231D9043C31AE7D05A42E250E4E74B6822
:101BD00063600C00EEE70C004968C2E70323C41CF5
:101BE0009C43A042E0D0211A300000F007F8431CCB
:101BF000DAD1C6E7AC000020B0000020002370B5A9
:101C0000064C050008002360FEF7D0FB431C03D1FF
:101C10002368002B00D02B6070BDC046D000002090
:101C2000704770472E2E2F68616C2F7372632F6878
:101C3000616C5F666C6173682E6300002E2E2F68E6
:101C4000706C2F6E766D6374726C2F68706C5F6E43
:101C5000766D6374726C2E6300000000603DEB10C3
:101C600015CA71BE2B73AEF0857D77811F352C07A9
:101C70003B6108D72D9810A30914DFF4A56363C650
:101C8000847C7CF8997777EE8D7B7BF60DF2F2FF02
:101C9000BD6B6BD6B16F6FDE54C5C59150303060EF
:101CA00003010102A96767CE7D2B2B5619FEFEE7C3
:101CB00062D7D7B5E6ABAB4D9A7676EC45CACA8FFC
:101CC0009D82821F40C9C989877D7DFA15FAFAEF86
:101CD000EB5959B2C947478E0BF0F0FBECADAD4163
:101CE00067D4D4B3FDA2A25FEAAFAF45BF9C9C23EB
:101CF000F7A4A453967272E45BC0C09BC2B7B775D9
:101D00001CFDFDE1AE93933D6A26264C5A36366C97
:101D1000413F3F7E02F7F7F54FCCCC835C3434680B
:101D2000F4A5A55134E5E5D108F1F1F9937171E21B
:101D300073D8D8AB533131623F15152A0C0404080F
:101D400052C7C795652323465EC3C39D2818183024
:101D5000A19696370F05050AB59A9A2F0907070E1F
:101D6000361212249B80801B3DE2E2DF26EBEBCD96
:101D70006927274ECDB2B27F9F7575EA1B090912FC
:101D80009E83831D742C2C582E1A1A342D1B1B363F
:101D9000B26E6EDCEE5A5AB4FBA0A05BF65252A4AF
:101DA0004D3B3B7661D6D6B7CEB3B37D7B29295266
:101DB0003EE3E3DD712F2F5E97848413F55353A622
:101DC00068D1D1B9000000002CEDEDC160202040A9
:101DD0001FFCFCE3C8B1B179ED5B5BB6BE6A6AD4A7
:101DE00046CBCB8DD9BEBE674B393972DE4A4A9499
:101DF000D44C4C98E85858B04ACFCF856BD0D0BB64
:101E00002AEFEFC5E5AAAA4F16FBFBEDC5434386B3
:101E1000D74D4D9A5533336694858511CF45458A04
:101E200010F9F9E906020204817F7FFEF05050A00C
:101E3000443C3C78BA9F9F25E3A8A84BF35151A29C
:101E4000FEA3A35DC04040808A8F8F05AD92923F74
:101E5000BC9D9D214838387004F5F5F1DFBCBC63AA
:101E6000C1B6B67775DADAAF63212142301010209F
:101E70001AFFFFE50EF3F3FD6DD2D2BF4CCDCD813D
:101E8000140C0C18351313262FECECC3E15F5FBE66
:101E9000A2979735CC4444883917172E57C4C4935A
:101EA000F2A7A755827E7EFC473D3D7AAC6464C8AC
:101EB000E75D5DBA2B191932957373E6A06060C0B7
:101EC00098818119D14F4F9E7FDCDCA3662222448A
:101ED0007E2A2A54AB90903B8388880BCA46468C56
:101EE00029EEEEC7D3B8B86B3C14142879DEDEA710
:101EF000E25E5EBC1D0B0B1676DBDBAD3BE0E0DB90
:101F0000563232644E3A3A741E0A0A14DB49499238
:101F10000A06060C6C242448E45C5CB85DC2C29FCF
:101F20006ED3D3BDEFACAC43A66262C4A891913925
:101F3000A495953137E4E4D38B7979F232E7E7D58C
:101F400043C8C88B5937376EB76D6DDA8C8D8D01EC
:101F500064D5D5B1D24E4E9CE0A9A949B46C6CD8D9
:101F6000FA5656AC07F4F4F325EAEACFAF6565CA32
:101F70008E7A7AF4E9AEAE4718080810D5BABA6F6F
:101F8000887878F06F25254A722E2E5C241C1C3828
:101F9000F1A6A657C7B4B47351C6C69723E8E8CBD9
:101FA0007CDDDDA19C7474E8211F1F3EDD4B4B9648
:101FB000DCBDBD61868B8B0D858A8A0F907070E0C9
:101FC000423E3E7CC4B5B571AA6666CCD8484890FE
:101FD0000503030601F6F6F7120E0E1CA36161C29B
:101FE0005F35356AF95757AED0B9B969918686170A
:101FF00058C1C199271D1D3AB99E9E2738E1E1D9E4
:1020000013F8F8EBB398982B33111122BB6969D2FE
:1020100070D9D9A9898E8E07A7949433B69B9B2D2E
:10202000221E1E3C9287871520E9E9C949CECE873A
:10203000FF5555AA782828507ADFDFA58F8C8C03AE
:10204000F8A1A15980898909170D0D1ADABFBF655A
:1020500031E6E6D7C6424284B86868D0C3414182BF
:10206000B0999929772D2D5A110F0F1ECBB0B07B47
:10207000FC5454A8D6BBBB6D3A16162C6363C6A598
:102080007C7CF8847777EE997B7BF68DF2F2FF0DFE
:102090006B6BD6BD6F6FDEB1C5C5915430306050EB
:1020A000010102036767CEA92B2B567DFEFEE719BF
:1020B000D7D7B562ABAB4DE67676EC9ACACA8F45F8
:1020C00082821F9DC9C989407D7DFA87FAFAEF1582
:1020D0005959B2EB47478EC9F0F0FB0BADAD41EC5F
:1020E000D4D4B367A2A25FFDAFAF45EA9C9C23BFE7
:1020F000A4A453F77272E496C0C09B5BB7B775C2D5
:10210000FDFDE11C93933DAE26264C6A36366C5A93
:102110003F3F7E41F7F7F502CCCC834F3434685C07
:10212000A5A551F4E5E5D134F1F1F9087171E29317
:10213000D8D8AB733131625315152A3F0404080C0B
:10214000C7C7955223234665C3C39D5E1818302820
:10215000969637A105050A0F9A9A2FB507070E091B
:102160001212243680801B9BE2E2DF3DEBEBCD2692
:1021700027274E69B2B27FCD7575EA9F0909121BF8
:1021800083831D9E2C2C58741A1A342E1B1B362D3B
:102190006E6EDCB25A5AB4EEA0A05BFB5252A4F6AB
:1021A0003B3B764DD6D6B761B3B37DCE2929527B62
:1021B000E3E3DD3E2F2F5E71848413975353A6F51E
:1021C000D1D1B96800000000EDEDC12C20204060A5
:1021D000FCFCE31FB1B179C85B5BB6ED6A6AD4BEA3
:1021E000CBCB8D46BEBE67D93939724B4A4A94DE95
:1021F0004C4C98D45858B0E8CFCF854AD0D0BB6B60
:10220000EFEFC52AAAAA4FE5FBFBED16434386C5AF
:102210004D4D9AD7333366558585119445458ACF00
:10222000F9F9E910020204067F7FFE815050A0F008
:102230003C3C78449F9F25BAA8A84BE35151A2F398
:10224000A3A35DFE404080C08F8F058A92923FAD70
:102250009D9D21BC38387048F5F5F104BCBC63DFA6
:10226000B6B677C1DADAAF7521214263101020309B
:10227000FFFFE51AF3F3FD0ED2D2BF6DCDCD814C39
:102280000C0C181413132635ECECC32F5F5FBEE162
:10229000979735A2444488CC17172E39C4C4935756
:1022A000A7A755F27E7EFC823D3D7A476464C8ACA8
:1022B0005D5DBAE71919322B7373E6956060C0A0B3
:1022C000818119984F4F9ED1DCDCA37F2222446686
:1022D0002A2A547E90903BAB88880B8346468CCA52
:1022E000EEEEC729B8B86BD31414283CDEDEA7790C
:1022F0005E5EBCE20B0B161DDBDBAD76E0E0DB3B8C
:10230000323264563A3A744E0A0A141E494992DB34
:1023100006060C0A2424486C5C5CB8E4C2C29F5DCB
:10232000D3D3BD6EACAC43EF6262C4A6919139A821
:10233000959531A4E4E4D3377979F28BE7E7D53288
:10234000C8C88B4337376E596D6DDAB78D8D018CE8
:10235000D5D5B1644E4E9CD2A9A949E06C6CD8B4D5
:102360005656ACFAF4F4F307EAEACF256565CAAF2E
:102370007A7AF48EAEAE47E908081018BABA6FD56B
:102380007878F08825254A6F2E2E5C721C1C382424
:10239000A6A657F1B4B473C7C6C69751E8E8CB23D5
:1023A000DDDDA17C7474E89C1F1F3E214B4B96DD44
:1023B000BDBD61DC8B8B0D868A8A0F857070E090C5
:1023C0003E3E7C42B5B571C46666CCAA484890D8FA
:1023D00003030605F6F6F7010E0E1C126161C2A397
:1023E00035356A5F5757AEF9B9B969D08686179106
:1023F000C1C199581D1D3A279E9E27B9E1E1D938E0
:10240000F8F8EB1398982BB3111122336969D2BBFA
:10241000D9D9A9708E8E0789949433A79B9B2DB62A
:102420001E1E3C2287871592E9E9C920CECE874936
:102430005555AAFF28285078DFDFA57A8C8C038FAA
:10244000A1A159F8898909800D0D1A17BFBF65DA56
:10245000E6E6D731424284C66868D0B8414182C3BB
:10246000999929B02D2D5A770F0F1E11B0B07BCB43
:102470005454A8FCBBBB6DD616162C3A63C6A56394
:102480007CF8847C77EE99777BF68D7BF2FF0DF2FA
:102490006BD6BD6B6FDEB16FC59154C530605030E7
:1024A0000102030167CEA9672B567D2BFEE719FEBB
:1024B000D7B562D7AB4DE6AB76EC9A76CA8F45CAF4
:1024C000821F9D82C98940C97DFA877DFAEF15FA7E
:1024D00059B2EB59478EC947F0FB0BF0AD41ECAD5B
:1024E000D4B367D4A25FFDA2AF45EAAF9C23BF9CE3
:1024F000A453F7A472E49672C09B5BC0B775C2B7D1
:10250000FDE11CFD933DAE93264C6A26366C5A368F
:102510003F7E413FF7F502F7CC834FCC34685C3403
:10252000A551F4A5E5D134E5F1F908F171E2937113
:10253000D8AB73D831625331152A3F1504080C0407
:10254000C79552C723466523C39D5EC3183028181C
:102550009637A196050A0F059A2FB59A070E090717
:1025600012243612801B9B80E2DF3DE2EBCD26EB8E
:10257000274E6927B27FCDB275EA9F7509121B09F4
:10258000831D9E832C58742C1A342E1A1B362D1B37
:102590006EDCB26E5AB4EE5AA05BFBA052A4F652A7
:1025A0003B764D3BD6B761D6B37DCEB329527B295E
:1025B000E3DD3EE32F5E712F8413978453A6F5531A
:1025C000D1B968D100000000EDC12CED20406020A1
:1025D000FCE31FFCB179C8B15BB6ED5B6AD4BE6A9F
:1025E000CB8D46CBBE67D9BE39724B394A94DE4A91
:1025F0004C98D44C58B0E858CF854ACFD0BB6BD05C
:10260000EFC52AEFAA4FE5AAFBED16FB4386C543AB
:102610004D9AD74D3366553385119485458ACF45FC
:10262000F9E910F9020406027FFE817F50A0F05004
:102630003C78443C9F25BA9FA84BE3A851A2F35194
:10264000A35DFEA34080C0408F058A8F923FAD926C
:102650009D21BC9D38704838F5F104F5BC63DFBCA2
:10266000B677C1B6DAAF75DA214263211020301097
:10267000FFE51AFFF3FD0EF3D2BF6DD2CD814CCD35
:102680000C18140C13263513ECC32FEC5FBEE15F5E
:102690009735A2974488CC44172E3917C49357C452
:1026A000A755F2A77EFC827E3D7A473D64C8AC64A4
:1026B0005DBAE75D19322B1973E6957360C0A060AF
:1026C000811998814F9ED14FDCA37FDC2244662282
:1026D0002A547E2A903BAB90880B8388468CCA464E
:1026E000EEC729EEB86BD3B814283C14DEA779DE08
:1026F0005EBCE25E0B161D0BDBAD76DBE0DB3BE088
:10270000326456323A744E3A0A141E0A4992DB4930
:10271000060C0A0624486C245CB8E45CC29F5DC2C7
:10272000D3BD6ED3AC43EFAC62C4A6629139A8911D
:102730009531A495E4D337E479F28B79E7D532E784
:10274000C88B43C8376E59376DDAB76D8D018C8DE4
:10275000D5B164D54E9CD24EA949E0A96CD8B46CD1
:1027600056ACFA56F4F307F4EACF25EA65CAAF652A
:102770007AF48E7AAE47E9AE08101808BA6FD5BA67
:1027800078F08878254A6F252E5C722E1C38241C20
:10279000A657F1A6B473C7B4C69751C6E8CB23E8D1
:1027A000DDA17CDD74E89C741F3E211F4B96DD4B40
:1027B000BD61DCBD8B0D868B8A0F858A70E09070C1
:1027C0003E7C423EB571C4B566CCAA664890D848F6
:1027D00003060503F6F701F60E1C120E61C2A36193
:1027E000356A5F3557AEF957B969D0B98617918602
:1027F000C19958C11D3A271D9E27B99EE1D938E1DC
:10280000F8EB13F8982BB3981122331169D2BB69F6
:10281000D9A970D98E07898E9433A7949B2DB69B26
:102820001E3C221E87159287E9C920E9CE8749CE32
:1028300055AAFF5528507828DFA57ADF8C038F8CA6
:10284000A159F8A1890980890D1A170DBF65DABF52
:10285000E6D731E64284C64268D0B8684182C341B7
:102860009929B0992D5A772D0F1E110FB07BCBB03F
:1028700054A8FC54BB6DD6BB162C3A16C6A5636390
:10288000F8847C7CEE997777F68D7B7BFF0DF2F2F6
:10289000D6BD6B6BDEB16F6F9154C5C560503030E3
:1028A00002030101CEA96767567D2B2BE719FEFEB7
:1028B000B562D7D74DE6ABABEC9A76768F45CACAF0
:1028C0001F9D82828940C9C9FA877D7DEF15FAFA7A
:1028D000B2EB59598EC94747FB0BF0F041ECADAD57
:1028E000B367D4D45FFDA2A245EAAFAF23BF9C9CDF
:1028F00053F7A4A4E49672729B5BC0C075C2B7B7CD
:10290000E11CFDFD3DAE93934C6A26266C5A36368B
:102910007E413F3FF502F7F7834FCCCC685C3434FF
:1029200051F4A5A5D134E5E5F908F1F1E29371710F
:10293000AB73D8D8625331312A3F1515080C040403
:102940009552C7C7466523239D5EC3C33028181818
:1029500037A196960A0F05052FB59A9A0E09070713
:10296000243612121B9B8080DF3DE2E2CD26EBEB8A
:102970004E6927277FCDB2B2EA9F7575121B0909F0
:102980001D9E838358742C2C342E1A1A362D1B1B33
:10299000DCB26E6EB4EE5A5A5BFBA0A0A4F65252A3
:1029A000764D3B3BB761D6D67DCEB3B3527B29295A
:1029B000DD3EE3E35E712F2F13978484A6F5535316
:1029C000B968D1D100000000C12CEDED406020209D
:1029D000E31FFCFC79C8B1B1B6ED5B5BD4BE6A6A9B
:1029E0008D46CBCB67D9BEBE724B393994DE4A4A8D
:1029F00098D44C4CB0E85858854ACFCFBB6BD0D058
:102A0000C52AEFEF4FE5AAAAED16FBFB86C54343A7
:102A10009AD74D4D66553333119485858ACF4545F8
:102A2000E910F9F904060202FE817F7FA0F0505000
:102A300078443C3C25BA9F9F4BE3A8A8A2F3515190
:102A40005DFEA3A380C04040058A8F8F3FAD929268
:102A500021BC9D9D70483838F104F5F563DFBCBC9E
:102A600077C1B6B6AF75DADA426321212030101093
:102A7000E51AFFFFFD0EF3F3BF6DD2D2814CCDCD31
:102A800018140C0C26351313C32FECECBEE15F5F5A
:102A900035A2979788CC44442E3917179357C4C44E
:102AA00055F2A7A7FC827E7E7A473D3DC8AC6464A0
:102AB000BAE75D5D322B1919E6957373C0A06060AB
:102AC000199881819ED14F4FA37FDCDC446622227E
:102AD000547E2A2A3BAB90900B8388888CCA46464A
:102AE000C729EEEE6BD3B8B8283C1414A779DEDE04
:102AF000BCE25E5E161D0B0BAD76DBDBDB3BE0E084
:102B000064563232744E3A3A141E0A0A92DB49492C
:102B10000C0A0606486C2424B8E45C5C9F5DC2C2C3
:102B2000BD6ED3D343EFACACC4A6626239A8919119
:102B300031A49595D337E4E4F28B7979D532E7E780
:102B40008B43C8C86E593737DAB76D6D018C8D8DE0
:102B5000B164D5D59CD24E4E49E0A9A9D8B46C6CCD
:102B6000ACFA5656F307F4F4CF25EAEACAAF656526
:102B7000F48E7A7A47E9AEAE101808086FD5BABA63
:102B8000F08878784A6F25255C722E2E38241C1C1C
:102B900057F1A6A673C7B4B49751C6C6CB23E8E8CD
:102BA000A17CDDDDE89C74743E211F1F96DD4B4B3C
:102BB00061DCBDBD0D868B8B0F858A8AE0907070BD
:102BC0007C423E3E71C4B5B5CCAA666690D84848F2
:102BD00006050303F701F6F61C120E0EC2A361618F
:102BE0006A5F3535AEF9575769D0B9B917918686FE
:102BF0009958C1C13A271D1D27B99E9ED938E1E1D8
:102C0000EB13F8F82BB3989822331111D2BB6969F2
:102C1000A970D9D907898E8E33A794942DB69B9B22
:102C20003C221E1E15928787C920E9E98749CECE2E
:102C3000AAFF555550782828A57ADFDF038F8C8CA2
:102C400059F8A1A1098089891A170D0D65DABFBF4E
:102C5000D731E6E684C64242D0B8686882C34141B3
:102C600029B099995A772D2D1E110F0F7BCBB0B03B
:102C7000A8FC54546DD6BBBB2C3A161650A7F45181
:102C80005365417EC3A4171A965E273ACB6BAB3BC4
:102C9000F1459D1FAB58FAAC9303E34B55FA302036
:102CA000F66D76AD9176CC88254C02F5FCD7E54FD4
:102CB000D7CB2AC5804435268FA362B5495AB1DEE9
:102CC000671BBA25980EEA45E1C0FE5D02752FC369
:102CD00012F04C81A397468DC6F9D36BE75F8F0343
:102CE000959C9215EB7A6DBFDA5952952D83BED41F
:102CF000D32174582969E04944C8C98E6A89C275CC
:102D000078798EF46B3E5899DD71B927B64FE1BEE4
:102D100017AD88F066AC20C9B43ACE7D184ADF639F
:102D200082311AE560335197457F5362E07764B191
:102D300084AE6BBB1CA081FE942B08F958684870C8
:102D400019FD458F876CDE94B7F87B5223D373ABA4
:102D5000E2024B72578F1FE32AAB55660728EBB28E
:102D600003C2B52F9A7BC586A50837D3F2872830D2
:102D7000B2A5BF23BA6A03025C8216ED2B1CCF8A70
:102D800092B479A7F0F207F3A1E2694ECDF4DA65C7
:102D9000D5BE05061F6234D18AFEA6C49D532E34CB
:102DA000A055F3A232E18A0575EBF6A439EC830B4A
:102DB000AAEF6040069F715E51106EBDF98A213EF8
:102DC0003D06DD96AE053EDD46BDE64DB58D549122
:102DD000055DC4716FD40604FF15506024FB98197B
:102DE00097E9BDD6CC434089779ED967BD42E8B00C
:102DF000888B8907385B19E7DBEEC879470A7CA125
:102E0000E90F427CC91E84F8000000008386800917
:102E100048ED2B32AC70111E4E725A6CFBFF0EFD4A
:102E20005638850F1ED5AE3D27392D3664D90F0A89
:102E300021A65C68D1545B9B3A2E3624B1670A0CFC
:102E40000FE75793D296EEB49E919B1B4FC5C0805F
:102E5000A220DC61694B775A161A121C0ABA93E257
:102E6000E52AA0C043E0223C1D171B120B0D090EE2
:102E7000ADC78BF2B9A8B62DC8A91E148519F15794
:102E80004C0775AFBBDD99EEFD607FA39F2601F770
:102E9000BCF5725CC53B6644347EFB5B7629438B94
:102EA000DCC623CB68FCEDB663F1E4B8CADC31D7ED
:102EB00010856342402297132011C6847D244A85E1
:102EC000F83DBBD21132F9AE6DA129C74B2F9E1D23
:102ED000F330B2DCEC52860DD0E3C1776C16B32B25
:102EE00099B970A9FA4894112264E947C48CFCA8E6
:102EF0001A3FF0A0D82C7D56EF903322C74E498759
:102F0000C1D138D9FEA2CA8C360BD498CF81F5A690
:102F100028DE7AA5268EB7DAA4BFAD3FE49D3A2C11
:102F20000D9278509BCC5F6A62467E54C2138DF638
:102F3000E8B8D8905EF7392EF5AFC382BE805D9FAA
:102F40007C93D069A92DD56FB31225CF3B99ACC81E
:102F5000A77D18106E639CE87BBB3BDB097826CD10
:102F6000F418596E01B79AECA89A4F83656E95E6EE
:102F70007EE6FFAA08CFBC21E6E815EFD99BE7BAA9
:102F8000CE366F4AD4099FEAD67CB029AFB2A431BD
:102F900031233F2A3094A5C6C066A23537BC4E7493
:102FA000A6CA82FCB0D090E015D8A7334A9804F1A5
:102FB000F7DAEC410E50CD7F2FF691178DD64D7676
:102FC0004DB0EF43544DAACCDF0496E4E3B5D19E57
:102FD0001B886A4CB81F2CC17F51654604EA5E9D70
:102FE0005D358C01737487FA2E410BFB5A1D67B354
:102FF00052D2DB92335610E91347D66D8C61D79AC3
:103000007A0CA1378E14F859893C13EBEE27A9CE20
:1030100035C961B7EDE51CE13CB1477A59DFD29C77
:103020003F73F25579CE1418BF37C773EACDF75303
:103030005BAAFD5F146F3DDF86DB447881F3AFCA86
:103040003EC468B92C3424385F40A3C272C31D1635
:103050000C25E2BC8B493C2841950DFF7101A83934
:10306000DEB30C089CE4B4D890C156646184CB7B79
:1030700070B632D5745C6C484257B8D0A7F4515042
:1030800065417E53A4171AC35E273A966BAB3BCBC0
:10309000459D1FF158FAACAB03E34B93FA30205532
:1030A0006D76ADF676CC88914C02F525D7E54FFCD0
:1030B000CB2AC5D744352680A362B58F5AB1DE49E5
:1030C0001BBA25670EEA4598C0FE5DE1752FC30265
:1030D000F04C811297468DA3F9D36BC65F8F03E73F
:1030E0009C9215957A6DBFEB595295DA83BED42D1B
:1030F000217458D369E04929C8C98E4489C2756AC8
:10310000798EF4783E58996B71B927DD4FE1BEB6E0
:10311000AD88F017AC20C9663ACE7DB44ADF63189B
:10312000311AE582335197607F5362457764B1E08D
:10313000AE6BBB84A081FE1C2B08F99468487058C4
:10314000FD458F196CDE9487F87B52B7D373AB23A0
:10315000024B72E28F1FE357AB55662A28EBB2078A
:10316000C2B52F037BC5869A0837D3A5872830F2CE
:10317000A5BF23B26A0302BA8216ED5C1CCF8A2B6C
:10318000B479A792F207F3F0E2694EA1F4DA65CDC3
:10319000BE0506D56234D11FFEA6C48A532E349DC7
:1031A00055F3A2A0E18A0532EBF6A475EC830B3946
:1031B000EF6040AA9F715E06106EBD518A213EF9F4
:1031C00006DD963D053EDDAEBDE64D468D5491B51E
:1031D0005DC47105D406046F155060FFFB98192477
:1031E000E9BDD697434089CC9ED9677742E8B0BD08
:1031F0008B8907885B19E738EEC879DB0A7CA14721
:103200000F427CE91E84F8C9000000008680098313
:10321000ED2B324870111EAC725A6C4EFF0EFDFB46
:1032200038850F56D5AE3D1E392D3627D90F0A6485
:10323000A65C6821545B9BD12E36243A670A0CB1F8
:10324000E757930F96EEB4D2919B1B9EC5C0804F5B
:1032500020DC61A24B775A691A121C16BA93E20A53
:103260002AA0C0E5E0223C43171B121D0D090E0BDE
:10327000C78BF2ADA8B62DB9A91E14C819F1578590
:103280000775AF4CDD99EEBB607FA3FD2601F79F6C
:10329000F5725CBC3B6644C57EFB5B3429438B7690
:1032A000C623CBDCFCEDB668F1E4B863DC31D7CAE9
:1032B000856342102297134011C68420244A857DDD
:1032C0003DBBD2F832F9AE11A129C76D2F9E1D4B1F
:1032D00030B2DCF352860DECE3C177D016B32B6C21
:1032E000B970A999489411FA64E947228CFCA8C4E2
:1032F0003FF0A01A2C7D56D8903322EF4E4987C755
:10330000D138D9C1A2CA8CFE0BD4983681F5A6CF8C
:10331000DE7AA5288EB7DA26BFAD3FA49D3A2CE40D
:103320009278500DCC5F6A9B467E5462138DF6C234
:10333000B8D890E8F7392E5EAFC382F5805D9FBEA6
:1033400093D0697C2DD56FA91225CFB399ACC83B1A
:103350007D1810A7639CE86EBB3BDB7B7826CD090C
:1033600018596EF4B79AEC019A4F83A86E95E665EA
:10337000E6FFAA7ECFBC2108E815EFE69BE7BAD9A5
:10338000366F4ACE099FEAD47CB029D6B2A431AFB9
:10339000233F2A3194A5C63066A235C0BC4E74378F
:1033A000CA82FCA6D090E0B0D8A733159804F14AA1
:1033B000DAEC41F750CD7F0EF691172FD64D768D72
:1033C000B0EF434D4DAACC540496E4DFB5D19EE353
:1033D000886A4C1B1F2CC1B85165467FEA5E9D046C
:1033E000358C015D7487FA73410BFB2E1D67B35A50
:1033F000D2DB92525610E93347D66D1361D79A8CBF
:103400000CA1377A14F8598E3C13EB8927A9CEEE1C
:10341000C961B735E51CE1EDB1477A3CDFD29C5973
:1034200073F2553FCE14187937C773BFCDF753EAFF
:10343000AAFD5F5B6F3DDF14DB447886F3AFCA8182
:10344000C468B93E3424382C40A3C25FC31D167231
:1034500025E2BC0C493C288B950DFF4101A8397130
:10346000B30C08DEE4B4D89CC156649084CB7B6175
:10347000B632D5705C6C487457B8D042F45150A73E
:10348000417E5365171AC3A4273A965EAB3BCB6BBC
:103490009D1FF145FAACAB58E34B9303302055FA2E
:1034A00076ADF66DCC88917602F5254CE54FFCD7CC
:1034B0002AC5D7CB3526804462B58FA3B1DE495AE1
:1034C000BA25671BEA45980EFE5DE1C02FC3027561
:1034D0004C8112F0468DA397D36BC6F98F03E75F3B
:1034E0009215959C6DBFEB7A5295DA59BED42D8317
:1034F0007458D321E0492969C98E44C8C2756A89C4
:103500008EF4787958996B3EB927DD71E1BEB64FDC
:1035100088F017AD20C966ACCE7DB43ADF63184A97
:103520001AE58231519760335362457F64B1E07789
:103530006BBB84AE81FE1CA008F9942B48705868C0
:10354000458F19FDDE94876C7B52B7F873AB23D39C
:103550004B72E2021FE3578F55662AABEBB2072886
:10356000B52F03C2C5869A7B37D3A5082830F287CA
:10357000BF23B2A50302BA6A16ED5C82CF8A2B1C68
:1035800079A792B407F3F0F2694EA1E2DA65CDF4BF
:103590000506D5BE34D11F62A6C48AFE2E349D53C3
:1035A000F3A2A0558A0532E1F6A475EB830B39EC42
:1035B0006040AAEF715E069F6EBD5110213EF98AF0
:1035C000DD963D063EDDAE05E64D46BD5491B58D1A
:1035D000C471055D06046FD45060FF15981924FB73
:1035E000BDD697E94089CC43D967779EE8B0BD4204
:1035F0008907888B19E7385BC879DBEE7CA1470A1D
:10360000427CE90F84F8C91E00000000800983860F
:103610002B3248ED111EAC705A6C4E720EFDFBFF42
:10362000850F5638AE3D1ED52D3627390F0A64D981
:103630005C6821A65B9BD15436243A2E0A0CB167F4
:1036400057930FE7EEB4D2969B1B9E91C0804FC557
:10365000DC61A220775A694B121C161A93E20ABA4F
:10366000A0C0E52A223C43E01B121D17090E0B0DDA
:103670008BF2ADC7B62DB9A81E14C8A9F15785198C
:1036800075AF4C0799EEBBDD7FA3FD6001F79F2668
:10369000725CBCF56644C53BFB5B347E438B76298C
:1036A00023CBDCC6EDB668FCE4B863F131D7CADCE5
:1036B0006342108597134022C68420114A857D24D9
:1036C000BBD2F83DF9AE113229C76DA19E1D4B2F1B
:1036D000B2DCF330860DEC52C177D0E3B32B6C161D
:1036E00070A999B99411FA48E9472264FCA8C48CDE
:1036F000F0A01A3F7D56D82C3322EF904987C74E51
:1037000038D9C1D1CA8CFEA2D498360BF5A6CF8188
:103710007AA528DEB7DA268EAD3FA4BF3A2CE49D09
:1037200078500D925F6A9BCC7E5462468DF6C21330
:10373000D890E8B8392E5EF7C382F5AF5D9FBE80A2
:10374000D0697C93D56FA92D25CFB312ACC83B9916
:103750001810A77D9CE86E633BDB7BBB26CD097808
:10376000596EF4189AEC01B74F83A89A95E6656EE6
:10377000FFAA7EE6BC2108CF15EFE6E8E7BAD99BA1
:103780006F4ACE369FEAD409B029D67CA431AFB2B5
:103790003F2A3123A5C63094A235C0664E7437BC8B
:1037A00082FCA6CA90E0B0D0A73315D804F14A989D
:1037B000EC41F7DACD7F0E5091172FF64D768DD66E
:1037C000EF434DB0AACC544D96E4DF04D19EE3B54F
:1037D0006A4C1B882CC1B81F65467F515E9D04EA68
:1037E0008C015D3587FA73740BFB2E4167B35A1D4C
:1037F000DB9252D210E93356D66D1347D79A8C61BB
:10380000A1377A0CF8598E1413EB893CA9CEEE2718
:1038100061B735C91CE1EDE5477A3CB1D29C59DF6F
:10382000F2553F73141879CEC773BF37F753EACDFB
:10383000FD5F5BAA3DDF146F447886DBAFCA81F37E
:1038400068B93EC424382C34A3C25F401D1672C32D
:10385000E2BC0C253C288B490DFF4195A83971012C
:103860000C08DEB3B4D89CE4566490C1CB7B618471
:1038700032D570B66C48745CB8D042575150A7F43A
:103880007E5365411AC3A4173A965E273BCB6BABB8
:103890001FF1459DACAB58FA4B9303E32055FA302A
:1038A000ADF66D76889176CCF5254C024FFCD7E5C8
:1038B000C5D7CB2A26804435B58FA362DE495AB1DD
:1038C00025671BBA45980EEA5DE1C0FEC302752F5D
:1038D0008112F04C8DA397466BC6F9D303E75F8F37
:1038E00015959C92BFEB7A6D95DA5952D42D83BE13
:1038F00058D32174492969E08E44C8C9756A89C2C0
:10390000F478798E996B3E5827DD71B9BEB64FE1D8
:10391000F017AD88C966AC207DB43ACE63184ADF93
:10392000E582311A9760335162457F53B1E0776485
:10393000BB84AE6BFE1CA081F9942B0870586848BC
:103940008F19FD4594876CDE52B7F87BAB23D37398
:1039500072E2024BE3578F1F662AAB55B20728EB82
:103960002F03C2B5869A7BC5D3A5083730F28728C6
:1039700023B2A5BF02BA6A03ED5C82168A2B1CCF64
:10398000A792B479F3F0F2074EA1E26965CDF4DABB
:1039900006D5BE05D11F6234C48AFEA6349D532EBF
:1039A000A2A055F30532E18AA475EBF60B39EC833E
:1039B00040AAEF605E069F71BD51106E3EF98A21EC
:1039C000963D06DDDDAE053E4D46BDE691B58D5416
:1039D00071055DC4046FD40660FF15501924FB986F
:1039E000D697E9BD89CC434067779ED9B0BD42E800
:1039F00007888B89E7385B1979DBEEC8A1470A7C19
:103A00007CE90F42F8C91E8400000000098386800B
:103A10003248ED2B1EAC70116C4E725AFDFBFF0E3E
:103A20000F5638853D1ED5AE3627392D0A64D90F7D
:103A30006821A65C9BD1545B243A2E360CB1670AF0
:103A4000930FE757B4D296EE1B9E919B804FC5C053
:103A500061A220DC5A694B771C161A12E20ABA934B
:103A6000C0E52AA03C43E022121D171B0E0B0D09D6
:103A7000F2ADC78B2DB9A8B614C8A91E578519F188
:103A8000AF4C0775EEBBDD99A3FD607FF79F260164
:103A90005CBCF57244C53B665B347EFB8B76294388
:103AA000CBDCC623B668FCEDB863F1E4D7CADC31E1
:103AB0004210856313402297842011C6857D244AD5
:103AC000D2F83DBBAE1132F9C76DA1291D4B2F9E17
:103AD000DCF330B20DEC528677D0E3C12B6C16B319
:103AE000A999B97011FA4894472264E9A8C48CFCDA
:103AF000A01A3FF056D82C7D22EF903387C74E494D
:103B0000D9C1D1388CFEA2CA98360BD4A6CF81F584
:103B1000A528DE7ADA268EB73FA4BFAD2CE49D3A05
:103B2000500D92786A9BCC5F5462467EF6C2138D2C
:103B300090E8B8D82E5EF73982F5AFC39FBE805D9E
:103B4000697C93D06FA92DD5CFB31225C83B99AC12
:103B500010A77D18E86E639CDB7BBB3BCD09782604
:103B60006EF41859EC01B79A83A89A4FE6656E95E2
:103B7000AA7EE6FF2108CFBCEFE6E815BAD99BE79D
:103B80004ACE366FEAD4099F29D67CB031AFB2A4B1
:103B90002A31233FC63094A535C066A27437BC4E87
:103BA000FCA6CA82E0B0D0903315D8A7F14A980499
:103BB00041F7DAEC7F0E50CD172FF691768DD64D6A
:103BC000434DB0EFCC544DAAE4DF04969EE3B5D14B
:103BD0004C1B886AC1B81F2C467F51659D04EA5E64
:103BE000015D358CFA737487FB2E410BB35A1D6748
:103BF0009252D2DBE93356106D1347D69A8C61D7B7
:103C0000377A0CA1598E14F8EB893C13CEEE27A914
:103C1000B735C961E1EDE51C7A3CB1479C59DFD26B
:103C2000553F73F21879CE1473BF37C753EACDF7F7
:103C30005F5BAAFDDF146F3D7886DB44CA81F3AF7A
:103C4000B93EC468382C3424C25F40A31672C31D29
:103C5000BC0C25E2288B493CFF41950D397101A828
:103C600008DEB30CD89CE4B46490C1567B6184CB6D
:103C7000D570B63248745C6CD04257B852096AD5D8
:103C80003036A538BF40A39E81F3D7FB7CE3398251
:103C90009B2FFF87348E4344C4DEE9CB547B9432A0
:103CA000A6C2233DEE4C950B42FAC34E082EA166E8
:103CB00028D924B2765BA2496D8BD12572F8F664BF
:103CC00086689816D4A45CCC5D65B6926C7048503A
:103CD000FDEDB9DA5E154657A78D9D8490D8AB00EF
:103CE0008CBCD30AF7E45805B8B34506D02C1E8F18
:103CF000CA3F0F02C1AFBD0301138A6B3A91114154
:103D00004F67DCEA97F2CFCEF0B4E67396AC74223C
:103D1000E7AD3585E2F937E81C75DF6E47F11A71BA
:103D20001D29C5896FB7620EAA18BE1BFC563E4BF3
:103D3000C6D279209ADBC0FE78CD5AF41FDDA833B5
:103D40008807C731B11210592780EC5F60517FA9F5
:103D500019B54A0D2DE57A9F93C99CEFA0E03B4D24
:103D6000AE2AF5B0C8EBBB3C83539961172B047E98
:103D7000BA77D626E169146355210C7D0000000155
:103D80000000000200000004000000080000001015
:103D90000000002000000040000000800000001B28
:103DA00000000036000000000000000000000000DD
:103DB0000000000000000000000000000000000003
:103DC00000000000000000000000000000000000F3
:103DD00000000000000000000000000000000000E3
:103DE00000000000000000000000000000000000D3
:103DF00000000000000000000000000000000000C3
:103E000000000000F8B5C046F8BC08BC9E467047EC
:103E1000DD000000F8B5C046F8BC08BC9E467047FF
:043E2000B5000000E9
:103E2400000102030405060708090A0B0C0D0E0F16
:103E3400000102030405060708090A0B0C0D0E0F06
:103E44002400002000000000C43D0000E43D000008
:103E5400A43D00000000000000000000000000007D
:103E6400000000000000000000000000000000004E
:103E7400000000000000000000000000000000003E
:103E8400000000000000000000000000000000002E
:103E9400000000000000000000000000000000001E
:043EA400000000001A
:00000001FF
