:1000000098060020FD020000F9020000F90200003D
:1000100000000000000000000000000000000000E0
:10002000000000000000000000000000F9020000D5
:100030000000000000000000F9020000F9020000CA
:10004000F9020000F9020000F9020000F9020000C4
:10005000F9020000F9020000F9020000F9020000B4
:10006000F9020000F9020000F9020000F9020000A4
:10007000F9020000F9020000F9020000F902000094
:10008000F9020000F9020000F9020000F902000084
:10009000F9020000F9020000F9020000F902000074
:1000A000F9020000F9020000F9020000F902000064
:1000B000F9020000F9020000F9020000F902000054
:1000C000F9020000F9020000F9020000F902000044
:1000D000F9020000F9020000F9020000F902000034
:1000E000F9020000F9020000F9020000F902000024
:1000F000F9020000FF2303409B0041F6004CC4F2CC
:10010000000C634480229A580120520604D44022F5
:100110001143403299500020010002000300844640
:100120008EF300887447F0B5CE46474680B587B059
:10013000029003910492059342F60023C4F2000357
:10014000986899691A6BDC69A4461F6C029E464048
:100150003E404640049B01931D004D403D404D40B4
:10016000059C54403C405440A146002100230120FE
:1001700040F20F0802E00133082B08D002009A4039
:100180001742F8D09A00444694402143F3E7604672
:10019000039B584008406346584042F60023C4F28F
:1001A00000031A7802218A431A7042F60022C4F230
:1001B0000002013153681942FCD142F60022C4F218
:1001C0000002022153681942FCD142F60023C4F216
:1001D00000039E609D614A461A63D8611A78022125
:1001E0000A431A7042F60022C4F200020131536839
:1001F0001942FCD1002007B0010002000300844630
:100200000CBC90469946F0BC02BC864681F300883F
:100210000C4710B540F24753C0F200039847002046
:10022000010002000300844610BC01BC864680F336
:100230000088044710B540F27F53C0F2000398478E
:100240000020010002000300844610BC01BC864669
:1002500080F300880447000010B540F26404C2F245
:100260000004237863B940F20003C0F200032BB10D
:1002700044F22000C0F2800000E000BF01232370A0
:1002800010BDC04640F20003C0F2000310B54BB1F0
:1002900040F2680144F22000C2F20001C0F2800086
:1002A00000E000BF44F22000C0F28000036803B900
:1002B00010BD40F20003C0F20003002BF8D09847B5
:1002C000F6E7C04610B540F2C133C0F200039847CC
:1002D00043F20023C4F2000340F60042C0F680025D
:1002E000DA664EF20013CEF20003002240F28021C3
:1002F0005A5004315A5010BDFEE7000010B540F6C8
:100300004812C0F2000240F20003C2F200039A4217
:1003100020D01A0040F26403C2F200039A4219D2BC
:1003200040F26403C2F200030333244A9B1A9B0881
:1003300001339B00002240F20001C2F2000151187B
:1003400040F64810C0F2000010180068086004323F
:100350009A42F0D140F26402C2F2000240F29403E9
:10036000C2F200039A4213D240F26402C2F20002C7
:10037000D34340F29401C2F200018C46634403214E
:100380008B43043394466344002102C29342FCD160
:1003900040F20003C0F200037F2293434EF6005266
:1003A000CEF20002936040F29963C0F200039847D6
:1003B00040F22D53C0F200039847FEE704000020EE
:1003C00010B540F20143C0F20003984710BD02008F
:1003D00040F28003C2F200031B683BB140F280038D
:1003E000C2F20003186882181A60704740F2800356
:1003F000C2F2000340F29861C2F200011960EDE719
:1004000010B545F20003C4F200135A685A60002088
:1004100040F2CF43C0F20003984740F28743C0F256
:100420000003984740F29F43C0F20003984740F210
:100430007943C0F20003984740F2CD43C0F2000375
:1004400098471F2040F25143C0F20003984710BD67
:10045000C30710D541F60043C4F2000340F2051271
:10046000C0F201021A6241F60042C4F200027D218C
:1004700053681942FCD1704740F60003C4F20003F0
:1004800001221A71704741F20043C4F20003DA6995
:1004900041F600710A40DA6100221A74704741F295
:1004A0000003C4F2000302221A7641F20002C4F2F1
:1004B0000002102113691942FCD041F20003C4F27A
:1004C00000031A7E80210A431A767047704740F273
:1004D0000043C4F200039B7803221340984212D0D9
:1004E00040F20042C4F20002FF239371937803218B
:1004F0008B4308401843907040F20042C4F200025F
:100500009379002BFCD0704710B548F200031B68AC
:1005100083F3888848F204031C68640864002000A0
:1005200021002200230000F09DF810BD10B540F21C
:10053000C523C0F20003984740F20953C0F20003FC
:100540009847002010BD70B50C00122240F2B55340
:10055000C0F2000398470500200040F2E963C0F2B2
:100560000003984740F28403C2F20003186022009F
:10057000290040F21173C0F20003984770BD70B5B6
:100580000D00122240F2B553C0F20003984740F22A
:100590008403C2F200031C682A00210040F2117398
:1005A000C0F200039847200040F2FD63C0F2000350
:1005B000984770BDC34310B58B421BD31F23140053
:1005C0009C432300B4B9013941180C001433444052
:1005D0001340042B3AD00CDD102B2ED0142B09D154
:1005E00040E8C0F31F2C11D941E8C0F11C000B00FA
:1005F0000AE00BB1002010BD40E800F31F2C05D924
:1006000041E800F11C000B009C42F3D114218A4305
:100610000B2AEFD8124992008A589746DB02EAD497
:10062000E8E75B03E7D4E5E79B02E4D4E2E75B029B
:10063000E1D5DFE71B03DED4DCE740E880F31F2CC5
:10064000E4D941E880F11C000B00DDE740E840F30D
:100650001F2CDBD941E840F11C000B00D4E7C04659
:1006600098080000E0B545464E465746E0B45D4662
:1006700020B4254626462746A046A146A246A346C4
:10068000A44684F30088A44720BCAB46E0BCBA462D
:10069000B146A846E0BD000070B500250E4B0F4CDA
:1006A000E41AA410A54209D1002500F03DF90C4C34
:1006B0000C4BE41AA410A54207D170BD064AAB004A
:1006C0009B181B6898470135ECE7064AAB009B185E
:1006D0001B6898470135EEE7340900003409000033
:1006E000380900003409000010B5034B01001868F8
:1006F00000F062F810BDC0460000002010B5034BAA
:100700000100186800F00EF810BDC046000000207F
:10071000002310B59A4200D110BDCC5CC454013303
:10072000F8E7000070B5050081B10C1F2368002BAD
:1007300000DAE418280000F0ADF81E4A1368110032
:100740002BB963601460280000F0A5F870BDA342C7
:100750000BD92268A018834203D118685B688218FD
:10076000226063600C60EEE713005A680AB1A2428F
:10077000FAD919685818A0420BD1206809185818DE
:1007800019608242DFD110685268411819605A60BE
:10079000D9E7A04202D90C232B60D4E72168601866
:1007A000824203D1106852684118216062605C6027
:1007B000C9E7C04688000020032370B5CD1C9D43C7
:1007C000083506000C2D1CD20C25A9421BD8300080
:1007D00000F060F8254A14682100C1B9244C236850
:1007E0001BB9300000F046F820602900300000F00E
:1007F00041F8431C2DD10C233000336000F04BF83E
:1008000003E0002DE1DA0C233360002070BD0B689B
:100810005B1B1BD40B2B03D90B60CC18256003E0AA
:100820008C420FD163681360300000F034F8200070
:1008300007220B30231D9043C31A002BE6D05A42E7
:10084000E250E3E74B6863600C00EDE70C00496899
:10085000C3E70323C41C9C43A042DFD0211A30000D
:1008600000F008F8431CD9D1C5E7C0468800002035
:100870008C000020002370B5054C050008002360A3
:10088000FFF7A5FD431C02D1236803B12B6070BDA7
:100890009000002070477047F40500003406000007
:1008A0002E06000028060000F4050000F4050000F4
:1008B000F4050000F40500002206000034060000E4
:1008C0001C060000280600000000000000000000D8
:1008D0000000000000000000000000000000000018
:1008E0000000000000000000000000000000000008
:1008F00000000000000000000000000000000000F8
:1009000000000000000000000000000000000000E7
:1009100000000000000000000000000000000000D7
:100920000000000000000000F8B5C046F8BC08BC9C
:100930009E46704785020000F8B5C046F8BC08BC6A
:080940009E46704759020000B9
:100948000400002000000000E8080000080900007A
:10095800C8080000000000000000000000000000BF
:10096800000000000000000000000000000000007F
:10097800000000000000000000000000000000006F
:10098800000000000000000000000000000000005F
:10099800000000000000000000000000000000004F
:0409A800000000004B
:107C00007FE97FE9F8F716BB7FE97FE9F8F78BBAE0
:107C10007FE97FE9F8F76EBA7FE97FE9F8F7F9BA0B
:0200000400807A
:104000003F438FB0BB180000802008400100000033
:1040100000000000000000000000000000000000A0
:00000001FF
