:100000009806002099010000970100009701000068
:1000100000000000000000000000000000000000E0
:100020000000000000000000000000009701000038
:100030000000000000000000970100009701000090
:100040009701000097010000970100009701000050
:100050009701000097010000970100009701000040
:100060009701000097010000970100009701000030
:100070009701000097010000970100009701000020
:100080009701000097010000970100009701000010
:100090009701000097010000970100009701000000
:1000A00097010000970100009701000097010000F0
:1000B00097010000970100009701000097010000E0
:1000C00097010000970100009701000097010000D0
:1000D00097010000970100009701000097010000C0
:1000E00097010000970100009701000097010000B0
:1000F0009701000010B540F26404C2F200042378B6
:1001000063B940F20003C0F200032BB144F22000B7
:10011000C0F2800000E000BF0123237010BDC04684
:1001200040F20003C0F2000310B54BB140F2680189
:1001300044F22000C2F20001C0F2800000E000BFE3
:1001400044F22000C0F28000036803B910BD40F201
:100150000003C0F20003002BF8D09847F6E7C04632
:1001600010B540F27723C0F20003984743F2002312
:10017000C4F200030022DA664EF20013CEF200034E
:1001800040F280215A5004315A5040F29923C0F273
:100190000003984710BDFEE710B540F65822C0F2A4
:1001A000000240F20003C2F200039A4220D01A007B
:1001B00040F26403C2F200039A4219D240F264038F
:1001C000C2F200030333244A9B1A9B0801339B00AD
:1001D000002240F20001C2F20001511840F65820FE
:1001E000C0F2000010180068086004329A42F0D192
:1001F00040F26402C2F2000240F29403C2F2000331
:100200009A4213D240F26402C2F20002D34340F297
:100210009401C2F200018C46634403218B430433F2
:1002200094466344002102C29342FCD140F2000391
:10023000C0F200037F2293434EF60052CEF200023A
:10024000936040F68503C0F20003984740F66B03C5
:10025000C0F200039847FEE70400002040F60003C8
:10026000C4F200031A6980210A431A619A697C3931
:100270000A439A61704710B540F2A333C0F20003FD
:10028000984740F25D23C0F20003984740F22943AB
:10029000C0F20003984710BD70B540F20022C6F2CC
:1002A000000240F20043536140F600055561802191
:1002B00009045161802000055061936043F20023DE
:1002C000C4F2000340F20044C4F200049C62C02463
:1002D00024069C629560C4F200059D629C62916058
:1002E0008021C90599628024CCF200049C62906050
:1002F000996240F60002CCF200029A624A20195C30
:100300000122914319540130195C914319540C3066
:10031000195C914319540430195C914319545138B4
:1003200040F22D33C0F20003984770BD10B540F283
:100330008003C2F200031C6840F28533C0F2000360
:1003400098470100200040F29D33C0F20003984717
:1003500010BD020040F28403C2F200031B683BB1EF
:1003600040F28403C2F20003186882181A607047D2
:1003700040F28403C2F2000340F29861C2F200012D
:100380001960EDE7030040F2901058430230032358
:10039000B0FBF3F083001818400070470139FDD816
:1003A000704710B545F20003C4F200135A685A6052
:1003B000002040F2D353C0F20003984740F28B5321
:1003C000C0F20003984740F2A353C0F200039847DD
:1003D00040F21B43C0F20003984740F2D153C0F2F1
:1003E000000398471F2040F2F333C0F20003984700
:1003F00010BDC30710D541F60043C4F2000340F21C
:100400000512C0F201021A6241F60042C4F2000273
:100410007D2153681942FCD1704740F60003C4F2B5
:10042000000301221A7170470020704710B545F291
:100430000002C4F200120424138B2342FCD045F2C4
:100440000003C4F200133F221A75831EBE3213420A
:1004500016D04AF20053184345F20003C4F20013C9
:10046000188045F20003C4F2001301211E201A7DFA
:100470000A420BD11A7D0242F9D01E20404206E00A
:1004800045F20003C4F20013D961E2E7002010BD79
:1004900010B50100022040F22D43C0F2000398473E
:1004A00010BD70B506000C001500830621D1402A4E
:1004B00022D80100442040F22D43C0F200039847A7
:1004C000EDB1210001233000984300236E1E09E0A6
:1004D0004C78240222431C182280023102339AB243
:1004E000954204D90A789E42F2DC92B2F3E70020EA
:1004F00070BD0D204042FBE70D204042F8E7002090
:10050000F6E770B50400150040F2A343C0F2000303
:10051000984778B945F20003C4F200131B7ADB0751
:1005200001D43F2D06D82100042040F22D43C0F213
:100530000003984770BD70B5450845F20004C4F249
:1005400000140426238B3342FCD00024C30706D5B5
:1005500001350123984303881B0A0B700134944230
:1005600011D209196D00281B551E03E00234023117
:10057000A24208D903191B889BB20B70A542F5D97A
:100580001B0A4B70F2E7002070BD41F20043C4F239
:100590000003DA6941F600710A40DA6100221A7438
:1005A000704741F20003C4F2000302221A7641F2BE
:1005B0000002C4F20002102113691942FCD041F27A
:1005C0000003C4F200031A7E80210A431A767047A2
:1005D000704740F20043C4F200039B7803221340AB
:1005E000984212D040F20042C4F20002FF239371FD
:1005F000937803218B4308401843907040F20042E7
:10060000C4F200029379002BFCD07047F0B5DE46AF
:1006100057464E464546E0B589B004AA40F6C81391
:10062000C0F2000313CB13C21B68136041F2707059
:1006300040F6D503C0F20003984701900A2040F22B
:100640002D33C0F20003984740F2100840F22D33DA
:10065000C0F20003009340F29143C0F20003029302
:1006600065E0402239003000D04701344036403741
:10067000A301AB4206D25B462342F2D13000029B7B
:100680009847EEE72B004546984640F20023C6F215
:100690000003802212055A610220009CA04702201C
:1006A000A047019B43441A00FE232B70013595425D
:1006B000FBD10220009EB04740F20024C6F20004A5
:1006C00080252D05A5614246019F3900039840F21F
:1006D0003753C0F20003984765610220B0470220FB
:1006E000B04780231B04A3614B467BB13C0000252F
:1006F00041F60916C0F200264F46230022000421CD
:1007000004A8B04701351034BD42F6D140F20023B1
:10071000C6F20003802212045A610220009B98470F
:1007200040F2100CE04441F2807398454CD0002315
:100730004246002A65D0019A4146D35401338B4288
:10074000FBD188460220009B984740F20023C6F266
:100750000003802212049A6143461B09994683B123
:10076000019C002541F60516C0F200261F0023005B
:100770002200042104A8B04701351034BD42F6D14F
:10078000B94640F20024C6F2000480231B046361D2
:100790000220009DA8470220A84780231B05A361D3
:1007A00080235B0242469B1AFF2293430393019FDF
:1007B0001E00002440F2030B40F2035AC0F2000A6C
:1007C0004346B8461D0056E70A2040F22D33C0F2DA
:1007D0000003984740F20023C6F2000340F20042B3
:1007E0009A6140F600029A61802212049A61802286
:1007F00012059A6109B03CBC90469946A246AB46A8
:10080000F0BD0220009FB84740F20024C6F2000469
:1008100080252D04A56165610220B8470220B847F4
:1008200080263605A66166610220B8470220B847D7
:100830000220B847A661802040024346C01AFF2329
:1008400098434246019940F23753C0F2000398475B
:1008500066610220B8470220B847A56165610220A1
:10086000B84740F2100CE04461E710B540F2611364
:10087000C0F20003984740F20D63C0F200039847AE
:10088000002010BD70B500250E4B0F4CE41AA410CB
:10089000A54209D1002500F0CFF80C4C0C4BE41A0E
:1008A000A410A54207D170BD064AAB009B181B6877
:1008B00098470135ECE7064AAB009B181B68984740
:1008C0000135EEE7440A0000440A0000480A00002F
:1008D000440A000010B5034B0100186800F004F84A
:1008E00010BDC04600000020032370B5CD1C9D4301
:1008F000083506000C2D1CD20C25A9421BD830004F
:1009000000F060F8254A14682100C1B9244C23681E
:100910001BB9300000F046F820602900300000F0DC
:1009200041F8431C2DD10C233000336000F04BF80C
:1009300003E0002DE1DA0C233360002070BD0B686A
:100940005B1B1BD40B2B03D90B60CC18256003E079
:100950008C420FD163681360300000F034F820003F
:1009600007220B30231D9043C31A002BE6D05A42B6
:10097000E250E3E74B6863600C00EDE70C00496868
:10098000C3E70323C41C9C43A042DFD0211A3000DC
:1009900000F008F8431CD9D1C5E7C0468800002004
:1009A0008C000020002370B5054C05000800236072
:1009B000FFF7CFFC431C02D1236803B12B6070BD4D
:1009C00090000020704770470001020304050607ED
:1009D00008090A0B0C0D0E0F0000000000000000BB
:1009E0000000000000000000000000000000000007
:1009F00000000000000000000000000000000000F7
:100A000000000000000000000000000000000000E6
:100A100000000000000000000000000000000000D6
:100A200000000000000000000000000000000000C6
:100A30000000000000000000F8B5C046F8BC08BC8B
:100A40009E46704721010000F8B5C046F8BC08BCBE
:080A50009E467047F50000000E
:100A58000400002000000000F8090000180A000047
:100A6800D80900000000000000000000000000009D
:100A7800000000000000000000000000000000006E
:100A8800000000000000000000000000000000005E
:100A9800000000000000000000000000000000004E
:100AA800000000000000000000000000000000003E
:040AB800000000003A
:0200000400807A
:104000003F438FB0BB180000FF20087F0100000075
:1040100000000000000000000000000000000000A0
:00000001FF
