S01300004145535F466C6173682D532E737265636B
S214000000C8080020551A0000511A0000511A0000B6
S21400001000000000000000000000000000000000DB
S214000020000000000000000000000000511A000060
S2140000300000000000000000511A0000511A0000E5
S214000040511A0000511A0000511A0000511A0000FF
S214000050511A0000511A0000511A0000511A0000EF
S214000060511A0000511A0000511A0000511A0000DF
S214000070511A0000511A0000511A0000511A0000CF
S214000080511A0000511A0000511A0000511A0000BF
S214000090511A0000511A0000511A0000511A0000AF
S2140000A0511A0000511A0000511A0000511A00009F
S2140000B0511A0000511A0000511A0000511A00008F
S2140000C0511A0000511A0000511A0000511A00007F
S2140000D0511A0000511A0000511A0000511A00006F
S2140000E0511A0000511A0000511A0000511A00005F
S2140000F0511A000041F60042FF23C4F20002944663
S214000100802203409B00634410B59C58012064067F
S21400011003D43F3001430020995001000200030041
S214000120844610BC02BC864681F300880C47C04655
S214000130F0B587B0059342F600230290049203912F
S214000140C4F200039C68029E98691A6BD9691B6CFE
S21400015066401E406640049C250045401D404540C4
S2140001600598040054401C40544001900022D807D3
S21400017000D50F32F02010439F0700D4100040F641
S214000180007202435F0700D402004FF200001043E3
S2140001901F0700D41000F02212030243DF0600D42B
S2140001A00200F020000410439F0600D41000F02246
S2140001B0120502435F0600D40200F020000610433A
S2140001C01B0600D5020003984840104042F6002265
S2140001D048400221C4F2000213788B4313700131A9
S2140001E053681942FCD142F600220221C4F20002F2
S2140001F053681942FCD10221966095611463D06160
S21400020013780B43137042F600220131C4F2000249
S21400021053681942FCD1002007B001000200030019
S2140002208446F0BC02BC864681F300880C47C04674
S21400023010B540F26804C2F20004237863B940F2B5
S2140002400003C0F200032BB144F22000C0F280008D
S21400025000E000BF0123237010BDC04640F200033B
S214000260C0F2000310B54BB140F26C0144F220001E
S214000270C2F20001C0F2800000E000BF44F220009D
S214000280C0F28000036803B910BD40F20003C0F25C
S2140002900003002BF8D09847F6E7C04640F200224D
S2140002A08021802070B540F2004340F60005C6F27B
S2140002B0000209040005536140F200445561516193
S2140002C05061936043F20023C4F20004C4F20003BA
S2140002D09C62C02424069C629560C4F200059D6260
S2140002E09C62916080248021CCF20004C90599624A
S2140002F09C62906040F600024A20CCF200029962AE
S2140003009A620122195C914319540130195C914399
S21400031019540C30195C914319540430195C9143FC
S214000320195441F611335138C0F20003984770BD96
S214000330F0B5DE4657464E464546E0B5834685B0A0
S214000340C02A3AD040F200139A4231D0802A08D010
S2140003502020404205B03CBC90469946A246AB469B
S214000360F0BD40F20A08F63B03605D4653090835C7
S21400037058462A0000271E0045604B788C781B02E2
S214000380240423430C7801372343CC780431240615
S214000390234308C2B742F0D3434683460C2B00D112
S2140003A0BCE10E2B00D153E10A2B0BD00020D1E785
S2140003B00E2340F20E080360D7E70C2340F20C0829
S2140003C00360D2E7FF2242F2E0144369C0F2000461
S2140003D0190A1140655C012140F2020C0600806893
S2140003E0B34641404D40190E615C604609044D40DD
S2140003F011001940615C376909064D40190C11401F
S214000400615C40F2040C09024D40F168B561694038
S2140004104F407B40F161376273621E0A1640A65D4C
S214000420454075401E0EA65D584636046E401500C3
S2140004301D40655D2D066E401D0C1540655D2D0248
S2140004406E4071404F407B408662C16207634363E3
S21400045060461D0A1540655D464075401E0EA65D49
S214000460584636047540160040F2080C1E40A65D3D
S214000470360675401E0C1640A65D3602754069406D
S2140004804F407B408563C1630764436460461E0A31
S2140004901640A65D45406E401D0E655D58462D040F
S2140004A06E4015001D40655D40F2100C2D066E4036
S2140004B01D0C1540655D2D026E403D0071404D409F
S2140004C06B408664C1640565436560461F0A174035
S2140004D0E75D464077401E0EA65D584636047740D8
S2140004E0160040F2200C1E40A65D360677401E0C15
S2140004F01640A65D3602774079404D406B408765D2
S214000500C1650566436660461E0A1640A65D4740FE
S2140005107E401F0EE75D58463F047E40170040F2BF
S214000520400C1F40E75D3F067E401F0C1740E75D0E
S2140005303F027E4071404D406B408666C16605674F
S214000540436760461F0A1740E75D46407E401F0E21
S214000550E75D40F2800C3F047E4017001F40E75DD9
S21400056060463F067E401F0C1740E75D3F0277401F
S2140005705E4679404D40B767F16735508426584649
S2140005806B40835160461E0A1640A65D47407E407B
S2140005901F0EE75D58463F047E4017001F40E75D8C
S2140005A040F21B0C3F067E401F0C1740E75D3F02E3
S2140005B07E4088277140C6510437C1514D400437EC
S2140005C0C5516B400437C35160461F0A1740E75DAC
S2140005D0464077401E0EA65D584636047740160005
S2140005E01E40A65D40F2360C360677401E0C1640BE
S2140005F0A65D3602774098267940875104368151A9
S2140006004D40043685516B400436835160461E0AC1
S2140006101640A65D47407E401F0EE75D58463F04E5
S2140006207E4017001F40E75D3F067E401F0C3A40A5
S214000630A25CA8241202724002515140AC224D40E6
S2140006408150043285505D40B423C550002081E6B9
S21400065042F2E02240F20008036AC0F200029B4623
S214000660C36984699A46036947699946C368466AB6
S214000670019303928368424642F2E01040F2FF0C78
S214000680C0F2000000926146320A0A40310E415C18
S214000690825C09044A405340624661463240825CAE
S2140006A0203512065340320C0A40825C0099120232
S2140006B05340039A5258494653400292019A2B607F
S2140006C05A4051406A60019262464F40A96089468E
S2140006D061463A40825CEF6054403A0E825C1206F5
S2140006E054403A0A0A40825C120262403C0C0C40BB
S2140006F0045D240454405246624092466A61514664
S2140007005A464A40AA6156409346009A2C610432E3
S214000710EE6100921C2AB6D100201BE642F2E01CD5
S214000720FF23C0F2000CC1690500604601240A0AD6
S2140007301A40825CA868EF684440604662400C0E2F
S214000740045D2E69240462401C000C40045D40F2E7
S2140007500209240662400C0C1C40045D2402624020
S214000760924650465A4647407E4028626F62AE62C6
S2140007706D69946975406C406140080A184080466F
S214000780D5621463516360464246825C504690468A
S2140007904A465040020040464240080E8046914677
S2140007A060464246825C4846120450408146180025
S2140007B00840804660464246825C484612065040E4
S2140007C08146080C1840804660464246825C484691
S2140007D0120250405A4647407E4075406C40614089
S2140007E082469063080A18408046D76316645564AC
S2140007F09464D1646046424640F20409825C5046E6
S21400080090464A465040020040464240080E804607
S214000810914660464246825C4846120450408146F5
S21400082018000840804660464246825C48461206EB
S21400083050408146080C1840804660464246825C1E
S2140008404846120250405A4647407E4075406C402B
S214000850614082461065080A184080465765604623
S2140008609665D56514665166424640F20809825C74
S214000870504690464A465040020040464240080EC7
S2140008808046914660464246825C48461204504086
S214000890814618000840804660464246825C4846CC
S2140008A0120650408146080C184080466046424674
S2140008B0825C4846120250405A4647407E40754089
S2140008C06C40614090668246080A18408046D766AB
S2140008D0166755679467D1676046424640F210092E
S2140008E0825C504690464A4650400200404642408F
S2140008F0080E8046914660464246825C4846120490
S2140009005040814618000840804660464246825C59
S2140009104846120650408146080C184080466046FD
S2140009204246825C484612025040009440F28008DC
S2140009305C468346220040465C4640F284091450DA
S214000940484640F2880967401750484640F28C09EE
S2140009507E401650484640F2900975401550009863
S21400096040F2200A68400090484640F29409009CF5
S2140009701450484661401150080A18408146140039
S21400098060464A46825C58469146524650400200AF
S21400099048464240080E8146924660464A46825C79
S2140009A05046120450408246180008408146604671
S2140009B04A46825C5046120650408246080C184052
S2140009C0814660464A46825C504612025040834644
S2140009D040F29809220048465C4640F29C091450B2
S2140009E0484640F2A00967401750484640F2A4091E
S2140009F07E401650484640F2A8097540155014002F
S214000A00484640F2AC09009A40F2400A6A4022503A
S214000A10484651402150080A1840814600926046D8
S214000A204A46825C58469146524650400200484626
S214000A304240080E8146924660464A46825C5046D0
S214000A4012045040824618000840814660464A46D6
S214000A50825C5046120650408246080C184081467A
S214000A6060464A46825C1202100052465040B0224F
S214000A70A050B422474081462000A7507E40043252
S214000A80A65075400432A550009C04326C40845039
S214000A90614004328150834660460A0A1A40825CEE
S214000AA0404692464A4650400200504650408146D4
S214000AB0080E804660464246825C48461204504015
S214000AC0814618000840804660464246825C48469A
S214000AD0120650400200080C03406046C35C5846AD
S214000AE01B025340C82283507B400432835073401D
S214000AF0043283506B400432835063400432835088
S214000B004B4004328350002024E4C046F0B5DE4655
S214000B104E464546574642F25B03E0B50500C9B06F
S214000B200C001600002140F21812C0F2000302A8C2
S214000B3098472B0008336B6040F2313332002100B7
S214000B4002A8C0F2000398478346002800D00BE1B5
S214000B50029B9C462B601B011A0090460193039B48
S214000B6043441F001B6840F21808AB607B68103FC8
S214000B70EB60BB69A8442B61FB6900976B61634619
S214000B805E1E002E00DCE5E042F2E0133D0040462B
S214000B90FF22C0F200031400296842F2E0670C400E
S214000BA01C5DC0F20007A400A24642F2E024C0F298
S214000BB00004A146CA44B94657460C0E1C5DBF6ADF
S214000BC0A4004C44A46A013E6740BA4642F6E027B9
S214000BD0C0F20007B94657460C0A14401C5D090CC3
S214000BE0A4004C44A46A11407C4042F6E067C0F280
S214000BF00007B946595C42F2E06789004944896AB1
S214000C00C0F200076140140001606968103D0C40A6
S214000C101C5DA400A24642F2E024C0F20004A146F5
S214000C20CA44B94657460C0E1C5DBF6AA4004C4425
S214000C30A46A6740BA4642F6E027C0F20007B94603
S214000C4057460C0A14401C5D090CA4004C44A46AC8
S214000C5011407C4042F6E067C0F20007B946595C96
S214000C6042F2E06789004944896AC0F200076140A1
S214000C7014004160A9690C401C5DA400A24642F223
S214000C80E024C0F20004A146CA44B94657460C0EFA
S214000C901C5DBF6AA4004C44A46A6740BA4642F68C
S214000CA0E027C0F20007B94657460C0A14401C5D00
S214000CB0090CA4004C44A46A11407C4042F6E0674C
S214000CC0C0F20007B946595C42F2E0678900494421
S214000CD0896AC0F20007614014008160E9690C402F
S214000CE01C5DA400A24642F2E024C0F20004A14625
S214000CF0CA44B94657460C0E1C5DBF6AA4004C4455
S214000D00A46A6740BA4642F6E027C0F20007B94632
S214000D1057460C0A14401C5D090CA4004C44A46AF7
S214000D2011407C4042F6E067C0F20007B946595CC5
S214000D3089004944896A6140C1601030002E00D0A5
S214000D4029E76346009A1B01D71A019B1037103B10
S214000D5000979844434600990A681A604A685A60A1
S214000D608A689A60CA68DA6041F6052302A840F2EB
S214000D701811C0F200039847584649B03CBC90464C
S214000D809946A246AB46F0BDF0B557464E46454698
S214000D90DE46E0B54B780C781B0223438C789146F0
S214000DA024042343CC78426824061C4313684D79F8
S214000DB05C400B792D0240F2100A1D438B794E7A67
S214000DC01B041D43CB7936021B062B4355684F7B0D
S214000DD06B400D7A3F022E438D7A85B02D042E434C
S214000DE0CD7A92442D063543966875400E7B374380
S214000DF08E7B36043743CE7BD16836063E434E4064
S214000E00016810694910029101398846002900DC02
S214000E108DE14946D446FF2201940391170043F220
S214000E20E021019CC0F20001274043F2E0648B46BB
S214000E30C0F20004BF005F44A34643F6E024310E30
S214000E40C0F2000489005944A34643F6E064BF6A32
S214000E50896AC0F2000479404840190A11408900A6
S214000E605944A34643F2E024896AC0F2000448408D
S214000E70290C114089005944896AA346019C4840C0
S214000E801100270E43F2E0641940C0F20004890006
S214000E905944A3466446BF005F44BF6A896A6468D3
S214000EA07940614043F6E024C0F20004A34643F6CE
S214000EB0E0642F0A1740C0F20004BF005F44A34658
S214000EC043F2E024BF6AC0F200047940370C1740B2
S214000ED0BF005F44BF6AA3467940170043F2E06450
S214000EE02F40BF00C0F20004BB44A1465C461F0E64
S214000EF0BF004F44A46ABF6A2D0E67406446A468CC
S214000F00AD006740340A1440A400A34643F6E0242C
S214000F10C0F20004A146CB445C46A46A1640674073
S214000F20019CB600240C1440A400A34643F6E064DB
S214000F30C0F20004A146CB445C46A46A1B0C674082
S214000F4043F2E024C0F20004A14643F2E064C0F29B
S214000F5000044E44A1464D44AD6AB66A64466E40EF
S214000F6043F6E025C0F20005A946E4681340664053
S214000F70019C9B00240A1440A4004C44A46A43F23B
S214000F80E065664043F6E064C0F20004A1464B44C8
S214000F909B6A14005E4043F2E023C0F200039946C9
S214000FA00440C0F20005A4004C44A94643F6E025E0
S214000FB0330E9B004B449B6AA46AC0F200055C405B
S214000FC06346A94643F6E0651B69C0F200055C402F
S214000FD00B0A13409B004B44A9469B6A050E5C40D7
S214000FE03B0C13409B004B449B6AAD005C40019455
S214000FF043F2E0241300C0F20004A14643F2E0648A
S2140010000B40C0F200049B004B44A14664464D448E
S214001010AD6A9B6A64696B40634043F6E024C0F2A5
S2140010200004A14643F6E0643D0A1540C0F2000401
S214001030AD004D44A14643F2E024AD6AC0F2000480
S2140010406B40350C1540AD004D44AD6AA3466B4071
S214001050150043F2E0643D40AD00C0F20004AB442E
S214001060A1465C460D0EAD004D44A46AAD6A3F0E27
S21400107065406446A469BF006540340A1440A40075
S214001080A34643F6E024C0F20004A146CB445C46E7
S214001090A46A16406540040C1440A400A34643F618
S2140010A0E064C0F20004A146CB445C46A46AB600E5
S2140010B0654043F2E024C0F20004A14643F2E06437
S2140010C0C0F200044E44A14664464F44B66ABF6A66
S2140010D0E4697E40664043F6E024C0F20004A14680
S2140010E0000A104080004844806A090C464043F6D7
S2140010F0E060C0F200008146114089004944896AD8
S2140011004E400121494289466146C844086A40F279
S21400111020094146CC44002900D07FE6A249039A24
S2140011208C469146029A019C624452019244FF22E8
S21400113043F2E0271100C0F20007BC4621408900B8
S2140011406144884643F2E061C0F200018C464146A5
S214001150370EBF006744BF6A896A794043F6E027C6
S214001160C0F20007BC4643F6E0674140180A10404C
S214001170C0F2000780006044BC46806A270E4140EB
S214001180280C104080006044806ABF0041408B46B7
S21400119043F2E0211000C0F200018C4643F2E06109
S2140011A01840C0F20001800060448C4651466744F7
S2140011B0BF6A806A49687840484043F6E021C0F23A
S2140011C000018C4643F6E0612F0A1740C0F200018A
S2140011D0BF0067448C4643F2E021BF6AC0F20001BC
S2140011E07840370C1740BF006744BF6A8C4678408B
S2140011F0170043F2E0612F40BF00C0F20001BC447C
S214001200884661461F0EBF004744896ABF6A2D0E96
S2140012104F4051468968AD004F40310A1140890061
S2140012208C4643F6E021C0F200018846C44461467D
S214001230896A16404F40210C114089008C4643F6BF
S214001240E061C0F200018846C4446146896AB6007F
S2140012504F4043F2E021C0F200018C4643F2E061C9
S214001260C0F2000166448C4651466544B66AAD6AD3
S214001270C96875404D4043F6E021C0F200018C4637
S214001280240A14401B0C1340A40064449B00A46A68
S21400129043449B6A6C405C40A4465946140042F2A4
S2140012A0E0130C405146C0F200031E5D0969019030
S2140012B04E4061460C0E1C5D514624066640040AEC
S2140012C014401C5D4969240266403C0C14401C5DB9
S2140012D024046640140004401D5D4D4059460C0E23
S2140012E061461C5D240665403C0A14401C5D2402D1
S2140012F065400C0C14401C5D5146240465401400E7
S2140013003C401C5D89693F0E6140040E1C5DDF5D3C
S21400131024064C406146090A1140595C3F06090202
S2140013204C405946090C1140595C09044C40614632
S2140013301140595C8C465146C9698846614640460C
S21400134041404F4059460198090A1140000C595C2B
S21400135002409B5C090279404A461B044B404946C2
S21400136000201670320A4A70320C8A702A0A4A71B5
S2140013702A0C8A71220A4A72220C8A721A0A360EBD
S2140013800D710C722D0E240E0B734A731A0C1B0E65
S214001390CE70CD71CC728A73CB7305B03CBC9046D0
S2140013A09946A246AB46F0BDFFFFFF07F0B557468D
S2140013B04E464546DE46E0B54B780D781B022B437D
S2140013C08D7891462D042B43CD7842682D061D431B
S2140013D013684C795D400B7924021C438B794E7A56
S2140013E01B041C43CB7936021B06234354684F7BF1
S2140013F063400C7A3F0226438C7A85B02404264349
S214001400CC7A40F2100A240634439668924474401C
S2140014100E7B37438E7B36043743CE7BD168360649
S2140014203E434E40016849100291013988461169D1
S2140014304246002A00DC8FE14846D446FF2201954A
S2140014400390170042F2E020019DC0F200002F40FA
S21400145042F2E0658346C0F20005BF005F44AB463B
S21400146042F6E025180EC0F2000580005844AB4650
S21400147042F6E065BF6A806AC0F2000578404140E7
S214001480300A104080005844AB4642F2E025806A9D
S214001490C0F200054140200C104080005844806A8D
S2140014A0AB464140100042F2E0651840C0F200052D
S2140014B080005844AB466546270EBF005F44BF6AAF
S2140014C0806A6D6878406840019D2F0A42F6E025E4
S2140014D0C0F20005AB4642F6E0651740C0F20005D4
S2140014E0BF005F44AB4642F2E025BF6AC0F200058B
S2140014F07840370C1740BF005F44BF6AAB46784061
S214001500170042F2E0652740BF00C0F20005BB446A
S214001510A9465D46370EBF004F44AD6ABF6A164007
S2140015206F406546AD68B6006F401D0A1540AD00B9
S214001530AB4642F6E025C0F20005A946CB445D4620
S214001540AD6A240A6F40019D14402D0C1540AD0075
S214001550AB4642F6E065C0F20005A946CB445D46C0
S214001560AD6AA4006F4042F2E025C0F20005A9462D
S214001570019D4E442D0EAD00AB4642F2E065C0F232
S2140015800005A9465D464D44AD6AB66A1B0C6E4022
S2140015906546ED6813406E4042F6E025C0F2000551
S2140015A0A9464C44A46A9B00664042F6E064C0F23A
S2140015B00004A1464B449B6A14005E4042F2E023BE
S2140015C042F2E065C0F2000399460C40C0F2000506
S2140015D0A4004C44A946A56A42F6E024030E9B00EC
S2140015E04B449B6AC0F200045D406346A14642F647
S2140015F0E0641B69C0F200045D40330A13409B00A0
S2140016004B44A14642F2E0249B6AC0F200045D40CF
S2140016103B0C13409B004B449B6AA1465D40130065
S214001620019542F2E0650340C0F200059B004B4482
S214001630A94642F6E0253C0EA4004C44A46A9B6AE8
S214001640C0F2000563406446A94642F6E065646958
S214001650C0F2000563400C0A1440A4004C44A9469E
S21400166042F2E025A46AC0F200056340340C144040
S214001670A4004C44A46AAB466340140042F2E06502
S2140016803C40A400C0F20005A344A9465D46340EC3
S214001690A4004C44AD6AA46A16406C406546AD6929
S2140016A0B6006C40050A1540AD00AB4642F6E02594
S2140016B0C0F20005A946CB445D46AD6A3F0A6C40C1
S2140016C00D0C1540AD00AB4642F6E065C0F20005D5
S2140016D0A946CB445D46AD6A090E6C4042F2E02551
S2140016E0C0F20005A94642F2E065C0F200054E448D
S2140016F0A94689004944896AB66A17404E40614641
S214001700C969BF004E4042F6E021C0F2000189469A
S2140017104F44B96A000C4E4042F6E061C0F2000148
S2140017208946104080004844816A4E400121494263
S2140017308946C844614640F220094046096ACC44BE
S214001740002800D07DE6A448039A84469146029A73
S214001750019D62445201924442F2E020FF22C0F210
S21400176000008446180E17008000804642F2E060B3
S2140017702F40C0F20000BF006744844640466044E5
S214001780806ABF6A474042F6E020C0F20000844606
S21400179042F6E0604F40310A1140C0F20000890076
S2140017A061448446896A10004F40210C114089002C
S2140017B06144896A18404F4042F2E021BB46C0F2BD
S2140017C0000142F2E0678C46C0F2000780006044E9
S2140017D0BC4642F6E027210E89006144896A806A89
S2140017E0C0F2000748405146BC4642F6E0674968EA
S2140017F0C0F200074840290A114089006144BC46EF
S21400180042F2E027896AC0F200074840310C1140D6
S21400181089006144896ABC464840110042F2E0678C
S21400182021408900C0F200078C44B8466746310E56
S21400183089004144BF6A896A164079405746BF68A6
S214001840B60079401F0A1740BF00BC4642F6E027A4
S214001850C0F20007B846C4446746BF6A240A794007
S2140018602F0C1740BF00BC4642F6E067C0F20007E8
S214001870B846C4446746BF6A2D0E794042F2E02758
S214001880C0F20007BC4642F2E067C0F200076644BA
S214001890BC46AD006544B66AAD6A1440754056460F
S2140018A0F6681B0C754042F6E026C0F20006B44609
S2140018B01340A40064449B00A46A43449B6A6C40A3
S2140018C05C4044F2E023A4465D461400C0F20003E8
S2140018D028332C401E5D5446246957466640040E45
S2140018E01C5DBF69240666406446240A14401C5DDD
S2140018F00191240266400C0C14401C5D24046640D2
S214001900140004401D5D5446646965400C0E1C5D61
S214001910240665405C46240A14401C5D240265408B
S2140019206446240C14401C5D2404654014000C40DE
S2140019301C5D67406446240E1C5D24067C40070A36
S2140019401740DF5D000C3F027C405F463F0C1740AF
S214001950DF5D3F047C4067461740DF5DBC46574668
S214001960FF69B846674641464F40BC465F466146FB
S2140019703F0EDF5D3F064F400199090A1140595C52
S21400198002409B5C090279404A461B044B4049468C
S21400199000201670320A4A70320C8A702A0A4A717F
S2140019A02A0C8A71220A4A72220C8A721A0A360E87
S2140019B00D710C722D0E240E0B734A731A0C1B0E2F
S2140019C0CE70CD71CC728A73CB7305B03CBC90469A
S2140019D09946A246AB46F0BDFFFFFF0710B51400C0
S2140019E01A00012906D041F2AD332100C0F20003EF
S2140019F0984710BD40F689532100C0F2000398476F
S214001A00F7E7C04640F2000310B5C2F200030A0032
S214001A101B680021984710BD41F6E12310B5C0F2BF
S214001A200003984743F200230022C4F20003DA665C
S214001A304EF2001340F28021CEF200035A500431D9
S214001A405A5040F29D23C0F20003984710BDC0468E
S214001A50FEE7C04644F6043140F20000C0F2000142
S214001A60C2F2000010B581420FD040F26803C2F205
S214001A700003984209D2C243D21842F249039208A0
S214001A8001329200C0F20003984740F2680040F22C
S214001A90C823C2F20000C2F2000398420AD2C24330
S214001AA0D21842F25B039208013292000021C0F283
S214001AB00003984740F200037F22C0F200039343DE
S214001AC04EF60052CEF20002936041F6D173C0F299
S214001AD00003984741F6C553C0F200039847FEE757
S214001AE041F6793310B5C0F20003984740F600037C
S214001AF08021C4F200031A690A431A619A697C3984
S214001B000A439A6141F6F933C0F20003984710BDC4
S214001B1040F28403C2F2000310B51C6841F6593344
S214001B20C0F20003984741F671330100C0F200038B
S214001B302000984710BDC04640F28803C2F200035A
S214001B401A681AB1101818601000704740F6C802DC
S214001B50C2F20002F6E7C046030040F29010584377
S214001B6003230230B0FBF3F08300181840007047E0
S214001B700139FDD87047C04645F2000310B5C4F2DF
S214001B8000135A6800205A6041F69D53C0F20003C5
S214001B90984741F66153C0F20003984741F67953DF
S214001BA0C0F20003984741F6E933C0F200039847B5
S214001BB041F69953C0F20003984741F6C9331F20F7
S214001BC0C0F20003984710BDC3070CD541F600428B
S214001BD040F205137D21C4F20002C0F20103136235
S214001BE053681942FCD1704740F600030122C4F244
S214001BF000031A717047C0460020704745F2000285
S214001C000421C4F20012138B1942FCD03F23137533
S214001C100A4BD061138045F200030121C4F2001381
S214001C201E2002E01A7D104204D11A7D1142F9D01E
S214001C30002070471E204042FBE7C04602A5FFFF7B
S214001C40F0B5830601D1402A02D90D204042F0BDEE
S214001C5045F200040425C4F20014238B1D42FCD078
S214001C603F232375284B0125238045F200031E26BB
S214001C70C4F2001302E01C7D264202D11C7D2542E0
S214001C80F9D04608C2B1571E7600002307E0ACB272
S214001C90F51802332C809CB20231A2420CD90D7882
S214001CA09F42F4DD4C78023124022C43F5180233AF
S214001CB02C809CB2A242F2D845F20003C4F2001374
S214001CC01B7ADB0701D4402A19D045F20002042112
S214001CD0C4F20012138B1942FCD03F2313750B4B32
S214001CE0D061138045F200030121C4F200131E20C8
S214001CF002E01A7D104204D11A7D1142F9D000206C
S214001D00A5E71E204042A2E744A5FFFF04A5FFFF6B
S214001D1070B545F2000404264508C4F20014238B6F
S214001D201E42FCD001230024034205D098430388BA
S214001D3001351B0A0B700134A2420FD96D00561EE6
S214001D4009192D1B63191B889BB20B70A64201D97B
S214001D501B0A4B7002340231A242F3D8002070BD39
S214001D6041F2004341F60071C4F20003DA690A400A
S214001D70DA6100221A74704741F200020223102131
S214001D80C4F20002137613691942FCD08021137E38
S214001D900B4313767047C0467047C04640F2004279
S214001DA00323C4F2000291781940884209D0FF212B
S214001DB091719178994303400B4393709379002B6C
S214001DC0FCD07047F0B5DE4657464E46454641F6CF
S214001DD01923E0B5C0F2000389B0984744F6742191
S214001DE040F28C0040F231338022C0F20001C0F293
S214001DF00003C2F20000984740F28C13C2F20003C0
S214001E0005931833180044F6742140F60D338022EB
S214001E10C0F20001C0F20003984742F2210341F2EB
S214001E207070C0F20003984741F611338246C0F244
S214001E3000030A200293984742F25B03C0F20003B5
S214001E40079341F61153C0F20003069341F641434F
S214001E5041F6DD1940F200281027C0F20003C0F258
S214001E6000090193C6F2000800235246D3540133FA
S214001E70BB42FBD1029B02209246984780224346F3
S214001E803E0912049A6133010493534454461D00DC
S214001E904E4640F28C00230022000121C2F20000D0
S214001EA01034B047A542F4D18022434612045A614A
S214001EB0029C0220A0470220A0478022434612052B
S214001EC09A618023FF2241F6FD3B5B02DB1B9343B6
S214001ED0B146039356461D000024C0F2000B0AE0EC
S214001EE031002800019B4022013498474035403697
S214001EF0A301BB4205D203232342F1D12800D847D1
S214001F00EEE78022434612055A61029C0220A04753
S214001F100220A0473A00FE21079B50469847022021
S214001F20A0478022434612059A6151463A00069B16
S214001F30039898478022434612055A610220A0471C
S214001F400220A0478022434612049A61049B54460E
S214001F5053441E004B46B9461F00059D1835230006
S214001F602200002128001034B847A642F7D13B00D3
S214001F7080224F469946434612045A61029B02202D
S214001F80984741F2807310379F4200D06CE742F2C8
S214001F9035035046C0F200039847029B0A20984734
S214001FA0424640F20043936140F60003936180226C
S214001FB0434612049A618023424600201B05936123
S214001FC009B03CBC90469946A246AB46F0BDC0461A
S214001FD070B500250E4B0F4CE41AA410A54209D18B
S214001FE0002502F07FFD0C4C0C4BE41AA410A54211
S214001FF007D170BD064AAB009B181B689847013591
S214002000ECE7064AAB009B181B6898470135EEE7DD
S214002010F04A0000F04A0000F44A0000F04A0000CF
S21400202010B5034B0100186800F06AF810BDC046F2
S2140020300400002010B5034B0100186800F016F8E5
S21400204010BDC04604000020002310B59A4200D1FF
S21400205010BDCC5CC4540133F8E7030082189342E9
S21400206000D1704719700133F9E7000070B505001C
S21400207081B10C1F2368002B00DAE418280000F05A
S214002080ADF81E4A136811002BB96360146028006F
S21400209000F0A5F870BDA3420BD92268A0188342B1
S2140020A003D118685B688218226063600C60EEE7F4
S2140020B013005A680AB1A242FAD919685818A04201
S2140020C00BD120680918581819608242DFD11068B1
S2140020D05268411819605A60D9E7A04202D90C2309
S2140020E02B60D4E721686018824203D110685268DA
S2140020F04118216062605C60C9E7C046BC020020EF
S214002100032370B5CD1C9D43083506000C2D1CD24C
S2140021100C25A9421BD8300000F060F8254A146848
S2140021202100C1B9244C23681BB9300000F046F8E2
S21400213020602900300000F041F8431C2DD10C230C
S2140021403000336000F04BF803E0002DE1DA0C239A
S2140021503360002070BD0B685B1B1BD40B2B03D9B0
S2140021600B60CC18256003E08C420FD163681360C7
S214002170300000F034F8200007220B30231D904377
S214002180C31A002BE6D05A42E250E3E74B6863607E
S2140021900C00EDE70C004968C3E70323C41C9C430E
S2140021A0A042DFD0211A300000F008F8431CD9D135
S2140021B0C5E7C046BC020020C0020020002370B560
S2140021C0054C050008002360FFF7B6FC431C02D14F
S2140021D0236803B12B6070BDC402002070477047AF
S2140021E0637C777BF26B6FC53001672BFED7AB76CF
S2140021F0CA82C97DFA5947F0ADD4A2AF9CA472C07A
S214002200B7FD9326363FF7CC34A5E5F171D83115E6
S21400221004C723C31896059A071280E2EB27B27507
S21400222009832C1A1B6E5AA0523BD6B329E32F847F
S21400223053D100ED20FCB15B6ACBBE394A4C58CF77
S214002240D0EFAAFB434D338545F9027F503C9FA84B
S21400225051A3408F929D38F5BCB6DA2110FFF3D219
S214002260CD0C13EC5F974417C4A77E3D645D1973CD
S21400227060814FDC222A908846EEB814DE5E0BDBC7
S214002280E0323A0A4906245CC2D3AC629195E479FE
S214002290E7C8376D8DD54EA96C56F4EA657AAE0858
S2140022A0BA78252E1CA6B4C6E8DD741F4BBD8B8AF3
S2140022B0703EB5664803F60E613557B986C11D9E59
S2140022C0E1F8981169D98E949B1E87E9CE5528DFD0
S2140022D08CA1890DBFE6426841992D0FB054BB16FC
S2140022E001000000020000000400000008000000DA
S2140022F010000000200000004000000080000000E9
S2140023001B0000003600000051F4A7507E416553C4
S2140023101A17A4C33A275E963BAB6BCB1F9D45F1BD
S214002320ACFA58AB4BE303932030FA55AD766DF616
S21400233088CC7691F5024C254FE5D7FCC52ACBD73D
S21400234026354480B562A38FDEB15A4925BA1B678D
S21400235045EA0E985DFEC0E1C32F7502814CF0126F
S2140023608D4697A36BD3F9C6038F5FE715929C95AE
S214002370BF6D7AEB955259DAD4BE832D587421D3AB
S21400238049E069298EC9C84475C2896AF48E79788D
S21400239099583E6B27B971DDBEE14FB6F088AD1790
S2140023A0C920AC667DCE3AB463DF4A18E51A31829E
S2140023B09751336062537F45B16477E0BB6BAE8460
S2140023C0FE81A01CF9082B94704868588F45FD19AB
S2140023D094DE6C87527BF8B7AB73D323724B02E262
S2140023E0E31F8F576655AB2AB2EB28072FB5C203FB
S2140023F086C57B9AD33708A5302887F223BFA5B2B7
S21400240002036ABAED16825C8ACF1C2BA779B492B7
S214002410F307F2F04E69E2A165DAF4CD0605BED503
S214002420D134621FC4A6FE8A342E539DA2F355A053
S214002430058AE132A4F6EB750B83EC394060EFAA0F
S2140024405E719F06BD6E10513E218AF996DD063DEF
S214002450DD3E05AE4DE6BD4691548DB571C45D05B5
S2140024600406D46F605015FF1998FB24D6BDE99773
S214002470894043CC67D99E77B0E842BD07898B88F0
S214002480E7195B3879C8EEDBA17C0A477C420FE986
S214002490F8841EC90000000009808683322BED48B0
S2140024A01E1170AC6C5A724EFD0EFFFB0F8538562F
S2140024B03DAED51E362D39270A0FD964685CA62195
S2140024C09B5B54D124362E3A0C0A67B19357E70F1C
S2140024D0B4EE96D21B9B919E80C0C54F61DC20A2B5
S2140024E05A774B691C121A16E293BA0AC0A02AE55C
S2140024F03C22E043121B171D0E090D0BF28BC7ADD5
S2140025002DB6A8B9141EA9C857F11985AF75074C82
S214002510EE99DDBBA37F60FDF701269F5C72F5BCDC
S21400252044663BC55BFB7E348B432976CB23C6DCF7
S214002530B6EDFC68B8E4F163D731DCCA42638510B7
S2140025401397224084C61120854A247DD2BB3DF8CD
S214002550AEF93211C729A16D1D9E2F4BDCB230F3A8
S2140025600D8652EC77C1E3D02BB3166CA970B999DF
S214002570119448FA47E96422A8FC8CC4A0F03F1ADC
S214002580567D2CD8223390EF87494EC7D938D1C113
S2140025908CCAA2FE98D40B36A6F581CFA57ADE2883
S2140025A0DAB78E263FADBFA42C3A9DE45078920D44
S2140025B06A5FCC9B547E4662F68D13C290D8B8E80C
S2140025C02E39F75E82C3AFF59F5D80BE69D0937CDF
S2140025D06FD52DA9CF2512B3C8AC993B10187DA78F
S2140025E0E89C636EDB3BBB7BCD2678096E5918F4FE
S2140025F0EC9AB701834F9AA8E6956E65AAFFE67E29
S21400260021BCCF08EF15E8E6BAE79BD94A6F36CE6D
S214002610EA9F09D429B07CD631A4B2AF2A3F233131
S214002620C6A5943035A266C0744EBC37FC82CAA6D6
S214002630E090D0B033A7D815F104984A41ECDAF709
S2140026407FCD500E1791F62F764DD68D43EFB04DB9
S214002650CCAA4D54E49604DF9ED1B5E34C6A881BA1
S214002660C12C1FB84665517F9D5EEA04018C355D1E
S214002670FA877473FB0B412EB3671D5A92DBD25256
S214002680E91056336DD647139AD7618C37A10C7A6A
S21400269059F8148EEB133C89CEA927EEB761C935DD
S2140026A0E11CE5ED7A47B13C9CD2DF5955F2733F09
S2140026B01814CE7973C737BF53F7CDEA5FFDAA5B10
S2140026C0DF3D6F147844DB86CAAFF381B968C43E39
S2140026D03824342CC2A3405F161DC372BCE2250CFE
S2140026E0283C498BFF0D954139A80171080CB3DED3
S2140026F0D8B4E49C6456C1907BCB8461D532B67066
S214002700486C5C74D0B85742F4A750514165537E6C
S21400271017A4C31A275E963AAB6BCB3B9D45F11FB9
S214002720FA58ABACE303934B30FA5520766DF6AD12
S214002730CC769188024C25F5E5D7FC4F2ACBD7C539
S2140027403544802662A38FB5B15A49DEBA1B672589
S214002750EA0E9845FEC0E15D2F7502C34CF012816B
S2140027604697A38DD3F9C66B8F5FE703929C9515AA
S2140027706D7AEBBF5259DA95BE832DD47421D358A7
S214002780E0692949C9C8448EC2896A758E7978F489
S214002790583E6B99B971DD27E14FB6BE88AD17F08C
S2140027A020AC66C9CE3AB47DDF4A18631A3182E59A
S2140027B051336097537F45626477E0B16BAE84BB5C
S2140027C081A01CFE082B94F94868587045FD198FA7
S2140027D0DE6C87947BF8B75273D323AB4B02E2725E
S2140027E01F8F57E355AB2A66EB2807B2B5C2032FF7
S2140027F0C57B9A863708A5D32887F230BFA5B223B3
S214002800036ABA0216825CEDCF1C2B8A79B492A7B3
S21400281007F2F0F369E2A14EDAF4CD6505BED506FF
S21400282034621FD1A6FE8AC42E539D34F355A0A24F
S2140028308AE13205F6EB75A483EC390B60EFAA400B
S214002840719F065E6E1051BD218AF93EDD063D96EB
S2140028503E05AEDDE6BD464D548DB591C45D0571B1
S21400286006D46F045015FF6098FB2419BDE997D66F
S2140028704043CC89D99E7767E842BDB0898B8807EC
S214002880195B38E7C8EEDB797C0A47A1420FE97C82
S214002890841EC9F800000000808683092BED4832AC
S2140028A01170AC1E5A724E6C0EFFFBFD8538560F2B
S2140028B0AED51E3D2D3927360FD9640A5CA6216891
S2140028C05B54D19B362E3A240A67B10C57E70F9318
S2140028D0EE96D2B49B919E1BC0C54F80DC20A261B1
S2140028E0774B695A121A161C93BA0AE2A02AE5C058
S2140028F022E0433C1B171D12090D0B0E8BC7ADF2D1
S214002900B6A8B92D1EA9C814F119855775074CAF7E
S21400291099DDBBEE7F60FDA301269FF772F5BC5CD8
S214002920663BC544FB7E345B4329768B23C6DCCBF3
S214002930EDFC68B6E4F163B831DCCAD763851042B3
S21400294097224013C61120844A247D85BB3DF8D2C9
S214002950F93211AE29A16DC79E2F4B1DB230F3DCA4
S2140029608652EC0DC1E3D077B3166C2B70B999A9DB
S2140029709448FA11E9642247FC8CC4A8F03F1AA0D8
S2140029807D2CD8563390EF22494EC78738D1C1D90F
S214002990CAA2FE8CD40B3698F581CFA67ADE28A57F
S2140029A0B78E26DAADBFA43F3A9DE42C78920D5040
S2140029B05FCC9B6A7E4662548D13C2F6D8B8E89008
S2140029C039F75E2EC3AFF5825D80BE9FD0937C69DB
S2140029D0D52DA96F2512B3CFAC993BC8187DA7108B
S2140029E09C636EE83BBB7BDB267809CD5918F46EFA
S2140029F09AB701EC4F9AA883956E65E6FFE67EAA25
S214002A00BCCF082115E8E6EFE79BD9BA6F36CE4A69
S214002A109F09D4EAB07CD629A4B2AF313F23312A2D
S214002A20A59430C6A266C0354EBC377482CAA6FCD2
S214002A3090D0B0E0A7D8153304984AF1ECDAF74105
S214002A40CD500E7F91F62F174DD68D76EFB04D43B5
S214002A50AA4D54CC9604DFE4D1B5E39E6A881B4C9D
S214002A602C1FB8C165517F465EEA049D8C355D011A
S214002A70877473FA0B412EFB671D5AB3DBD2529252
S214002A80105633E9D647136DD7618C9AA10C7A3766
S214002A90F8148E59133C89EBA927EECE61C935B7D9
S214002AA01CE5EDE147B13C7AD2DF599CF2733F5505
S214002AB014CE7918C737BF73F7CDEA53FDAA5B5F0C
S214002AC03D6F14DF44DB8678AFF381CA68C43EB935
S214002AD024342C38A3405FC21DC37216E2250CBCFA
S214002AE03C498B280D9541FFA80171390CB3DE08CF
S214002AF0B4E49CD856C19064CB84617B32B670D562
S214002B006C5C7448B85742D05051F4A7537E416568
S214002B10C31A17A4963A275ECB3BAB6BF11F9D45B5
S214002B20ABACFA58934BE303552030FAF6AD766D0E
S214002B309188CC7625F5024CFC4FE5D7D7C52ACB35
S214002B40802635448FB562A349DEB15A6725BA1B85
S214002B509845EA0EE15DFEC002C32F7512814CF067
S214002B60A38D4697C66BD3F9E7038F5F9515929CA6
S214002B70EBBF6D7ADA9552592DD4BE83D3587421A3
S214002B802949E069448EC9C86A75C28978F48E7985
S214002B906B99583EDD27B971B6BEE14F17F088AD88
S214002BA066C920ACB47DCE3A1863DF4A82E51A3196
S214002BB0609751334562537FE0B1647784BB6BAE58
S214002BC01CFE81A094F9082B58704868198F45FDA3
S214002BD08794DE6CB7527BF823AB73D3E2724B025A
S214002BE057E31F8F2A6655AB07B2EB28032FB5C2F3
S214002BF09A86C57BA5D33708F2302887B223BFA5AF
S214002C00BA02036A5CED16822B8ACF1C92A779B4AF
S214002C10F0F307F2A14E69E2CD65DAF4D50605BEFB
S214002C201FD134628AC4A6FE9D342E53A0A2F3554B
S214002C3032058AE175A4F6EB390B83ECAA4060EF07
S214002C40065E719F51BD6E10F93E218A3D96DD06E7
S214002C50AEDD3E05464DE6BDB591548D0571C45DAD
S214002C606F0406D4FF605015241998FB97D6BDE96B
S214002C70CC8940437767D99EBDB0E8428807898BE8
S214002C8038E7195BDB79C8EE47A17C0AE97C420F7E
S214002C90C9F8841E000000008309808648322BEDA8
S214002CA0AC1E11704E6C5A72FBFD0EFF560F853827
S214002CB01E3DAED527362D39640A0FD921685CA68D
S214002CC0D19B5B543A24362EB10C0A670F9357E714
S214002CD0D2B4EE969E1B9B914F80C0C5A261DC20AD
S214002CE0695A774B161C121A0AE293BAE5C0A02A54
S214002CF0433C22E01D121B170B0E090DADF28BC7CD
S214002D00B92DB6A8C8141EA98557F1194CAF75077A
S214002D10BBEE99DDFDA37F609FF70126BC5C72F5D4
S214002D20C544663B345BFB7E768B4329DCCB23C6EF
S214002D3068B6EDFC63B8E4F1CAD731DC10426385AF
S214002D40401397222084C6117D854A24F8D2BB3DC5
S214002D5011AEF9326DC729A14B1D9E2FF3DCB230A0
S214002D60EC0D8652D077C1E36C2BB31699A970B9D7
S214002D70FA1194482247E964C4A8FC8C1AA0F03FD4
S214002D80D8567D2CEF223390C787494EC1D938D10B
S214002D90FE8CCAA23698D40BCFA6F58128A57ADE7B
S214002DA026DAB78EA43FADBFE42C3A9D0D5078923C
S214002DB09B6A5FCC62547E46C2F68D13E890D8B804
S214002DC05E2E39F7F582C3AFBE9F5D807C69D093D7
S214002DD0A96FD52DB3CF25123BC8AC99A710187D87
S214002DE06EE89C637BDB3BBB09CD2678F46E5918F6
S214002DF001EC9AB7A8834F9A65E6956E7EAAFFE621
S214002E000821BCCFE6EF15E8D9BAE79BCE4A6F3665
S214002E10D4EA9F09D629B07CAF31A4B2312A3F2329
S214002E2030C6A594C035A26637744EBCA6FC82CACE
S214002E30B0E090D01533A7D84AF10498F741ECDA01
S214002E400E7FCD502F1791F68D764DD64D43EFB0B1
S214002E5054CCAA4DDFE49604E39ED1B51B4C6A8899
S214002E60B8C12C1F7F466551049D5EEA5D018C3516
S214002E7073FA87742EFB0B415AB3671D5292DBD24E
S214002E8033E91056136DD6478C9AD7617A37A10C62
S214002E908E59F81489EB133CEECEA92735B761C9D5
S214002EA0EDE11CE53C7A47B1599CD2DF3F55F27301
S214002EB0791814CEBF73C737EA53F7CD5B5FFDAA08
S214002EC014DF3D6F867844DB81CAAFF33EB968C431
S214002ED02C3824345FC2A34072161DC30CBCE225F6
S214002EE08B283C4941FF0D957139A801DE080CB3CB
S214002EF09CD8B4E4906456C1617BCB8470D532B65E
S214002F0074486C5C42D0B857A75051F465537E4164
S214002F10A4C31A175E963A276BCB3BAB45F11F9DB1
S214002F2058ABACFA03934BE3FA5520306DF6AD760A
S214002F30769188CC4C25F502D7FC4FE5CBD7C52A31
S214002F4044802635A38FB5625A49DEB11B6725BA81
S214002F500E9845EAC0E15DFE7502C32FF012814C63
S214002F6097A38D46F9C66BD35FE7038F9C951592A2
S214002F707AEBBF6D59DA9552832DD4BE21D358749F
S214002F80692949E0C8448EC9896A75C27978F48E81
S214002F903E6B995871DD27B94FB6BEE1AD17F08884
S214002FA0AC66C9203AB47DCE4A1863DF3182E51A92
S214002FB0336097517F45625377E0B164AE84BB6B54
S214002FC0A01CFE812B94F90868587048FD198F459F
S214002FD06C8794DEF8B7527BD323AB7302E2724B56
S214002FE08F57E31FAB2A66552807B2EBC2032FB5EF
S214002FF07B9A86C508A5D33787F23028A5B223BFAB
S2140030006ABA0203825CED161C2B8ACFB492A779AB
S214003010F2F0F307E2A14E69F4CD65DABED50605F7
S214003020621FD134FE8AC4A6539D342E55A0A2F347
S214003030E132058AEB75A4F6EC390B83EFAA406003
S2140030409F065E711051BD6E8AF93E21063D96DDE3
S21400305005AEDD3EBD464DE68DB591545D0571C4A9
S214003060D46F040615FF6050FB241998E997D6BD67
S21400307043CC89409E7767D942BDB0E88B880789E4
S2140030805B38E719EEDB79C80A47A17C0FE97C427A
S2140030901EC9F8840000000086830980ED48322BA4
S2140030A070AC1E11724E6C5AFFFBFD0E38560F8523
S2140030B0D51E3DAE3927362DD9640A0FA621685C89
S2140030C054D19B5B2E3A243667B10C0AE70F935710
S2140030D096D2B4EE919E1B9BC54F80C020A261DCA9
S2140030E04B695A771A161C12BA0AE2932AE5C0A050
S2140030F0E0433C22171D121B0D0B0E09C7ADF28BC9
S214003100A8B92DB6A9C8141E198557F1074CAF7576
S214003110DDBBEE9960FDA37F269FF701F5BC5C72D0
S2140031203BC544667E345BFB29768B43C6DCCB23EB
S214003130FC68B6EDF163B8E4DCCAD73185104263AB
S21400314022401397112084C6247D854A3DF8D2BBC1
S2140031503211AEF9A16DC7292F4B1D9E30F3DCB29C
S21400316052EC0D86E3D077C1166C2BB3B999A970D3
S21400317048FA1194642247E98CC4A8FC3F1AA0F0D0
S2140031802CD8567D90EF22334EC78749D1C1D93807
S214003190A2FE8CCA0B3698D481CFA6F5DE28A57A77
S2140031A08E26DAB7BFA43FAD9DE42C3A920D507838
S2140031B0CC9B6A5F4662547E13C2F68DB8E890D800
S2140031C0F75E2E39AFF582C380BE9F5D937C69D0D3
S2140031D02DA96FD512B3CF25993BC8AC7DA7101883
S2140031E0636EE89CBB7BDB3B7809CD2618F46E59F2
S2140031F0B701EC9A9AA8834F6E65E695E67EAAFF1D
S214003200CF0821BCE8E6EF159BD9BAE736CE4A6F61
S21400321009D4EA9F7CD629B0B2AF31A423312A3F25
S2140032209430C6A566C035A2BC37744ECAA6FC82CA
S214003230D0B0E090D81533A7984AF104DAF741ECFD
S214003240500E7FCDF62F1791D68D764DB04D43EFAD
S2140032504D54CCAA04DFE496B5E39ED1881B4C6A95
S2140032601FB8C12C517F4665EA049D5E355D018C12
S2140032707473FA87412EFB0B1D5AB367D25292DB4A
S2140032805633E91047136DD6618C9AD70C7A37A15E
S214003290148E59F83C89EB1327EECEA9C935B761D1
S2140032A0E5EDE11CB13C7A47DF599CD2733F55F2FD
S2140032B0CE79181437BF73C7CDEA53F7AA5B5FFD04
S2140032C06F14DF3DDB867844F381CAAFC43EB9682D
S2140032D0342C3824405FC2A3C372161D250CBCE2F2
S2140032E0498B283C9541FF0D017139A8B3DE080CC7
S2140032F0E49CD8B4C190645684617BCBB670D5325A
S2140033005C74486C5742D0B8C66363A5F87C7C846E
S214003310EE777799F67B7B8DFFF2F20DD66B6BBD61
S214003320DE6F6FB191C5C5546030305002010103A5
S214003330CE6767A9562B2B7DE7FEFE19B5D7D76259
S2140033404DABABE6EC76769A8FCACA451F82829D55
S21400335089C9C940FA7D7D87EFFAFA15B25959EB4B
S2140033608E4747C9FBF0F00B41ADADECB3D4D46744
S2140033705FA2A2FD45AFAFEA239C9CBF53A4A4F76F
S214003380E47272969BC0C05B75B7B7C2E1FDFD1CC8
S2140033903D9393AE4C26266A6C36365A7E3F3F41A6
S2140033A0F5F7F70283CCCC4F6834345C51A5A5F40E
S2140033B0D1E5E534F9F1F108E2717193ABD8D87331
S2140033C0623131532A15153F0804040C95C7C752BD
S2140033D0462323659DC3C35E30181828379696A1EA
S2140033E00A05050F2F9A9AB50E07070924121236FA
S2140033F01B80809BDFE2E23DCDEBEB264E27276964
S2140034007FB2B2CDEA75759F1209091B1D83839E94
S214003410582C2C74341A1A2E361B1B2DDC6E6EB2EA
S214003420B45A5AEE5BA0A0FBA45252F6763B3B4D34
S214003430B7D6D6617DB3B3CE5229297BDDE3E33E12
S2140034405E2F2F7113848497A65353F5B9D1D16894
S21400345000000000C1EDED2C40202060E3FCFC1FC6
S21400346079B1B1C8B65B5BEDD46A6ABE8DCBCB468C
S21400347067BEBED97239394B944A4ADE984C4CD452
S214003480B05858E885CFCF4ABBD0D06BC5EFEF2AEF
S2140034904FAAAAE5EDFBFB16864343C59A4D4DD7CA
S2140034A066333355118585948A4545CFE9F9F91079
S2140034B004020206FE7F7F81A05050F0783C3C4418
S2140034C0259F9FBA4BA8A8E3A25151F35DA3A3FE84
S2140034D0804040C0058F8F8A3F9292AD219D9DBC53
S2140034E070383848F1F5F50463BCBCDF77B6B6C172
S2140034F0AFDADA754221216320101030E5FFFF1A9B
S214003500FDF3F30EBFD2D26D81CDCD4C180C0C144A
S21400351026131335C3ECEC2FBE5F5FE1359797A2F9
S214003520884444CC2E17173993C4C45755A7A7F21E
S214003530FC7E7E827A3D3D47C86464ACBA5D5DE73A
S2140035403219192BE6737395C06060A019818198B3
S2140035509E4F4FD1A3DCDC7F44222266542A2A7E6B
S2140035603B9090AB0B8888838C4646CAC7EEEE2904
S2140035706BB8B8D32814143CA7DEDE79BC5E5EE2D6
S214003580160B0B1DADDBDB76DBE0E03B6432325620
S214003590743A3A4E140A0A1E924949DB0C06060A89
S2140035A04824246CB85C5CE49FC2C25DBDD3D36E75
S2140035B043ACACEFC46262A6399191A8319595A44C
S2140035C0D3E4E437F279798BD5E7E7328BC8C84382
S2140035D06E373759DA6D6DB7018D8D8CB1D5D564E0
S2140035E09C4E4ED249A9A9E0D86C6CB4AC5656FA9B
S2140035F0F3F4F407CFEAEA25CA6565AFF47A7A8E63
S21400360047AEAEE9100808186FBABAD5F0787888D1
S2140036104A25256F5C2E2E72381C1C2457A6A6F150
S21400362073B4B4C797C6C651CBE8E823A1DDDD7CEA
S214003630E874749C3E1F1F21964B4BDD61BDBDDCBC
S2140036400D8B8B860F8A8A85E07070907C3E3E429A
S21400365071B5B5C4CC6666AA904848D8060303057B
S214003660F7F6F6011C0E0E12C26161A36A35355FCD
S214003670AE5757F969B9B9D01786869199C1C1581E
S2140036803A1D1D27279E9EB9D9E1E138EBF8F813BD
S2140036902B9898B322111133D26969BBA9D9D97076
S2140036A0078E8E89339494A72D9B9BB63C1E1E22B4
S2140036B015878792C9E9E92087CECE49AA5555FFD6
S2140036C050282878A5DFDF7A038C8C8F59A1A1F8C3
S2140036D0098989801A0D0D1765BFBFDAD7E6E6316E
S2140036E0844242C6D06868B8824141C3299999B0DD
S2140036F05A2D2D771E0F0F117BB0B0CBA85454FC5B
S2140037006DBBBBD62C16163A6363A5C67C7C84F8C4
S214003710777799EE7B7B8DF6F2F20DFF6B6BBDD65D
S2140037206F6FB1DEC5C554913030506001010302A1
S2140037306767A9CE2B2B7D56FEFE19E7D7D762B555
S214003740ABABE64D76769AECCACA458F82829D1F51
S214003750C9C940897D7D87FAFAFA15EF5959EBB247
S2140037604747C98EF0F00BFBADADEC41D4D467B340
S214003770A2A2FD5FAFAFEA459C9CBF23A4A4F7536B
S214003780727296E4C0C05B9BB7B7C275FDFD1CE1C4
S2140037909393AE3D26266A4C36365A6C3F3F417EA2
S2140037A0F7F702F5CCCC4F8334345C68A5A5F4510A
S2140037B0E5E534D1F1F108F9717193E2D8D873AB2D
S2140037C03131536215153F2A04040C08C7C75295B9
S2140037D023236546C3C35E9D181828309696A137E6
S2140037E005050F0A9A9AB52F0707090E12123624F6
S2140037F080809B1BE2E23DDFEBEB26CD2727694E60
S214003800B2B2CD7F75759FEA09091B1283839E1D90
S2140038102C2C74581A1A2E341B1B2D366E6EB2DCE6
S2140038205A5AEEB4A0A0FB5B5252F6A43B3B4D7630
S214003830D6D661B7B3B3CE7D29297B52E3E33EDD0E
S2140038402F2F715E848497135353F5A6D1D168B990
S21400385000000000EDED2CC120206040FCFC1FE3C2
S214003860B1B1C8795B5BEDB66A6ABED4CBCB468D88
S214003870BEBED96739394B724A4ADE944C4CD4984E
S2140038805858E8B0CFCF4A85D0D06BBBEFEF2AC5EB
S214003890AAAAE54FFBFB16ED4343C5864D4DD79AC6
S2140038A033335566858594114545CF8AF9F910E975
S2140038B0020206047F7F81FE5050F0A03C3C447814
S2140038C09F9FBA25A8A8E34B5151F3A2A3A3FE5D80
S2140038D04040C0808F8F8A059292AD3F9D9DBC214F
S2140038E038384870F5F504F1BCBCDF63B6B6C1776E
S2140038F0DADA75AF2121634210103020FFFF1AE597
S214003900F3F30EFDD2D26DBFCDCD4C810C0C141846
S21400391013133526ECEC2FC35F5FE1BE9797A235F5
S2140039204444CC881717392EC4C45793A7A7F2551A
S2140039307E7E82FC3D3D477A6464ACC85D5DE7BA36
S21400394019192B32737395E66060A0C081819819AF
S2140039504F4FD19EDCDC7FA3222266442A2A7E5467
S2140039609090AB3B8888830B4646CA8CEEEE29C700
S214003970B8B8D36B14143C28DEDE79A75E5EE2BCD2
S2140039800B0B1D16DBDB76ADE0E03BDB323256641C
S2140039903A3A4E740A0A1E144949DB9206060A0C85
S2140039A024246C485C5CE4B8C2C25D9FD3D36EBD71
S2140039B0ACACEF436262A6C49191A8399595A43148
S2140039C0E4E437D379798BF2E7E732D5C8C8438B7E
S2140039D03737596E6D6DB7DA8D8D8C01D5D564B1DC
S2140039E04E4ED29CA9A9E0496C6CB4D85656FAAC97
S2140039F0F4F407F3EAEA25CF6565AFCA7A7A8EF45F
S214003A00AEAEE94708081810BABAD56F787888F0CD
S214003A1025256F4A2E2E725C1C1C2438A6A6F1574C
S214003A20B4B4C773C6C65197E8E823CBDDDD7CA1E6
S214003A3074749CE81F1F213E4B4BDD96BDBDDC61B8
S214003A408B8B860D8A8A850F707090E03E3E427C96
S214003A50B5B5C4716666AACC4848D8900303050677
S214003A60F6F601F70E0E121C6161A3C235355F6AC9
S214003A705757F9AEB9B9D06986869117C1C158991A
S214003A801D1D273A9E9EB927E1E138D9F8F813EBB9
S214003A909898B32B111133226969BBD2D9D970A972
S214003AA08E8E89079494A7339B9BB62D1E1E223CB0
S214003AB087879215E9E920C9CECE49875555FFAAD2
S214003AC028287850DFDF7AA58C8C8F03A1A1F859BF
S214003AD0898980090D0D171ABFBFDA65E6E631D76A
S214003AE04242C6846868B8D04141C3829999B029D9
S214003AF02D2D775A0F0F111EB0B0CB7B5454FCA857
S214003B00BBBBD66D16163A2CA5C6636384F87C7CC0
S214003B1099EE77778DF67B7B0DFFF2F2BDD66B6B59
S214003B20B1DE6F6F5491C5C550603030030201019D
S214003B30A9CE67677D562B2B19E7FEFE62B5D7D751
S214003B40E64DABAB9AEC7676458FCACA9D1F82824D
S214003B504089C9C987FA7D7D15EFFAFAEBB2595943
S214003B60C98E47470BFBF0F0EC41ADAD67B3D4D43C
S214003B70FD5FA2A2EA45AFAFBF239C9CF753A4A467
S214003B8096E472725B9BC0C0C275B7B71CE1FDFDC0
S214003B90AE3D93936A4C26265A6C3636417E3F3F9E
S214003BA002F5F7F74F83CCCC5C683434F451A5A506
S214003BB034D1E5E508F9F1F193E2717173ABD8D829
S214003BC0536231313F2A15150C0804045295C7C7B5
S214003BD0654623235E9DC3C328301818A1379696E2
S214003BE00F0A0505B52F9A9A090E070736241212F2
S214003BF09B1B80803DDFE2E226CDEBEB694E27275C
S214003C00CD7FB2B29FEA75751B1209099E1D83838C
S214003C1074582C2C2E341A1A2D361B1BB2DC6E6EE2
S214003C20EEB45A5AFB5BA0A0F6A452524D763B3B2C
S214003C3061B7D6D6CE7DB3B37B5229293EDDE3E30A
S214003C40715E2F2F97138484F5A6535368B9D1D18C
S214003C50000000002CC1EDED604020201FE3FCFCBE
S214003C60C879B1B1EDB65B5BBED46A6A468DCBCB84
S214003C70D967BEBE4B723939DE944A4AD4984C4C4A
S214003C80E8B058584A85CFCF6BBBD0D02AC5EFEFE7
S214003C90E54FAAAA16EDFBFBC5864343D79A4D4DC2
S214003CA05566333394118585CF8A454510E9F9F971
S214003CB00604020281FE7F7FF0A0505044783C3C10
S214003CC0BA259F9FE34BA8A8F3A25151FE5DA3A37C
S214003CD0C08040408A058F8FAD3F9292BC219D9D4B
S214003CE04870383804F1F5F5DF63BCBCC177B6B66A
S214003CF075AFDADA63422121302010101AE5FFFF93
S214003D000EFDF3F36DBFD2D24C81CDCD14180C0C42
S214003D10352613132FC3ECECE1BE5F5FA2359797F1
S214003D20CC884444392E17175793C4C4F255A7A716
S214003D3082FC7E7E477A3D3DACC86464E7BA5D5D32
S214003D402B32191995E67373A0C0606098198181AB
S214003D50D19E4F4F7FA3DCDC664422227E542A2A63
S214003D60AB3B9090830B8888CA8C464629C7EEEEFC
S214003D70D36BB8B83C28141479A7DEDEE2BC5E5ECE
S214003D801D160B0B76ADDBDB3BDBE0E05664323218
S214003D904E743A3A1E140A0ADB9249490A0C060681
S214003DA06C482424E4B85C5C5D9FC2C26EBDD3D36D
S214003DB0EF43ACACA6C46262A8399191A431959544
S214003DC037D3E4E48BF2797932D5E7E7438BC8C87A
S214003DD0596E3737B7DA6D6D8C018D8D64B1D5D5D8
S214003DE0D29C4E4EE049A9A9B4D86C6CFAAC565693
S214003DF007F3F4F425CFEAEAAFCA65658EF47A7A5B
S214003E00E947AEAE18100808D56FBABA88F07878C9
S214003E106F4A2525725C2E2E24381C1CF157A6A648
S214003E20C773B4B45197C6C623CBE8E87CA1DDDDE2
S214003E309CE87474213E1F1FDD964B4BDC61BDBDB4
S214003E40860D8B8B850F8A8A90E07070427C3E3E92
S214003E50C471B5B5AACC6666D89048480506030373
S214003E6001F7F6F6121C0E0EA3C261615F6A3535C5
S214003E70F9AE5757D069B9B9911786865899C1C116
S214003E80273A1D1DB9279E9E38D9E1E113EBF8F8B5
S214003E90B32B989833221111BBD2696970A9D9D96E
S214003EA089078E8EA7339494B62D9B9B223C1E1EAC
S214003EB09215878720C9E9E94987CECEFFAA5555CE
S214003EC0785028287AA5DFDF8F038C8CF859A1A1BB
S214003ED080098989171A0D0DDA65BFBF31D7E6E666
S214003EE0C6844242B8D06868C3824141B0299999D5
S214003EF0775A2D2D111E0F0FCB7BB0B0FCA8545453
S214003F00D66DBBBB3A2C161663A5C6637C84F87CBC
S214003F107799EE777B8DF67BF20DFFF26BBDD66B55
S214003F206FB1DE6FC55491C5305060300103020199
S214003F3067A9CE672B7D562BFE19E7FED762B5D74D
S214003F40ABE64DAB769AEC76CA458FCA829D1F8249
S214003F50C94089C97D87FA7DFA15EFFA59EBB2593F
S214003F6047C98E47F00BFBF0ADEC41ADD467B3D438
S214003F70A2FD5FA2AFEA45AF9CBF239CA4F753A463
S214003F807296E472C05B9BC0B7C275B7FD1CE1FDBC
S214003F9093AE3D93266A4C26365A6C363F417E3F9A
S214003FA0F702F5F7CC4F83CC345C6834A5F451A502
S214003FB0E534D1E5F108F9F17193E271D873ABD825
S214003FC031536231153F2A15040C0804C75295C7B1
S214003FD023654623C35E9DC31828301896A13796DE
S214003FE0050F0A059AB52F9A07090E0712362412EE
S214003FF0809B1B80E23DDFE2EB26CDEB27694E2758
S214004000B2CD7FB2759FEA75091B1209839E1D8388
S2140040102C74582C1A2E341A1B2D361B6EB2DC6EDE
S2140040205AEEB45AA0FB5BA052F6A4523B4D763B28
S214004030D661B7D6B3CE7DB3297B5229E33EDDE306
S2140040402F715E2F8497138453F5A653D168B9D188
S21400405000000000ED2CC1ED20604020FC1FE3FCBA
S214004060B1C879B15BEDB65B6ABED46ACB468DCB80
S214004070BED967BE394B72394ADE944A4CD4984C46
S21400408058E8B058CF4A85CFD06BBBD0EF2AC5EFE3
S214004090AAE54FAAFB16EDFB43C586434DD79A4DBE
S2140040A0335566338594118545CF8A45F910E9F96D
S2140040B0020604027F81FE7F50F0A0503C44783C0C
S2140040C09FBA259FA8E34BA851F3A251A3FE5DA378
S2140040D040C080408F8A058F92AD3F929DBC219D47
S2140040E038487038F504F1F5BCDF63BCB6C177B666
S2140040F0DA75AFDA2163422110302010FF1AE5FF8F
S214004100F30EFDF3D26DBFD2CD4C81CD0C14180C3E
S21400411013352613EC2FC3EC5FE1BE5F97A23597ED
S21400412044CC884417392E17C45793C4A7F255A712
S2140041307E82FC7E3D477A3D64ACC8645DE7BA5D2E
S214004140192B32197395E67360A0C06081981981A7
S2140041504FD19E4FDC7FA3DC226644222A7E542A5F
S21400416090AB3B9088830B8846CA8C46EE29C7EEF8
S214004170B8D36BB8143C2814DE79A7DE5EE2BC5ECA
S2140041800B1D160BDB76ADDBE03BDBE03256643214
S2140041903A4E743A0A1E140A49DB9249060A0C067D
S2140041A0246C48245CE4B85CC25D9FC2D36EBDD369
S2140041B0ACEF43AC62A6C46291A8399195A4319540
S2140041C0E437D3E4798BF279E732D5E7C8438BC876
S2140041D037596E376DB7DA6D8D8C018DD564B1D5D4
S2140041E04ED29C4EA9E049A96CB4D86C56FAAC568F
S2140041F0F407F3F4EA25CFEA65AFCA657A8EF47A57
S214004200AEE947AE08181008BAD56FBA7888F078C5
S214004210256F4A252E725C2E1C24381CA6F157A644
S214004220B4C773B4C65197C6E823CBE8DD7CA1DDDE
S214004230749CE8741F213E1F4BDD964BBDDC61BDB0
S2140042408B860D8B8A850F8A7090E0703E427C3E8E
S214004250B5C471B566AACC6648D89048030506036F
S214004260F601F7F60E121C0E61A3C261355F6A35C1
S21400427057F9AE57B9D069B986911786C15899C112
S2140042801D273A1D9EB9279EE138D9E1F813EBF8B1
S21400429098B32B981133221169BBD269D970A9D96A
S2140042A08E89078E94A733949BB62D9B1E223C1EA8
S2140042B087921587E920C9E9CE4987CE55FFAA55CA
S2140042C028785028DF7AA5DF8C8F038CA1F859A1B7
S2140042D0898009890D171A0DBFDA65BFE631D7E662
S2140042E042C6844268B8D06841C3824199B02999D1
S2140042F02D775A2D0F111E0FB0CB7BB054FCA8544F
S214004300BBD66DBB163A2C1652096AD53036A53880
S214004310BF40A39E81F3D7FB7CE339829B2FFF87A8
S214004320348E4344C4DEE9CB547B9432A6C2233D8C
S214004330EE4C950B42FAC34E082EA16628D924B23D
S214004340765BA2496D8BD12572F8F664866898165E
S214004350D4A45CCC5D65B6926C704850FDEDB9DABD
S2140043605E154657A78D9D8490D8AB008CBCD30AAB
S214004370F7E45805B8B34506D02C1E8FCA3F0F0287
S214004380C1AFBD0301138A6B3A9111414F67DCEA56
S21400439097F2CFCEF0B4E67396AC7422E7AD3585CF
S2140043A0E2F937E81C75DF6E47F11A711D29C589D9
S2140043B06FB7620EAA18BE1BFC563E4BC6D27920BB
S2140043C09ADBC0FE78CD5AF41FDDA8338807C731C4
S2140043D0B11210592780EC5F60517FA919B54A0DBC
S2140043E02DE57A9F93C99CEFA0E03B4DAE2AF5B031
S2140043F0C8EBBB3C83539961172B047EBA77D6264D
S214004400E169146355210C7D6BC1BEE22E409F9678
S214004410E93D7E117393172AAE2D8A571E03AC9C76
S2140044209EB76FAC45AF8E5130C81C46A35CE411F6
S214004430E5FBC1191A0A52EFF69F2445DF4F9B177A
S214004440AD2B417BE66C37106BC1BEE22E409F96CB
S214004450E93D7E117393172AAE2D8A571E03AC9C36
S2140044609EB76FAC45AF8E5130C81C46A35CE411B6
S214004470E5FBC1191A0A52EFF69F2445DF4F9B173A
S214004480AD2B417BE66C371044416AC2D1F53C58EF
S2140044903303917E6BE9EBE048E31E9E256718F236
S2140044A09229319C19F15BA4058CCFFDBBCB382D2E
S2140044B01F6F56585D8A4ADEC34C052CC0DA8D73D2
S2140044C0451AFE5F03BE297FF3F6752AE8D78311E7
S2140044D038F041560631B1148B79EECC93A0EE5DE0
S2140044E0FF30B4EA21636DA4FACA37E0B0C853734C
S2140044F0DF706E73F7C9AF865DF678DD17BA4E7556
S214004500B61768C6ADEF7C7B4804E1818FE6297557
S21400451019A3E88C573104138A05FC5E095AF48403
S2140045208A08D328D3688E3D7BD966D53AD8C1BBD6
S21400453085D2ADFAE87BB104FE3C53653E2F45B507
S2140045406FCD88B2CC898FF02B7E151628AED2A6FA
S214004550ABF7158809CF4F3C0000000000000000B4
S21400456000000000000000008E73B0F7DA0E645200
S214004570C810F32B809079E562F8EAD2522C6B7B58
S2140045800000000000000000603DEB1015CA71BE80
S2140045902B73AEF0857D77811F352C073B6108D7DE
S2140045A02D9810A30914DFF43B3FD92EB72DAD206C
S2140045B0333449F8E83CFB4AC8A64537A0B3A93FC0
S2140045C0CDE3CDAD9F1CE58B26751F67A3CBB14011
S2140045D0B1808CF187A4F4DFC04B05357C5D1C0EE2
S2140045E0EAC4C66F9FF7F2E6CDC80D6FDDF18CAB5F
S2140045F034C25909C99A417467CE7F7F8117362124
S214004600961A2B70171D3D7A2E1E8A1DD59B88B1D3
S214004610C8E60FED1EFAC4C9C05F9F9CA9834FA0D1
S21400462042AE8FBA584B09FFDC7E84BFDA79164B50
S2140046307ECD8486985D386039FFED143B28B1C87E
S21400464032113C6331E5407BDF10132415E54B92B5
S214004650A13ED0A8267AE2F975A385741AB9CEF8D9
S2140046602031623D55B1E4710001020304050607DE
S21400467008090A0B0C0D0E0F2B7E151628AED2A6B7
S214004680ABF7158809CF4F3C000000000000000083
S21400469000000000000000008E73B0F7DA0E6452CF
S2140046A0C810F32B809079E562F8EAD2522C6B7B27
S2140046B00000000000000000603DEB1015CA71BE4F
S2140046C02B73AEF0857D77811F352C073B6108D7AD
S2140046D02D9810A30914DFF43B3FD92EB72DAD203B
S2140046E0333449F8E83CFB4A7789508D16918F039E
S2140046F0F53C52DAC54ED8259740051E9C5FECF671
S2140047004344F7A82260EDCC304C6528F659C778AC
S21400471066A510D9C1D6AE5ECDC80D6FDDF18CABE7
S21400472034C25909C99A4174FCC28B8D4C63837C90
S21400473009E81700C11004018D9A9AEAC0F6596F6D
S214004740559C6D4DAF59A5F26D9F200857CA6C3E1B
S2140047509CAC524BD9ACC92ADC7E84BFDA79164BA6
S2140047607ECD8486985D38604FEBDC6740D20B3A8E
S214004770C88F6AD82A4FB08D71AB47A086E86EED19
S214004780F39D1C5BBA97C4080126141D67F37BE8EB
S214004790538F5A8BE740E48400000030000000008E
S2140047A00000000000000001006CB6DBC0543B595E
S2140047B0DA48D90B0000000100E0017B27777F3F35
S2140047C04A1786F000000001AE6852F8121067CC57
S2140047D04BF7A5765577F39E7E24067817FAE0D732
S2140047E043D6CE1F325391637691BE035E5020A807
S2140047F0AC6E618529F9A0DC1000000020000000E6
S21400480024000000E4095D4FB7A7B3792D6175A3B6
S214004810261311B800000000000000000000000091
S2140048200000000000000000000000000000000083
S214004830000000005104A106168A72D9790D41EED7
S2140048408EDAD388EB2E1EFC46DA57C8FCE630DF3D
S2140048509141BE280000000000000000000000009B
S21400486000000000C1CF48A89F2FFDD9CF4652E9CF
S214004870EFDB72D74540A42BDE6D7836D59A5CEA1E
S214004880AEF3105325B2072F000000000000000012
S2140048900000000053696E676C6520626C6F636B86
S2140048A0206D73670000000000000000000000009C
S2140048B000000000000000000000000000000000F3
S2140048C000000000000102030405060708090A0BA1
S2140048D00C0D0E0F101112131415161718191A1B9B
S2140048E01C1D1E1F0000000000000000000000004D
S2140048F000000000000102030405060708090A0B71
S2140049000C0D0E0F101112131415161718191A1B6A
S2140049101C1D1E1F20212223000000000000000096
S2140049200000000000000000000000000000000082
S2140049300000000000000000000000000000000072
S2140049400000000011111111111111111111111196
S2140049501111111122222222222222222222222276
S21400496022222222FFFEFDFCFBFAF9F8F7F6F5F408
S214004970F3F2F1F0222222222222222222222222D4
S214004980222222220000000000000000000000009A
S2140049900000000033333333330000000000000013
S2140049A00000000033333333330000000000000003
S2140049B000000000917CF69EBD68B2EC9B9FE9A3C8
S2140049C0EADDA692CD43D2F59598ED858C02C265B8
S2140049D02FBF922EC454185E6A16936E3933403831
S2140049E0ACEF838BFB186FFF7480ADC4289382EC0A
S2140049F0D6D394F0AF85336B597AFC1A900B2EB24F
S214004A001EC949D292DF4C047E0B21532186A597FE
S214004A101A227A8900000000000000000000000052
S214004A200000000000000000000000000000000081
S214004A300000000044444444444444444444444441
S214004A404444444444444444444444444444444421
S214004A504444444444444444444444444444444411
S214004A604444444444444444444444444444444401
S214004A7044444444603DEB1015CA71BE2B73AEF03F
S214004A80857D778100000000000000000000000027
S214004A900000000000000000000000000000000011
S214004AA00000000000000000000000000000000001
S214004AB000000000000000000000000000000000F1
S214004AC000000000000000000000000000000000E1
S214004AD000000000000000000000000000000000D1
S214004AE000000000F8B5C046F8BC08BC9E467047FB
S214004AF05D020000F8B5C046F8BC08BC9E4670478C
S208004B003102000079
S214004B045B2000000800002000000000A44A00000B
S214004B14C44A0000844A00000000000000000000B0
S214004B24000000000000000000000000000000007C
S214004B34000000000000000000000000000000006C
S214004B44000000000000000000000000000000005C
S214004B54000000000000000000000000000000004C
S20C004B64000000000000000044
S21400FB007FE97FE9F0F714BB7FE97FE9F0F7F2BA07
S21400FB1000000000000000000000000000000000E0
S2148040003F438FB0BB180000FF20087F01000000F0
S214804010000000000000000000000000000000001B
S804000000FB
