S02200004145532D3132385F43727970746F2D416363656C657261746F722E73726563EF
S1130000002900202D010000290100002901000021
S113001000000000000000000000000000000000DC
S113002000000000000000000000000029010000A2
S11300300000000000000000290100002901000068
S11300402901000029010000290100002901000004
S113005045110000290100002901000029010000C8
S113006029010000290100002901000029010000E4
S113007029010000290100002901000029010000D4
S113008029010000290100002901000029010000C4
S113009029010000290100002901000029010000B4
S11300A029010000290100002901000029010000A4
S11300B00000000010B5064C2378002B07D1054B37
S11300C0002B02D0044800E000BF0123237010BDC0
S11300D07400002000000000CC190000084B10B58B
S11300E0002B03D00749084800E000BF0748036815
S11300F0002B00D110BD064B002BFBD09847F9E72D
S11301000000000078000020CC190000CC19000089
S11301100000000010B5024B9847024B984710BDF1
S11301203502000089020000FEE7000010B51A4AFB
S11301301A4B9A4211D01A00194B9A420DD2194AFD
S113014003339B1A9B0801339B0000221348124976
S11301508C58845004329A42FAD1134A134B9A426F
S11301600AD2D34311495B1803218B4304339B18F0
S1130170002102C29342FCD10D4AFF210D4B8B4357
S113018093600D4A53687F390B4353600B4B984778
S11301900B4B9847FEE7C046CC1900000000002036
S11301A074000020040000207400002000010020DE
S11301B000ED00E00000000000400041DD160000FA
S11301C0C5160000034A116980235B000B431361C9
S11301D07047C0460004004010B5034B98470349DC
S11301E00348044B984710BDC5010000004000417E
S11301F0A40000200906000010B50248024B9847ED
S113020010BDC04610E000E0BD05000010B5054A71
S1130210D16980239B010B43D36103490348044BF9
S1130220984710BD0004004000340042C000002084
S11302304103000010B50E4B9847C023DB05802214
S1130240D20094215A500C395A500A4BA8220A4918
S11302509950C02109069950CA215A5C0120824351
S11302605A54064B9847064B9847064B984710BD7F
S11302708D0F00000028004000040040D901000058
S1130280F90100000D020000F0B5C64600B5C02219
S1130290D2050223942153508021490251618027C1
S11302A07F035761802080038046506188269351E4
S11302B01C4BA8201C4D1D50C0252D061D509160BF
S11302C08021C9059962194C9C6297609962184F04
S11302D09F6244469460996216499962C127DC5D25
S11302E001218C43DC55713FDC5D8C43DC550437C4
S11302F0DC5D8C43DC550137DC5D8C43DC558024AC
S1130300E4004337D45194510B4A1A501D50223003
S11303101A5C8A431A54C038084B984704BC904668
S1130320F0BDC0460028004002000040010000C0AB
S1130330100000C0200000C000040040D1050000EF
S113034070B504000D0000280CD00800431E98412D
S1130350C0B232220449054B984729002000044BBF
S1130360984770BD0020F4E7E8180000510600002B
S1130370150F000010B50400431E9841C0B2462278
S11303800349044B98472000034B984710BDC046CF
S1130390E818000051060000250F000070B50400A5
S11303A00D00160000280DD00800431E9841C0B26D
S11303B05A220549054B9847320029002000044B76
S11303C0984770BD0020F3E7E818000051060000CC
S11303D0290F000070B504000D00160000280DD090
S11303E00800431E9841C0B263220549054B984753
S11303F0320029002000044B984770BD0020F3E729
S1130400E818000051060000290F0000F0B58BB079
S11304100400099115001E00169F002840D0119B6E
S1130420002B3FD01298431E98416A22FF32234981
S1130430234B9847002D37D00120002E34D0B5220D
S113044052001E491E4B98470120139B002B2FD0AE
S11304506C22FF3219491A4B9847159B002B03D085
S11304607B1E01200F2B01D978427841B62252001D
S11304701249134B98470697159B0593149B0493B5
S1130480139B0393129B0293119B0193109B009364
S113049033002A00099920000A4CA0470BB0F0BD94
S11304A00020C2E70020C0E7109843425841C6E745
S11304B0149843425841C0B2CAE7C046E818000045
S11304C051060000410F0000F0B5D64600B58EB0CD
S11304D004000D0009929A46189E199F002856D0D0
S11304E0149B002B55D01598431E98417C22FF3253
S11304F02F49304B9847002D4DD00120099B002BEC
S113050049D0BE2252002A492A4B98470120169B03
S1130510002B44D07E22FF322549264B9847002EDB
S113052003D07B1E01200F2B01D978427841BF22D2
S113053052001F491F4B984706970AAB0593179B18
S11305400493169B0393159B0293149B01935346A8
S11305500093099B2A0000212000174CA047002883
S113056011D1002F0FD00AAB1A7833789A421BD1DD
S113057000230AAC01339F4205D0195DF25C91421D
S1130580F8D0012040420EB004BC9246F0BD0020D9
S1130590ACE70020AAE7504643425841B1E7179818
S11305A043425841C0B2B5E701204042EBE7C046A0
S11305B0E818000051060000410F000010B5024B7E
S11305C01860024B984710BD90000020751300007E
S11305D010B5044B1C68044B984701002000034BE2
S11305E0984710BD90000020850F0000891300007B
S11305F010B54369002B00D0984710BD10B583692E
S1130600002B00D0984710BD70B505000C000028E1
S113061012D00800431E9841C0B238220749084B43
S1130620984721002800074B9847002803D1064B20
S11306302B60064B6B6070BD0020EEE704190000D0
S11306405106000095100000F1050000FD050000B2
S1130650002800D100BE70470300064A1268002A31
S113066004D0044A1068C318136070470249014A51
S11306701160F6E79400002000290020F0B587B04F
S113068004000091019201002431102202A85C4B65
S113069098472268136802218B4313602368002261
S11306A01A6027683B68574818408023DB000343DF
S11306B03B60206803681C27BB430C3F3B4303603B
S11306C027683B68504818403823E35C1B02C02568
S11306D0AD002B4003433B60206803680B43036079
S11306E023681A71211DFF27382020C93B001340BD
S11306F002339B002668B44663445D600132235C88
S113070002335B009A42F0DB2268137A03218B43A5
S1130710137202AA00230027FF200CE001001940F5
S11307200E3189002568AC46614415684D6001337B
S11307300432042B0BD0002FF0D01578010019409F
S11307400E3189002668B44661444D60EFE700220B
S1130750216813001A339B00CB185B688B6301324A
S1130760042AF5D12268137902210B4313712268FC
S1130770137901390B43137121680122CB79134298
S1130780FCD0002202AB032005E02168896B99505C
S11307900432102A0CD00342F7D02168896B1970F7
S11307A00F0A5F700F0C9F70090ED9700433EFE7C6
S11307B0019A02A90098124B9847002300211A00BD
S11307C01A32920020688446624451601A0016323C
S11307D09200206884466244516022689163013328
S11307E0042BECD10023802221688B5022681372E1
S11307F02268136802218B43136007B0F0BDC04622
S11308004D170000FFFBFFFFFFFCFFFFF0B5DE46C6
S113081057464E464546E0B587B0040001919046E0
S11308200093109B9B460268136802218B4313605C
S1130830036800221A6000680368D54A1A408023BE
S1130840DB0013430360226813681C208343136096
S113085020680268CF4B1A403823E35C1B02C02592
S1130860AD002B4013430360226813680B431360ED
S1130870211D0022FF26382501C93300134002330D
S11308809B002768BC46634458600132635D0233B1
S11308905B009A42F0DB226800239363226893632F
S11308A022689363226893632268137901210B43BE
S11308B013712268D3790B42FCD0136802218B4355
S11308C0136022681368B448034013602068036807
S11308D0AF4A1A408023DB00134303602068026898
S11308E0AC4B1A403823E35C1B02C025AD002B40FF
S11308F013430360226813681C20834304380343B2
S1130900136022681368A5480340136022681368C3
S113091019431160211D0022FF26382501C9330027
S1130920134002339B002768BC466344586001327D
S1130930635D02335B009A42F0DB2268137908217D
S11309400B431371009B0C2B2BD022680023936361
S113095022689363226893632268936322681379FD
S113096001210B43137121680222CB791342FCD07D
S1130970009B1E1E6EDB8A4B9A468A4B99463500B5
S1130980102E00DD1025102D1BD01022002102A8EE
S1130990D0472A00414602A8C84706AF02A9002052
S11309A03BE0200024300C2241467E4B9847200037
S11309B03030032200217A4B984701223323E2543A
S11309C08EE04746103741460320084005E023687F
S11309D00A689A630431B9420ED00028F7D04B78E4
S11309E01B028A78120413430A781343CA78120646
S11309F0134322689363EDE72268137901210B43C3
S1130A00137121680222CB791342FCD01EE02368C3
S1130A100A689A630431B9420ED00028F7D04B78A3
S1130A201B028A78120413430A781343CA78120605
S1130A30134322689363EDE72268137901210B4382
S1130A40137121680222CB791342FCD0761BA8448F
S1130A50002E94DC0C22002102A8514B98470099E7
S1130A60CB001A0E02A802731A0C42731B0A02006E
S1130A708373CB00C37306A81500002605E0236822
S1130A802A689A63043585420ED0002EF7D0226876
S1130A906B781B02A97809040B4329780B43E97886
S1130AA009060B439363EDE72268137901210B4395
S1130AB0137121680222CB791342FCD02000243028
S1130AC00022002513001A339B002168C9184968C5
S1130AD002C021688C4663445D600132042AF1D16E
S1130AE0119D002D6FDB2E4B9A462E4B9846D9460E
S1130AF0AB46102D01DD10239B465B46102B0BD01B
S1130B001022002102A8D0475A46494602A8C047ED
S1130B1006AE02AF00202BE04F4610374E460320AE
S1130B20304005E0236832689A630436B7420ED039
S1130B300028F7D0226873781B02B17809040B43AC
S1130B4031780B43F17809060B439363EDE7226890
S1130B50137901210B43137121680222CB791342CB
S1130B60FCD02BE023683A689A630437BE421BD05A
S1130B700028F7D022687B781B02B97809040B435C
S1130B8039780B43F97809060B439363EDE7C046C4
S1130B90FFFBFFFFFFFCFFFFFFF7FFFFFFFFF0FF7F
S1130BA05F1700004D1700002268137901210B43E1
S1130BB0137121680222CB791342FCD05B46ED1AF3
S1130BC0D944002D94DC2268137908218B431371D6
S1130BD0119B6363019B002B0DD123681A680639AE
S1130BE08A431A6023681A68094802401A60226816
S1130BF013680B4313602268136802218B4313604C
S1130C0007B03CBC90469946A246AB46F0BDC046F0
S1130C10FFFBFFFFF0B5DE4657464E464546E0B5BE
S1130C208DB004000691079205933322835C01334F
S1130C30DBB28354002B0CD10200323201002F317D
S1130C4013780133DBB21370002B02D1013A8A42CC
S1130C50F6D121002431102208A8AC4B9847226811
S1130C60136802210B43136001232268D3712268A5
S1130C7013790B431371802322680599D15008AE70
S1130C803100002200239946FF200CE003001340AA
S1130C900E339B002568AC4663440D685D600132E9
S1130CA00431042A0CD04B46002BEFD00D780300FE
S1130CB013400E339B002768BC4663445D60EEE737
S1130CC02268137A03218B431372059A13099C46F5
S1130CD06FD0079B0093069B0193002398460F3324
S1130CE01A4002926346013B049303200239042311
S1130CF00393B3464DE023681A7904252A43D2B2FC
S1130D001A714CE0236817689F630432B2420ED014
S1130D10002DF7D057783F0293781B043B43177894
S1130D203B43D7783F063B432768BB63EDE7D34695
S1130D3023681A7901252A43D2B21A712268D37919
S1130D400B42FCD013790225AB43137123681A7943
S1130D50039DAA431A71009A002505E023689B6B42
S1130D6053510435102D0CD00242F7D023689B6BED
S1130D7013701E0A56701E0C96701B0ED37004322C
S1130D80EFE7009B1033009301239A46D044E045DB
S1130D900ED0029B002B02D1049B4345ABD0019B98
S1130DA01D00103301931E002A000540DA46AFE708
S1130DB05E460F25059B1D401BD11022002108A86B
S1130DC0534B9847626BD300190E08A80171190C94
S1130DD041711B0A8371D200C2710599CB001A0EAE
S1130DE002731A0C42731B0A8373CB00C3730CADDA
S1130DF05CE01022002108A8454B98470F23059A70
S1130E009A439046069B434419002A0008A83F4B86
S1130E1098472268137904210B4313710CAF3000F7
S1130E2005E0236802689A63043087420FD04B467A
S1130E30002BF6D0226843781B02817809040B4307
S1130E4001780B43C17809060B439363ECE72268EE
S1130E50137901210B43137121680122CB791342C9
S1130E60FCD0002208AB032005E02168896B99506F
S1130E700432102A0CD00342F7D02168896B197010
S1130E800F0A5F700F0C9F70090ED9700433EFE7DF
S1130E90079B434418002A0008A91C4B98478CE779
S1130EA0236832689A630436B5420FD04B46002B50
S1130EB0F6D0226873781B02B17809040B433178A9
S1130EC00B43F17809060B439363ECE7226813792B
S1130ED008210B4313712268137907390B431371EB
S1130EE022680131D3790B42FCD0137908218B435A
S1130EF013712268136806398B4313600DB03CBC30
S1130F0090469946A246AB46F0BDC0464D17000038
S1130F105F17000000230B6001330B6001604B720C
S1130F20002070470020704710B53823C2540430A5
S1130F300232D200014B9847002010BD4D1700002B
S1130F40F0B583B0040015001E000C9B01930B9BAD
S1130F5000930A9B099A084FB847089B320029005E
S1130F602000064DA8470E9A0D992000044B98477F
S1130F70002003B0F0BDC0460D080000150C0000B1
S1130F807D060000FA231B015843704710B5094B36
S1130F905A685A600220084B9847084B9847084BF8
S1130FA09847084B9847084B9847FF20074B9847AA
S1130FB010BDC046004000414B130000F912000070
S1130FC011130000F50F000049130000D10F0000B9
S1130FD0C30707D5044A054B1A621900044A4B6833
S1130FE01342FCD17047C0460601010000180040BE
S1130FF0FD070000034B08229A71043A5A71033A20
S11310001A71704700040040F8B504000D00170081
S11310101E0001234B4001201840C52252001949EB
S1131020194B984768080122237D1342FCD0174BC3
S113103023800122237D1342FCD02023FF3323830A
S1131040002E0ED01F3BFF3B290099430023FD5C7B
S1131050AAB23E2B10D90A8002339BB202319E42BF
S1131060F5D80122237D1342FCD0E061084B069A97
S113107013439BB22380F8BDFA18527812022A4314
S1131080E9E7C0461C1900005106000044A5FFFF13
S113109000A5FFFF70B505000C0000281DD0104B03
S11310A0C81843425841C0B246220E490E4B9847D5
S11310B02C6162689E23134063600C4B1D600C4BD3
S11310C0102280215A50BFF34F8FBFF36F8F01312D
S11310D0FF315A501A60002070BD0020E4E7C0467A
S11310E000C0FFBE1C19000051060000980000203B
S11310F000E100E070B54C0805690126287D304206
S1131100FCD02020FF3028830020CD0705D50134F2
S1131110013081430988090A1170984211D21218CA
S11311206400241A5D1E03E002300232834208D9AF
S11311302118098889B211708542F5D9090A5170BC
S1131140F2E770BD10B50A4B186803691A7DD2071F
S113115004D50368002B00D0984710BD1A7D920770
S1131160FBD502221A754368002BF6D09847F4E7A2
S11311709800002070B50B4C0D198024A401A542E1
S11311800AD8084C1C1964188025AD01AC4206D855
S1131190054CA047002070BD0E204042FBE70E2006
S11311A04042F8E70000C0FFF5100000F0B5DE464D
S11311B057464E464546E0B5C5B0834616001D0069
S11311C0494BCA1880239B019A4200D986E0464BBA
S11311D0EB185B1880229201934200D981E00C0045
S11311E02FE0BA4667465B461A690121137D0B421C
S11311F0FCD02023FF3313834B465B08D3613B4B66
S113120013804B46A04603972A004D46B1465E46DE
S113121093461F007A1B04AB9C4662441C23009334
S1131220243339003069324CA0474037039BBB421A
S1131230F0D144465D46B3464E462B19013B9A45D0
S113124044D2FF2322009A4391464B449A4680237A
S11312505B004B449846170042460392A0464C4616
S1131260B1465E46AB463A1B04AB9C4662444023FF
S1131270390030001F4DA8474037039B9F42F2D1ED
S11312805D46B3464E46A14644464B46E31A990989
S11312903F2213405445A6D8002DA4D0BC4657463F
S11312A08A0104A8804642443078D05401333F2256
S11312B013405A425A41891801340136013DA7426C
S11312C08FD3002DECD1BA4667468CE7002045B099
S11312D03CBC90469946A246AB46F0BD0E20404227
S11312E0F5E70E204042F2E70000C0FF1AA5FFFF19
S11312F00910000075110000044BDA69F821490156
S11313000A40DA6101221A617047C04600100040A9
S113131082220C4B1A7518003821803A435C134220
S1131320FCD108491022CB681A42FCD0054A137D2F
S113133080210B431375100048390E22435C13427D
S1131340FCD17047000C004070478023DB059B787C
S11313500322134098420CD08022D205FF239371BC
S1131360937803218B430840184390709379002BA2
S1131370FCD07047024B034A5A6005221A6070473A
S113138010E000E0FFFFFF0070B50B0E5E1EF6B22A
S1131390002B13D034000E4A0E4D802040025560BD
S11313A0956013680342FCD0013CE4B2FF2CF6D1F3
S11313B03306F61A084B9C4661447118044B596075
S11313C099601900802252020B681342FCD070BD50
S11313D010E000E0FFFFFF00010000FFF0B5DE4673
S11313E057464E464546E0B58DB0A74F3800A74E48
S11313F0B04704000A20A64DA8470BAB00221A7080
S113140001325A703800B04709900A20A847A14811
S1131410A14B984720271025B846B6E09D4E0022E0
S11314209E4930009E4B98470220994B9946984715
S1131430C027FF0580235B039A46BB610223069302
S11314400AAA059204930BAB039310230293954BC2
S11314500193002300932300220001213000924EC7
S1131460B04753467B610220C8470220C847802307
S11314709B03BB61002322008021C9038B488C4E4F
S1131480B047002800D0FEE0C027FF0580239B035F
S113149099467B6102207E4EB0470220B04702206D
S11314A0B0474B46BB61002322008021C9037F481B
S11314B0804EB047002830D1C023DB0599468023F5
S11314C09B034A4653610220714FB8470220B84734
S11314D0704E002271493000774B98470220B8477C
S11314E080235B039A464B4652469A610223059336
S11314F00AAA049203930BAB029310230193694B42
S113150000930023099A210030006C4EB0474B46EB
S113151052465A610220B84733E096E0C023DB0507
S1131520994680239B034A4653610220584FB8478B
S11315300220B847574E0022584930005E4B984766
S11315400220B84780235B039A464B4652469A6171
S1131550022305930AAA049203930BAB029310236C
S11315600193504B00932B00099A21003000534EF5
S1131570B0474B4652465A610220B847424B984501
S113158064D8103510239C46E0440023002D00D17C
S113159044E7E35401339D42FBD100223F493D48D7
S11315A03F4B984702203A4FB847C023DB059B4680
S11315B080235B0399465A469361022306930AAA41
S11315C0059204930BAB039310230293354B0193C1
S11315D000952300220001212E48334EB0474B468C
S11315E05A4653610220B8470220B84780239B0320
S11315F05A4693612B0022008021C9032B482C4EAC
S1131600B04700283FD180229203C023DB055A61F2
S113161002201F4EB0470220B04700230022E254AC
S113162001339D42FBD80220194B98478022920334
S1131630C023DB059A612B0022008021C9031B48CB
S11316401C4EB047002800D168E7FEE70A20104B83
S11316509847C023DB050221982299508022520228
S11316609A61802252039A61802292039A61200037
S1131670134CA0470998A0470DB03CBC904699462E
S1131680A246AB46F0BDFEE730100000251700006F
S1131690D1050000C0000020750300003C190000C3
S11316A09D030000000000200D040000A4000020A1
S11316B0AD11000075110000D5030000C90400003D
S11316C03917000010B5034B9847034B9847002087
S11316D010BDC04615010000DD13000070B50026E2
S11316E00C4D0D4C641BA410A64209D1002600F039
S11316F05DF90A4D0A4C641BA410A64205D170BDC5
S1131700B300EB5898470136EEE7B300EB5898471F
S11317100136F2E7B8190000B8190000B819000042
S1131720BC19000010B5034B0100186800F06AF8FA
S113173010BDC0461000002010B5034B010018680E
S113174000F016F810BDC04610000020002310B5AC
S11317509A4200D110BDCC5CC4540133F8E70300B5
S11317608218934200D1704719700133F9E70000E1
S113177070B50500002910D00C1F2368002B00DA77
S1131780E418280000F0AEF81D4A1368002B05D1B8
S113179063601460280000F0A6F870BDA34209D964
S11317A0216860188342F3D118685B68411821608E
S11317B0EEE713005A68002A01D0A242F9D9196849
S11317C05818A0420BD12068091858181960824291
S11317D0E0D110685268411819605A60DAE7A042F3
S11317E002D90C232B60D5E721686018824203D10B
S11317F0106852684118216062605C60CAE7C046A4
S11318009C000020032370B5CD1C9D4308350600C1
S11318100C2D1ED20C25A9421DD8300000F062F810
S1131820254A14682100002919D1244C2368002B6F
S113183003D1300000F044F820602900300000F0AB
S11318403FF8431C2CD10C233000336000F04BF8DC
S113185003E0002DDFDA0C233360002070BD0B6839
S11318605B1B1AD40B2B03D90B60CC18256003E047
S11318708C420ED163681360300000F034F820000D
S113188007220B30231D9043C31AE7D05A42E2507B
S1131890E4E74B6863600C00EEE70C004968C2E7BC
S11318A00323C41C9C43A042E0D0211A300000F062
S11318B007F8431CDAD1C6E79C000020A0000020F2
S11318C0002370B5064C050008002360FEF7C4FE33
S11318D0431C03D12368002B00D02B6070BDC0468D
S11318E0FC000020704770472E2E2F68616C2F7308
S11318F072632F68616C5F6165735F73796E632EC9
S1131900630000002E2E2F68616C2F7372632F68A2
S1131910616C5F666C6173682E6300002E2E2F6805
S1131920706C2F6E766D6374726C2F68706C5F6E62
S1131930766D6374726C2E6300000000603DEB10E2
S113194015CA71BE2B73AEF0857D7781000000004F
S11319500000000000000000000000000000000083
S11319600000000000000000000000000000000073
S11319700000000000000000000000000000000063
S11319800000000000000000000000000000000053
S11319900000000000000000000000000000000043
S11319A0000000000000000000000000F8B5C04680
S11319B0F8BC08BC9E467047DD000000F8B5C04680
S10F19C0F8BC08BC9E467047B50000004F
S11319CC000102030405060708090A0B0C0D0E0F8F
S11319DC14000020000000006C1900008C19000099
S11319EC4C19000000000000000000000000000082
S11319FC00000000000000000000000000000000D7
S1131A0C00000000000000000000000000000000C6
S1131A1C00000000000000000000000000000000B6
S1131A2C00000000000000000000000000000000A6
S1071A3C00000000A2
S9030000FC
