:10000000B82000202D010000290100002901000076
:1000100000000000000000000000000000000000E0
:1000200000000000000000000000000029010000A6
:10003000000000000000000029010000290100006C
:100040002901000029010000290100002901000008
:1000500069040000290100002901000029010000B5
:1000600029010000290100002901000029010000E8
:1000700029010000290100002901000029010000D8
:1000800029010000290100002901000029010000C8
:1000900029010000290100002901000029010000B8
:1000A00029010000290100002901000029010000A8
:1000B0000000000010B5064C2378002B07D1054B3B
:1000C000002B02D0044800E000BF0123237010BDC4
:1000D0006400002000000000740B0000084B10B505
:1000E000002B03D00749084800E000BF0748036819
:1000F000002B00D110BD064B002BFBD09847F9E731
:100100000000000068000020740B0000740B000069
:100110000000000010B5024B9847024B984710BDF5
:10012000B101000019020000FEE7C046144915485D
:1001300010B5814209D0144B984206D2C243D2185E
:10014000920801329200114B98471148114B984286
:1001500007D2C243D21892080132920000210E4BFE
:100160009847FF210D4B0E4A8B4393600D4A7F3910
:1001700053680B4353600C4B98470C4B9847FEE772
:10018000740B000000000020640000202109000022
:1001900064000020B40000203309000000000000CB
:1001A00000ED00E000400041B108000099080000A7
:1001B00010B5114B9847C02380229421C020DB0545
:1001C000D2005A500C395A500C4A0D4B20310006BF
:1001D0005A505850CA200124195CA1431954802355
:1001E00011695B000B4313610649074B07489847A9
:1001F0000748084B984710BD9103000000040040D9
:1002000000280040004000411D0300009400002031
:1002100010E000E0D1020000C022F0B50223C64683
:100220009421D20500B58027535080208021882654
:1002300049027F0380035161804657615061A820C5
:1002400093511C4D1C4B1D4C1D50C0252D061D509F
:1002500091608021C90599629C6244469760184F5D
:1002600099629F629460C12799621649996201213F
:10027000DC5D8C43DC55713FDC5D8C43DC55043721
:10028000DC5D8C43DC550137DC5D8C43DC55802420
:100290004337E400D45194510B4A1A501D50223078
:1002A0001A5C8A431A54C038084B984704BC9046DD
:1002B000F0BDC0460200004000280040010000C020
:1002C000100000C0200000C000040040E502000053
:1002D00010B5024B1860024B984710BD80000020FB
:1002E00039070000044B10B51C68044B9847044BB9
:1002F00001002000984710BD800000208903000005
:100300004D070000436910B5002B00D0984710BD81
:10031000836910B5002B00D0984710BD70B504005C
:100320000D00002812D00800431E9841C0B20849B1
:10033000084B3822984729002000074B984700288F
:1003400003D1064B2360064B636070BD0020EEE7CF
:10035000BC0A00006503000009040000050300005A
:1003600011030000002800D100BE7047044A136842
:10037000002B03D01818106018007047014BF9E7E4
:1003800084000020B8200020FA231B015843704746
:1003900010B5094B02205A685A60084B9847084B21
:1003A0009847084B9847084B9847084B9847FF20B9
:1003B000074B984710BDC04600400041150700009C
:1003C000C5060000DD060000F5030000110700006F
:1003D000D5030000C30706D5034A044B0449136242
:1003E00053680B42FCD17047001800400601010021
:1003F000FD0700000822034B9A71043A5A71033A30
:100400001A7170470004004070B505000C00002808
:100410001DD0104BC81843425841C0B246220E4965
:100420000E4B98479E232C61626880211340102256
:1004300063600B4B1D600B4B5A50BFF34F8FBFF3E4
:100440006F8F0131FF315A5000201A6070BD0020BB
:10045000E4E7C04600C0FFBED40A00006503000008
:100460008800002000E100E001220B4B10B5186865
:100470000369197D0A4204D00368002B00D0984715
:1004800010BD197D49080A42FAD002221A75436844
:10049000002BF4D1F4E7C0468800002070B5802519
:1004A000194CAD010C19AC4202D90E20404270BD6E
:1004B000154C1C196418AC42F7D8012405694E0884
:1004C000287D0442FCD02020FF30288300200C42ED
:1004D00013D183420FD976005D1E1218361A3118D7
:1004E000098889B21170854201D9090A5170023018
:1004F00002328342F3D80020D9E7A14309880136AC
:10050000090A11700130E4E70000C0FFF0B557465A
:100510004E46DE46454692468022E0B59946624BFD
:10052000C5B0CB1802909201934208D90E204042E8
:1005300045B03CBC90469946A246AB46F0BD5A4BEE
:100540004B445B189342F1D80E0001273300FF2281
:1005500093439846FF2343440393029B04AC1D69D5
:10056000514B220043449C46504B644643449B46B7
:10057000B4465E4693468023DB03E118FE235B010D
:100580009C4271D94032100040340200A642F2D1A0
:10059000664643463F220398F31A99095C46134086
:1005A000864221D84A46002A1ED04A4654468446EE
:1005B000AA46D946150001E0002D10D004A88346B4
:1005C0008A0120785A44D0543F22013313405A42C2
:1005D0005A41013689180134013DB445ECD22B0053
:1005E0005546A2464C4699462B7D1F42FCD02023FF
:1005F000FF332B83019343464246B0461E00520808
:10060000EA6193462A4A2A80C5222A4952000120DB
:10061000294B98472B7D1F42FCD0284B2B802B7DEC
:100620001F42FCD06B469B8820002B835B46590001
:100630004030091B62782378120213430A190234EE
:100640001380A042F6D12B7D1F42FCD05B46EB61AC
:100650001B4B40362B8044AB98421AD0029B0400BF
:100660001D6973089B46CFE749082B7D1F42FCD0CC
:1006700020231000FF3349002B834030891A8B1848
:100680001B889BB213701B0A537002329042F6D142
:100690007AE746464B46039A9B19013B9A4200D2A1
:1006A00054E7002044E7C0460000C0FF0001C0FF3F
:1006B0001AA5FFFFD40A00006503000044A5FFFF50
:1006C0001CA5FFFFF821044B4901DA690A40DA61F1
:1006D00001221A617047C046001000408223382072
:1006E00002210A4A1375135C1942FCD11021074AF2
:1006F000D3681942FCD08021137D04480B43137545
:100700000E224839435C1A42FCD17047000C00406D
:100710007047C04680220323D20591781940884251
:1007200009D0FF2191719178994303400B43937055
:100730009379002BFCD07047024B034A5A60052284
:100740001A60704710E000E0FFFFFF000B0E70B56D
:100750005E1EF6B2002B13D0802034000D4A0E4DE1
:1007600040025560956013680342FCD0013CE4B23E
:10077000FF2CF6D13306F61A084B9C4661447118DB
:10078000044A516091608021490213680B42FCD0F9
:1007900070BDC04610E000E0FFFFFF00010000FF59
:1007A000F8B5DE464E4657464546324BE0B5324830
:1007B0009847324E05000A20B047314A012392463D
:1007C000304A934680225203914600242C5501342E
:1007D0009C42FBD10220B047C0224B468021D2056B
:1007E0009361C90323002A005046D84700283ED110
:1007F000C0224B46D20553610220B0470220B047C9
:100800002200FE21204B280098470220B047802379
:10081000C02280219B03D205936198462A002300C1
:10082000C9035046194FB847002821D1C02243467A
:10083000D20553610220B047154A631C9342C4D1CC
:100840002800144B98470A20B047C0210222982361
:10085000C905CA5080235B028B614B468B614346BE
:100860008B613CBC90469946A246AB46F8BDFEE77C
:10087000FEE7C046F908000070170000E50200001E
:10088000940000200D050000330900009D040000C5
:10089000711700000D09000010B5034B9847034B7A
:1008A0009847002010BDC04615010000A1070000B8
:1008B00070B500260C4D0D4C641BA410A64209D146
:1008C000002600F047F90A4D0A4C641BA410A6420A
:1008D00005D170BDB300EB5898470136EEE7B30081
:1008E000EB5898470136F2E7600B0000600B000000
:1008F000600B0000640B000010B5034B010018688A
:1009000000F06AF810BDC0460000002010B5034B8F
:100910000100186800F016F810BDC0460000002065
:10092000002310B59A4200D110BDCC5CC4540133F1
:10093000F8E703008218934200D170471970013321
:10094000F9E7000070B50500002910D00C1F2368DE
:10095000002B00DAE418280000F0AEF81D4A1368F6
:10096000002B05D163601460280000F0A6F870BD6C
:10097000A34209D9216860188342F3D118685B68E3
:1009800041182160EEE713005A68002A01D0A24204
:10099000F9D919685818A0420BD1206809185818BD
:1009A00019608242E0D110685268411819605A609B
:1009B000DAE7A04202D90C232B60D5E72168601842
:1009C000824203D1106852684118216062605C6005
:1009D000CAE7C0468C000020032370B5CD1C9D43A0
:1009E000083506000C2D1ED20C25A9421DD830005A
:1009F00000F062F8254A14682100002919D1244C1E
:100A00002368002B03D1300000F044F82060290057
:100A1000300000F03FF8431C2CD10C233000336031
:100A200000F04BF803E0002DDFDA0C2333600020E8
:100A300070BD0B685B1B1AD40B2B03D90B60CC1851
:100A4000256003E08C420ED163681360300000F033
:100A500034F8200007220B30231D9043C31AE7D03F
:100A60005A42E250E4E74B6863600C00EEE70C008A
:100A70004968C2E70323C41C9C43A042E0D0211A6A
:100A8000300000F007F8431CDAD1C6E78C000020E4
:100A900090000020002370B5064C0500080023607C
:100AA000FFF764FC431C03D12368002B00D02B60AC
:100AB00070BDC046B0000020704770472E2E2F68D2
:100AC000616C2F7372632F68616C5F666C61736811
:100AD0002E6300002E2E2F68706C2F6E766D63745F
:100AE000726C2F68706C5F6E766D6374726C2E63BF
:100AF00000000000000000000000000000000000F6
:100B000000000000000000000000000000000000E5
:100B100000000000000000000000000000000000D5
:100B200000000000000000000000000000000000C5
:100B300000000000000000000000000000000000B5
:100B400000000000000000000000000000000000A5
:100B500000000000F8B5C046F8BC08BC9E467047CF
:100B6000DD000000F8B5C046F8BC08BC9E467047E2
:040B7000B5000000CC
:100B74000400002000000000140B0000340B0000EF
:100B8400F40A000000000000000000000000000063
:100B94000000000000000000000000000000000051
:100BA4000000000000000000000000000000000041
:100BB4000000000000000000000000000000000031
:100BC4000000000000000000000000000000000021
:040BD400000000001D
:00000001FF
