:10000000102100202D01000029010000290100001D
:1000100000000000000000000000000000000000E0
:1000200000000000000000000000000029010000A6
:10003000000000000000000029010000290100006C
:100040002901000029010000290100002901000008
:10005000ED0800002901000029010000290100002D
:1000600029010000290100002901000029010000E8
:1000700029010000290100002901000029010000D8
:1000800029010000290100002901000029010000C8
:1000900029010000290100002901000029010000B8
:1000A00029010000290100002901000029010000A8
:1000B0000000000010B5064C2378002B07D1054B3B
:1000C000002B02D0044800E000BF0123237010BDC4
:1000D00084000020000000003C110000084B10B517
:1000E000002B03D00749084800E000BF0748036819
:1000F000002B00D110BD064B002BFBD09847F9E731
:1001000000000000880000203C1100003C110000AD
:100110000000000010B5024B9847024B984710BDF5
:100120003502000089020000FEE7000010B51A4AFF
:100130001A4B9A4211D01A00194B9A420DD2194A01
:1001400003339B1A9B0801339B000022134812497A
:100150008C58845004329A42FAD1134A134B9A4273
:100160000AD2D34311495B1803218B4304339B18F4
:10017000002102C29342FCD10D4AFF210D4B8B435B
:1001800093600D4A53687F390B4353600B4B98477C
:100190000B4B9847FEE7C0463C11000000000020D2
:1001A00084000020040000208400002010010020B2
:1001B00000ED00E000000000004000414D0E000096
:1001C000350E0000034A116980235B000B43136165
:1001D0007047C0460004004010B5034B98470349E0
:1001E0000348044B984710BDC50100000040004182
:1001F000B4000020B904000010B50248024B984733
:1002000010BDC04610E000E06D04000010B5054AC6
:10021000D16980239B010B43D36103490348044BFD
:10022000984710BD0004004000340042D000002078
:100230004103000010B50E4B9847C023DB05802218
:10024000D20094215A500C395A500A4BA8220A491C
:100250009950C02109069950CA215A5C0120824355
:100260005A54064B9847064B9847064B984710BD83
:10027000350700000028004000040040D9010000BC
:10028000F90100000D020000F0B5C64600B5C0221D
:10029000D2050223942153508021490251618027C5
:1002A0007F035761802080038046506188269351E8
:1002B0001C4BA8201C4D1D50C0252D061D509160C3
:1002C0008021C9059962194C9C6297609962184F08
:1002D0009F6244469460996216499962C127DC5D29
:1002E00001218C43DC55713FDC5D8C43DC550437C8
:1002F000DC5D8C43DC550137DC5D8C43DC558024B0
:10030000E4004337D45194510B4A1A501D50223007
:100310001A5C8A431A54C038084B984704BC90466C
:10032000F0BDC0460028004002000040010000C0AF
:10033000100000C0200000C0000400408104000044
:1003400070B504000D0000280CD00800431E984131
:10035000C0B232220449054B984729002000044BC3
:10036000984770BD0020F4E7481000000105000028
:100370002D05000010B50400431E9841C0B246226E
:100380000349044B98472000034B984710BDC046D3
:1003900048100000010500003D05000070B5040094
:1003A0000D00160000280DD00800431E9841C0B271
:1003B0005A220549054B9847320029002000044B7A
:1003C000984770BD0020F3E74810000001050000C9
:1003D0004105000070B504000D00160000280DD086
:1003E0000800431E9841C0B263220549054B984757
:1003F000320029002000044B984770BD0020F3E72D
:10040000481000000105000041050000F0B583B070
:1004100004000F0015001E0000281AD0002A1AD070
:10042000002B1AD00020089B002B02D00998431EF5
:10043000984177220A490B4B9847099B0193089BE7
:10044000009333002A0039002000074CA04703B076
:10045000F0BD0020EDE70020EBE70020E9E7C04613
:1004600048100000010500005905000010B5024BBE
:100470001860024B984710BDA00000201D0B000023
:1004800010B5044B1C68044B984701002000034B37
:10049000984710BDA000002029070000310B000084
:1004A00010B54369002B00D0984710BD10B5836983
:1004B000002B00D0984710BD70B505000C00002837
:1004C00012D00800431E9841C0B238220749084B99
:1004D000984721002800074B9847002803D1064B76
:1004E0002B60064B6B6070BD0020EEE764100000CF
:1004F000010500003D080000A1040000AD0400005B
:10050000002800D100BE70470300064A1268002A86
:1005100004D0044A1068C318136070470249014AA6
:100520001160F6E7A40000201021002000230B60DA
:1005300001330B6001604B72002070470020704750
:1005400010B53823C25404300232D200014B984710
:10055000002010BDBD0E0000F0B5DE4657464E46E9
:100560004546E0B585B004000E0003910192029368
:100570000268136802208343136023680021196016
:1005800022683823E35C1B02C025AD002B40B50276
:10059000042635432B43136023681A681A602368C6
:1005A00084255E595E4A32435A51226813680343D8
:1005B000136023681971211D0022FF264C3D01C9DB
:1005C0003300134002339B002768BC4663445860E5
:1005D0000132635D02335B009A42F0DB22681379DB
:1005E00002210B4313710F99002203200840FF25BD
:1005F0000CE02B0013400E339B002668B446634486
:100600000E685E6001320431042A0BD00028F0D05D
:100610000E782B0013400E339B002768BC466344C2
:100620005E60EFE70E9B1B09994656D0029B9846E9
:10063000019B9A4600239C46032101205346E24633
:10064000C44698463CE0236837689F630436B54249
:100650000ED0002AF7D073781B02B7783F043B43D3
:1006600037783B43F7783F063B432768BB63EDE7AA
:1006700023681A7901252A43D2B21A712268D379E4
:100680000342FCD06346002605E02268926B9A5133
:100690000436102E0CD00B42F7D02268926B1A70E1
:1006A000150A5D70150C9D70120EDA700433EFE7B9
:1006B00010239B46DC440F3B9B46DA44CA450CD0D2
:1006C00023681A7A8A431A72434610229346D84402
:1006D00045461E000B401A00BBE7039B012B19D0B7
:1006E0000E991039019B9C46614410220F980D4BC6
:1006F00098472268137902218B431371226813688B
:100700008B431360002005B03CBC90469946A2463E
:10071000AB46F0BD0E991039029B9C466144E4E75C
:10072000FFFCAFFFBD0E0000014B58437047C046B1
:10073000E02E000010B5094B5A685A600220084BA1
:100740009847084B9847084B9847084B9847084BE1
:100750009847FF20074B984710BDC0460040004116
:10076000F30A0000A10A0000B90A00009D0700007A
:10077000F10A000079070000C30707D5044A054BBA
:100780001A621900044A4B681342FCD17047C046F4
:100790000601010000180040FD070000034B08227D
:1007A0009A71043A5A71033A1A7170470004004072
:1007B000F8B504000D0017001E0001234B40012076
:1007C0001840C52252001949194B98476808012260
:1007D000237D1342FCD0174B23800122237D13423B
:1007E000FCD02023FF332383002E0ED01F3BFF3B82
:1007F000290099430023FD5CAAB23E2B10D90A8040
:1008000002339BB202319E42F5D80122237D13426E
:10081000FCD0E061084B069A13439BB22380F8BDDD
:10082000FA18527812022A43E9E7C0467C10000009
:100830000105000044A5FFFF00A5FFFF70B50500FE
:100840000C0000281DD0104BC81843425841C0B2BC
:1008500046220E490E4B98472C6162689E23134036
:1008600063600C4B1D600C4B102280215A50BFF36B
:100870004F8FBFF36F8F0131FF315A501A60002044
:1008800070BD0020E4E7C04600C0FFBE7C10000041
:1008900001050000A800002000E100E070B54C0850
:1008A00005690126287D3042FCD02020FF302883B6
:1008B0000020CD0705D50134013081430988090A9C
:1008C0001170984211D212186400241A5D1E03E0C0
:1008D00002300232834208D92118098889B2117086
:1008E0008542F5D9090A5170F2E770BD10B50A4B7F
:1008F000186803691A7DD20704D50368002B00D05D
:10090000984710BD1A7D9207FBD502221A754368DD
:10091000002BF6D09847F4E7A800002070B50B4CE8
:100920000D198024A401A5420AD8084C1C1964188A
:100930008025AD01AC4206D8054CA047002070BD13
:100940000E204042FBE70E204042F8E70000C0FFC7
:100950009D080000F0B5DE4657464E464546E0B5D8
:10096000C5B0834616001D00494BCA1880239B0161
:100970009A4200D986E0464BEB185B188022920120
:10098000934200D981E00C002FE0BA4667465B46EF
:100990001A690121137D0B42FCD02023FF331383FE
:1009A0004B465B08D3613B4B13804B46A0460397F5
:1009B0002A004D46B1465E4693461F007A1B04ABA3
:1009C0009C4662441C230093243339003069324C26
:1009D000A0474037039BBB42F0D144465D46B34637
:1009E0004E462B19013B9A4544D2FF2322009A43DD
:1009F00091464B449A4680235B004B44984617002F
:100A000042460392A0464C46B1465E46AB463A1B70
:100A100004AB9C4662444023390030001F4DA84778
:100A20004037039B9F42F2D15D46B3464E46A146F6
:100A300044464B46E31A99093F2213405445A6D831
:100A4000002DA4D0BC4657468A0104A880464244E3
:100A50003078D05401333F2213405A425A4189180A
:100A600001340136013DA7428FD3002DECD1BA46A7
:100A700067468CE7002045B03CBC90469946A246AC
:100A8000AB46F0BD0E204042F5E70E204042F2E7B3
:100A90000000C0FF1AA5FFFFB10700001D090000FC
:100AA000044BDA69F82149010A40DA6101221A612E
:100AB0007047C046001000408A220C4B1A7518007F
:100AC0003821883A435C1342FCD108491022CB6894
:100AD0001A42FCD0054A137D80210B431375100088
:100AE00048390E22435C1342FCD17047000C004091
:100AF00070478023DB059B780322134098420CD07B
:100B00008022D205FF239371937803218B43084001
:100B1000184390709379002BFCD07047024B034A26
:100B20005A6005221A60704710E000E0FFFFFF00E6
:100B300070B50B0E5E1EF6B2002B13D034000E4AB9
:100B40000E4D802040025560956013680342FCD032
:100B5000013CE4B2FF2CF6D13306F61A084B9C4652
:100B600061447118044B5960996019008022520247
:100B70000B681342FCD070BD10E000E0FFFFFF00E7
:100B8000010000FFF0B5DE4657464E464546E0B54B
:100B900085B09A4F38009A4EB04704000A20994D0C
:100BA000A8473800B04702900A20A8479648974BBC
:100BB000984720271025964B102294466344984668
:100BC00043460393A3E0904E022292493000924B99
:100BD000984702208B4B9A469847C023DB059946DD
:100BE00080235B039B464B465A469A61884B019390
:100BF000002300932300220001213000874EB047DC
:100C00004B465A465A610220D0470220D0478023E3
:100C10009B034A469361002322008021C903804838
:100C2000804EB047002800D0E7E0C023DB0599469E
:100C300080239B039A464B4652465A610220714ECE
:100C4000B0470220B0470220B0474B4652469A6157
:100C5000002322008021C9037148734EB047002849
:100C600028D1C023DB059A4680239B03524653615B
:100C70000220644B99469847634E02226549300032
:100C80006A4B98470220C84780235B039B46534624
:100C90005A469A61039B019300230093029B220012
:100CA000002130005D4EB04753465A465A6102203B
:100CB000C8472AE083E0C023DB059A4680239B03D4
:100CC0005246536102204F4B994698474E4E02229E
:100CD00050493000554B98470220C84780235B039A
:100CE0009B4653465A469A61434601930095029BA0
:100CF000220000213000494EB04753465A465A61FF
:100D00000220C8473D4B9F425AD810351037002368
:100D1000002D00D157E7E35401339D42FBD102225D
:100D20003C4939483C4B98470220364B99469847F6
:100D300080235B039A46C022D2059361344B019312
:100D400000952300220001212F48344EB04753461E
:100D5000C022D20553610220C8470220C847802321
:100D60009B03C022D20593612B0022008021C9037E
:100D70002B482C4EB04700283FD180229203C0233D
:100D8000DB055A6102201F4EB0470220B047002306
:100D9000FE22E25401339D42FBD80220194B9847B2
:100DA00080229203C023DB059A612B002200802160
:100DB000C9031B481C4EB047002800D17BE7FEE763
:100DC00020001B4CA0470298A0470A200D4B9847D3
:100DD000C023DB05022198229950802252029A6199
:100DE000802252039A61802292039A6105B03CBC32
:100DF00090469946A246AB46F0BDFEE7701700004C
:100E0000950E000081040000D00000207503000052
:100E1000000000209C1000009D0300000D04000055
:100E2000B4000020550900001D090000D503000092
:100E3000A90E000010B5034B9847034B98470020BC
:100E400010BDC04615010000850B000070B50026DE
:100E50000C4D0D4C641BA410A64209D1002600F0D5
:100E60005DF90A4D0A4C641BA410A64205D170BD61
:100E7000B300EB5898470136EEE7B300EB589847BC
:100E80000136F2E7281100002811000028110000A7
:100E90002C11000010B5034B0100186800F062F837
:100EA00010BDC0462000002010B5034B010018689B
:100EB00000F00EF810BDC04620000020002310B541
:100EC0009A4200D110BDCC5CC4540133F8E7000055
:100ED00070B50500002910D00C1F2368002B00DA24
:100EE000E418280000F0AEF81D4A1368002B05D165
:100EF00063601460280000F0A6F870BDA34209D911
:100F0000216860188342F3D118685B68411821603A
:100F1000EEE713005A68002A01D0A242F9D91968F5
:100F20005818A0420BD1206809185818196082423D
:100F3000E0D110685268411819605A60DAE7A0429F
:100F400002D90C232B60D5E721686018824203D1B7
:100F5000106852684118216062605C60CAE7C04650
:100F6000AC000020032370B5CD1C9D43083506005E
:100F70000C2D1ED20C25A9421DD8300000F062F8BD
:100F8000254A14682100002919D1244C2368002B1C
:100F900003D1300000F044F820602900300000F058
:100FA0003FF8431C2CD10C233000336000F04BF889
:100FB00003E0002DDFDA0C233360002070BD0B68E6
:100FC0005B1B1AD40B2B03D90B60CC18256003E0F4
:100FD0008C420ED163681360300000F034F82000BA
:100FE00007220B30231D9043C31AE7D05A42E25028
:100FF000E4E74B6863600C00EEE70C004968C2E769
:101000000323C41C9C43A042E0D0211A300000F00E
:1010100007F8431CDAD1C6E7AC000020B00000207E
:10102000002370B5064C050008002360FFF76CFA3A
:10103000431C03D12368002B00D02B6070BDC04639
:101040000C010020704770472E2E2F68616C2F73A3
:1010500072632F68616C5F6165735F73796E632E75
:10106000630000002E2E2F68616C2F7372632F684F
:10107000616C5F666C6173682E6300002E2E2F68B2
:10108000706C2F6E766D6374726C2F68706C5F6E0F
:10109000766D6374726C2E6300000000603DEB108F
:1010A00015CA71BE2B73AEF0857D77811F352C0775
:1010B0003B6108D72D9810A30914DFF4000000004D
:1010C0000000000000000000000000000000000020
:1010D0000000000000000000000000000000000010
:1010E0000000000000000000000000000000000000
:1010F00000000000000000000000000000000000F0
:1011000000000000000000000000000000000000DF
:10111000000000000000000000000000F8B5C0461C
:10112000F8BC08BC9E467047DD000000F8B5C0461C
:0C113000F8BC08BC9E467047B5000000EB
:10113C00000102030405060708090A0B0C0D0E0F2B
:10114C00000102030405060708090A0B0C0D0E0F1B
:10115C002400002000000000DC100000FC10000047
:10116C00BC100000000000000000000000000000A7
:10117C000000000000000000000000000000000063
:10118C000000000000000000000000000000000053
:10119C000000000000000000000000000000000043
:1011AC000000000000000000000000000000000033
:0411BC00000000002F
:00000001FF
