S02200004145532D3235365F43727970746F2D416363656C657261746F722E73726563ED
S1130000102100202D010000290100002901000019
S113001000000000000000000000000000000000DC
S113002000000000000000000000000029010000A2
S11300300000000000000000290100002901000068
S11300402901000029010000290100002901000004
S1130050B508000029010000290100002901000061
S113006029010000290100002901000029010000E4
S113007029010000290100002901000029010000D4
S113008029010000290100002901000029010000C4
S113009029010000290100002901000029010000B4
S11300A029010000290100002901000029010000A4
S11300B00000000010B5064C2378002B07D1054B37
S11300C0002B02D0044800E000BF0123237010BDC0
S11300D0840000200000000084100000084B10B5CC
S11300E0002B03D00749084800E000BF0748036815
S11300F0002B00D110BD064B002BFBD09847F9E72D
S1130100000000008800002084100000841000001B
S11301100000000010B5024B9847024B984710BDF1
S1130120B101000039020000FEE7C0461449154839
S113013010B5814209D0144B984206D2C243D2185A
S1130140920801329200114B98471148114B984282
S113015007D2C243D21892080132920000210E4BFA
S11301609847FF210D4B0E4A8B4393600D4A7F390C
S113017053680B4353600C4B98470C4B9847FEE76E
S1130180841000000000002084000020F50D000011
S11301908400002010010020070E00000000000071
S11301A000ED00E000400041850D00006D0D0000F1
S11301B010B5164B9847C02380229421DB05D2004A
S11301C05A500C395A50C021A822114C114B09061F
S11301D09C509950CA2101205A5C82435A5480236E
S11301E022695B00134323610B490C4B0C4898476D
S11301F00C480D4B98478023E2699B011343E3614C
S11302000A490B4B0B48984710BDC046DD07000058
S11302100004004000280040004000415D0400004C
S1130220B400002010E000E011040000003400429B
S1130230F1020000D0000020C022F0B50223C6461F
S11302409421D20500B58027535080208021882630
S113025049027F0380035161804657615061A820A1
S113026093511C4D1C4B1D4C1D50C0252D061D507B
S113027091608021C90599629C6244469760184F39
S113028099629F629460C12799621649996201211B
S1130290DC5D8C43DC55713FDC5D8C43DC550437FD
S11302A0DC5D8C43DC550137DC5D8C43DC558024FC
S11302B04337E400D45194510B4A1A501D50223054
S11302C01A5C8A431A54C038084B984704BC9046B9
S11302D0F0BDC0460200004000280040010000C0FC
S11302E0100000C0200000C00004004025040000ED
S11302F070B504000D0000280CD00800431E98417E
S1130300C0B232220449054B984729002000044B0F
S1130310984770BD0020F4E7900F0000A50400008A
S1130320C904000010B50400431E98414622044944
S1130330C0B2044B98472000034B984710BDC046F9
S1130340900F0000A5040000D904000070B504005B
S11303500D00160000280DD00800431E9841C0B2BD
S11303605A220549054B9847320029002000044BC6
S1130370984770BD0020F3E7900F0000A50400002B
S1130380DD04000070B504000D00160000280DD037
S11303900800431E9841C0B263220549054B9847A3
S11303A0320029002000044B984770BD0020F3E779
S11303B0900F0000A5040000DD040000F0B5040067
S11303C083B00F0015001E000020002C0AD0002A64
S11303D008D0002B06D0089B002B03D00998431E9D
S11303E09841C0B277220749074B9847099B2A00D6
S11303F00193089B3900009320003300034CA0476D
S113040003B0F0BD900F0000A5040000F504000047
S113041010B5024B1860024B984710BDA000002095
S1130420850B0000044B10B51C68044B9847044B23
S113043001002000984710BDA0000020D50700004F
S1130440990B0000436910B5002B00D0984710BDEC
S1130450836910B5002B00D0984710BD70B5040017
S11304600D00002812D00800431E9841C0B208496C
S1130470084B3822984729002000074B984700284A
S113048003D1064B2360064B636070BD0020EEE78A
S1130490AC0F0000A504000055080000450400004E
S11304A051040000002800D100BE7047044A1368BC
S11304B0002B03D01818106018007047014BF9E79F
S11304C0A40000201021002000230B6001330B60E6
S11304D0016000204B72704700207047382310B52C
S11304E0C25402320430D200014B9847002010BDA0
S11304F0F50D0000F0B557464E464546DE4604006D
S1130500E0B50768022089B006933B680E00834378
S1130510079100213B6038233960E55CC0230592D4
S11305209B002A021340B2020426324313433B6069
S11305303B68A64A3B608423FE5802353243FA5096
S1130540FF2600223B686D0003433B603971211D87
S113055033001340023301C99B00FB180132586079
S1130560AA42F5D102223B7913433B71139B9B07AB
S113057000D111E1139B1B78FB63139B1B793B6434
S1130580139B1B7A7B64139B1B7BBB64129B1B0911
S113059000D1E5E00C21069E884632004244944690
S11305A00598320080460836B2466646111D1B0186
S11305B00D00984402964646A846554604963E00C9
S11305C00300032001210195357A894685430121E1
S11305D03572034237D11D68B5635D68B5639D68A4
S11305E0B563DD68B5634F46357910333D436F46D7
S11305F0FD73FD7B019F3571F5792942FCD001978C
S113060002427DD1B66B166016002568AA46AD6B12
S113061075605546AD6BB5605546AD6BF560029D92
S113062010350295019D1032103501951025AC4608
S1130630049DE044AB4200D192E02668357A8543BC
S113064035720342C7D01D78AC465D782D02AB46A7
S113065065465F463D43AB469D782D04AC465D46FA
S113066067463D43AB46DD782D06AC465D4667469E
S11306703D43B5631D79AC465D792D02AB466546B5
S11306805F463D43AB469D792D04AC465D466746C7
S11306903D43AB46DD792D06AC465D4667463D439A
S11306A0B5631D7AAC465D7A2D02AB4665465F465E
S11306B03D43AB469D7A2D04AC465D4667463D43BB
S11306C0AB46DD7A2D06AC465D4667463D43B563D1
S11306D01D7BAC465D7B2D02AB4665465F463D43C4
S11306E0AB469D7B2D04AC465D4667463D43AB4619
S11306F0DD7B2D06AC465D4667463D43B56372E738
S1130700B56B2E0A56702E0C9670464615702D0E3B
S1130710D570304200D178E72568AD6B2E0A15718B
S113072056712E0C2D0E9671D5713E0038424AD06A
S11307302568029FAD6B2E0A157256722E0C2D0E73
S11307409672D5723E0038423AD02568AE6B350AAF
S113075016735573350C360E9573D6733D005FE7EB
S1130760079B012B26D0059B12999C4610396144A6
S113077010221398164B98470221002023681A79F7
S11307808A431A711A688A431A6009B03CBC9046BD
S11307909946A246AB46F0BD139B1B68FB63139BB3
S11307A05B683B64139B9B687B64139BDB680193CE
S11307B0BB64EBE6069B12999C4610396144D7E76B
S11307C02568AA4628E72568AA4622E7FFFCAFFF6A
S11307D0F50D0000FA231B015843704710B5094B6F
S11307E002205A685A60084B9847084B9847084BB0
S11307F09847084B9847084B9847FF20074B984762
S113080010BDC04600400041610B0000110B000008
S1130810290B0000410800005D0B000021080000C6
S1130820C30706D5034A044B0449136253680B42B9
S1130830FCD170470018004006010100FD070000CC
S11308400822034B9A71043A5A71033A1A71704799
S11308500004004070B505000C0000281DD0104BAA
S1130860C81843425841C0B246220E490E4B98471D
S11308709E232C61626880211340102263600B4B1D
S11308801D600B4B5A50BFF34F8FBFF36F8F013175
S1130890FF315A5000201A6070BD0020E4E7C046C2
S11308A000C0FFBEC40F0000A5040000A800002083
S11308B000E100E001220B4B10B518680369197DB3
S11308C00A4204D00368002B00D0984710BD197D5C
S11308D049080A42FAD002221A754368002BF4D15F
S11308E0F4E7C046A800002070B58025194CAD017E
S11308F00C19AC4202D90E20404270BD154C1C1993
S11309006418AC42F7D8012405694E08287D0442D6
S1130910FCD02020FF30288300200C4213D18342D6
S11309200FD976005D1E1218361A3118098889B25B
S11309301170854201D9090A517002300232834292
S1130940F3D80020D9E7A14309880136090A1170B8
S11309500130E4E70000C0FFF0B557464E46DE46DE
S1130960454692468022E0B59946624BC5B0CB1805
S113097002909201934208D90E20404245B03CBCFB
S113098090469946A246AB46F0BD5A4B4B445B1881
S11309909342F1D80E0001273300FF229343984677
S11309A0FF2343440393029B04AC1D69514B220073
S11309B043449C46504B644643449B46B4465E467F
S11309C093468023DB03E118FE235B019C4271D92B
S11309D04032100040340200A642F2D1664643463B
S11309E03F220398F31A99095C461340864221D8A2
S11309F04A46002A1ED04A4654468446AA46D94648
S1130A00150001E0002D10D004A883468A01207847
S1130A105A44D0543F22013313405A425A410136BA
S1130A2089180134013DB445ECD22B005546A24649
S1130A304C4699462B7D1F42FCD02023FF332B8349
S1130A40019343464246B0461E005208EA6193466B
S1130A502A4A2A80C5222A4952000120294B984754
S1130A602B7D1F42FCD0284B2B802B7D1F42FCD0BA
S1130A706B469B8820002B835B4659004030091B42
S1130A8062782378120213430A1902341380A042B5
S1130A90F6D12B7D1F42FCD05B46EB611B4B4036ED
S1130AA02B8044AB98421AD0029B04001D69730842
S1130AB09B46CFE749082B7D1F42FCD02023100022
S1130AC0FF3349002B834030891A8B181B889BB253
S1130AD013701B0A537002329042F6D17AE74646ED
S1130AE04B46039A9B19013B9A4200D254E70020DB
S1130AF044E7C0460000C0FF0001C0FF1AA5FFFF85
S1130B00C40F0000A504000044A5FFFF1CA5FFFFBF
S1130B10F821044B4901DA690A40DA6101221A61B9
S1130B207047C046001000408223382002210A4A40
S1130B301375135C1942FCD11021074AD36819427A
S1130B40FCD08021137D04480B4313750E224839D1
S1130B50435C1A42FCD17047000C00407047C04609
S1130B6080220323D20591781940884209D0FF21BD
S1130B7091719178994303400B4393709379002BBF
S1130B80FCD07047024B034A5A6005221A60704732
S1130B9010E000E0FFFFFF000B0E70B55E1EF6B222
S1130BA0002B13D0802034000D4A0E4D40025560B6
S1130BB0956013680342FCD0013CE4B2FF2CF6D1EB
S1130BC03306F61A084B9C4661447118044A516076
S1130BD091608021490213680B42FCD070BDC0466D
S1130BE010E000E0FFFFFF00010000FFF0B5DE466B
S1130BF057464E464546E0B54D4C85B04D48A04756
S1130C004D4E05000A20B0474A48A04703900A20E9
S1130C10B0474A4BC02718009A46494B9847494A5F
S1130C2010239346802252039146FF050295002427
S1130C30029D2C5501349C42FBD102225946424B61
S1130C405046029598470220B0474B46BB613F4B44
S1130C5001210193029B3E4D1A0000945046A8477F
S1130C604B4602207B61B0470220B047802380219D
S1130C709B03BB619846029A2300C9033548364D4D
S1130C80A847002851D1434602207B61B047022087
S1130C90B0472200FE21314B029898470220B0470A
S1130CA043468021BB61029A2300C90329482C4D85
S1130CB0A84700283AD1434602207B61B04702226C
S1130CC05946284B504698470220B0474B46BB61D3
S1130CD01E4B029A103301930021039B009450464B
S1130CE01B4DA8474B4602207B61B0472300BC2222
S1130CF01033520193429AD1029D1B4C2800A04705
S1130D000398A0470A20B04702229823FA50802370
S1130D105B02BB614B46BB614346BB6105B03CBC57
S1130D2090469946A246AB46F0BDFEE7FEE7C046B4
S1130D30CD0D00007017000025040000D000002035
S1130D4025030000E40F00004D0300000000002014
S1130D50BD030000B400002059090000070E000084
S1130D60E908000085030000E10D000010B5034B05
S1130D709847034B9847002010BDC046150100005A
S1130D80ED0B000070B500260C4D0D4C641BA41037
S1130D90A64209D1002600F065F90A4D0A4C641BED
S1130DA0A410A64205D170BDB300EB589847013694
S1130DB0EEE7B300EB5898470136F2E770100000F5
S1130DC070100000701000007410000010B5034B88
S1130DD00100186800F06AF810BDC0462000002029
S1130DE010B5034B0100186800F016F810BDC0469A
S1130DF020000020002310B59A4200D110BDCC5C25
S1130E00C4540133F8E703008218934200D17047B9
S1130E1019700133F9E7000070B50500002910D0FE
S1130E200C1F2368002B00DAE418280000F0AEF849
S1130E301D4A1368002B05D163601460280000F07C
S1130E40A6F870BDA34209D9216860188342F3D182
S1130E5018685B6841182160EEE713005A68002A9D
S1130E6001D0A242F9D919685818A0420BD12068C0
S1130E700918581819608242E0D110685268411864
S1130E8019605A60DAE7A04202D90C232B60D5E737
S1130E9021686018824203D11068526841182160A9
S1130EA062605C60CAE7C046AC000020032370B5F2
S1130EB0CD1C9D43083506000C2D1ED20C25A942DD
S1130EC01DD8300000F062F8254A1468210000297A
S1130ED019D1244C2368002B03D1300000F044F8CE
S1130EE020602900300000F03FF8431C2CD10C2373
S1130EF03000336000F04BF803E0002DDFDA0C2300
S1130F003360002070BD0B685B1B1AD40B2B03D914
S1130F100B60CC18256003E08C420ED1636813602B
S1130F20300000F034F8200007220B30231D9043DA
S1130F30C31AE7D05A42E250E4E74B6863600C00FE
S1130F40EEE70C004968C2E70323C41C9C43A0429B
S1130F50E0D0211A300000F007F8431CDAD1C6E7CC
S1130F60AC000020B0000020002370B5064C050042
S1130F7008002360FFF79AFA431C03D12368002B6F
S1130F8000D02B6070BDC0460C0100207047704734
S1130F902E2E2F68616C2F7372632F68616C5F61F2
S1130FA065735F73796E632E630000002E2E2F68C5
S1130FB0616C2F7372632F68616C5F666C61736818
S1130FC02E6300002E2E2F68706C2F6E766D637466
S1130FD0726C2F68706C5F6E766D6374726C2E63C6
S1130FE000000000603DEB1015CA71BE2B73AEF01B
S1130FF0857D77811F352C073B6108D72D9810A379
S11310000914DFF4000000000000000000000000EC
S113101000000000000000000000000000000000CC
S113102000000000000000000000000000000000BC
S113103000000000000000000000000000000000AC
S1131040000000000000000000000000000000009C
S1131050000000000000000000000000000000008C
S113106000000000F8B5C046F8BC08BC9E467047B6
S1131070DD000000F8B5C046F8BC08BC9E467047C9
S1071080B5000000B3
S1131084000102030405060708090A0B0C0D0E0FE0
S1131094000102030405060708090A0B0C0D0E0FD0
S11310A4240000200000000024100000441000006C
S11310B40410000000000000000000000000000014
S11310C40000000000000000000000000000000018
S11310D40000000000000000000000000000000008
S11310E400000000000000000000000000000000F8
S11310F400000000000000000000000000000000E8
S107110400000000E3
S9030000FC
