S00B00004646542E7372656339
S1130000580500202D0100002901000029010000ED
S113001000000000000000000000000000000000DC
S113002000000000000000000000000029010000A2
S11300300000000000000000290100002901000068
S11300402901000029010000290100002901000004
S113005029010000F103000029010000290100002A
S113006029010000290100002901000029010000E4
S113007029010000290100002901000029010000D4
S113008029010000290100002901000029010000C4
S113009029010000290100002901000029010000B4
S11300A029010000290100002901000029010000A4
S11300B00000000010B5064C2378002B07D1054B37
S11300C0002B02D0044800E000BF0123237010BDC0
S11300D06800002000000000D0560000084B10B556
S11300E0002B03D00749084800E000BF0748036815
S11300F0002B00D110BD064B002BFBD09847F9E72D
S1130100000000006C000020D0560000D056000013
S11301100000000010B5024B9847024B984710BDF1
S1130120C5010000D1010000FEE7000010B51A4A25
S11301301A4B9A4211D01A00194B9A420DD2194AFD
S113014003339B1A9B0801339B0000221348124976
S11301508C58845004329A42FAD1134A134B9A426F
S11301600AD2D34311495B1803218B4304339B18F0
S1130170002102C29342FCD10D4AFF210D4B8B4357
S113018093600D4A53687F390B4353600B4B984778
S11301900B4B9847FEE7C046D056000000000020F5
S11301A0680000200400002068000020580100209E
S11301B000ED00E00000000000400041F5500000A8
S11301C0B110000010B5014B984710BDCD020000DE
S11301D070B5C022D20502239421535080214902D4
S11301E05161802464035461802080035061882518
S11301F05351154B2035154E5E51C02636065E51BF
S113020091608021C9059962114D9D629460996243
S1130210104C9C62906099620F4A9A62C120195CEA
S11302200122914319547138195C914319540430D3
S1130230195C914319540130195C914319544B389A
S1130240064B984770BDC04600280040020000409D
S1130250010000C0100000C0200000C061020000C6
S113026010B5044B1C68044B984701002000034B55
S1130270984710BD84000020A5020000C5020000BC
S11302800300064A1268002A04D0044A1068C318FE
S1130290136070470249014A1160F6E788000020A4
S11302A05805002010B50300C82040005843023010
S11302B00321034B984703008000C018400010BD81
S11302C0152800000139FDD87047000010B50D4B0A
S11302D05A685A6002200C4B98470C4B98470C4BB9
S11302E098470C4B98470C4B9847FF200B4B98476B
S11302F00B4A116980231B010B431361094B984777
S113030010BDC04600400041D70400008504000031
S11303109D04000071040000D50400004D04000099
S11303200004004029030000F0B5CE46474680B5DE
S11303302A4B1A8802218A431A801A8802318A4376
S11303401A803C315A5C012002435A54002119801E
S11303505A7B82435A7300229A735961204A5A6322
S1130360204A9A632049002218003F239C464024D7
S113037001271B4D00239946D3B266468355035D7E
S113038098460B789B093B409B014646A643334362
S113039003554B6843640B899846130146465E53E4
S11303A0EB184E46DE6001320C31102AE4D10F4BBB
S11303B0103280215A50BFF34F8FBFF36F8F01313A
S11303C0FF315A501A60054A13887F39FF390B43AD
S11303D0138000200CBC90469946F0BD00040044F4
S11303E00000003000010030F052000000E100E0A5
S11303F070B5144A118C0F230B403F24155DEDB2E8
S11304005800C01880001049081813554E21515C3B
S1130410C9B21555CA0702D48A0707D470BD3E3C39
S11304204E2208498C5443689847F7E702244E2229
S113043004498C545A00D3189B00034A9B5898478C
S1130440ECE7C046000400448C000020C30707D535
S1130450044A054B1A621900044A4B681342FCD142
S11304607047C0460601010000180040FD07000067
S1130470034B08229A71043A5A71033A1A7170476D
S113048000040040044BDA69F82149010A40DA61AA
S113049001221A617047C0460010004082220C4BB2
S11304A01A7518003821803A435C1342FCD108497C
S11304B01022CB681A42FCD0054A137D80210B43DD
S11304C01375100048390E22435C1342FCD1704767
S11304D0000C004070478023DB059B780322134007
S11304E098420CD08022D205FF2393719378032184
S11304F08B430840184390709379002BFCD07047CD
S1130500F0B5DE4657464E464546E0B59FB0060078
S11305100C0013920293289B1A680A92596811914D
S113052017004F43FF00C719012900D1CCE11399EB
S11305300A000A9842430392CA0002995143119A4D
S1130540D20092463500082290469844B3460E00E5
S1130550299B99464B46019343460093029B039A79
S113056021002800FFF7CCFFA4195544AF42F1D174
S11305705E460A9B032B00D118E200DCB1E10A9B22
S1130580042B00D1D2E2052B00D0E2E3299A0932F0
S1130590FF32119C210013984143C90053181D6870
S11305A002955D6803955B18196804915B6805936F
S11305B02100E300F418A0469946C1449A46CA446F
S11305C053449B46002900DCE3E1C1001A910692E2
S11305D001011B91430084466344DB001C934301E7
S11305E01D9309920892079200231993EC4FED4D45
S11305F0ED4C33004646984643461B680A934246F0
S113060052680B9231680B1C0699086872680C9248
S11306104A680D921090011C0F93181CB8470E9055
S11306200D990C98B847011C0E98A8470E900D9987
S11306300F98B8470D900C991098B847011C0D9865
S1130640A0470F904B461B681A1C079B1868494625
S113065049680C915B680D931390011C1292101C55
S1130660B84710900D990C98B847011C1098A847EA
S113067010900D991298B8470D900C991398B8479B
S1130680011C0D98A047129052461268131C089A38
S11306901168504640680C9052680D92159114935D
S11306A0181CB84713900D990C98B847011C13985F
S11306B0A84713900D991498B8470D900C99159864
S11306C0B847011C0D98A0471490594609680B1CA3
S11306D009990A68584640680C9049680D91179228
S11306E0111C1693181CB84715900D990C98B8470F
S11306F0011C1598A84715900D991698B8470D90A8
S11307000C991798B847011C0D98A0471690159995
S11307100E98A0470C9016990F98A0470D90159924
S11307200E98A847159016990F98A84716901399F4
S11307301098A0470E9014991298A0470F901399FF
S11307401098A847109014991298A84712900E99DF
S11307500C98A0470A99A047434618600F990D9832
S1130760A0470B99A047434658600C990298B84794
S11307700A99A04713900E990498B847011C13983E
S1130780A04713900D990298B8470B99A04714906D
S11307900F990498B847011C1498A047149016990F
S11307A00398B847179012990598B847011C1798F1
S11307B0A047179015990398B847030080221206A2
S11307C094466344189310990598B847011C1898E7
S11307D0A847189017991398A84730601899149847
S11307E0A847706017991398A0475B46186018993A
S11307F01498A0475B4658600C990498B8470A9926
S1130800A0470A900E990298B847011C0A98A0477D
S11308100A900D990498B8470B99A0470B900F992B
S11308200298B847011C0B98A0470B9012990398A3
S1130830B8470C9016990598B847011C0C98A8471E
S11308400C9015990598B8470D9010990398B847DE
S1130850011C0D98A8470D900C990A98A0474B4687
S113086018600D990B98A0474B4658600C990A984C
S1130870A847534618600D990B98A84753465860EB
S113088008208446E0440836E144E244E3441998ED
S11308900130199006991A9B9C4661440691079B66
S11308A01A001B9B9C4662440792089A1C9B9C4618
S11308B06244089209991D9B9C4661440991119BCD
S11308C0834200D098E664E0139BD800029B434324
S11308D018003300220022CA22C324189F42F9D1EF
S11308E047E6022B00D034E2299B8422520094462E
S11308F063449A46119AD3009846B044139BDB0094
S11309009B469146264C274F274D33004646D846F2
S11309109B4633685246126871680291504640689B
S113092003900692111C0593181CA0470490039988
S11309300298A047011C0498B847049003990598AD
S1130940A047039002990698A047011C0398A84762
S11309500290C24404995B461868B8473060029913
S11309605B465868B847706004995B461868A847A6
S11309705B46186002995868A8475B465860083679
S113098008239C46E344093B9C46E1444B46002B28
S1130990BFD11FB03CBC90469946A246AB46F0BDC1
S11309A0A12E0000E13000007D2B00001199099177
S11309B0139A13004B432133DB0029988446634484
S11309C05B680893030084204000844663449B468C
S11309D0CB00D1000B9112010C92F21890464344C3
S11309E09A46D946ED4CEE4FEE4D33005E469B469B
S11309F043461B6832684146496802917068039017
S1130A000692111C0593181CA047049003990298A0
S1130A10A047011C0498B847049003990598A0477F
S1130A20039002990698A047011C0398A8470590D3
S1130A3053461B684A461268514649680291494622
S1130A40496803910A92111C0793181CA047069049
S1130A5003990298A047011C0698B8470690039989
S1130A600798A047039002990A98A047011C03988D
S1130A70A847029006990498A847039002990598FC
S1130A80A84707900B9B9C4666440C9B9C46E144FC
S1130A90FC2189050398A047011C5B461868B847E8
S1130AA043461860FC2189050798A047011C5B4652
S1130AB05868B8474346586006990498B847089957
S1130AC0A047049002990598B8470899A047029056
S1130AD003995B461868A8475B46186007995868ED
S1130AE0A8475B465860029943461868A84753468E
S1130AF01860049943465868B847534658600299A9
S1130B0043461868B8474346186004995868A8478C
S1130B104346586008239C46E344099B013B0993E0
S1130B20E044E244002B00D062E732E7119A0C92D1
S1130B30299B0933FF3319000293D300139AD00081
S1130B400F90100110901000520084466244D200AD
S1130B501192F21892469946D1444B449B46049113
S1130B6003918E4B98468E4D8E4F330016009A4655
S1130B7022E005990B988B4B9847306006990E9CA0
S1130B80201C874B9847706005990B98844B9847B5
S1130B905B4618600699201C824B98475B46586058
S1130BA008239C46E2440C9B013B0C930836E14429
S1130BB0E344002B00D1ECE633681A1C029B19684D
S1130BC0706805905C6808910792101CC0470690F5
S1130BD0211C0598C047011C0698A8470690211CB3
S1130BE00798C047041C05990898C047011C201C9D
S1130BF0B84707904A461268101C039A11684C467D
S1130C006468059454680A910990C0470890211CAF
S1130C100598C047011C0898A8470890211C09980A
S1130C20C047041C05990A98C047011C201CB847FA
S1130C300990594609680A1C04990C68201C5C46F2
S1130C40646805944C680D90011C0B92101CC047FD
S1130C500A90211C0598C047011C0A98A8470A90CD
S1130C60211C0B98C047041C05990D98C047011C12
S1130C70201CB8470590544624680899201CA847AE
S1130C800B90514649680A1C09990D92101CA847FB
S1130C900E90211C0898B847041C514608600D9911
S1130CA00998B847514648600A990698B847089089
S1130CB005990798B84709900A990698A847069095
S1130CC005990798A84705900899201CA8474C4601
S1130CD02060099C211C52465068A8474A4650602F
S1130CE0029B1A000F9B9C4662440292039A109B3B
S1130CF09C4662440392049B119A94466344049371
S1130D00089953461868B84753461860211C586818
S1130D10B84753465860299B5B680793002B00D162
S1130D2027E705990B981E4B9847306006990E9C4F
S1130D30201C1C4B9847706005990B98194B9847D9
S1130D405B4618600699201C154B98475B46586013
S1130D5026E7299B0933FF330F93299B1B68984689
S1130D600A9BDC002000104B98470D90002800D10E
S1130D700FE61199002900DC96E01096CA000C9247
S1130D800200844664440794139848430E90002359
S1130D90129314931592014D72E0C046A12E0000E7
S1130DA0E13000007D2B00003D5100003B681A1C1F
S1130DB05346DB004B441968786804905B681C1C3C
S1130DC003910292101CA84706900594211C049CD0
S1130DD0201CA847011C0698354B9847011C306815
S1130DE0344B9847306005990298A8470290211C1B
S1130DF00398A847011C02982E4B9847011C706861
S1130E002C4B984770600837079B9F4207D0DA4401
S1130E10D045CBDC534642469B1A9A46C6E70B9B09
S1130E2001330B93089A0C998C4662440892099AF0
S1130E300E998C46624409920A9A9A4212D0089AF0
S1130E4093460D9E330003CB03C20A9B012BE6DDC0
S1130E50083600270F9B9946BA4637005E46099B21
S1130E609B46D4E7149B01331493109A08321092D2
S1130E70129A13998C4662441292119A9A4213D090
S1130E800A9B002BEEDD159A109B0C98079E190007
S1130E9090C990C21B18B242F9D1129B0993109BBE
S1130EA0089300230B93CAE70D98034B984770E50A
S1130EB0E13000007D2B000051510000F0B5DE460A
S1130EC057464E464546E0B585B004000D00213036
S1130ED0C000002B1CD0002A1ED000218B461968AC
S1130EE0884200D8934618605B46002B7DD01C6076
S1130EF05D60002C41DD5F460937FF3700263F4B1C
S1130F009A463F4B99463F4D3F4B9846039416E013
S1130F103E4B98478346E7E700229346E3E7009871
S1130F2014001100C847A847386000982100C04742
S1130F30A847786001360837039BB3421CD03000C1
S1130F40D047334A334B344CA04700900191039867
S1130F50D04702000B0000980199304CA047009044
S1130F600A005B465B68002BD9D00B008022120676
S1130F70944663441A00D2E71C005E4608362000FB
S1130F801E4B9847264B9847264B98470090019153
S1130F900425254F254B9A46184B9946244B9846D1
S1130FA014E0022D03D0042D0DD0023500E00325FA
S1130FB02800C84702000B0000980199C047002888
S1130FC004D0250002E00225F2E71E0029002000DB
S1130FD0B8470029E5D129002000D0470400356036
S1130FE03300083370600128EFDC584605B03CBC80
S1130FF090469946A246AB46F0BDC046154F000048
S1131000A1110000994F00005D1300003D51000044
S1131010182D4454FB2119C041430000D93A000063
S1131020ED1300002D120000F52A0000292900000C
S11310302D2B0000F0B585B006000D0014000393BD
S113104091420AD00190030008330093039B0122CC
S113105020000F4CA04705B0F0BD002AFBD0036868
S1131060D8000C4B9847071EF5D00196330008337F
S11310700093039B01222900054DA8473268D20042
S113108039002000044B98473800044B9847E2E7A6
S1131090010500003D510000655100005151000060
S11310A010B50123014CA04710BDC0463510000007
S11310B0F0B5CE46474680B585B0314B98470220FF
S11310C0304FB847C024E40580235B039946A361ED
S11310D08025ED0028002C4EB04701902800B04731
S11310E002900023002200218020284DA84703906D
S11310F04B4663610220B847019E0027244DFB172D
S11311001B0CF8180004000CC01A224B9C466044C7
S1131110A8473060706001370836802FEFD1022075
S1131120184B98469847C027FF058025AD03BD613D
S1131130029A019C21000398174B98477D61022075
S1131140C0470220C04780267603BE612000134CAE
S1131150A0470298A0470398A0477E610220C04799
S11311600A20C04702229823FA5080235B02BB6105
S1131170BE61BD61002005B00CBC90469946F0BD2F
S113118015010000610200003D510000BD0E000089
S1131190193400000080FFFFA1100000515100002D
S11311A030B5204A4B0087B05B0893421CDD1E4AD1
S11311B0934205DD02000B0003F042FB07B030BD93
S11311C002AA00F073F903231840049A059B01282E
S11311D018D002280DD000281ED0029803990124AB
S11311E0009401F0F1F9E9E70022002300F056FC35
S11311F0E4E70298039900F051FC80231B069C4607
S11312006144DBE700900298039901F0DDF9802343
S11312101B069C466144D1E70298039900F03EFC0A
S1131220CCE7C046FB21E93FFFFFEF7F454AF8B515
S1131230574692464B005B0D9A444E464546DE4661
S11312405246E0B50C0005000E0089460700132A3B
S113125022DC002A47DB52463B4B134198460B00E5
S113126042461340034311D0384A394B02F024F963
S11312700022002301F06EFC002805D0002C41DB85
S11312804E46434600279E43380031003CBC9046FE
S11312909946A246AB46F8BD5246332A08DD802360
S11312A0DB009A45F2D102000B0002F005F9EDE7EC
S11312B0284A9446012263445242DA409346024249
S11312C0E4D0224A224B02F0F7F80022002301F076
S11312D041FC0028D8D0002C1ADB5B464E469F43C5
S11312E038003100D2E7194A194B02F0E5F8002220
S11312F0002301F02FFC0028C6D0002C16DB0027A9
S11313000026C1E7802352465B0313419944B7E7A3
S11313105346142B12D03423524601279B1A9F4064
S11313207F19AF429B415B429944D6E7640064084D
S113133025430027002DA7D0074EA5E7133B9C4665
S1131340E144CAE701FCFFFFFFFF0F009C75008822
S11313503CE4377EEDFBFFFF0000F0BF30B5214ACF
S11313604B0087B05B0893421EDD1F4A934205DDA4
S113137002000B0003F064FA07B030BD02AA00F0CB
S113138095F803231840049A059B01281ED00228CF
S113139011D000281FD00298039900F07FFB80230E
S11313A01B069C466144E7E70023002200930023C8
S11313B001F00AF9E0E7012402980399009401F08E
S11313C003F980231B069C466144D5E702980399E0
S11313D000F064FBD0E7012402980399009401F023
S11313E0F3F8C9E7FB21E93FFFFFEF7FF0B547467C
S11313F0CE4680B58DB004000D0000F06FFA294B85
S113140006001B780F005BB29846013310D022000F
S11314102B002000290003F029FD8146002807D174
S1131420002200232000290001F080FB002806D1BF
S1131430300039000DB00CBC90469946F0BD012334
S11314400293194B0694079503934B460A9343461C
S113145004940595002B15D00023002219001000D8
S113146002F03AFB434608900991022B0ED103F097
S11314703BFE212303600A9B0193002B0CD1089EA1
S1131480099FD5E7002300240893099402A801F0DA
S11314904FF90028EFD1EAE703F026FE0A9B0193F7
S11314A00360ECE700000020B0530000F0B54E46A6
S11314B04546DE465746E0B5D44B4C008FB09046C7
S11314C0894664089C4200DC87E0D14B9C4222DCC4
S11314D0D04A002900DCBFE1CF4B03F0B1F9CE4B79
S11314E006000F009C4200D194E0CC4ACC4B03F0A0
S11314F0A7F902000B00414630000A604B60390036
S113150003F09EF9C64BC54A03F09AF943460125F8
S11315109860D9606BE0C34B9C4200DC97E0C24BFF
S11315209C426CDCC14A231592469A4451460905F3
S1131530631A19001D00040003F0B8FC03F0EAFC70
S113154002000B00200029000892099303F078F9A7
S11315500022B74B02F0F4FE0F00060003F0A6FCD5
S113156003F0D8FC04000D0002000B003000390029
S11315700A940B9503F064F90022AD4B02F0E0FEEF
S1131580002200230C900D9101F0CAFA002800D12A
S113159081E1002300222000290001F0C1FA434226
S11315A043410133A34A41460192022208A8009212
S11315B0524600F08DFB4B460500002B17DA8022C3
S11315C043461206944642465B6845426344536070
S11315D0D36842466344D36009E00B0002004146ED
S11315E00A604B600022002300258A60CB6028003B
S11315F00FB03CBC90469946A246AB46F0BD0B00EA
S1131600020003F01DF9434600259860D960186074
S11316105960ECE7D322824B520503F011F9864A54
S1131620864B0D00040003F00BF902000B00414649
S113163020000A604B60290003F002F97F4B7E4AC8
S113164003F0FEF8434601259860D960CFE701F026
S11316506BF87B4A7B4B06000F0002F071FE002200
S1131660794B01F029FF03F021FC050003F052FC43
S1131670684A694B0490059102F062FE02000B0077
S11316803000390003F0DCF8644A06000F000498C7
S11316900599634B02F054FE029003911F2D33DC35
S11316A06B1E6A4A9B009B589C422DD002000B0083
S11316B03000390003F0C4F80B008A4602004146AA
S11316C083460A604B605A4653463000390003F0A3
S11316D0B7F8029A039B03F0B3F844460B000200E8
S11316E0A260E3604B46002B00DB80E75B4623608F
S11316F080231B065344636080231B069C4661447D
S1131700A060E1606D4272E7029A039B30003900E9
S113171003F096F80B008A46020041460A604B60CB
S113172053465B0024155B0D8346E31A102BCADD78
S113173004980599D3223A4B520502F001FE029017
S1131740039102000B003000390003F079F8069091
S1131750079102000B003000390003F071F8029A7F
S1131760039B03F06DF806000F0004980599324AB4
S1131770324B02F0E5FD32003B0003F061F8069EB7
S1131780079F02000B00300039000292039303F01C
S113179057F80B008A46020041460A604B605346E4
S11317A05B005B0D8346E41A06960797312C8ADDAD
S11317B004980599B822214B920502F0C1FD03005B
S11317C00C0002000293039430000B00390003F074
S11317D037F802000B0006000F000698079903F083
S11317E02FF8029A039B03F02BF8194A02900391F5
S11317F004980599174B02F0A3FD029A039B03F08A
S11318001FF802000B000292039351E7FB21E93F0A
S11318107BD9024000004054FB21F93F3163621A36
S113182061B4D03DFB213941FFFFEF7FEAFBFFFFAD
S113183000007041385400007370032E8A19A33BD2
S113184083C8C96D305FE43F0000E03FB853000037
S1131850C14920259A837B391B4B01F02DFE1A4B7D
S113186006000F009C4218D0184A194B01F024FEC0
S113187002000B00414630000A604B60390002F060
S1131880DFFF124A124B01F017FE012543466D4259
S11318909860D960ABE6032384E6D3220C4B52054F
S11318A001F00AFE0B4A0C4B04000D0001F004FE8B
S11318B002000B00414620000A604B60290002F040
S11318C0BFFF044A044BDEE7FB21F93F3163621A90
S11318D061B4D03D7370032E8A19A33B6C4BF0B5F1
S11318E00A0046460D00D6464F461900C0B504000E
S11318F006002940994200D1A7E0002D00DC81E0D8
S11319002F1500D18EE0634B12039C468023120BEB
S11319105B0367441A43FB0768D47B109C46E30FC0
S11319209B189B1880221621002600256400920330
S1131930A818984202DC85181B1AB618E00F5B0041
S113194001391B18640052080029F1D10022924683
S1131950904680222020120609E0AB4238D0E10FE5
S1131960C9180138CB1864005208002818D0414621
S11319705118AB42F1DD8F18B846A946002930DB77
S11319805B1B8C42AD416D425B1B641AE10FC918AD
S1131990013892444D46CB18640052080028E6D121
S11319A0234328D153465B083B497210884642447E
S11319B0F10702D5802109060B4361461E000F057D
S11319C0BD18300029001CBC90469946A246F0BDC3
S11319D0A142C4D88F18B846002942DB9946002397
S11319E0D3E7002F2FDB6F1CB946C9E7E10F520084
S11319F08A18640091E75346013335D053460133C6
S1131A005B08D1E76B005B080343DAD00027002DA5
S1131A1032D1E20A153F6405002AFAD080235B0321
S1131A201A4224D180200023400300E00B0052001E
S1131A30591C0242FAD02020401AFF1A2300C34046
S1131A408C401A435FE7A9469AE72B00020029005D
S1131A5002F076FC32002B0001F02EFD06000D0092
S1131A60AFE7002FBFDAB9E7013600239CE7012373
S1131A70002120205B42E0E72B000200290002F055
S1131A80DFFE02000B0002F027F806000D0098E7C5
S1131A900000F07F01FCFFFF0000E03FF0B5474687
S1131AA0CE4680B587B000920193754B4F008146B6
S1131AB088467F089F4263DC03F0F8F9002800D1D0
S1131AC0DAE04A4643464846414602F039FC0400FF
S1131AD00D006C4A6C4B02F033FC6C4A6C4B01F009
S1131AE0EBFC22002B0002F02BFC6A4A6A4B02F04A
S1131AF0A7FE22002B0002F023FC684A684B01F089
S1131B00DBFC22002B0002F01BFC664A664B02F051
S1131B1097FE22002B0002F013FC644A644B01F090
S1131B20CBFC22002B0002F00BFC0290039100225C
S1131B30604B2000290002F003FC029A039B06007C
S1131B400F002000290002F0FBFB009A019B040017
S1131B500D004846414602F0F3FB02000B00200052
S1131B60290002F06DFE02000B003000390002F083
S1131B7067FE02000B0000204F4902F061FE70E096
S1131B8002000B0002F0DCFB04000D003D4A3E4B5A
S1131B9002F0D6FB3D4A3E4B01F08EFC22002B00A6
S1131BA002F0CEFB3B4A3C4B02F04AFE22002B00E3
S1131BB002F0C6FB394A3A4B01F07EFC22002B00AE
S1131BC002F0BEFB374A384B02F03AFE22002B00EB
S1131BD002F0B6FB354A364B01F06EFC2B002200B6
S1131BE002F0AEFB354B029003919F429FDD344BD4
S1131BF000229F423ADC334900207B182E4916000C
S1131C001F0002F01DFE049005910022294B2000C4
S1131C10290002F095FB32003B0002F011FE029A0B
S1131C20039B06000F002000290002F089FB009AA4
S1131C30019B04000D004846414602F081FB02006E
S1131C400B002000290002F0FBFD02000B00300015
S1131C50390002F0F5FD02000B000498059902F02A
S1131C60EFFD07B00CBC90469946F0BD164B00261C
S1131C7004920593154FC8E700200F49F1E7C046C9
S1131C80FFFF3F3ED43888BEE9FAA8BDC4B1B4BD55
S1131C909EEE213EAD529C804F7E923E9015CB1914
S1131CA0A001FA3E7751C1166CC1563F4C555555AB
S1131CB05555A53F0000E03F0000F03F3233D33FCD
S1131CC00000E93F0000E0FF0000E73F0000D23FD2
S1131CD0F0B5DE464E4645465746E0B5A34CA5440E
S1131CE0079119001400A49A0993A14B9200D258A9
S1131CF00B000390013BE01E18211D001600069204
S1131D00029300F011FEC3430200DB171A401300D4
S1131D10110001330B929A009B1ADB001B190493E8
S1131D204C1B761918D4A59BA5009C46361922AFE6
S1131D306544013607E0286803F0ECF8013403C772
S1131D400435B44208D0002CF5DA00200021013417
S1131D5003C70435B442F6D1069B002B01DA00F028
S1131D6001FC72AB19008B4622AA9146069A08938D
S1131D700132D2009344039A9A469046029BDB00B8
S1131D80994408339844029B002B00DA8DE24C46B8
S1131D9000260027039D2268636803CD02F0D0FA71
S1131DA002000B003000390001F086FB083C0600FD
S1131DB00F004545EFD15346C0C39A4608239C46BD
S1131DC0E144DA45DFD1069A6A4913008C4663443C
S1131DD09B000EA81900844661440D910399043BAD
S1131DE08B4663440C93099B0092DB009B44009A4E
S1131DF00898D30019000A938C46030063441E68B4
S1131E005F68002A34DD0EAB994613005A4A8046B7
S1131E1094466344DB00984470AB9A460022574BC7
S1131E203000390002F08CFA03F040F803F072F845
S1131E300022534B04000D0002F082FA02000B0052
S1131E403000390002F0FCFC03F030F84B4601C3CB
S1131E509946434620001A685B68290001F02CFB70
S1131E6008235B429C46E04406000F00D045D5D1D0
S1131E70049B30001A003900994600F05BFCFF23F4
S1131E8000229B0504000D0002F05AFAFFF7CEF978
S1131E9000223C4B02F054FA02000B0020002900FF
S1131EA002F0CEFC0D00040003F000F8804603F0BD
S1131EB031F802000B002000290002F0C1FC0F00E1
S1131EC049460600002900DC10E1009B18205A1E38
S1131ED092000EAB9B58401A1D000541A844854052
S1131EE05D1B0EAB9D501722521A1541002D00DCCC
S1131EF07DE001239C46009BE044002B48DD0E9CC2
S1131F00002C00D14BE30122002300218020400457
S1131F10041B0EA844500099914218DD92000EA9AA
S1131F2089580EAC0591059817490233081AA05038
S1131F30009A9A420BDD0EAA9446009A9B009000E8
S1131F40634460441A688A1A04C38342FAD1049B26
S1131F500124002B21DC022D49D132003B0000205A
S1131F600A4902F06DFC06000F0032E094FDFFFF09
S1131F7080550000FFFFFF3FFFFFFF1F0000703E82
S1131F800000704100002040FFFFFF000000F03F10
S1131F90049B0024002B00DC92E2049B012B00D163
S1131FA07BE2022B09D1009B0EA95A1E92000EABB4
S1131FB09B5805939B029B0A8B50022D17D132002C
S1131FC03B000020BF4902F03BFC06000F00002C40
S1131FD00DD0049A0020BB4900F0ACFB02000B00BA
S1131FE03000390002F02CFC022506000F0000230B
S1131FF000223000390000F093FD009B002800D13E
S113200062E206995A1E914210DCAF490D988C4643
S11320100EA963448C4600219B0063441C68043B66
S113202021438342FAD1002900D084E0069B0EAA02
S1132030013B9B00D358002B00D07CE201220C9B77
S1132040043B596801320029FAD000990B008C46F0
S1132050013362440592934242DC0B9A9446A59A5A
S113206063449246099A9B00944622AA90469A4455
S1132070009B089A6344DB0098440A9B9446994663
S1132080059BE144DB00634400935346186802F067
S113209041FF434618605960029B002B23DB4446F2
S11320A000260027039D2268636803CD02F048F9E7
S11320B002000B003000390001F0FEF9083C060074
S11320C00F005D45EFD14B469E60DF6004239C46C4
S11320D00433E2449C46009BE144E0449945D4D156
S11320E0059B009383E600260027ECE7049B002B66
S11320F006D1009B0EAA013B9B00D558ED15F5E6D1
S11321000022724B3000390000F02EFD002500281B
S113211000D16CE701239C46009BE0440225002B80
S113212000DDECE632003B000020664902F088FB4B
S113213006000F005BE743460993049B0EA8183B77
S1132140190004939300C35803950292002B0FD1F6
S11321505D48130084460EA8634484469B00634490
S1132160043B5868013A18390028F9D002920491C6
S1132170049A0020534900F0DDFA029B04000D008C
S1132180002B00DAD9E10EAA94469E00DB006644D7
S11321909C46089AB046624416000493009270AFBD
S11321A04346186802F0B6FE22002B0002F0C8F87D
S11321B0474B3060716000222000290002F0C0F813
S11321C004235B429C46083E04000D00E044BE42EA
S11321D0E6D100239A464AAB9946069B05969B4650
S11321E05B4600260027002B21DB8020394B009D15
S11321F09846C005384900260027002408E0082333
S11322009C460835E044544511DC43461868596837
S11322102A686B6802F094F802000B003000390061
S113222001F04AF9013406000F00A345E7DA5346EA
S1132230DB004B441E605F6001239C46009B059AB3
S1132240083BE24400939A42CAD1A49B022B00DDCE
S11322507AE0002B42DC1CD1049B00274B441E0077
S1132260002448AD326873683800210001F024F975
S1132270083E07000C00B542F4D1039B002B03D0A9
S113228080231B069C4664443A00230007990A6095
S11322904B600720099B18409B239B009D443CBC3A
S11322A090469946A246AB46F0BD53460026002709
S11322B0C0C39A4608239C46E144DA4500D062E54F
S11322C081E5C0460000F03FFFFFFF3F0000E03F14
S11322D00000703E40550000FB21F93F049B0020A4
S11322E04B441E00002148AF32687368083E01F079
S11322F0E3F8BE42F8D1039B002B00D1B8E0802361
S1132300079A1B06CB18106053600B0002004A9812
S11323104B9902F095FA029B002B0BDD01264CAF82
S11323200CCF01F0C9F8029B0136B342F8DA039BE3
S1132330002B03D080231B069C4661440B00020043
S113234007998A60CB60A4E7A49B032BA1D1029BCD
S1132350002B00DC20E1994A049B94464B441E6800
S11323605F68029B63449B46DB004B44984648AB42
S11323709A4643465C681B681800210032003B0003
S11323800090019101F098F804000D0002000B0088
S11323900098019902F054FA3B00320001F08CF8E5
S11323A043469860D9601C605D6008235B429C468C
S11323B0E04426002F00C245DBD1029B012B00DC48
S11323C0EAE0049BC8464B441E685F685B46DB003A
S11323D09B46D84443465C681B68180021003200C1
S11323E03B000090019101F067F804000D00020029
S11323F00B000098019902F023FA3B00320001F02F
S11324005BF843469860D9601C605D6008235B42BA
S11324109C46E04426002F00C145DBD15D460027E1
S1132420002408354D444CAE2A686B6838002100FE
S113243001F042F8083D07000C00AE42F4D1039BC2
S1132440002B00D191E08021079A4A9B0906136072
S11324504B468C465B686444634453604B469B68BC
S1132460176193604B46DB6854616344D36010E7A3
S113247002000B00079C226063600B0002004A9874
S11324804B9902F0DDF9029B002B00DD46E70B00BF
S1132490020007998A60CB60FBE6009B0EA95A1ED6
S11324A092000EAB9B5805935B025B0A8B5084E54C
S11324B0009A01339A4276D1049B002B00DD6CE52F
S11324C0022D00D093E52DE6994643460993049BDB
S11324D030005A423900039500F02CF90022384BA1
S11324E004000D0000F040FB002830D0354B0022E2
S11324F02000290001F024FF02F0D8FC4A4606001F
S1132500970002F007FD00222D4B01F019FF020095
S11325100B002000290002F093F902F0C7FC0EAA78
S1132520D0514A46049B013218330292049393001B
S11325300EAAD6501CE6012287E5A49B022B25DCBB
S1132540002B38DC00D0A4E60027002495E64B4697
S1132550200029009E0002F0A9FC0EAB98514B46C6
S1132560029305E672AB08932DE407994A9A4B9BB4
S11325700A604B604B469A68DB68009201938A605C
S1132580CB603A0023000A614B6182E64AAB99466C
S1132590A49B032B00D07CE6002700244FE7009A7D
S11325A00123012A88DD99000EAA5458002C00D179
S11325B07EE75A1CAAE4002000219CE6FFFFFF1FCF
S11325C0000070410000703EF0B5CE46474680B52D
S11325D087B000920193464A4B00814688465B08C7
S11325E0934205DC02F062FC4146031E484666D075
S11325F04A4643464846414601F0A2FE04000D0007
S113260002000B004846414601F09AFE394A3A4B13
S113261006000F002000290001F092FE374A384BD3
S113262002F00EF922002B0001F08AFE354A364BE7
S113263000F042FF22002B0001F082FE334A344BAB
S113264002F0FEF822002B0001F07AFE314B324AF0
S113265000F032FF0E9B02900391002B34D00098BF
S1132660019900222D4B01F06BFE029A039B04900A
S113267005913000390001F063FE02000B0004985C
S1132680059902F0DDF822002B0001F059FE009AB2
S1132690019B02F0D5F8224A04000D00214B3000C2
S11326A0390001F04DFE02000B002000290000F06B
S11326B003FF02000B004846414602F0C1F807B090
S11326C00CBC90469946F0BD02000B002000290086
S11326D001F036FE124A134B02F0B2F832003B000E
S11326E001F02EFE4A46434600F0E6FEE7E7C04608
S11326F0FFFF3F3E7CD5CF5A3AD9E53DEB9C2B8A70
S1132700E6E55A3E7DFEB157E31DC73ED561C119CA
S1132710A0012A3F1111813FA6F810110000E03FEB
S1132720495555555555C53F49004B081900704743
S1132730002070474B0070B55B0D14000A00002B9D
S11327401AD14B005B08034315D00022224B01F041
S1132750F7FD224B0A009C4222DB4B005B0D363B0B
S11327601F4DE318AB4220DC002B0DDD1D4C1B0577
S113277022401A43110070BD1B4DAB42F0D1020040
S11327800B0000F099FEF6E71D00353518DA174BFB
S113279002009C420ADC0B001548164900F032F88E
S11327A0134A144B01F0CCFDE5E702000B0012487C
S11327B0124900F027F8104A104B01F0C1FDDAE786
S11327C0084C363322401B051343190000220C4BDE
S11327D001F0B6FDCFE7C04600005043B03CFFFF18
S11327E0FE070000FFFF0F80FF07000050C300003A
S11327F059F3F8C21F6EA5019C7500883CE4377E2E
S11328000000903C30B54A00DB0FDB0752081A4346
S1132810110030BD002243088B4274D303098B425C
S11328205FD3030A8B4244D3030B8B4228D3030C9C
S11328308B420DD3FF22090212BA030C8B4202D33E
S11328401212090265D0030B8B4219D300E0090A66
S1132850C30B8B4201D3CB03C01A5241830B8B426F
S113286001D38B03C01A5241430B8B4201D34B0358
S1132870C01A5241030B8B4201D30B03C01A5241BD
S1132880C30A8B4201D3CB02C01A5241830A8B4242
S113289001D38B02C01A5241430A8B4201D34B022B
S11328A0C01A5241030A8B4201D30B02C01A52418F
S11328B0CDD2C3098B4201D3CB01C01A5241830943
S11328C08B4201D38B01C01A524143098B4201D37D
S11328D04B01C01A524103098B4201D30B01C01AA8
S11328E05241C3088B4201D3CB00C01A5241830822
S11328F08B4201D38B00C01A524143088B4201D34F
S11329004B00C01A5241411A00D2014652411046AE
S11329107047FFE701B5002000F0F0F802BDC046A3
S11329200029F7D076E7704703460B437FD4002293
S113293043088B4274D303098B425FD3030A8B424F
S113294044D3030B8B4228D3030C8B420DD3FF22B9
S1132950090212BA030C8B4202D31212090265D087
S1132960030B8B4219D300E0090AC30B8B4201D33A
S1132970CB03C01A5241830B8B4201D38B03C01A81
S11329805241430B8B4201D34B03C01A5241030BF8
S11329908B4201D30B03C01A5241C30A8B4201D3A9
S11329A0CB02C01A5241830A8B4201D38B02C01A54
S11329B05241430A8B4201D34B02C01A5241030ACB
S11329C08B4201D30B02C01A5241CDD2C3098B42B0
S11329D001D3CB01C01A524183098B4201D38B012D
S11329E0C01A524143098B4201D34B01C01A5241D0
S11329F003098B4201D30B01C01A5241C3088B4215
S1132A0001D3CB00C01A524183088B4201D38B00FF
S1132A10C01A524143088B4201D34B00C01A5241A1
S1132A20411A00D201465241104670475DE0CA0F78
S1132A3000D04942031000D34042534000229C4638
S1132A4003098B422DD3030A8B4212D3FC22890142
S1132A5012BA030A8B420CD3890192118B4208D318
S1132A60890192118B4204D389013AD0921100E07A
S1132A708909C3098B4201D3CB01C01A524183098E
S1132A808B4201D38B01C01A524143098B4201D3BB
S1132A904B01C01A524103098B4201D30B01C01AE6
S1132AA05241C3088B4201D3CB00C01A5241830860
S1132AB08B4201D38B00C01A5241D9D243088B42B6
S1132AC001D34B00C01A5241411A00D20146634659
S1132AD052415B10104601D34042002B00D54942BD
S1132AE0704763465B1000D3404201B5002000F0FC
S1132AF005F802BD0029F8D016E770477047C046B4
S1132B008446101C62468C46191C634600E0C0468D
S1132B101FB501F0B3FB002801D40021C8421FBD3A
S1132B2010B501F00DFB4042013010BD10B501F0AD
S1132B30A5FB002801DB002010BD012010BDC0460C
S1132B4010B501F09BFB002801DD002010BD012021
S1132B5010BDC04610B501F02DFB002801DC00209B
S1132B6010BD012010BDC04610B501F023FB0028A4
S1132B7001DA002010BD012010BDC046F0B5C646E4
S1132B804E024702760A7B0A4400C50FF70048004C
S1132B90984600B5240E2A00DB00000EC90FBC467F
S1132BA08D4267D0221A002A00DCA5E000283AD121
S1132BB0002F00D193E0511E002900D0BCE0012475
S1132BC0DB1B5A0146D59B019E09300002F06EFAC8
S1132BD005388640844200DD9DE0041B320020203D
S1132BE00134E240041BA64033005E1EB3410024BE
S1132BF013435A0704D00F221A40042A00D0043386
S1132C005A0129D50134FF2C00D181E02A009B010F
S1132C105B0AE4B25B02E405580AD207204310437E
S1132C2004BC9046F0BDFF2CE3D080213800C904D9
S1132C30084384461B2A00DD82E020206146D140FF
S1132C40821A604690400200501E82410A439B1A39
S1132C505A01B8D45A07CED1DE082A00FF2C3AD143
S1132C60002E00D1AEE08023DB0333435B025B0A1A
S1132C70FF24CFE7211A002952DD002831D0FF2C90
S1132C80B7D080203E00C0040643B4461B2900DDB3
S1132C90AAE020266046C840711A66468E4031007C
S1132CA04E1EB14101435B185901D3D50134FF2CA9
S1132CB000D187E0012278491A405B080B40134396
S1132CC097E7002C00D0A7E0002B00D0B6E03B1E15
S1132CD062D10026002273025B0AE4B29AE7140070
S1132CE087E7002F4DD0481E002857D163440124A4
S1132CF05A01AFD50224DDE7002A24D1621CD2B2E6
S1132D00012ADEDDDE1B720135D5FE1A0D005CE7FB
S1132D102A0000237EE73300604A241A134068E740
S1132D20002963D1611CC8B201284EDDFF2949D0B6
S1132D3063445B080C005CE7FF2A41D00A0079E792
S1132D4001229B1A84E7002C1DD0FF2822D0802466
S1132D50E404524223431B2A00DD8AE01C002025A0
S1132D60D440AA1A93405A1E934123436246040056
S1132D70D31A0D0025E7002E00D026E700220024F8
S1132D80A9E70C0035E7002B4DD0D243002AEDD043
S1132D90FF28E0D16346FF240D002AE7FF290FD066
S1132DA0010073E7002B61D0FF24002F00D120E73E
S1132DB080224146D203114202D0164200D13B0088
S1132DC0FF2416E7FF24002324E7002CEAD1002B7C
S1132DD058D0002F00D10CE763445A0100D439E7DE
S1132DE02E4A0C00134004E701215CE7002C1ED19D
S1132DF0002B40D0C94300290BD0FF2836D01B2913
S1132E0047DC1C002026CC40711A8B40591E8B4194
S1132E1023436344040047E7002B18D13B1E2DD005
S1132E200D00FF24E5E63B0004000D00E1E6FF2869
S1132E301CD08024E40449422343E0E7002F00D15E
S1132E40D7E6DE1B72011FD5FB1A0D00D1E6FF2465
S1132E50002F00D1CDE680224046D2031042AFD0ED
S1132E601642ADD13B000D00FF24C2E66346FF24A9
S1132E70BFE601237AE73B000400BAE6802600227D
S1132E80F603F0E63B00B4E6331E00D0E2E600228F
S1132E9021E70123BDE7C046FFFFFF7DFFFFFFFBE6
S1132EA0F8B557464E464546DE46E0B5470246006D
S1132EB088467F0A360EC40F002E47D0FF2E24D03A
S1132EC0FB008027FF041F43002399469A467F3E58
S1132ED043465D025800DB0F6D0A000E984643D04E
S1132EE0FF283BD0EB0080250022ED041D437F38F2
S1132EF03618731C41469B464B46614013430F2BC7
S1132F0064D875489B00C3589F46002F42D10823BC
S1132F109946063BFF269A46DAE74146022A28D01C
S1132F20032A00D1CEE0012A00D0ACE011400020F9
S1132F300022CCB24002D205400AE40710432043E9
S1132F403CBC90469946A246AB46F8BD002F15D12D
S1132F5004239946033B00269A46B9E7FF20022240
S1132F60002DC5D00322C3E7002D19D10020012272
S1132F70BEE70124FF220C400020DBE7380002F00A
S1132F8095F87626431F9F4000237642361A9946C9
S1132F909A469DE70C239946093BFF269A4697E7F4
S1132FA0280002F083F8431F9D4076235B42181AE1
S1132FB000229DE780200024C003FF22BAE73D00E1
S1132FC05246ABE73D0021005246A7E73B0C9C4626
S1132FD02A04120C2B0C1400604665463F043F0C77
S1132FE07C4342435D437B43270C9B18FF18BA4242
S1132FF003D980235B029C46654424043A04240CD0
S1133000121993015C1EA3413F0C920E7D191A43C1
S1133010AD0115432B0104D501235E466A081D400A
S1133020154332007F32002A25DD6B0704D00F23BD
S11330302B40042B00D004352B0103D53200274B41
S113304080321D40FE2A94DC0124A801400AD2B239
S11330500C406FE78020C003074207D0054205D12A
S113306028434002400A4446FF2263E738434002B3
S1133070400AFF225EE70124A31A1B2B05DD0C4046
S11330800022002056E75E46CBE72A002020DA40E3
S1133090C31A9D402B005D1EAB4113435A0704D055
S11330A00F221A40042A00D004335A0104D5012403
S11330B001220C4000203DE701249B01580A0C40EA
S11330C0002237E780200124C00328434002400A3D
S11330D00C40FF222EE7C04690550000FFFFFFF78B
S11330E0F0B54F46D64646464400C0B5C20F470227
S11330F04802400A844666467B0A4800C90F9A463D
S1133100240E1500DB00000E8946F600FF2800D1CE
S11331108FE001214F464F403900914266D0221A78
S1133120002A00DC9DE000283DD1002E00D18BE078
S1133130511E002900D0B5E001249B1B5A0144D53F
S11331409B019F09380001F0B1FF05388740844294
S113315000DD96E0041B3A0020200134E240041B09
S1133160A7403B005F1EBB41002413435A0704D011
S11331700F221A40042A00D004335A0127D50134FF
S1133180FF2C00D179E001229B015B0AE4B22A40C2
S11331905B02E405580AD207204310431CBC904646
S11331A09946A246F0BDFF2CE0D08021C9040E430D
S11331B01B2A7BDC31002020D140821A9640721EEB
S11331C096410E439B1B5A01BAD45A07D0D101220F
S11331D0DF082A40FF2C33D1002F00D1A8E0802340
S11331E0DB033B435B025B0AFF24D1E7211A00297E
S11331F04CDD00282AD0FF2CB8D08020C004064320
S11332001B2900DDAFE030002027C840791A8E402A
S1133210711E8E4106439B195901D6D50134FF2CEA
S113322000D185E001227A491A405B080B40134320
S11332309CE7002E00D070E76BE73B1EC5D100224F
S11332407B025B0AE4B2A3E714008FE7002E4DD0A3
S1133250481E002857D19B1901245A01B5D50224D0
S1133260E0E7002A25D1621CD2B2012A72DD9F1B3D
S11332707A0135D5F71A0D0064E7012200232A40AC
S113328086E73B00634A241A13406FE700296CD198
S1133290611CC8B201284EDDFF2949D09B195B0887
S11332A00C0063E7FF2A41D00A0081E701269B1B3B
S11332B089E7002C1CD0FF2821D08024E40452424A
S11332C023431B2A00DD96E01C002025D440AA1AC3
S11332D093405A1E93412343F31A04000D002DE733
S11332E0002F00D02EE700220024A9E70C003DE7C0
S11332F0002B58D0D243002AEED0FF28E1D133006E
S1133300FF240D0032E7FF2910D0010078E7002BDD
S11333106ED0FF24002E00D128E780225146D2032C
S1133320114203D06146114200D13300FF241DE74E
S1133330FF2400232CE7002CE9D1002B63D0002EBE
S113334000D113E79B195A0100D43EE7314A0C001F
S113335013400BE7002C1ED1002B2FD1002E4FD091
S113336033000D0002E7012655E7002C1FD1002B86
S113337043D0C94300290BD0FF2839D01B2944DC92
S11333801C002027CC40791A8B40591E8B412343C3
S11333909B19040040E7002B1AD1002E24D180276A
S11333A00022FF031BE7330004000D00DEE6FF28C4
S11333B01ED08024E40449422343DFE7002E00D1D9
S11333C0D4E69F1B7A0100D437E7F31A0D00CDE64B
S11333D0FF24002E00D1C9E680225046D2031042B9
S11333E0A4D060461042A1D133000D00FF24BDE6F5
S11333F03300FF24BAE601236EE733000400B5E688
S1133400002700221CE73300B0E60123C0E7C046D2
S1133410FFFFFF7DFFFFFFFB70B5002830D0C3170F
S1133420C4185C40C50F200001F040FE9E231B1A07
S1133430962B0DDC9622D21A94402A006402640A68
S1133440DBB26402DB05600AD2071843104370BD87
S1133450992B19DC9922D21A002A29DD94402200E2
S1133460144C1440510704D00F210A40042A00D000
S11334700434620113D4A401640ADBB22A00E0E735
S1133480002200230024DCE705222100121AD14087
S1133490B922D21A9440621E94410C43DAE7054BD8
S11334A02A001C409F23A4011B1A640ADBB2C8E74C
S11334B02200D5E7FFFFFFFBF8B54546DE46574639
S11334C04E460C03E0B54E00C90F88460D00610A54
S11334D0440F0C43C70019035800DB0F9B464B0AEB
S11334E0510F0B43760D400D1900D200D84500D181
S11334F0AEE0351A002D00DCF6E000280FD11343AE
S113350000D1DBE06B1E002B00D037E1BA1A9742E2
S1133510BF41641A7F42E41B0126170024E0C64B16
S11335209E424DD080231B041943382D00DD07E152
S11335301F2D00DD38E12020431B9A460B00504626
S11335408340994613004846EB4018430300504615
S11335508240501E8241E9401A43BA1A611A9742C6
S1133560A441170064420C1B230262D56402650A5D
S1133570002D00D1DFE0280001F098FD0300083B96
S11335801F2B00DDD2E020223C00D21A9D40D44003
S11335909F4025439E4200DDC4E09E1B731C1F2BED
S11335A000DDF1E0202238002900D21AD8409140F1
S11335B097402C000143781E8741DC4000260F43CE
S11335C07B0709D00F233B40042B05D03B1DBB4296
S11335D0BF417F42E4191F0023022CD5964B0136CC
S11335E09E4200D19AE04546944BFF081C40600778
S11335F0760564020743240B760D00212403230B74
S11336000C0D8F4A24051C431440330523435B00EF
S1133610ED075B082B43380019003CBC90469946E3
S1133620A246AB46F8BD6446044300D111E204004F
S113363067467B07C6D145466007FF080743E40891
S11336407D4B9E4230D024037605240B760DD4E7BF
S1133650331A9A46002B78DD002831D0764886420A
S1133660AED08020000401435346382B00DCE9E04F
S11336700A43511E8A410021D219BA42BF41091995
S11336807C4217000C192302D3D56B4B01369E42A2
S113369000D13AE10120694B1C407B0807401F43DD
S11336A0E007074364088BE723003B4300D1CBE1E9
S11336B08022120314432403240B9EE72E007FE789
S11336C00800104300D1B4E0581E002800D0DEE00A
S11336D0BA18BA429B4164185B42E41817000126E9
S11336E02302A6D50226D5E7002D6ED1701C400515
S11336F0400D012800DCF9E0B81A84468742804175
S1133700E51A40422D1A280200D489E0D71BBA4298
S113371092411C1B5242A51AD84629E7454600246B
S113372000276AE7454CF61A2C4049E73D00283843
S1133730854000272EE7380001F0B8FC20301DE753
S11337400A43511E8A41002107E7002B00D0F3E011
S1133750701C43055B0D012B00DCADE0364B984239
S113376000D1D1E0BA18BA42BF4164187F42E419CB
S1133770E707520817436408060021E72E488542EC
S113378000D193E01D00D0E629001F3EF140202B1C
S113379000D18DE04022D31A9D402F437D1EAF41BE
S11337A000240F43002644E72B000800203BD840A8
S11337B00300202D00D17DE04020451BA9400A4391
S11337C0511E8A4100211A43C7E6002E50D01A4EDA
S11337D0B04257D080266B429946360434434B4658
S11337E0382B00DDD6E01F2B00DD35E12026F51A4D
S11337F02600AE40B2463E00DE40AC46350056469A
S11338002E436546AF407D1EAF41DC403743D71B96
S1133810BA4292410C1B5242A41A0600D846A3E6AF
S1133820644667462C4300D0A2E600250026002704
S113383006E71E00C4E6C046FF070000FFFF7FFF47
S1133840FFFF0F801F2B63DC2020C31A0800984061
S11338509C46834653461000D840030058461843FC
S113386063469A40531E9A4153460243D94003E7A4
S113387026003E4306D0EB439946002BC7D0944E16
S1133880B042ACD10C0017000600D84698E6904B25
S11338909A450BD08246E7E6002800D09EE0180047
S11338A0104300D1E9E01C001700D846884E87E693
S11338B0002572E7002182E723003B43002E00D05D
S11338C0ABE0002B00D1E7E00B00134300D177E617
S11338D0BA18BA42BF4164187F42E419230200D4E3
S11338E0F2E07C4B17001C40060069E620003843D8
S11338F0002ED1D100285BD11C00144300D1A8E0D4
S11339001C001700D8465BE606000024002797E653
S113391050460B002038C34099465346202B00D113
S113392095E0402350461B1A99400A43511E8A4190
S11339304B4600211A439FE6002E30D126003E4319
S113394067D0DB439A46002B1CD0614EB04260D056
S11339505346382B00DD96E01F2B00DD9FE0202628
S1133960F31A26009E409C46B34653463E00DE4072
S113397033005E461E4363469F407B1E9F41534671
S1133980DC403743BF189742924164185242A4184E
S1133990060078E627437C1EA741002437E74C4EF7
S11339A0B04236D080265B4236049A463443CFE791
S11339B01800104300D103E6B81A84466745AD41A8
S11339C0E01A6D42401B050200D42CE6D71BBA4214
S11339D092411C1B5242A41AD846F1E51800104328
S11339E000D163E7F808670707438020E408000371
S11339F0044208D0DD08054205D1D2085907114315
S1133A000F002C00D8467B0FE4001C43FF00304E0F
S1133A10D6E50C0017000600D2E5002B38D00B00C9
S1133A20134300D142E7F808670707438020E408FE
S1133A3000030442E7D0CB080342E4D1D20849078B
S1133A4011430F001C00DEE700270024D5E5002108
S1133A506BE700250027F3E54E462500203EF540A0
S1133A604B462E00202B2DD04025ED1AAC40274389
S1133A707C1EA74100243743C9E680240025240383
S1133A80134E0027DCE527437C1EA741002479E779
S1133A900C0017000E4E93E50C00170090E55646F7
S1133AA02300203EF34099465346202B0ED040235A
S1133AB056469B1B9C4027437C1EA7414B46002433
S1133AC01F435FE70024D2E71700B2E50024F2E7C2
S1133AD0FF070000FFFF7FFFF0B557464546DE466F
S1133AE04E46E0B54C000E0387B0834692461D0057
S1133AF08046360B640DCF0F002C4FD06F4B9C4289
S1133B0035D08023420F1B04F600134333439946F8
S1133B10C30098466A4B00269C46002364440393E2
S1133B202B031B0B9B466B00ED0F50465B0D019561
S1133B305ED0624A934253D05A46D1008022400F4D
S1133B40120402430A4393465246D1005C4A944607
S1133B50002263443800684084460290E41A164305
S1133B600F2E00D9B4E0574BB6009B599F46030073
S1133B70334399466CD100239846023308260393B5
S1133B80CEE7CB464146039A0197022A65D1019BB1
S1133B904A4C9C460023002298466BE003003343C2
S1133BA099464ED0002E00D1BCE1300001F07EFADF
S1133BB003000B3B1C2B00DDACE11D22D31A5A463B
S1133BC00100DA4008398E401300334399465B46BE
S1133BD08B40984600233C4C0026241A03939FE70D
S1133BE051465A46114329D1002293460232B1E785
S1133BF0594601431ED05B46002B00D19EE1584636
S1133C0001F054FA03000B3B1C2B00DD8FE1020092
S1133C105946083A91408B461D21CB1A5146D9404A
S1133C200B0059460B4351469B469140264B0022BC
S1133C301B1A8FE7002301229B468BE75146032280
S1133C4088E700239846013304260024039367E79A
S1133C500323B14603930C2662E7032A00D15CE2F6
S1133C60019B012A00D0E4E113409C460023002478
S1133C700022984600211203130B0A0D12051A4361
S1133C802305124C40462240134362465B00D20790
S1133C905B081343190007B03CBC90469946A24602
S1133CA0AB46F0BD002380229C4612039846034C89
S1133CB0E0E70023014C00229846DBE7FF07000001
S1133CC001FCFFFFD05500000DFCFFFFFFFF0F803C
S1133CD0D94500D939E100D134E1002346464D46A7
S1133CE09A46013C5B460A0E1B021A430B02170C50
S1133CF0039313041B0C3900280090460193FEF72C
S1133D0089FD0200019B83465A43280039009146ED
S1133D10FEF706FE350C09040D43A9450DD95B4693
S1133D204544013BA84500D93AE1A94500D837E10B
S1133D3002235B429C464544E3444B46EB1A39005C
S1133D4018000493FEF766FD019B05004343390008
S1133D5004989946FEF7E4FD330409041B0C0B4355
S1133D60994509D943446A1E984500D91AE19945F1
S1133D7000D817E1023D43444A469B1A5A461204AE
S1133D802A4303999346100C0A0C914609045A4697
S1133D90090C4E460D001204120C45430591514383
S1133DA07243704352190E0CB218954203D9802500
S1133DB06D02AC466044150C09041204090C281861
S1133DC05218834200D2CEE000D1C8E01D1A5346F7
S1133DD09E1AB24592415242AB1A9A46984500D176
S1133DE017E139001800FEF715FD019B0500434358
S1133DF0390050460493FEF793FD04980B04310CEC
S1133E001943884209D941446B1E884500D907E10A
S1133E10884200D804E1023D4144049BCB1A1800B7
S1133E2039000493FEF7F6FC019B824643433900B4
S1133E3004980193FEF774FD01980B043104090CF6
S1133E40194388420DD953464144013B884500D962
S1133E50E8E0884200D8E5E002235B429C46414406
S1133E60E244019B2D04CE1A51462943059D4F4639
S1133E702A000B04080C1B0C5A4345437B4378432C
S1133E805B19170CFB189D4203D980256D02AC46C3
S1133E9060441D0C12041B04120C28189B18864243
S1133EA000D293E000D18EE001231943A04BE31824
S1133EB0002B00DC99E04A0700D09EE05A46D2016C
S1133EC006D55A469B4B1A4080239346DB00E318E1
S1133ED0994A934268DD0123029A984C1A400023C0
S1133EE0944698460022C5E680224B4612031342AC
S1133EF00AD05B46134206D11A431203120BAC4696
S1133F0088468E4CB6E64B461A431203120BBC4647
S1133F108A4CAFE603005A46283B9A400023914658
S1133F20984657E6584601F0C1F8203040E60300B1
S1133F305246283B9A400021934677E601F0B6F8B2
S1133F4020305FE6884500D2C7E64B46DE075D08B1
S1133F5043465B081E434346DB079A46C2E60025F8
S1133F60924500D333E7039E5946B446E244B24532
S1133F70AD416D424544EB180139984507D298424A
S1133F8000D97FE000D1BCE01D1A8B461FE798459D
S1133F90FAD1039D5545F2D943468B461D1A16E7BF
S1133FA09B46CAE61500E7E65A46C90852070A4383
S1133FB05B0590465C0D5A46012302995202194052
S1133FC0120B8C4656E6002B00D16FE746444A1E7E
S1133FD0B04529D91100864200D065E7039A93427F
S1133FE000D061E762E7012149420120C21A382A60
S1133FF021DD029B03409C4638E60F220A40042A36
S113400000D15BE70A00111D914292415242934450
S113401054E7474BE318002BE5DD01225242F2E757
S11340201D00FAE69A461CE7B04239D86ED011005A
S11340303AE702933AE71F2A3CDC20239B1A0C0040
S11340405846994098404B1E99415B46D440D34012
S1134050204308431A00430709D00F230340042BCD
S113406005D00100081D88429B415B42D21813020F
S11340703AD50123029A01241A4000239446984613
S11340800022F7E5022149428C46039DE344AC46F5
S1134090E244AA45AD416D424544ED182D1A96E619
S11340A08A1E03994D008D42894149424144761844
S11340B003958FE71F204042C31A5846D840030097
S11340C0202A28D040205D46821A954029434A1E62
S11340D091411943072300220B4009D00F230022EA
S11340E00B400800042BBDD1010053075202120BF0
S11340F0C9081943012388460299002419408C46B3
S1134100B8E55245BED88B46002560E6039D9D4226
S1134110C6D3110062E70025D8E780225B4612036C
S11341201A43019B1203120B9C468846034CA1E5DB
S1134130FF030000FFFFFFFEFE070000FF07000073
S1134140F0B54F464646D6465C00C0B51F03DB0FAC
S11341509A46174B0E034D0084468046360B6D0D70
S1134160C90F91463F0B640D01209D4208D09C422B
S113417001D0A5420BD01CBC90469946A246F0BD86
S113418063463343F7D1AC42F5D13A43F3D101202E
S1134190BE42F0D1C845EED1514507D0002DEAD139
S11341A063461E433000461EB041E4E70020E2E7C8
S11341B0FF070000F0B54546DE4657464E46E0B5DB
S11341C01F033D0B2C4F0E034C00AB465D00844691
S11341D0360B640DC90F90466D0DDB0FBC422AD01F
S11341E0254FBD422DD0002C0FD13043070081460E
S11341F078427841C0B2002D17D15F463A4314D1BA
S11342004B460020002B0AD006E0002D02D1584670
S1134210024301D0994218D04842012108433CBCD2
S113422090469946A246AB46F0BD0028F2D0012044
S1134230013B1843F3E737000743D1D00220404243
S1134240EDE75F461743CED0F8E7AC42E4DC03DA8F
S1134250481E01210843E2E75E45DDD806D0002070
S11342605E45DCD20123481E1843D8E7C445D3D8A1
S11342700020C445F6D3D2E7FF070000F0B54E4650
S11342804546DE4657465C00E0B51F03DB0F994602
S11342902A4B0E034D00C90F8446360B6D0D8B4619
S11342A090463F0B640D9D4220D0244B9C4222D06B
S11342B0002D12D1304343424341DBB2002C1FD0C6
S11342C0002B0CD04B460120013B034318003CBC9F
S11342D090469946A246AB46F0BD002C16D0CB457D
S11342E017D05B46594201230B43EFE73100022309
S11342F00143EBD1D9E7390002231143E6D1D7E7D3
S11343003A43DDD100230028E0D0EAE73A43E6D17E
S1134310E7E7A542E5DC05DBBE42E2D807D000238F
S1134320BE42D3D25946012301390B43CEE7C445DB
S1134330D7D80023C445F5D3C8E7C046FF0700001B
S1134340F0B557464546DE464E46E0B50C03984662
S11343504E00230B87B0070092469B46760DCD0F87
S1134360002E6BD06D4B9E4235D080245B46420FAD
S11343702404DB0014431C43C3009946684BA34642
S11343809C46002300276644029343461C035A00BC
S1134390DB0F5046240B520D984600D176E05F4B5C
S11343A09A426DD08023410F1B040B435C49E40007
S11343B08C461C43C300002062444146B618694041
S11343C0721C0191944607430F2F00D9B0E0554A5F
S11343D0BF00D25997465B460343994600D087E015
S11343E000239B46023308270293CEE742460192FC
S11343F0022867D0032800D10EE2012800D062E130
S1134400002300240022994601990140CDB20021E5
S113441012030B0D120B1B051343434A24051340CF
S11344201C436400ED0764082C434846210007B090
S11344303CBC90469946A246AB46F0BD0343994620
S11344404FD05B46002B00D189E1584600F02EFE88
S113445003000B3B1C2B00DD7AE11D22D31A3A002A
S113446001005C46DA4008398C4013008F40234336
S11344709B46B94600232D4E0027361A029384E743
S1134480534623432AD10024022096E7534623436C
S113449020D0002C00D157E1200000F007FE0300DB
S11344A00B3B1C2B00DD49E11D21CB1A51460200B8
S11344B0D9405346083A944093400C431B4A121A7D
S11344C000207AE70125019B144C1D4000230022A3
S11344D099469CE70024002201206EE753460320FE
S11344E06BE700239B4601330427002602934CE725
S11344F0032381460C27029347E7802200230025EB
S113450012039946054C82E75C464B4602986FE7D6
S11345105C464B46019502986AE7C046FF070000D7
S113452001FCFFFF10560000FFFF0F800DFCFFFF92
S11345304A464946170C1A0C1B041B0C08041900A4
S1134540000C41431500884619007D4379430395C7
S113455089462900150045434D44029545462D0CD6
S1134560AA46029D5544A94506D98A468021490296
S11345708946CA4451460391290C049141460904D1
S11345802D04090C88462900250C24044144240CDC
S11345900591210041438846210079438A466843B6
S11345A0414650448146080C48446F43824503D930
S11345B08021490289464F44010C89463900494407
S11345C0029141460F0404993F0C88460004C01927
S11345D080444146049159460F0C0904090C88464D
S11345E059438A4639005143894641464A43514614
S11345F0090C8B467B43D2185A44934203D9802337
S11346005B029B46D94451460904090C8A4641463B
S113461061437C43130C12044B445244A1468A4622
S11346203C0041466C434D4351464D440F0C7D19AB
S1134630A94503D98021490288464444049F03992B
S1134640B84641448B4683458041414288465146A1
S113465008042F04000C3F18584602991018894684
S1134660904292414F44BA46524299469346C244BC
S1134670D144CB448F42BF41C245894199459B41B6
S1134680934592417F4249422D0C52420F435B4273
S113469013437F19FF185B463C19DB0D059A64022E
S11346A01C43430213435D1EAB415A46C00D0343F2
S11346B052021343E20156D501205A080340134322
S11346C0E207134364085A48604400284DDD5A0742
S11346D009D00F221A40042A05D01A1D9A429B4180
S11346E05B42E4181300E20104D58020514AC00063
S11346F014406044504A904200DDE3E60125DB08A3
S113470062071A436402019B9146220B4405640D1F
S11347101D407CE6802259461203114208D01442FF
S113472006D122431203120B45469946434C6EE6CA
S11347305B461A431203120B404C68E603005446CE
S1134740283B9C400023B9E600F0B0FC2030A6E6EC
S11347500300283B9F400023BB4699468AE600F0AD
S1134760A5FC203074E6B446ADE701252A1A382AA0
S113477006DD019B00241D4000230022994646E6E5
S11347801F2A21DC20252000AD1A1E00AB40A840C2
S1134790D6405D1EAB4130431843D440430709D093
S11347A00F230340042B05D00300181D98429B419E
S11347B05B42E418230221D50125019B01241D40FD
S11347C000230022994622E61F2521006D42281A63
S11347D0C1400800202A1DD05F35AA1A9440234303
S11347E05C1EA341072503431D400022002D09D070
S11347F00F2200241A401800042AD6D103006507AA
S11348006402220BDB082B4301259946019B0024FB
S11348101D40FCE50024E2E7802201251203224327
S113482001991203120B0D409946044CEFE5C04662
S1134830FF030000FFFFFFFEFE070000FF0700006C
S1134840F0B54646D6464F460C03C0B5CD0F4E00D4
S1134850610A440F0C43C1005800400D84468A4647
S11348600F001903500F490A0143C648760DA846A4
S1134870DB0FD200844500D1D8E001204340AB4295
S113488000D1A6E06046351A002D00DC05E10028C1
S113489010D10B00134300D1D7E06B1E002B00D0C6
S11348A04BE153469F1ABA458041641A4042241A88
S11348B001261EE0B34B9E4248D080231B041943BB
S11348C0382D00DD19E11F2D00DD4CE120230F0000
S11348D05B1B10009A409F40E840531E9A41E940F8
S11348E0074317435346DF1B611ABA45A441644288
S11348F00C1B230200D4C5E06402650A002D00D11C
S1134900F6E0280000F0D2FB0300083B1F2B00DD7B
S1134910E9E020223C00D21A9D40D4409F40254328
S11349209E4200DDDBE09E1B731C1F2B00DD0AE1B1
S113493020223800D21A290097402C009140D840F8
S11349407A1E9741DC40002601430F437B0709D0C0
S11349500F233B40042B05D03B1DBB42BF417F428C
S1134960E4191F00230225D5864B01369E4200D14F
S1134970AFE0854B01251C4043466207FF086402F3
S113498076051743240B760D1D4000212403230BC9
S11349900C0D7E4A24051C431440330523435B005D
S11349A0ED075B082B43380019001CBC9046994660
S11349B0A246F0BD012543466207FF081743E408F9
S11349C01D40704B9E4236D024037605240B760D91
S11349D0DBE76346F31A002B00DC94E06046002812
S11349E035D068488642B1D080273F043943382BFC
S11349F000DCFDE00A43170000217A1E974157446A
S1134A0057458041091944420C1923023AD55D4B9C
S1134A1001369E4200D14BE101225B4B1C407B08D6
S1134A2017401F43E207174364088FE70800104349
S1134A3000D024E721E723003B4300D1B9E18022E1
S1134A40120314432403240B9FE72E007EE708007F
S1134A50104300D1CAE0581E8446002800D0E7E085
S1134A6052445245804164184042241817000126DC
S1134A70230207D50226CFE764462C4300D1B3E1D5
S1134A802C0067467B0700D062E76307FF081F43DB
S1134A9001254346E4081D4093E7002D78D1751C99
S1134AA06D056D0D012D00DCF2E05046801A824543
S1134AB0BF41651A7F42ED1B8446280200D48CE076
S1134AC05046171ABA4292410C1B5542651B984630
S1134AD014E70125434600241D40002755E72A4CCE
S1134AE0F61A2C4032E73D0028388540002717E7A6
S1134AF0380000F0DBFA203006E70A4317000021F3
S1134B007A1E9741EEE6002B00D0E5E0731C9C462C
S1134B105B055B0D012B00DC9FE01A4B9C4500D12B
S1134B20C5E0524452458041641840422418E707C6
S1134B30520817436408664608E71248854200D1C4
S1134B4085E01D00BCE629001F3EF140202B00D16A
S1134B507FE04022D31A9D402F437D1EAF410024A5
S1134B600F4300268EE72B000F00203BDF40202D53
S1134B7071D040235D1BA9400A43511E8A41002184
S1134B801743AFE6FF070000FFFF7FFFFFFF0F8023
S1134B90002E3ED0B34EB44545D0802636046D4237
S1134BA03443382D00DDA8E01F2D00DD1FE1202651
S1134BB027005046761BB740E84007435046B040B4
S1134BC0461EB041EC403843171ABA4292410C1BBE
S1134BD05242A41A664698468BE6644667462C43BE
S1134BE000D08BE6002500260027EAE61E00ADE68D
S1134BF01F2B60DC2027F81A0F0084468740100022
S1134C00D840074360468240501E8241D940174332
S1134C10F5E626005046064305D0ED43002DD3D0DB
S1134C20904EB445BDD10C001700664698468DE6FB
S1134C308C4883420BD06346D9E6002D00D096E021
S1134C400800104300D1E2E00C0017009846854E9E
S1134C507CE6002580E700218EE7230050460343CD
S1134C60002E00D0A8E0002B00D1DEE00B0013439F
S1134C7000D16BE6524452458041641840422418E6
S1134C801700230200D4FDE6774B66461C405DE620
S1134C90250050460543002ECFD1002D4FD10C00E6
S1134CA0144300D1A0E00C00170098464EE6664677
S1134CB00024002785E61F000800203FF840070075
S1134CC0202B00D18EE04020C31A99400A43511E84
S1134CD08A410021174392E6002E14D12600504643
S1134CE0064362D0DB43002B5CD187189742924184
S1134CF064185242A418664687E650462043441E70
S1134D00A041002460E7574EB4454ED080263604B7
S1134D105B423443382B00DD7FE01F2B00DD8BE04A
S1134D20202627005046F61AB740D840074350467D
S1134D30B040461EB0410743DC40BF18D6E70D0023
S1134D40154300D102E65046801A8245BF41651AD8
S1134D507F42ED1B8446280200D48DE65046171A84
S1134D60BA4292410C1B5242A41A9846EEE50D0039
S1134D70154300D16BE750466707C00807438020FE
S1134D80E4080003044207D0CD08054204D12C00F6
S1134D909846D70849070F437B0FE4001C43FF00E4
S1134DA0304ED3E52F4EB445B4D10C0017006646FF
S1134DB0CCE500270024E8E5002B39D00B00134391
S1134DC000D144E7C008670707438020E4080003D4
S1134DD00442E1D0CB080342DED1D70849070F4390
S1134DE01C00D9E7002171E700250027E9E52E0022
S1134DF02700203EF740202D2FD04026751BAC40C5
S1134E0050462043441EA04100243843DCE680245D
S1134E1000252403134E0027D3E550462043070002
S1134E20781E87410024BF1860E70C0017008DE549
S1134E300C0017000B4E89E51E002700203EF740AA
S1134E40202B0CD04026F31A9C4050462043441E8D
S1134E50A04107430024BF1848E70024D0E70024FA
S1134E60F3E7C046FF070000FFFF7FFF70B50E4E5B
S1134E700D031C0349005B002D0B490D240B5B0D36
S1134E80B14204D0084900208B4208D070BD0543CC
S1134E900120002DFAD1044900208B42F6D114439D
S1134EA02000441EA041F1E7FF07000030B5134D78
S1134EB00A034B00120B5B0DC90F0024AB4210DD3B
S1134EC00F4CA3420FDC80240E4D64032243ED1AE1
S1134ED01F2D0BDD0C48C31ADA405442002900D1BF
S1134EE01400200030BD094BCC18FAE7084CE84008
S1134EF0A44663449A400243EFE7C046FE03000021
S1134F001D0400003304000013040000FFFFFF7FB2
S1134F10EDFBFFFF70B5002830D0C317C4185C4008
S1134F20C50F200000F0C2F8174B184A1B1AD21AFA
S1134F301F2A18DD164AD21A9440002224035B0566
S1134F40240B5B0D0021100024030A0D240B120511
S1134F502243104C1B05224013435B00ED075B0802
S1134F602B43190070BD210091400A000B21081A3F
S1134F70C4405B052403240B5B0DE3E700250023F9
S1134F8000240022DEE7C0461E04000033040000B3
S1134F9013040000FFFF0F80F0B54C00640D0B03F9
S1134FA0621C450F5B0A52052B43C90FC500520D05
S1134FB0012A28DD3A4AA618FE2E1BDC002E3EDD0F
S1134FC080010200501E82416D0F2A43DB0013430F
S1134FD05A0704D00F221A40042A00D00433802236
S1134FE0D2041A405AD00136FF2E03D09B015B0A2B
S1134FF0F4B201E0FF2400235802E405400AC90783
S113500020430843F0BD002C07D01D43F2D080207C
S1135010DB0080040343FF26DAE72B4303D0052398
S1135020DB08FF2C03D05B025B0AE4B2E4E7002B4D
S113503032D08020C00303435B025B0ADCE732000A
S1135040173214DB80221E2712041343BF1B1F2FA9
S11350500FDC144A944664442A00A5402E00A34061
S1135060751EAE41FA40334313430026B0E70024D3
S1135070D5E702225242961B1A00F240202F09D093
S1135080094884466444A3402B435D1EAB4100267B
S113509013439DE70023F7E70023ADE73400BFE7A0
S11350A080FCFFFF82FCFFFFA2FCFFFF1C21012309
S11350B01B04984201D3000C10391B0A984201D3F7
S11350C0000A08391B09984201D30009043902A2D5
S11350D0105C40187047C04604030202010101013C
S11350E00000000000000000014B18687047C04633
S11350F00400002070B500260C4D0D4C641BA41058
S1135100A64209D1002600F0D3FA0A4D0A4C641BCA
S1135110A410A64205D170BDB300EB5898470136E0
S1135120EEE7B300EB5898470136F2E7BC560000AF
S1135130BC560000BC560000C056000010B5034B1E
S11351400100186800F062F810BDC0460400002099
S113515010B5034B0100186800F00EF810BDC046EE
S113516004000020002310B59A4200D110BDCC5C8D
S1135170C4540133F8E7000070B50500002910D0CD
S11351800C1F2368002B00DAE418280000F0AEF8A6
S11351901D4A1368002B05D163601460280000F0D9
S11351A0A6F870BDA34209D9216860188342F3D1DF
S11351B018685B6841182160EEE713005A68002AFA
S11351C001D0A242F9D919685818A0420BD120681D
S11351D00918581819608242E0D1106852684118C1
S11351E019605A60DAE7A04202D90C232B60D5E794
S11351F021686018824203D1106852684118216006
S113520062605C60CAE7C0464C010020032370B5AD
S1135210CD1C9D43083506000C2D1ED20C25A94239
S11352201DD8300000F062F8254A146821000029D6
S113523019D1244C2368002B03D1300000F044F82A
S113524020602900300000F03FF8431C2CD10C23CF
S11352503000336000F04BF803E0002DDFDA0C235C
S11352603360002070BD0B685B1B1AD40B2B03D971
S11352700B60CC18256003E08C420ED16368136088
S1135280300000F034F8200007220B30231D904337
S1135290C31AE7D05A42E250E4E74B6863600C005B
S11352A0EEE70C004968C2E70323C41C9C43A042F8
S11352B0E0D0211A300000F007F8431CDAD1C6E729
S11352C04C01002050010020002370B5064C05005D
S11352D008002360FAF7D4FF431C03D12368002B92
S11352E000D02B6070BDC046540100207047704749
S11352F000000000000000000000000000000000AA
S11353000000000000000000000000000000000099
S11353100000000000000000000000000000000089
S11353200000000000000000000000000000000079
S11353300000000000000000000000000000000069
S11353400000000000000000000000000000000059
S11353500000000000000000000000000000000049
S11353600000000000000000000000000000000039
S11353700000000000000000000000000000000029
S11353800000000000000000000000000000000019
S11353900000000000000000000000000000000009
S11353A000000000000000000000000000000000F9
S11353B07371727400000000FB21F93FFB21094066
S11353C07CD91240FB2119407A6A1F407CD92240C3
S11353D0BBFD2540FB2129403A462C407A6A2F40E8
S11353E05C4731407CD932409C6B3440BBFD354036
S11353F0DB8F3740FB2139401BB43A403A463C40EE
S11354005AD83D407A6A3F404C7E40405C47414018
S11354106C1042407CD942408CA243409C6B444077
S1135420AC344540BBFD4540CBC64640DB8F4740CE
S1135430EB584840FB21494083F9A200444E6E00DA
S1135440FC291500D1572700DD34F50062DBC000CC
S11354503C999500419043006351FE00BBDEAB00D4
S1135460B761C5003A6E2400D24D42004906E000FF
S113547009EA2E001C92D100EB1DFE0029B11C008C
S1135480E83EA700F535820044BB2E009CE9840069
S1135490B4267000417E5F00D691390053833900F1
S11354A09CF439008B5F840028F9BD00F81F3B0091
S11354B0DEFF97000F980500112FEF000A5A8B00AA
S11354C06D1F6D00CF7E360009CB2700464FB70015
S11354D09E663F002DEA5F00BA277500E5EBC70022
S11354E03D7BF100F739070092528A00FB6BEA001A
S11354F01FB15F00085D8D00300356007BFC460041
S1135500F0AB6B0020BCCF0036F49A00E3A91D0079
S11355105E619100081BE60085996500A0145F0098
S11355208D40680080D8FF0027734D0006063100C7
S1135530CA561500C9A873007BE260006B8CC000DA
S113554000000040FB21F93F000000002D44743EA0
S1135550000000809846F83C0000006051CC783B85
S113556000000080831BF0390000004020257A38B9
S1135570000000802282E336000000001DF369353C
S11355800200000003000000040000000600000008
S1135590CC2F00001C2F00001C2F00001A2F00002D
S11355A0BE2F0000BE2F0000B42F00001A2F0000F1
S11355B0BE2F0000B42F0000BE2F00001A2F0000E1
S11355C0C42F0000C42F0000C42F0000543000007A
S11355D0D03C0000B23C00006C3C00008A3B000060
S11355E06C3C0000A43C00006C3C00008A3B0000C2
S11355F0B23C0000B23C0000A43C00008A3B000026
S1135600823B0000823B0000823B0000E83E000039
S113561030450000F0430000F0430000EC4300007C
S11356200845000008450000FA440000EC4300006F
S113563008450000FA44000008450000EC4300005F
S113564010450000104500001045000014470000FC
S11356500000000000000000000000000000000046
S11356600000000000000000000000000000000036
S11356700000000000000000000000000000000026
S11356800000000000000000000000000000000016
S11356900000000000000000000000000000000006
S11356A000000000000000000000000000000000F6
S11356B0F8B5C046F8BC08BC9E467047DD00000043
S11356C0F8B5C046F8BC08BC9E467047B50000005B
S11356D001000000080000200000000070560000D7
S11356E0905600005056000000000000000000002A
S11356F000000000000000000000000000000000A6
S11357000000000000000000000000000000000095
S11357100000000000000000000000000000000085
S11357200000000000000000000000000000000075
S10B573000000000000000006D
S9030000FC
