S01300004E6F2D53656375726974792E73726563CF
S1130000B82000202D010000290100002901000072
S113001000000000000000000000000000000000DC
S113002000000000000000000000000029010000A2
S11300300000000000000000290100002901000068
S11300402901000029010000290100002901000004
S11300509905000029010000290100002901000080
S113006029010000290100002901000029010000E4
S113007029010000290100002901000029010000D4
S113008029010000290100002901000029010000C4
S113009029010000290100002901000029010000B4
S11300A029010000290100002901000029010000A4
S11300B00000000010B5064C2378002B07D1054B37
S11300C0002B02D0044800E000BF0123237010BDC0
S11300D06400002000000000480C0000084B10B52C
S11300E0002B03D00749084800E000BF0748036815
S11300F0002B00D110BD064B002BFBD09847F9E72D
S11301000000000068000020480C0000480C0000BB
S11301100000000010B5024B9847024B984710BDF1
S11301200D02000059020000FEE7000010B51A4A53
S11301301A4B9A4211D01A00194B9A420DD2194AFD
S113014003339B1A9B0801339B0000221348124976
S11301508C58845004329A42FAD1134A134B9A426F
S11301600AD2D34311495B1803218B4304339B18F0
S1130170002102C29342FCD10D4AFF210D4B8B4357
S113018093600D4A53687F390B4353600B4B984778
S11301900B4B9847FEE7C046480C000000000020C7
S11301A0640000200400002064000020B40000204B
S11301B000ED00E00000000000400041A90900003B
S11301C091090000034A116980235B000B4313610A
S11301D07047C0460004004010B5034B98470349DC
S11301E00348044B984710BDC5010000004000417E
S11301F0940000205D03000010B50248024B9847AC
S113020010BDC04610E000E01103000010B50D4B16
S11302109847C023DB058022D20094215A500C3920
S11302205A50094BA82209499950C02109069950EE
S1130230CA215A5C012082435A54054B9847054B06
S1130240984710BDDD030000002800400004004072
S1130250D9010000F9010000F0B5C64600B5C0227E
S1130260D2050223942153508021490251618027F1
S11302707F03576180208003804650618826935114
S11302801C4BA8201C4D1D50C0252D061D509160EF
S11302908021C9059962194C9C6297609962184F34
S11302A09F6244469460996216499962C127DC5D55
S11302B001218C43DC55713FDC5D8C43DC550437F4
S11302C0DC5D8C43DC550137DC5D8C43DC558024DC
S11302D0E4004337D45194510B4A1A501D50223034
S11302E01A5C8A431A54C038084B984704BC904699
S11302F0F0BDC0460028004002000040010000C0DC
S1130300100000C0200000C00004004025030000CD
S113031010B5024B1860024B984710BD80000020B6
S1130320C907000010B5044B1C68044B9847010032
S11303302000034B984710BD80000020D10300002B
S1130340DD07000010B54369002B00D0984710BDAD
S113035010B58369002B00D0984710BD70B5050017
S11303600C00002812D00800431E9841C0B2382265
S11303700749084B984721002800074B9847002855
S113038003D1064B2B60064B6B6070BD0020EEE77B
S1130390900B0000A5030000E904000045030000E1
S11303A051030000002800D100BE70470300064A34
S11303B01268002A04D0044A1068C31813607047F6
S11303C00249014A1160F6E784000020B8200020A9
S11303D0014B58437047C046E02E000010B50A4A4E
S11303E0536810210B4353600120084B9847084B76
S11303F09847084B9847084B9847084B9847FF2065
S1130400074B984710BDC046004000419F070000BD
S11304104D07000065070000490400009D07000027
S113042025040000C30707D5044A054B1A621900C6
S1130430044A4B681342FCD17047C04606010100D0
S113044000180040FD070000034B08229A71043A8B
S11304505A71033A1A71704700040040F8B5040059
S11304600D0017001E0001234B4001201840C52237
S113047052001949194B984768080122237D1342F9
S1130480FCD0174B23800122237D1342FCD0202370
S1130490FF332383002E0ED01F3BFF3B29009943DB
S11304A00023FD5CAAB23E2B10D90A8002339BB212
S11304B002319E42F5D80122237D1342FCD0E06133
S11304C0084B069A13439BB22380F8BDFA1852785E
S11304D012022A43E9E7C046A80B0000A503000066
S11304E044A5FFFF00A5FFFF70B505000C00002820
S11304F01DD0104BC81843425841C0B246220E4981
S11305000E4B98472C6162689E23134063600C4B2A
S11305101D600C4B102280215A50BFF34F8FBFF344
S11305206F8F0131FF315A501A60002070BD0020D6
S1130530E4E7C04600C0FFBEA80B0000A50300000E
S11305408800002000E100E070B54C080569012630
S1130550287D3042FCD02020FF3028830020CD07A6
S113056005D50134013081430988090A1170984284
S113057011D212186400241A5D1E03E00230023204
S1130580834208D92118098889B211708542F5D9A6
S1130590090A5170F2E770BD10B50A4B1868036977
S11305A01A7DD20704D50368002B00D0984710BDEC
S11305B01A7D9207FBD502221A754368002BF6D0E8
S11305C09847F4E78800002070B50B4C0D1980247F
S11305D0A401A5420AD8084C1C1964188025AD0151
S11305E0AC4206D8054CA047002070BD0E20404206
S11305F0FBE70E204042F8E70000C0FF4905000079
S1130600F0B5DE4657464E464546E0B5C5B083468E
S113061016001D00494BCA1880239B019A4200D939
S113062086E0464BEB185B1880229201934200D976
S113063081E00C002FE0BA4667465B461A69012147
S1130640137D0B42FCD02023FF3313834B465B08FE
S1130650D3613B4B13804B46A04603972A004D467B
S1130660B1465E4693461F007A1B04AB9C46624427
S11306701C230093243339003069324CA04740379F
S1130680039BBB42F0D144465D46B3464E462B190C
S1130690013B9A4544D2FF2322009A4391464B449E
S11306A09A4680235B004B449846170042460392C7
S11306B0A0464C46B1465E46AB463A1B04AB9C464C
S11306C062444023390030001F4DA8474037039B44
S11306D09F42F2D15D46B3464E46A14644464B4640
S11306E0E31A99093F2213405445A6D8002DA4D0FB
S11306F0BC4657468A0104A8804642443078D05408
S113070001333F2213405A425A41891801340136B9
S1130710013DA7428FD3002DECD1BA4667468CE742
S1130720002045B03CBC90469946A246AB46F0BD7D
S11307300E204042F5E70E204042F2E70000C0FFE1
S11307401AA5FFFF5D040000C9050000044BDA6927
S1130750F82149010A40DA6101221A617047C04652
S1130760001000408A220C4B1A7518003821883A70
S1130770435C1342FCD108491022CB681A42FCD0D6
S1130780054A137D80210B431375100048390E224E
S1130790435C1342FCD17047000C00407047802337
S11307A0DB059B780322134098420CD08022D205AB
S11307B0FF239371937803218B430840184390706F
S11307C09379002BFCD07047024B034A5A600522F0
S11307D01A60704710E000E0FFFFFF0070B50B0ED9
S11307E05E1EF6B2002B13D034000E4A0E4D80204C
S11307F040025560956013680342FCD0013CE4B2AA
S1130800FF2CF6D13306F61A084B9C466144711846
S1130810044B596099601900802252020B681342FC
S1130820FCD070BD10E000E0FFFFFF00010000FFFE
S1130830F0B5CE4600B54F484F4B984707000A2005
S11308404E4B98470224012641E002204B4B984727
S113085080225203C023DB059A6100233A008021E1
S1130860C9034748474DA847002800D080E0C02569
S1130870ED0580235B036B610220404B994698474A
S11308800220C8470220C84780239B03AB61002392
S11308903A008021C9033A483B4DA847002808D1B3
S11308A080229203C023DB055A610220334B984710
S11308B00BE045E080229203C023DB055A6102204D
S11308C02E4B98472B4B9C423BD8013601340023D6
S11308D0002EBAD0FB5401339E42FBD10220274B99
S11308E0984780225203C023DB059A6133003A0003
S11308F08021C9032248234DA847002838D18022EB
S11309005203C023DB055A6102201C4DA847022074
S1130910A8470023FE22FA5401339E42FBD802204A
S1130920164B984780229203C023DB059A6133005B
S11309303A008021C9031248134DA8470028B9D0B2
S1130940FEE73800114B98470A200C4B9847C02308
S1130950DB05022198229950802252029A6180225A
S113096052039A61802292039A6104BC9146F0BDBD
S1130970FEE7C04670170000F109000025030000DF
S11309809400002001060000C9050000050A0000CB
S113099010B5034B9847034B9847002010BDC04641
S11309A0150100003108000070B500260C4D0D4CF7
S11309B0641BA410A64209D1002600F035F90A4DA3
S11309C00A4C641BA410A64205D170BDB300EB58B9
S11309D098470136EEE7B300EB5898470136F2E743
S11309E0340C0000340C0000340C0000380C0000FF
S11309F010B5034B0100186800F058F810BDC0464C
S1130A000000002010B5034B0100186800F004F842
S1130A1010BDC0460000002070B50500002910D0AC
S1130A200C1F2368002B00DAE418280000F0AEF84D
S1130A301D4A1368002B05D163601460280000F080
S1130A40A6F870BDA34209D9216860188342F3D186
S1130A5018685B6841182160EEE713005A68002AA1
S1130A6001D0A242F9D919685818A0420BD12068C4
S1130A700918581819608242E0D110685268411868
S1130A8019605A60DAE7A04202D90C232B60D5E73B
S1130A9021686018824203D11068526841182160AD
S1130AA062605C60CAE7C0468C000020032370B516
S1130AB0CD1C9D43083506000C2D1ED20C25A942E1
S1130AC01DD8300000F062F8254A1468210000297E
S1130AD019D1244C2368002B03D1300000F044F8D2
S1130AE020602900300000F03FF8431C2CD10C2377
S1130AF03000336000F04BF803E0002DDFDA0C2304
S1130B003360002070BD0B685B1B1AD40B2B03D918
S1130B100B60CC18256003E08C420ED1636813602F
S1130B20300000F034F8200007220B30231D9043DE
S1130B30C31AE7D05A42E250E4E74B6863600C0002
S1130B40EEE70C004968C2E70323C41C9C43A0429F
S1130B50E0D0211A300000F007F8431CDAD1C6E7D0
S1130B608C00002090000020002370B5064C050086
S1130B7008002360FFF71AFC431C03D12368002BF1
S1130B8000D02B6070BDC046B00000207047704795
S1130B902E2E2F68616C2F7372632F68616C5F66F1
S1130BA06C6173682E6300002E2E2F68706C2F6E9C
S1130BB0766D6374726C2F68706C5F6E766D63749F
S1130BC0726C2E63000000000000000000000000B2
S1130BD00000000000000000000000000000000011
S1130BE00000000000000000000000000000000001
S1130BF000000000000000000000000000000000F1
S1130C0000000000000000000000000000000000E0
S1130C1000000000000000000000000000000000D0
S1130C200000000000000000F8B5C046F8BC08BC95
S1130C309E467047DD000000F8B5C046F8BC08BC0D
S10B0C409E467047B500000058
S1130C480400002000000000E80B0000080C00006D
S1130C58C80B0000000000000000000000000000B5
S1130C680000000000000000000000000000000078
S1130C780000000000000000000000000000000068
S1130C880000000000000000000000000000000058
S1130C980000000000000000000000000000000048
S1070CA80000000044
S9030000FC
