:10000000B806002099010000970100009701000048
:1000100000000000000000000000000000000000E0
:100020000000000000000000000000009701000038
:100030000000000000000000970100009701000090
:100040009701000097010000970100009701000050
:100050009701000097010000970100009701000040
:100060009701000097010000970100009701000030
:100070009701000097010000970100009701000020
:100080009701000097010000970100009701000010
:100090009701000097010000970100009701000000
:1000A00097010000970100009701000097010000F0
:1000B00097010000970100009701000097010000E0
:1000C00097010000970100009701000097010000D0
:1000D00097010000970100009701000097010000C0
:1000E00097010000970100009701000097010000B0
:1000F0009701000010B540F27404C2F200042378A6
:1001000063B940F20003C0F200032BB144F22000B7
:10011000C0F2800000E000BF0123237010BDC04684
:1001200040F20003C0F2000310B54BB140F2780179
:1001300044F22000C2F20001C0F2800000E000BFE3
:1001400044F22000C0F28000036803B910BD40F201
:100150000003C0F20003002BF8D09847F6E7C04632
:1001600010B540F22933C0F20003984743F2002350
:10017000C4F200030022DA664EF20013CEF200034E
:1001800040F280215A5004315A5040F28B33C0F271
:100190000003984710BDFEE710B544F28C02C0F290
:1001A000000240F20003C2F200039A4220D01A007B
:1001B00040F27403C2F200039A4219D240F274036F
:1001C000C2F200030333244A9B1A9B0801339B00AD
:1001D000002240F20001C2F20001511844F28C00EA
:1001E000C0F2000010180068086004329A42F0D192
:1001F00040F27402C2F2000240F2B403C2F2000301
:100200009A4213D240F27402C2F20002D34340F287
:10021000B401C2F200018C46634403218B430433D2
:1002200094466344002102C29342FCD140F2000391
:10023000C0F200037F2293434EF60052CEF200023A
:10024000936041F65943C0F20003984740F6555376
:10025000C0F200039847FEE70400002040F60003C8
:10026000C4F200031A6980210A431A619A697C3931
:100270000A439A61704730B543F20023C4F2000389
:100280005822995C0125A94301242143C9B29954FC
:100290003C20195C493A91430D3A114319545921B4
:1002A0005A5CAA432243D2B25A541A5C4A390A40D1
:1002B00011310A431A5430BD41F60043C4F2000321
:1002C0004021AC2299500331043A995040F6000382
:1002D000C4F20003DA6941390A43DA61704710B5A4
:1002E00040F2B923C0F20003984740F20041C4F243
:1002F000002140F2A400C2F20000002240F251535B
:10030000C0F20003984740F27723C0F200039847F9
:1003100010BD10B54EF21000CEF2000040F21F43A7
:10032000C0F20003984710BD10B540F23F63C0F221
:100330000003984740F20023C6F2000380225A616E
:100340009A6043F20023C4F20003C4F200029A62EE
:10035000C02212069A6247215A5C012082435A54F5
:1003600040F25D23C0F20003984740F2C563C0F23B
:100370000003984740F2DF23C0F20003984740F2A1
:100380001333C0F20003984710BD70B540F200224D
:10039000C6F2000240F20043536140F60005556189
:1003A000802109045161802000055061936043F26F
:1003B0000023C4F2000340F20044C4F200049C6233
:1003C000C02424069C629560C4F200059D629C6274
:1003D00091608021C90599628024CCF200049C625E
:1003E0009060996240F60002CCF200029A624A20C4
:1003F000195C0122914319540130195C914319543D
:100400000C30195C914319540430195C9143195410
:10041000513840F23743C0F20003984770BD10B521
:1004200040F29003C2F20003186040F6FD13C0F2E0
:100430000003984710BD10B540F29003C2F20003CC
:100440001C6840F23763C0F20003984701002000A7
:1004500040F61523C0F20003984710BDF8B5CE460C
:10046000474680B504000F009046002837D0002989
:1004700037D01000431E984141F66861C0F2000178
:10048000F12240F2FF53C0F200039847083440F6CF
:10049000DD15C0F200052000A8470028FBD000268B
:1004A00040F6CD19C0F2000940F6DD15C0F2000596
:1004B000B95D2000C8472000A8470028FBD00136BE
:1004C0004645F5D340F6E715C0F200052000A847E1
:1004D0000028FBD030000CBC90469946F8BD0020A7
:1004E000CAE70020C8E7F8B5CE46474680B5040005
:1004F0008846914640B349B31000431E984141F6E7
:100500006861C0F2000140F20C1240F2FF53C0F2E9
:10051000000398470026083440F6F115C0F20005A4
:1005200040F6D517C0F200072000A8470028FBD0EE
:100530002000B8474346985501364E45F4D3300065
:100540000CBC90469946F8BD0020D8E70020D6E7BD
:1005500070B505000C0008B30800431E9841C0B2F6
:1005600041F66861C0F20001342240F2FF53C0F24C
:100570000003984728000830210040F68913C0F294
:100580000003984748B940F2E743C0F200036B60AC
:1005900040F25D43C0F200032B6070BD0020DFE736
:1005A00010B5040041F66861C0F20001431E984195
:1005B000C0B2532240F2FF53C0F20003984720001C
:1005C000083040F6B913C0F200039847002010BD70
:1005D00070B504000D0080B10800431E9841C0B200
:1005E00041F66861C0F20001692240F2FF53C0F297
:1005F000000398472C60002070BD0020F0E700B990
:1006000000BE7047020040F29403C2F200031B6870
:100610003BB140F29403C2F20003186882181A60DA
:10062000704740F29403C2F2000340F2B861C2F294
:1006300000011960EDE740F6A0735843704710B50C
:1006400045F20003C4F200135A685A60002040F6D5
:100650006F03C0F20003984740F62703C0F200037F
:10066000984740F63F03C0F20003984740F2B76353
:10067000C0F20003984740F66D03C0F200039847AC
:100680001F2040F28F63C0F20003984710BDC307DC
:1006900010D541F60043C4F2000340F20512C0F247
:1006A00001021A6241F60042C4F200027D21536841
:1006B0001942FCD1704740F60003C4F20003012246
:1006C0001A7170470020704710B545F20002C4F25D
:1006D00000120424138B2342FCD045F20003C4F221
:1006E00000133F221A75831EBE32134216D04AF2FF
:1006F0000053184345F20003C4F20013188045F27A
:100700000003C4F2001301211E201A7D0A420BD1FE
:100710001A7D0242F9D01E20404206E045F2000355
:10072000C4F20013D961E2E7002010BD10B501004A
:10073000022040F2C963C0F20003984710BD70B5B3
:1007400006000C001500830621D1402A22D80100A2
:10075000442040F2C963C0F200039847EDB1210084
:1007600001233000984300236E1E09E04C782402D8
:1007700022431C182280023102339AB2954204D9D6
:100780000A789E42F2DC92B2F3E7002070BD0D20A1
:100790004042FBE70D204042F8E70020F6E770B545
:1007A0000400150040F23F73C0F20003984778B987
:1007B00045F20003C4F200131B7ADB0701D43F2D7E
:1007C00006D82100042040F2C963C0F20003984714
:1007D00070BD70B5450845F20004C4F2001404264B
:1007E000238B3342FCD00024C30706D501350123F7
:1007F000984303881B0A0B700134944211D20919E3
:100800006D00281B551E03E002340231A24208D9B4
:1008100003191B889BB20B70A542F5D91B0A4B70BC
:10082000F2E7002070BD41F20043C4F20003DA6930
:1008300041F600710A40DA6100221A74704741F2F1
:100840000003C4F2000302221A7641F20002C4F24D
:100850000002102113691942FCD041F20003C4F2D6
:1008600000031A7E80210A431A767047704740F2CF
:100870000043C4F200039B7803221340984212D035
:1008800040F20042C4F20002FF23937193780321E7
:100890008B4308401843907040F20042C4F20002BB
:1008A0009379002BFCD0704730B585B001AA41F692
:1008B0008463C0F2000332CB32C20300019A824249
:1008C0000CD0029A824207D00020039A9A4201D0AB
:1008D00005B030BD023002E0012000E00020C0B2CF
:1008E000F6E7000010B5040040F6A903C0F20003CB
:1008F000984758B141F6A861C0F2000140F2472282
:10090000002040F2FF53C0F200039847E369DB0781
:1009100018D40322E3691A42FCD123689B070BD544
:1009200023680222934323600132E3691A42FCD117
:100930000222E3691A42FCD1052323600322E36902
:100940001A42FCD10122E3691A42FCD10423C4F209
:10095000310323600322E3691A42FCD1C0239B02C6
:1009600063600F22E3691A42FCD10223C0F27003D4
:10097000A360044BA3810023A3733022A35400205F
:1009800010BDC0462BF6FFFF70B505000C0041F608
:10099000A861C0F20001431E9841C0B2BB2240F2E0
:1009A000FF53C0F2000398472C60200040F6E50397
:1009B000C0F20003984770BD0268136802210B4320
:1009C00013600131D3691942FCD17047036889B2C1
:1009D000198570470368188DC0B270470368187E88
:1009E0000123184070470368187E8007C00F7047C6
:1009F0000368187E4007C00F704700004EF21003D6
:100A0000CEF20003024A5A6005221A607047C046BF
:100A1000FFFFFF0070B50B0E5E1EF6B2C3B13400CF
:100A20004EF21002CEF20002114D802040025560BD
:100A3000956013680342FCD0013CE4B2FF2CF6D170
:100A40003306F61A40F2010CCFF6007C61447118AF
:100A50004EF21003CEF20003596099604EF210027C
:100A6000CEF200028021490213680B42FCD070BD17
:100A7000FFFFFF0010B540F29801C2F2000140F202
:100A8000A404C2F20004200040F2D153C0F20003DB
:100A90009847200040F2A153C0F20003984710BDD0
:100AA000F0B5DE4657464E464546E0B5A84CA5444F
:100AB00006A941F6C463C0F200030A0013CB13C2B7
:100AC00013CB13C203CB03C241F2707041F6A943AA
:100AD000C0F20003984707000A2040F23743C0F2F3
:100AE000000398474FF6F0730293202303931025D9
:100AF00040F20003C2F20003049340F22D79C0F2E9
:100B0000000968E0402229003000D0470134403617
:100B10004035A3019F4205D95B462342F2D1300004
:100B2000C847EFE73D00474640F20023C6F2000306
:100B3000802212055A61022040F23743C0F20003BE
:100B400098470023FE22FA5401339D42FBD802202D
:100B500040F23744C0F20004A04740F20026C6F23B
:100B6000000680231B059846B3612A0039000598CA
:100B700040F2D373C0F200039847434673610220EA
:100B8000A04701230093049B202206A90EA841F64A
:100B9000F138C0F20008C0470220A04780231B04A0
:100BA0009846B3613A0039000EA841F64343C0F2BB
:100BB00000039847434673610220A04741F27073D7
:100BC000039A9A4200D99DE01035039B103303939A
:100BD000029B103B02930023EDB3FB5401339D4273
:100BE000FBD100230093049B202206A955A841F6BF
:100BF000F134C0F20004A047022040F23744C0F2B2
:100C00000004A04740F20026C6F2000680231B0421
:100C10009846B3613A00390055A841F62F43C0F217
:100C200000039847434673610220A0470220A04773
:100C300080231B05B361FF23029A9A430592B846AD
:100C40001600002440F2030B40F29F7AC0F2000A23
:100C50002F00454660E70093049B202206A955A873
:100C600041F6F138C0F20008C047022040F2374494
:100C7000C0F20004A04740F20026C6F2000680221F
:100C800012049246B2613A00390055A841F62F434A
:100C9000C0F200039847524672610220A04702202A
:100CA000A047802212059346B26172610220A047DC
:100CB0000220A0475A46B261FF23029898430022BF
:100CC000390040F2D373C0F2000398475A4672616C
:100CD0000220A04701230093049B202206A90EA80E
:100CE000C0470220A0475346B3613A0039000EA81E
:100CF00041F64343C0F20003984753467361022014
:100D0000A04761E7380041F6BD43C0F200039847B1
:100D10000A2040F23743C0F20003984740F2002314
:100D2000C6F2000340F200429A6140F600029A6166
:100D3000802212049A61802212059A61012040F2F9
:100D400074239D443CBC90469946A246AB46F0BDF8
:100D50008CFDFFFF10B540F26113C0F2000398470D
:100D600040F67523C0F20003984740F6A123C0F275
:100D700000039847002010BDF0B5DE4657464E46AA
:100D80004546E0B58BB007000E000292F023C5582F
:100D90006D086B1E062B06D90BB03CBC90469946DD
:100DA000A246AB46F0BD042209A841F6D144C0F2E8
:100DB0000004A047311D042208A8A04731000831D3
:100DC000042207A8A04731000C31042206A8A0473E
:100DD000099B089E180A40F2FF09C0F2FF094A4623
:100DE00010401B024FF60072CFF6007213401843FA
:100DF0001024E0413B685840330A49460B40360214
:100E000016403343E3417E685E40B446079B1B0AAD
:100E10000B400799090211400B43E341B96859405F
:100E20008846069B1B021340069A120A49460A404E
:100E30001343E341FA685A40914604222023013BC0
:100E4000002BFCD1013A002AF8D13E006D01BB46CF
:100E5000AB4441F6E467C0F20007FF244546B046C4
:100E60004B46020E92002100194040F200394944DD
:100E70008900D259C9594A40414609694A406146E8
:100E8000090C21400131FF318900C9594A40290A22
:100E9000214040F2002949448900C9594A40019241
:100EA0006246110E89002600064040F200394E4489
:100EB000B600C959F65971404246526951402E0C4C
:100EC00026400136FF36B600F65971401E0A26400C
:100ED00040F200294E44B600F65971402E0EB20081
:100EE0006646264040F2003A5644B600D259F659BA
:100EF00056404246926956401A0C2240914640F2B2
:100F0000001AD1444A469200D2595640020A224061
:100F1000914640F2002AD1444A469200D2595640A6
:100F20001B0E9B00254040F200394D44AD00DB59BB
:100F3000ED596B404246D2695340000C2040451C9D
:100F4000FF35AD00E85943406246100A204040F2A8
:100F5000002C60448000C059434040F2200CE04423
:100F6000C3457FD0019A100E800025001D4040F23D
:100F7000003C6544AD00C059ED59684042461268D6
:100F800050400D0C25400135FF35AD00ED5968404E
:100F9000350A254040F2002C6544AD00ED5968400B
:100FA0000D0EAA0094462500019A15404D44AD004F
:100FB0006246D259ED595540424652686A40350C56
:100FC00025400135FF35AD00ED5955401A0A224044
:100FD000944640F20029CC4462469200D2596A40BD
:100FE0009446350EAA0025000D4040F2003A5544C3
:100FF000AD00D259ED5955404246926855401A0C01
:101000002240914640F2001AD1444A469200D259F9
:101010005540019A120A2240914640F2002AD144DA
:101020004A469200D25955401B0E9B00264040F282
:1010300000394E44B600DB59F65973404246D26837
:101040005340019A120C22400132FF329200D259D1
:101050005340090A214040F2002949448900CA59F5
:101060005340FEE61D000C003100464641F6E467A1
:10107000C0F20007FF2003002B409C4640F20018FE
:10108000C44463469B00DB590340326853409C468E
:101090000B0A03409B004FF6007BDB595A46134076
:1010A00098466346424653409C460394230C0340B3
:1010B000984640F20039C84443469B00DB599846A5
:1010C000FF231B041C004346049423409846019BC5
:1010D0001B0E994640F2002AD1444B469B00DB5937
:1010E0001B0E1B06994643464A46134364465C4022
:1010F0000300019A13409C4640F20018C444634622
:101100009B00DB590340726853409C462B0A034006
:101110009B00DB595A46134098466346424653406B
:101120009C4605910B0C0340984640F20039C84498
:1011300043469B00DB59049A1340984603990B0ED3
:101140009946D1444B469B00DB591B0E1B06994622
:1011500043464A46134398466346424653409C469C
:1011600003000B40984640F20019C84443469B00D8
:10117000DB590340B26853409846019B1B0A034069
:101180009B00DB595A461340994643464A46534012
:101190002A0C0240904640F20039C8444246920070
:1011A000D25904990A40904605990A0E9146D144B5
:1011B0004A469200D259120E1206914642464946BC
:1011C0000A4353409846059901400131FF31890097
:1011D000C9590140F6687140039E330A03409B00E1
:1011E000DB595A4613405940019B1A0C024040F209
:1011F00000394A449200D359049A13402D0E40F20C
:1012000000294D44AD00EA59120E1206134359400D
:10121000230AFF26C0F2FF06334022024FF6007079
:10122000CFF60070024013431025EB41099363464B
:101230001B0A33406246120202401343EB410893FB
:1012400043461A0A32401B0203401A43EA410792FE
:101250000B0A3340090208400343EB410693042282
:1012600009A9029C200041F6D145C0F20005A8471B
:10127000201D042208A9A84720000830042207A93D
:10128000A84720000C30042206A9A84784E5F0B541
:10129000DE4657464E464546E0B589B007000D008C
:1012A0000392F023C6587608731E062B06D909B0A0
:1012B0003CBC90469946A246AB46F0BD042207A826
:1012C00041F6D144C0F20004A047291D042206A81B
:1012D000A04729000831042205A8A04729000C31A5
:1012E000042204A8A047079B0699180A40F2FF08A9
:1012F000C0F2FF08424610401B024FF60072CFF6C4
:101300000072134018431024E0413B6858400D0A16
:1013100043461D40090211400D43E5417B685D4095
:101320000195059B190A43461940059B1B02134072
:101330001943E141BB685940049B1B021340049AC6
:10134000120A45462A401343E341FA685A40904640
:1013500004222023013B002BFCD1013A002AF8D1C2
:101360003C007601BA46B24442F6E463C0F20003A0
:10137000FF22060EB6001700019D2F4040F2003CF0
:101380006744BF00F658FF587E4025696E404546C9
:101390002F0C17400137FF37BF00FF587E400F0A60
:1013A000174040F2002C6744BF00FF587E40B4460F
:1013B000019D2F0EBF0016000E4040F200394E4432
:1013C000B600FF58F658774065696F40060C164026
:1013D0000136FF36B600F658774045462E0A1640CD
:1013E00040F200294E44B600F65877400E0EB50084
:1013F0004646164040F200394E44B600ED58F658C5
:101400006E40A5696E40019D2D0C1540AB4640F223
:101410000019CB445D46AD00ED586E40050A1540FD
:10142000AB4640F20029CB445D46AD00ED586E401E
:10143000029645462D0EAD00104040F2003948445A
:101440008000ED58C0586840E5694540090C1140DE
:10145000481CFF308000C15869400198050A1540BA
:1014600040F200284544AD00E85841408846203409
:10147000544500D18AE06146080E800011003940D1
:1014800049448900C058C9584840216848404146ED
:10149000090C11400131FF318900C9584840310A17
:1014A000114040F2002949448900C95848403D0E86
:1014B000AD001100314040F2003949448900ED5837
:1014C000C9584D4061684D406146090C11400131D9
:1014D000FF318900C9584D404146090A114040F288
:1014E000002949448900C9584D400195310E8900B1
:1014F0008B464146114040F20039494489005D461F
:10150000ED58C9586940A56869403D0C1540AB4687
:1015100040F20019CB445D46AD00ED586940654688
:101520002D0A1540AB4640F20029CB445D46AD0084
:10153000ED58694045462D0EAD00A846654615405C
:10154000AC4640F20039CC446546AD00AC46454659
:10155000ED58A8466546ED58AC464546664675408A
:10156000E6687540A846029D2E0C16400136FF36EF
:10157000B600F65845466E403F0A174040F2002C30
:101580006744BF00FF587E40B046F2E643F6E4638E
:10159000C0F20003FF252A003A40985C52461268C8
:1015A00050406246120E9A5C120650400A0C2A40C5
:1015B0009A5C12045040029E320A2A409A5C12023F
:1015C00050402A003240995C5246526851403A0ECF
:1015D0009A5C120651406246120C2A409A5C120430
:1015E00051404246120A2A409A5C12025140424639
:1015F0002A409A5C5446A4685440A146320E9A5C34
:1016000012064C4662403C0C2C401C5D2404624097
:101610006446240A2C401C5D2402624064462C402F
:101620001C5DA4465446E468A14664464E46744098
:10163000A4464446240E1C5D2406A0466446464645
:101640007440A446029C260C2E409E5D36046446DF
:1016500066403F0A2F40DB5D1B027340070AFF26EE
:10166000C0F2FF06374000024FF60075CFF6007556
:10167000284007431020C74107970F0A3740090247
:1016800029403943C1410691110A314012022A40D2
:101690001143C14105911A0A32401B022B401343EA
:1016A000C3410493042207A9039C200041F6D145BD
:1016B000C0F20005A847201D042206A9A847200063
:1016C0000830042205A9A84720000C30042204A9F0
:1016D000A847ECE510B598B141B1F830102241F6B9
:1016E000D143C0F200039847002010BDF83010220B
:1016F000002141F6E343C0F2000398470020F4E7DD
:10170000AD204042F1E7F0B5DE4657464E4645462D
:10171000E0B585B00700140002930500F423FA50E9
:101720009608B21D043BC250220041F6D143C0F2DC
:1017300000039847D6B13A00032321009943791852
:10174000FF26C0F2FF064FF60070CFF6007040F2A1
:10175000100CA0461468230A33402402044023439B
:101760006446E34108C28A42F4D14446182C52D060
:10177000202C00D1A8E0102C02D0AD2040422FE157
:1017800043F6E476C0F2000640F29009B94439000D
:1017900041F6E460C0F20000EF344FF60078FF231A
:1017A0001B049C464B46A946BA460193CA6880CEA4
:1017B0000B685F40230013409B001B5845462B409D
:1017C0007B40170E0137FF37BF003F5827407B4053
:1017D000170C274040F2002B5F44BF003F583F0EDC
:1017E0003F067B40170A274040F2003B5F44BF00A2
:1017F0003F5865462F407B400B614D686B404B6105
:101800008D686B408B615340CB61019B994200D145
:10181000DAE01031CAE743F6E476C0F2000640F29F
:10182000A809B944390041F6E460C0F20000FF2481
:101830004FF60078FF231B049C464B460395BB469E
:1018400001934A6980CE0B685F40230013409B00E0
:101850001B5845462B407B40170E7D1CFF35AD00C5
:101860002D582F0027407B40150C2F002740BA46EB
:1018700040F20029CA445546AD002D582D0E2D06C4
:101880006B40150A2F002740BA4640F20039CA447F
:101890005546AD002D582F0065462F407B408B618B
:1018A0004D686B40CB618D686B400B62CD686B40BF
:1018B0004B62019DA94200D199E00D696B408B629A
:1018C0005340CB621831BCE743F6E478C0F200081D
:1018D00040F2C00BBB443C0041F6E466C0F2000697
:1018E00040F2FF0C4FF6007AFF231B049946019546
:1018F000414658460397E269634613409B009D5951
:1019000053461D4008C927687B406B40150E0135C2
:10191000FF35AD00AD5967463D406B40150C3D406D
:1019200040F200284544AD00AD592D0E2D066B4008
:10193000150A3D4040F200384544AD00AD594F46D0
:101940003D406B40236265686B406362A5686B40F5
:10195000A362E5686B40E36284424BD01D0C67468E
:101960003D404544AD00AD594F462F40B8461D0A95
:1019700067463D40AD00AD5957463D4047462F4371
:101980003D0027697D40A8461D0E40F2002BAB4468
:101990005D46AD00AD592D0E2D06AB4665462B407C
:1019A0000133FF339B009B592B405D462B4345463B
:1019B0006B40236365696B406363A5696B40A363F8
:1019C0005A40E263203496E74D4657460E9B012B62
:1019D00013D00299380041F2D563C0F20003984752
:1019E00005B03CBC90469946A246AB46F0BD039D6F
:1019F0005F46EBE7019D039FE8E7EF33FC58A40047
:101A0000CCB13A00A300FB18002110681E681660D4
:101A1000186050685E685660586090689E6896606E
:101A20009860D068DE68D660D86004311032103B10
:101A3000601A8142E9D3F023FB58012BC9D9012652
:101A400042F6E461C0F2000141F6E462C0F2000235
:101A5000FF2340F2F00CBA4610352868040E01341A
:101A6000FF34A400A4581C40A400A0461C0004405D
:101A70000134FF34A400A4581C4040F200394C4407
:101A8000A40047467F5864586740040C1C4001344A
:101A9000FF34A400A4581C400134FF34A40064584F
:101AA0007C40000A18400130FF3080008058184008
:101AB00040F2002840448000405844402C60686850
:101AC000040E0134FF34A400A4581C40A400A04616
:101AD0001C0004400134FF34A400A4581C404C44B2
:101AE000A40047467F5864586740040C1C400134EA
:101AF000FF34A400A4581C400134FF34A4006458EF
:101B00007C40000A18400130FF30800080581840A7
:101B100040F2002840448000405844406C60A8686F
:101B2000040E0134FF34A400A4581C40A400A046B5
:101B30001C0004400134FF34A400A4581C404C4451
:101B4000A40047467F5864586740040C1C40013489
:101B5000FF34A400A4581C400134FF34A40064588E
:101B60007C40000A18400130FF3080008058184047
:101B700040F200284044800040584440AC60E8688F
:101B8000040E0134FF34A400A4581C40A400A04655
:101B90001C0004400134FF34A400A4581C404C44F1
:101BA000A40047467F5864586740040C1C40013429
:101BB000FF34A400A4581C400134FF34A40064582E
:101BC0007C40000A18400130FF30800080581840E7
:101BD00040F200284044800040584440EC60013608
:101BE000604654462058B04200D935E75746F0E6E3
:101BF00030B583B0A8B108241500A543102D01D03D
:101C0000202A11D1F424025194080634F0254451BD
:101C1000069C009441F20774C0F20004A04703B090
:101C200030BDAD204042FAE7AD204042F7E710B5A5
:101C300013000A00190040F67953C0F200039847D8
:101C400010BD10B513000A00190041F28F23C0F235
:101C50000003984710BD000070B500250E4B0F4CD7
:101C6000E41AA410A54209D1002502F0FFF90C4C9A
:101C70000C4BE41AA410A54207D170BD064AAB0074
:101C80009B181B6898470135ECE7064AAB009B1888
:101C90001B6898470135EEE7784000007840000067
:101CA0007C4000007840000010B5034B010018682C
:101CB00000F06AF810BDC0461000002010B5034BBC
:101CC0000100186800F016F810BDC0461000002092
:101CD000002310B59A4200D110BDCC5CC45401332E
:101CE000F8E703008218934200D17047197001335E
:101CF000F9E7000070B5050081B10C1F2368002BC7
:101D000000DAE418280000F0ADF81E4A136811004C
:101D10002BB963601460280000F0A5F870BDA342E1
:101D20000BD92268A018834203D118685B68821817
:101D3000226063600C60EEE713005A680AB1A242A9
:101D4000FAD919685818A0420BD1206809185818F8
:101D500019608242DFD110685268411819605A60D8
:101D6000D9E7A04202D90C232B60D4E72168601880
:101D7000824203D1106852684118216062605C6041
:101D8000C9E7C0469C000020032370B5CD1C9D43CD
:101D9000083506000C2D1CD20C25A9421BD830009A
:101DA00000F060F8254A14682100C1B9244C23686A
:101DB0001BB9300000F046F820602900300000F028
:101DC00041F8431C2DD10C233000336000F04BF858
:101DD00003E0002DE1DA0C233360002070BD0B68B6
:101DE0005B1B1BD40B2B03D90B60CC18256003E0C5
:101DF0008C420FD163681360300000F034F820008B
:101E000007220B30231D9043C31A002BE6D05A4201
:101E1000E250E3E74B6863600C00EDE70C004968B3
:101E2000C3E70323C41C9C43A042DFD0211A300027
:101E300000F008F8431CD9D1C5E7C0469C0000203B
:101E4000A0000020002370B5054C050008002360A9
:101E5000FEF7D8FB431C02D1236803B12B6070BD91
:101E6000B0000020704770472E2E2F68616C2F73D2
:101E700072632F68616C5F75736172745F73796EE2
:101E8000632E63000004004200080042000C004280
:101E90000000000000000000000000000000000042
:101EA00000000000000000002E2E2F68706C2F73C1
:101EB0006572636F6D2F68706C5F736572636F6DB1
:101EC0002E630000603DEB1015CA71BE2B73AEF09F
:101ED000857D77811F352C073B6108D72D9810A38E
:101EE0000914DFF4A56363C6847C7CF8997777EEE8
:101EF0008D7B7BF60DF2F2FFBD6B6BD6B16F6FDEA3
:101F000054C5C5915030306003010102A96767CE06
:101F10007D2B2B5619FEFEE762D7D7B5E6ABAB4D4E
:101F20009A7676EC45CACA8F9D82821F40C9C989BC
:101F3000877D7DFA15FAFAEFEB5959B2C947478EFA
:101F40000BF0F0FBECADAD4167D4D4B3FDA2A25FC2
:101F5000EAAFAF45BF9C9C23F7A4A453967272E4EA
:101F60005BC0C09BC2B7B7751CFDFDE1AE93933D4E
:101F70006A26264C5A36366C413F3F7E02F7F7F50B
:101F80004FCCCC835C343468F4A5A55134E5E5D15D
:101F900008F1F1F9937171E273D8D8AB5331316222
:101FA0003F15152A0C04040852C7C795652323461C
:101FB0005EC3C39D28181830A19696370F05050AF1
:101FC000B59A9A2F0907070E361212249B80801BA0
:101FD0003DE2E2DF26EBEBCD6927274ECDB2B27FA3
:101FE0009F7575EA1B0909129E83831D742C2C585A
:101FF0002E1A1A342D1B1B36B26E6EDCEE5A5AB4F2
:10200000FBA0A05BF65252A44D3B3B7661D6D6B7FF
:10201000CEB3B37D7B2929523EE3E3DD712F2F5EE2
:1020200097848413F55353A668D1D1B900000000FA
:102030002CEDEDC1602020401FFCFCE3C8B1B1795C
:10204000ED5B5BB6BE6A6AD446CBCB8DD9BEBE67AC
:102050004B393972DE4A4A94D44C4C98E85858B0FF
:102060004ACFCF856BD0D0BB2AEFEFC5E5AAAA4FE8
:1020700016FBFBEDC5434386D74D4D9A553333666A
:1020800094858511CF45458A10F9F9E906020204C5
:10209000817F7FFEF05050A0443C3C78BA9F9F2542
:1020A000E3A8A84BF35151A2FEA3A35DC04040801A
:1020B0008A8F8F05AD92923FBC9D9D214838387024
:1020C00004F5F5F1DFBCBC63C1B6B67775DADAAFFB
:1020D00063212142301010201AFFFFE50EF3F3FDBB
:1020E0006DD2D2BF4CCDCD81140C0C1835131326F4
:1020F0002FECECC3E15F5FBEA2979735CC444488D8
:102100003917172E57C4C493F2A7A755827E7EFCB9
:10211000473D3D7AAC6464C8E75D5DBA2B1919325E
:10212000957373E6A06060C098818119D14F4F9E6E
:102130007FDCDCA3662222447E2A2A54AB90903BAB
:102140008388880BCA46468C29EEEEC7D3B8B86B95
:102150003C14142879DEDEA7E25E5EBC1D0B0B1674
:1021600076DBDBAD3BE0E0DB563232644E3A3A746C
:102170001E0A0A14DB4949920A06060C6C242448FC
:10218000E45C5CB85DC2C29F6ED3D3BDEFACAC4320
:10219000A66262C4A8919139A495953137E4E4D33D
:1021A0008B7979F232E7E7D543C8C88B5937376E58
:1021B000B76D6DDA8C8D8D0164D5D5B1D24E4E9C44
:1021C000E0A9A949B46C6CD8FA5656AC07F4F4F3FC
:1021D00025EAEACFAF6565CA8E7A7AF4E9AEAE47F2
:1021E00018080810D5BABA6F887878F06F25254A94
:1021F000722E2E5C241C1C38F1A6A657C7B4B473EB
:1022000051C6C69723E8E8CB7CDDDDA19C7474E859
:10221000211F1F3EDD4B4B96DCBDBD61868B8B0DB8
:10222000858A8A0F907070E0423E3E7CC4B5B571DD
:10223000AA6666CCD84848900503030601F6F6F76F
:10224000120E0E1CA36161C25F35356AF95757AE95
:10225000D0B9B9699186861758C1C199271D1D3A11
:10226000B99E9E2738E1E1D913F8F8EBB398982B83
:1022700033111122BB6969D270D9D9A9898E8E0711
:10228000A7949433B69B9B2D221E1E3C92878715E4
:1022900020E9E9C949CECE87FF5555AA78282850AC
:1022A0007ADFDFA58F8C8C03F8A1A1598089890979
:1022B000170D0D1ADABFBF6531E6E6D7C642428474
:1022C000B86868D0C3414182B0999929772D2D5AB9
:1022D000110F0F1ECBB0B07BFC5454A8D6BBBB6D06
:1022E0003A16162C6363C6A57C7CF8847777EE9942
:1022F0007B7BF68DF2F2FF0D6B6BD6BD6F6FDEB19F
:10230000C5C5915430306050010102036767CEA902
:102310002B2B567DFEFEE719D7D7B562ABAB4DE64A
:102320007676EC9ACACA8F4582821F9DC9C98940B8
:102330007D7DFA87FAFAEF155959B2EB47478EC9F6
:10234000F0F0FB0BADAD41ECD4D4B367A2A25FFDBE
:10235000AFAF45EA9C9C23BFA4A453F77272E496E6
:10236000C0C09B5BB7B775C2FDFDE11C93933DAE4A
:1023700026264C6A36366C5A3F3F7E41F7F7F50207
:10238000CCCC834F3434685CA5A551F4E5E5D13459
:10239000F1F1F9087171E293D8D8AB73313162531E
:1023A00015152A3F0404080CC7C795522323466518
:1023B000C3C39D5E18183028969637A105050A0FED
:1023C0009A9A2FB507070E091212243680801B9B9C
:1023D000E2E2DF3DEBEBCD2627274E69B2B27FCD9F
:1023E0007575EA9F0909121B83831D9E2C2C587456
:1023F0001A1A342E1B1B362D6E6EDCB25A5AB4EEEE
:10240000A0A05BFB5252A4F63B3B764DD6D6B761FB
:10241000B3B37DCE2929527BE3E3DD3E2F2F5E71DE
:10242000848413975353A6F5D1D1B96800000000F6
:10243000EDEDC12C20204060FCFCE31FB1B179C858
:102440005B5BB6ED6A6AD4BECBCB8D46BEBE67D9A8
:102450003939724B4A4A94DE4C4C98D45858B0E8FB
:10246000CFCF854AD0D0BB6BEFEFC52AAAAA4FE5E4
:10247000FBFBED16434386C54D4D9AD73333665566
:102480008585119445458ACFF9F9E91002020406C1
:102490007F7FFE815050A0F03C3C78449F9F25BA3E
:1024A000A8A84BE35151A2F3A3A35DFE404080C016
:1024B0008F8F058A92923FAD9D9D21BC3838704820
:1024C000F5F5F104BCBC63DFB6B677C1DADAAF75F7
:1024D0002121426310102030FFFFE51AF3F3FD0EB7
:1024E000D2D2BF6DCDCD814C0C0C181413132635F0
:1024F000ECECC32F5F5FBEE1979735A2444488CCD4
:1025000017172E39C4C49357A7A755F27E7EFC82B5
:102510003D3D7A476464C8AC5D5DBAE71919322B5A
:102520007373E6956060C0A0818119984F4F9ED16A
:10253000DCDCA37F222244662A2A547E90903BABA7
:1025400088880B8346468CCAEEEEC729B8B86BD391
:102550001414283CDEDEA7795E5EBCE20B0B161D70
:10256000DBDBAD76E0E0DB3B323264563A3A744E68
:102570000A0A141E494992DB06060C0A2424486CF8
:102580005C5CB8E4C2C29F5DD3D3BD6EACAC43EF1C
:102590006262C4A6919139A8959531A4E4E4D33739
:1025A0007979F28BE7E7D532C8C88B4337376E5954
:1025B0006D6DDAB78D8D018CD5D5B1644E4E9CD240
:1025C000A9A949E06C6CD8B45656ACFAF4F4F307F8
:1025D000EAEACF256565CAAF7A7AF48EAEAE47E9EE
:1025E00008081018BABA6FD57878F08825254A6F90
:1025F0002E2E5C721C1C3824A6A657F1B4B473C7E7
:10260000C6C69751E8E8CB23DDDDA17C7474E89C55
:102610001F1F3E214B4B96DDBDBD61DC8B8B0D86B4
:102620008A8A0F857070E0903E3E7C42B5B571C4D9
:102630006666CCAA484890D803030605F6F6F7016B
:102640000E0E1C126161C2A335356A5F5757AEF991
:10265000B9B969D086861791C1C199581D1D3A270D
:102660009E9E27B9E1E1D938F8F8EB1398982BB37F
:10267000111122336969D2BBD9D9A9708E8E07890D
:10268000949433A79B9B2DB61E1E3C2287871592E0
:10269000E9E9C920CECE87495555AAFF28285078A8
:1026A000DFDFA57A8C8C038FA1A159F88989098075
:1026B0000D0D1A17BFBF65DAE6E6D731424284C670
:1026C0006868D0B8414182C3999929B02D2D5A77B5
:1026D0000F0F1E11B0B07BCB5454A8FCBBBB6DD602
:1026E00016162C3A63C6A5637CF8847C77EE99773E
:1026F0007BF68D7BF2FF0DF26BD6BD6B6FDEB16F9B
:10270000C59154C5306050300102030167CEA967FE
:102710002B567D2BFEE719FED7B562D7AB4DE6AB46
:1027200076EC9A76CA8F45CA821F9D82C98940C9B4
:102730007DFA877DFAEF15FA59B2EB59478EC947F2
:10274000F0FB0BF0AD41ECADD4B367D4A25FFDA2BA
:10275000AF45EAAF9C23BF9CA453F7A472E49672E2
:10276000C09B5BC0B775C2B7FDE11CFD933DAE9346
:10277000264C6A26366C5A363F7E413FF7F502F703
:10278000CC834FCC34685C34A551F4A5E5D134E555
:10279000F1F908F171E29371D8AB73D8316253311A
:1027A000152A3F1504080C04C79552C72346652314
:1027B000C39D5EC3183028189637A196050A0F05E9
:1027C0009A2FB59A070E090712243612801B9B8098
:1027D000E2DF3DE2EBCD26EB274E6927B27FCDB29B
:1027E00075EA9F7509121B09831D9E832C58742C52
:1027F0001A342E1A1B362D1B6EDCB26E5AB4EE5AEA
:10280000A05BFBA052A4F6523B764D3BD6B761D6F7
:10281000B37DCEB329527B29E3DD3EE32F5E712FDA
:102820008413978453A6F553D1B968D100000000F2
:10283000EDC12CED20406020FCE31FFCB179C8B154
:102840005BB6ED5B6AD4BE6ACB8D46CBBE67D9BEA4
:1028500039724B394A94DE4A4C98D44C58B0E858F7
:10286000CF854ACFD0BB6BD0EFC52AEFAA4FE5AAE0
:10287000FBED16FB4386C5434D9AD74D3366553362
:1028800085119485458ACF45F9E910F902040602BD
:102890007FFE817F50A0F0503C78443C9F25BA9F3A
:1028A000A84BE3A851A2F351A35DFEA34080C04012
:1028B0008F058A8F923FAD929D21BC9D387048381C
:1028C000F5F104F5BC63DFBCB677C1B6DAAF75DAF3
:1028D0002142632110203010FFE51AFFF3FD0EF3B3
:1028E000D2BF6DD2CD814CCD0C18140C13263513EC
:1028F000ECC32FEC5FBEE15F9735A2974488CC44D0
:10290000172E3917C49357C4A755F2A77EFC827EB1
:102910003D7A473D64C8AC645DBAE75D19322B1956
:1029200073E6957360C0A060811998814F9ED14F66
:10293000DCA37FDC224466222A547E2A903BAB90A3
:10294000880B8388468CCA46EEC729EEB86BD3B88D
:1029500014283C14DEA779DE5EBCE25E0B161D0B6C
:10296000DBAD76DBE0DB3BE0326456323A744E3A64
:102970000A141E0A4992DB49060C0A0624486C24F4
:102980005CB8E45CC29F5DC2D3BD6ED3AC43EFAC18
:1029900062C4A6629139A8919531A495E4D337E435
:1029A00079F28B79E7D532E7C88B43C8376E593750
:1029B0006DDAB76D8D018C8DD5B164D54E9CD24E3C
:1029C000A949E0A96CD8B46C56ACFA56F4F307F4F4
:1029D000EACF25EA65CAAF657AF48E7AAE47E9AEEA
:1029E00008101808BA6FD5BA78F08878254A6F258C
:1029F0002E5C722E1C38241CA657F1A6B473C7B4E3
:102A0000C69751C6E8CB23E8DDA17CDD74E89C7451
:102A10001F3E211F4B96DD4BBD61DCBD8B0D868BB0
:102A20008A0F858A70E090703E7C423EB571C4B5D5
:102A300066CCAA664890D84803060503F6F701F667
:102A40000E1C120E61C2A361356A5F3557AEF9578D
:102A5000B969D0B986179186C19958C11D3A271D09
:102A60009E27B99EE1D938E1F8EB13F8982BB3987B
:102A70001122331169D2BB69D9A970D98E07898E09
:102A80009433A7949B2DB69B1E3C221E87159287DC
:102A9000E9C920E9CE8749CE55AAFF5528507828A4
:102AA000DFA57ADF8C038F8CA159F8A18909808971
:102AB0000D1A170DBF65DABFE6D731E64284C6426C
:102AC00068D0B8684182C3419929B0992D5A772DB1
:102AD0000F1E110FB07BCBB054A8FC54BB6DD6BBFE
:102AE000162C3A16C6A56363F8847C7CEE9977773A
:102AF000F68D7B7BFF0DF2F2D6BD6B6BDEB16F6F97
:102B00009154C5C56050303002030101CEA96767FA
:102B1000567D2B2BE719FEFEB562D7D74DE6ABAB42
:102B2000EC9A76768F45CACA1F9D82828940C9C9B0
:102B3000FA877D7DEF15FAFAB2EB59598EC94747EE
:102B4000FB0BF0F041ECADADB367D4D45FFDA2A2B6
:102B500045EAAFAF23BF9C9C53F7A4A4E4967272DE
:102B60009B5BC0C075C2B7B7E11CFDFD3DAE939342
:102B70004C6A26266C5A36367E413F3FF502F7F7FF
:102B8000834FCCCC685C343451F4A5A5D134E5E551
:102B9000F908F1F1E2937171AB73D8D86253313116
:102BA0002A3F1515080C04049552C7C74665232310
:102BB0009D5EC3C33028181837A196960A0F0505E5
:102BC0002FB59A9A0E090707243612121B9B808094
:102BD000DF3DE2E2CD26EBEB4E6927277FCDB2B297
:102BE000EA9F7575121B09091D9E838358742C2C4E
:102BF000342E1A1A362D1B1BDCB26E6EB4EE5A5AE6
:102C00005BFBA0A0A4F65252764D3B3BB761D6D6F3
:102C10007DCEB3B3527B2929DD3EE3E35E712F2FD6
:102C200013978484A6F55353B968D1D100000000EE
:102C3000C12CEDED40602020E31FFCFC79C8B1B150
:102C4000B6ED5B5BD4BE6A6A8D46CBCB67D9BEBEA0
:102C5000724B393994DE4A4A98D44C4CB0E85858F3
:102C6000854ACFCFBB6BD0D0C52AEFEF4FE5AAAADC
:102C7000ED16FBFB86C543439AD74D4D665533335E
:102C8000119485858ACF4545E910F9F904060202B9
:102C9000FE817F7FA0F0505078443C3C25BA9F9F36
:102CA0004BE3A8A8A2F351515DFEA3A380C040400E
:102CB000058A8F8F3FAD929221BC9D9D7048383818
:102CC000F104F5F563DFBCBC77C1B6B6AF75DADAEF
:102CD0004263212120301010E51AFFFFFD0EF3F3AF
:102CE000BF6DD2D2814CCDCD18140C0C26351313E8
:102CF000C32FECECBEE15F5F35A2979788CC4444CC
:102D00002E3917179357C4C455F2A7A7FC827E7EAD
:102D10007A473D3DC8AC6464BAE75D5D322B191952
:102D2000E6957373C0A06060199881819ED14F4F62
:102D3000A37FDCDC44662222547E2A2A3BAB90909F
:102D40000B8388888CCA4646C729EEEE6BD3B8B889
:102D5000283C1414A779DEDEBCE25E5E161D0B0B68
:102D6000AD76DBDBDB3BE0E064563232744E3A3A60
:102D7000141E0A0A92DB49490C0A0606486C2424F0
:102D8000B8E45C5C9F5DC2C2BD6ED3D343EFACAC14
:102D9000C4A6626239A8919131A49595D337E4E431
:102DA000F28B7979D532E7E78B43C8C86E5937374C
:102DB000DAB76D6D018C8D8DB164D5D59CD24E4E38
:102DC00049E0A9A9D8B46C6CACFA5656F307F4F4F0
:102DD000CF25EAEACAAF6565F48E7A7A47E9AEAEE6
:102DE000101808086FD5BABAF08878784A6F252588
:102DF0005C722E2E38241C1C57F1A6A673C7B4B4DF
:102E00009751C6C6CB23E8E8A17CDDDDE89C74744D
:102E10003E211F1F96DD4B4B61DCBDBD0D868B8BAC
:102E20000F858A8AE09070707C423E3E71C4B5B5D1
:102E3000CCAA666690D8484806050303F701F6F663
:102E40001C120E0EC2A361616A5F3535AEF9575789
:102E500069D0B9B9179186869958C1C13A271D1D05
:102E600027B99E9ED938E1E1EB13F8F82BB3989877
:102E700022331111D2BB6969A970D9D907898E8E05
:102E800033A794942DB69B9B3C221E1E15928787D8
:102E9000C920E9E98749CECEAAFF555550782828A0
:102EA000A57ADFDF038F8C8C59F8A1A1098089896D
:102EB0001A170D0D65DABFBFD731E6E684C6424268
:102EC000D0B8686882C3414129B099995A772D2DAD
:102ED0001E110F0F7BCBB0B0A8FC54546DD6BBBBFA
:102EE0002C3A161650A7F4515365417EC3A4171A05
:102EF000965E273ACB6BAB3BF1459D1FAB58FAACC6
:102F00009303E34B55FA3020F66D76AD9176CC887D
:102F1000254C02F5FCD7E54FD7CB2AC58044352692
:102F20008FA362B5495AB1DE671BBA25980EEA45F0
:102F3000E1C0FE5D02752FC312F04C81A397468D50
:102F4000C6F9D36BE75F8F03959C9215EB7A6DBF43
:102F5000DA5952952D83BED4D32174582969E0499A
:102F600044C8C98E6A89C27578798EF46B3E5899C7
:102F7000DD71B927B64FE1BE17AD88F066AC20C948
:102F8000B43ACE7D184ADF6382311AE56033519737
:102F9000457F5362E07764B184AE6BBB1CA081FEB9
:102FA000942B08F95868487019FD458F876CDE949A
:102FB000B7F87B5223D373ABE2024B72578F1FE3F8
:102FC0002AAB55660728EBB203C2B52F9A7BC5869C
:102FD000A50837D3F2872830B2A5BF23BA6A030207
:102FE0005C8216ED2B1CCF8A92B479A7F0F207F31E
:102FF000A1E2694ECDF4DA65D5BE05061F6234D173
:103000008AFEA6C49D532E34A055F3A232E18A0550
:1030100075EBF6A439EC830BAAEF6040069F715E56
:1030200051106EBDF98A213E3D06DD96AE053EDDAE
:1030300046BDE64DB58D5491055DC4716FD406044F
:10304000FF15506024FB981997E9BDD6CC43408901
:10305000779ED967BD42E8B0888B8907385B19E74E
:10306000DBEEC879470A7CA1E90F427CC91E84F8CF
:10307000000000008386800948ED2B32AC70111EE1
:103080004E725A6CFBFF0EFD5638850F1ED5AE3DB5
:1030900027392D3664D90F0A21A65C68D1545B9B71
:1030A0003A2E3624B1670A0C0FE75793D296EEB446
:1030B0009E919B1B4FC5C080A220DC61694B775A53
:1030C000161A121C0ABA93E2E52AA0C043E0223C79
:1030D0001D171B120B0D090EADC78BF2B9A8B62D2B
:1030E000C8A91E148519F1574C0775AFBBDD99EEC1
:1030F000FD607FA39F2601F7BCF5725CC53B66446B
:10310000347EFB5B7629438BDCC623CB68FCEDB6B3
:1031100063F1E4B8CADC31D71085634240229713CB
:103120002011C6847D244A85F83DBBD21132F9AE08
:103130006DA129C74B2F9E1DF330B2DCEC52860DDA
:10314000D0E3C1776C16B32B99B970A9FA489411E2
:103150002264E947C48CFCA81A3FF0A0D82C7D5605
:10316000EF903322C74E4987C1D138D9FEA2CA8C0D
:10317000360BD498CF81F5A628DE7AA5268EB7DA4D
:10318000A4BFAD3FE49D3A2C0D9278509BCC5F6A72
:1031900062467E54C2138DF6E8B8D8905EF7392E99
:1031A000F5AFC382BE805D9F7C93D069A92DD56F9A
:1031B000B31225CF3B99ACC8A77D18106E639CE86D
:1031C0007BBB3BDB097826CDF418596E01B79AEC2E
:1031D000A89A4F83656E95E67EE6FFAA08CFBC21CC
:1031E000E6E815EFD99BE7BACE366F4AD4099FEAD5
:1031F000D67CB029AFB2A43131233F2A3094A5C682
:10320000C066A23537BC4E74A6CA82FCB0D090E02E
:1032100015D8A7334A9804F1F7DAEC410E50CD7F68
:103220002FF691178DD64D764DB0EF43544DAACC65
:10323000DF0496E4E3B5D19E1B886A4CB81F2CC10D
:103240007F51654604EA5E9D5D358C01737487FA93
:103250002E410BFB5A1D67B352D2DB92335610E955
:103260001347D66D8C61D79A7A0CA1378E14F85912
:10327000893C13EBEE27A9CE35C961B7EDE51CE11A
:103280003CB1477A59DFD29C3F73F25579CE14187E
:10329000BF37C773EACDF7535BAAFD5F146F3DDFFD
:1032A00086DB447881F3AFCA3EC468B92C34243835
:1032B0005F40A3C272C31D160C25E2BC8B493C289B
:1032C00041950DFF7101A839DEB30C089CE4B4D818
:1032D00090C156646184CB7B70B632D5745C6C4807
:1032E0004257B8D0A7F4515065417E53A4171AC372
:1032F0005E273A966BAB3BCB459D1FF158FAACABC2
:1033000003E34B93FA3020556D76ADF676CC889179
:103310004C02F525D7E54FFCCB2AC5D7443526808E
:10332000A362B58F5AB1DE491BBA25670EEA4598EC
:10333000C0FE5DE1752FC302F04C811297468DA34C
:10334000F9D36BC65F8F03E79C9215957A6DBFEB3F
:10335000595295DA83BED42D217458D369E0492996
:10336000C8C98E4489C2756A798EF4783E58996BC3
:1033700071B927DD4FE1BEB6AD88F017AC20C96644
:103380003ACE7DB44ADF6318311AE5823351976033
:103390007F5362457764B1E0AE6BBB84A081FE1CB5
:1033A0002B08F99468487058FD458F196CDE948796
:1033B000F87B52B7D373AB23024B72E28F1FE357F4
:1033C000AB55662A28EBB207C2B52F037BC5869A98
:1033D0000837D3A5872830F2A5BF23B26A0302BA03
:1033E0008216ED5C1CCF8A2BB479A792F207F3F01A
:1033F000E2694EA1F4DA65CDBE0506D56234D11F6F
:10340000FEA6C48A532E349D55F3A2A0E18A05324C
:10341000EBF6A475EC830B39EF6040AA9F715E0652
:10342000106EBD518A213EF906DD963D053EDDAEAA
:10343000BDE64D468D5491B55DC47105D406046F4B
:10344000155060FFFB981924E9BDD697434089CCFD
:103450009ED9677742E8B0BD8B8907885B19E7384A
:10346000EEC879DB0A7CA1470F427CE91E84F8C9CB
:103470000000000086800983ED2B324870111EACDD
:10348000725A6C4EFF0EFDFB38850F56D5AE3D1EB1
:10349000392D3627D90F0A64A65C6821545B9BD16D
:1034A0002E36243A670A0CB1E757930F96EEB4D242
:1034B000919B1B9EC5C0804F20DC61A24B775A694F
:1034C0001A121C16BA93E20A2AA0C0E5E0223C4375
:1034D000171B121D0D090E0BC78BF2ADA8B62DB927
:1034E000A91E14C819F157850775AF4CDD99EEBBBD
:1034F000607FA3FD2601F79FF5725CBC3B6644C567
:103500007EFB5B3429438B76C623CBDCFCEDB668AF
:10351000F1E4B863DC31D7CA8563421022971340C7
:1035200011C68420244A857D3DBBD2F832F9AE1104
:10353000A129C76D2F9E1D4B30B2DCF352860DECD6
:10354000E3C177D016B32B6CB970A999489411FADE
:1035500064E947228CFCA8C43FF0A01A2C7D56D801
:10356000903322EF4E4987C7D138D9C1A2CA8CFE09
:103570000BD4983681F5A6CFDE7AA5288EB7DA2649
:10358000BFAD3FA49D3A2CE49278500DCC5F6A9B6E
:10359000467E5462138DF6C2B8D890E8F7392E5E95
:1035A000AFC382F5805D9FBE93D0697C2DD56FA996
:1035B0001225CFB399ACC83B7D1810A7639CE86E69
:1035C000BB3BDB7B7826CD0918596EF4B79AEC012A
:1035D0009A4F83A86E95E665E6FFAA7ECFBC2108C8
:1035E000E815EFE69BE7BAD9366F4ACE099FEAD4D1
:1035F0007CB029D6B2A431AF233F2A3194A5C6307E
:1036000066A235C0BC4E7437CA82FCA6D090E0B02A
:10361000D8A733159804F14ADAEC41F750CD7F0E64
:10362000F691172FD64D768DB0EF434D4DAACC5461
:103630000496E4DFB5D19EE3886A4C1B1F2CC1B809
:103640005165467FEA5E9D04358C015D7487FA738F
:10365000410BFB2E1D67B35AD2DB92525610E93351
:1036600047D66D1361D79A8C0CA1377A14F8598E0E
:103670003C13EB8927A9CEEEC961B735E51CE1ED16
:10368000B1477A3CDFD29C5973F2553FCE1418797A
:1036900037C773BFCDF753EAAAFD5F5B6F3DDF14F9
:1036A000DB447886F3AFCA81C468B93E3424382C31
:1036B00040A3C25FC31D167225E2BC0C493C288B97
:1036C000950DFF4101A83971B30C08DEE4B4D89C14
:1036D000C156649084CB7B61B632D5705C6C487403
:1036E00057B8D042F45150A7417E5365171AC3A46E
:1036F000273A965EAB3BCB6B9D1FF145FAACAB58BE
:10370000E34B9303302055FA76ADF66DCC88917675
:1037100002F5254CE54FFCD72AC5D7CB352680448A
:1037200062B58FA3B1DE495ABA25671BEA45980EE8
:10373000FE5DE1C02FC302754C8112F0468DA39748
:10374000D36BC6F98F03E75F9215959C6DBFEB7A3B
:103750005295DA59BED42D837458D321E049296992
:10376000C98E44C8C2756A898EF4787958996B3EBF
:10377000B927DD71E1BEB64F88F017AD20C966AC40
:10378000CE7DB43ADF63184A1AE58231519760332F
:103790005362457F64B1E0776BBB84AE81FE1CA0B1
:1037A00008F9942B48705868458F19FDDE94876C92
:1037B0007B52B7F873AB23D34B72E2021FE3578FF0
:1037C00055662AABEBB20728B52F03C2C5869A7B94
:1037D00037D3A5082830F287BF23B2A50302BA6AFF
:1037E00016ED5C82CF8A2B1C79A792B407F3F0F216
:1037F000694EA1E2DA65CDF40506D5BE34D11F626B
:10380000A6C48AFE2E349D53F3A2A0558A0532E148
:10381000F6A475EB830B39EC6040AAEF715E069F4E
:103820006EBD5110213EF98ADD963D063EDDAE05A6
:10383000E64D46BD5491B58DC471055D06046FD447
:103840005060FF15981924FBBDD697E94089CC43F9
:10385000D967779EE8B0BD428907888B19E7385B46
:10386000C879DBEE7CA1470A427CE90F84F8C91EC7
:1038700000000000800983862B3248ED111EAC70D9
:103880005A6C4E720EFDFBFF850F5638AE3D1ED5AD
:103890002D3627390F0A64D95C6821A65B9BD15469
:1038A00036243A2E0A0CB16757930FE7EEB4D2963E
:1038B0009B1B9E91C0804FC5DC61A220775A694B4B
:1038C000121C161A93E20ABAA0C0E52A223C43E071
:1038D0001B121D17090E0B0D8BF2ADC7B62DB9A823
:1038E0001E14C8A9F157851975AF4C0799EEBBDDB9
:1038F0007FA3FD6001F79F26725CBCF56644C53B63
:10390000FB5B347E438B762923CBDCC6EDB668FCAB
:10391000E4B863F131D7CADC6342108597134022C3
:10392000C68420114A857D24BBD2F83DF9AE113200
:1039300029C76DA19E1D4B2FB2DCF330860DEC52D2
:10394000C177D0E3B32B6C1670A999B99411FA48DA
:10395000E9472264FCA8C48CF0A01A3F7D56D82CFD
:103960003322EF904987C74E38D9C1D1CA8CFEA205
:10397000D498360BF5A6CF817AA528DEB7DA268E45
:10398000AD3FA4BF3A2CE49D78500D925F6A9BCC6A
:103990007E5462468DF6C213D890E8B8392E5EF791
:1039A000C382F5AF5D9FBE80D0697C93D56FA92D92
:1039B00025CFB312ACC83B991810A77D9CE86E6365
:1039C0003BDB7BBB26CD0978596EF4189AEC01B726
:1039D0004F83A89A95E6656EFFAA7EE6BC2108CFC4
:1039E00015EFE6E8E7BAD99B6F4ACE369FEAD409CD
:1039F000B029D67CA431AFB23F2A3123A5C630947A
:103A0000A235C0664E7437BC82FCA6CA90E0B0D026
:103A1000A73315D804F14A98EC41F7DACD7F0E5060
:103A200091172FF64D768DD6EF434DB0AACC544D5D
:103A300096E4DF04D19EE3B56A4C1B882CC1B81F05
:103A400065467F515E9D04EA8C015D3587FA73748B
:103A50000BFB2E4167B35A1DDB9252D210E933564D
:103A6000D66D1347D79A8C61A1377A0CF8598E140A
:103A700013EB893CA9CEEE2761B735C91CE1EDE512
:103A8000477A3CB1D29C59DFF2553F73141879CE76
:103A9000C773BF37F753EACDFD5F5BAA3DDF146FF5
:103AA000447886DBAFCA81F368B93EC424382C342D
:103AB000A3C25F401D1672C3E2BC0C253C288B4993
:103AC0000DFF4195A83971010C08DEB3B4D89CE410
:103AD000566490C1CB7B618432D570B66C48745CFF
:103AE000B8D042575150A7F47E5365411AC3A4176A
:103AF0003A965E273BCB6BAB1FF1459DACAB58FABA
:103B00004B9303E32055FA30ADF66D76889176CC71
:103B1000F5254C024FFCD7E5C5D7CB2A2680443586
:103B2000B58FA362DE495AB125671BBA45980EEAE4
:103B30005DE1C0FEC302752F8112F04C8DA3974644
:103B40006BC6F9D303E75F8F15959C92BFEB7A6D37
:103B500095DA5952D42D83BE58D32174492969E08E
:103B60008E44C8C9756A89C2F478798E996B3E58BB
:103B700027DD71B9BEB64FE1F017AD88C966AC203C
:103B80007DB43ACE63184ADFE582311A976033512B
:103B900062457F53B1E07764BB84AE6BFE1CA081AD
:103BA000F9942B08705868488F19FD4594876CDE8E
:103BB00052B7F87BAB23D37372E2024BE3578F1FEC
:103BC000662AAB55B20728EB2F03C2B5869A7BC590
:103BD000D3A5083730F2872823B2A5BF02BA6A03FB
:103BE000ED5C82168A2B1CCFA792B479F3F0F20712
:103BF0004EA1E26965CDF4DA06D5BE05D11F623467
:103C0000C48AFEA6349D532EA2A055F30532E18A44
:103C1000A475EBF60B39EC8340AAEF605E069F714A
:103C2000BD51106E3EF98A21963D06DDDDAE053EA2
:103C30004D46BDE691B58D5471055DC4046FD40643
:103C400060FF15501924FB98D697E9BD89CC4340F5
:103C500067779ED9B0BD42E807888B89E7385B1942
:103C600079DBEEC8A1470A7C7CE90F42F8C91E84C3
:103C700000000000098386803248ED2B1EAC7011D5
:103C80006C4E725AFDFBFF0E0F5638853D1ED5AEA9
:103C90003627392D0A64D90F6821A65C9BD1545B65
:103CA000243A2E360CB1670A930FE757B4D296EE3A
:103CB0001B9E919B804FC5C061A220DC5A694B7747
:103CC0001C161A12E20ABA93C0E52AA03C43E0226D
:103CD000121D171B0E0B0D09F2ADC78B2DB9A8B61F
:103CE00014C8A91E578519F1AF4C0775EEBBDD99B5
:103CF000A3FD607FF79F26015CBCF57244C53B665F
:103D00005B347EFB8B762943CBDCC623B668FCEDA7
:103D1000B863F1E4D7CADC314210856313402297BF
:103D2000842011C6857D244AD2F83DBBAE1132F9FC
:103D3000C76DA1291D4B2F9EDCF330B20DEC5286CE
:103D400077D0E3C12B6C16B3A999B97011FA4894D6
:103D5000472264E9A8C48CFCA01A3FF056D82C7DF9
:103D600022EF903387C74E49D9C1D1388CFEA2CA01
:103D700098360BD4A6CF81F5A528DE7ADA268EB741
:103D80003FA4BFAD2CE49D3A500D92786A9BCC5F66
:103D90005462467EF6C2138D90E8B8D82E5EF7398D
:103DA00082F5AFC39FBE805D697C93D06FA92DD58E
:103DB000CFB31225C83B99AC10A77D18E86E639C61
:103DC000DB7BBB3BCD0978266EF41859EC01B79A22
:103DD00083A89A4FE6656E95AA7EE6FF2108CFBCC0
:103DE000EFE6E815BAD99BE74ACE366FEAD4099FC9
:103DF00029D67CB031AFB2A42A31233FC63094A576
:103E000035C066A27437BC4EFCA6CA82E0B0D09022
:103E10003315D8A7F14A980441F7DAEC7F0E50CD5C
:103E2000172FF691768DD64D434DB0EFCC544DAA59
:103E3000E4DF04969EE3B5D14C1B886AC1B81F2C01
:103E4000467F51659D04EA5E015D358CFA73748787
:103E5000FB2E410BB35A1D679252D2DBE933561049
:103E60006D1347D69A8C61D7377A0CA1598E14F806
:103E7000EB893C13CEEE27A9B735C961E1EDE51C0E
:103E80007A3CB1479C59DFD2553F73F21879CE1472
:103E900073BF37C753EACDF75F5BAAFDDF146F3DF1
:103EA0007886DB44CA81F3AFB93EC468382C342429
:103EB000C25F40A31672C31DBC0C25E2288B493C8F
:103EC000FF41950D397101A808DEB30CD89CE4B40C
:103ED0006490C1567B6184CBD570B63248745C6CFB
:103EE000D04257B852096AD53036A538BF40A39E94
:103EF00081F3D7FB7CE339829B2FFF87348E4344C9
:103F0000C4DEE9CB547B9432A6C2233DEE4C950B24
:103F100042FAC34E082EA16628D924B2765BA24984
:103F20006D8BD12572F8F66486689816D4A45CCCA3
:103F30005D65B6926C704850FDEDB9DA5E15465776
:103F4000A78D9D8490D8AB008CBCD30AF7E45805AC
:103F5000B8B34506D02C1E8FCA3F0F02C1AFBD03B8
:103F600001138A6B3A9111414F67DCEA97F2CFCE89
:103F7000F0B4E67396AC7422E7AD3585E2F937E824
:103F80001C75DF6E47F11A711D29C5896FB7620E66
:103F9000AA18BE1BFC563E4BC6D279209ADBC0FE47
:103FA00078CD5AF41FDDA8338807C731B1121059F4
:103FB0002780EC5F60517FA919B54A0D2DE57A9FE6
:103FC00093C99CEFA0E03B4DAE2AF5B0C8EBBB3CDB
:103FD00083539961172B047EBA77D626E16914635F
:103FE00055210C7D000000010000000200000004CB
:103FF0000000000800000010000000200000004049
:10400000000000800000001B0000003600000000DF
:1040100000000000000000000000000000000000A0
:104020000000000000000000000000000000000090
:104030000000000000000000000000000000000080
:104040000000000000000000000000000000000070
:104050000000000000000000000000000000000060
:10406000000000000000000000000000F8B5C0469D
:10407000F8BC08BC9E46704721010000F8B5C04658
:0C408000F8BC08BC9E467047F50000002C
:10408C00000102030405060708090A0B0C0D0E0FAC
:10409C0014000020000000002C4000004C400000E8
:1040AC000C400000000000000000000000000000B8
:1040BC0000000000000000000000000000000000F4
:1040CC0000000000000000000000000000000000E4
:1040DC0000000000000000000000000000000000D4
:1040EC0000000000000000000000000000000000C4
:0440FC0000000000C0
:0200000400807A
:104000003F438FB0BB180000FF00087F0100000095
:1040100000000000000000000000000000000000A0
:00000001FF
