S01F00004145532D3235365F576F6C6653534C5F6C6962726172792E7372656325
S1130000D82000202D010000290100002901000052
S113001000000000000000000000000000000000DC
S113002000000000000000000000000029010000A2
S11300300000000000000000290100002901000068
S11300402901000029010000290100002901000004
S11300509505000029010000290100002901000084
S113006029010000290100002901000029010000E4
S113007029010000290100002901000029010000D4
S113008029010000290100002901000029010000C4
S113009029010000290100002901000029010000B4
S11300A029010000290100002901000029010000A4
S11300B00000000010B5064C2378002B07D1054B37
S11300C0002B02D0044800E000BF0123237010BDC0
S11300D0840000200000000024400000084B10B5FC
S11300E0002B03D00749084800E000BF0748036815
S11300F0002B00D110BD064B002BFBD09847F9E72D
S1130100000000008800002024400000244000007B
S11301100000000010B5024B9847024B984710BDF1
S11301200D02000059020000FEE7000010B51A4A53
S11301301A4B9A4211D01A00194B9A420DD2194AFD
S113014003339B1A9B0801339B0000221348124976
S11301508C58845004329A42FAD1134A134B9A426F
S11301600AD2D34311495B1803218B4304339B18F0
S1130170002102C29342FCD10D4AFF210D4B8B4357
S113018093600D4A53687F390B4353600B4B984778
S11301900B4B9847FEE7C0462440000000000020B7
S11301A0840000200400002084000020D4000020EB
S11301B000ED00E00000000000400041191C0000B8
S11301C0A10A0000034A116980235B000B431361F9
S11301D07047C0460004004010B5034B98470349DC
S11301E00348044B984710BDC5010000004000417E
S11301F0B40000205D03000010B50248024B98478C
S113020010BDC04610E000E01103000010B50D4B16
S11302109847C023DB058022D20094215A500C3920
S11302205A50094BA82209499950C02109069950EE
S1130230CA215A5C012082435A54054B9847054B06
S1130240984710BDDD030000002800400004004072
S1130250D9010000F9010000F0B5C64600B5C0227E
S1130260D2050223942153508021490251618027F1
S11302707F03576180208003804650618826935114
S11302801C4BA8201C4D1D50C0252D061D509160EF
S11302908021C9059962194C9C6297609962184F34
S11302A09F6244469460996216499962C127DC5D55
S11302B001218C43DC55713FDC5D8C43DC550437F4
S11302C0DC5D8C43DC550137DC5D8C43DC558024DC
S11302D0E4004337D45194510B4A1A501D50223034
S11302E01A5C8A431A54C038084B984704BC904699
S11302F0F0BDC0460028004002000040010000C0DC
S1130300100000C0200000C00004004025030000CD
S113031010B5024B1860024B984710BDA000002096
S1130320C507000010B5044B1C68044B9847010036
S11303302000034B984710BDA0000020D10300000B
S1130340D907000010B54369002B00D0984710BDB1
S113035010B58369002B00D0984710BD70B5050017
S11303600C00002812D00800431E9841C0B2382265
S11303700749084B984721002800074B9847002855
S113038003D1064B2B60064B6B6070BD0020EEE77B
S1130390241E0000A5030000E5040000450300003E
S11303A051030000002800D100BE70470300064A34
S11303B01268002A04D0044A1068C31813607047F6
S11303C00249014A1160F6E7A4000020D820002069
S11303D0014B58437047C046E02E000010B5094B4E
S11303E05A685A600220084B9847084B9847084BB4
S11303F09847084B9847084B9847FF20074B984766
S113040010BDC046004000419B07000049070000A2
S11304106107000045040000990700002104000062
S1130420C30707D5044A054B1A621900044A4B68EE
S11304301342FCD17047C046060101000018004079
S1130440FD070000034B08229A71043A5A71033ADB
S11304501A71704700040040F8B504000D0017003D
S11304601E0001234B4001201840C52252001949A7
S1130470194B984768080122237D1342FCD0174B7F
S113048023800122237D1342FCD02023FF332383C6
S1130490002E0ED01F3BFF3B290099430023FD5C37
S11304A0AAB23E2B10D90A8002339BB202319E427B
S11304B0F5D80122237D1342FCD0E061084B069A53
S11304C013439BB22380F8BDFA18527812022A43D0
S11304D0E9E7C0463C1E0000A503000044A5FFFF59
S11304E000A5FFFF70B505000C0000281DD0104BBF
S11304F0C81843425841C0B246220E490E4B984791
S11305002C6162689E23134063600C4B1D600C4B8E
S1130510102280215A50BFF34F8FBFF36F8F0131E8
S1130520FF315A501A60002070BD0020E4E7C04635
S113053000C0FFBE3C1E0000A5030000A800002070
S113054000E100E070B54C0805690126287D3042C1
S1130550FCD02020FF3028830020CD0705D50134AE
S1130560013081430988090A1170984211D2121886
S11305706400241A5D1E03E002300232834208D96B
S11305802118098889B211708542F5D9090A517078
S1130590F2E770BD10B50A4B186803691A7DD207DB
S11305A004D50368002B00D0984710BD1A7D92072C
S11305B0FBD502221A754368002BF6D09847F4E75E
S11305C0A800002070B50B4C0D198024A401A5428D
S11305D00AD8084C1C1964188025AD01AC4206D811
S11305E0054CA047002070BD0E204042FBE70E20C2
S11305F04042F8E70000C0FF45050000F0B5DE46C4
S113060057464E464546E0B5C5B0834616001D0024
S1130610494BCA1880239B019A4200D986E0464B75
S1130620EB185B1880229201934200D981E00C0000
S11306302FE0BA4667465B461A690121137D0B42D7
S1130640FCD02023FF3313834B465B08D3613B4B21
S113065013804B46A04603972A004D46B1465E469A
S113066093461F007A1B04AB9C4662441C230093F0
S1130670243339003069324CA0474037039BBB42D6
S1130680F0D144465D46B3464E462B19013B9A458C
S113069044D2FF2322009A4391464B449A46802336
S11306A05B004B449846170042460392A0464C46D2
S11306B0B1465E46AB463A1B04AB9C4662444023BB
S11306C0390030001F4DA8474037039B9F42F2D1A9
S11306D05D46B3464E46A14644464B46E31A990945
S11306E03F2213405445A6D8002DA4D0BC465746FB
S11306F08A0104A8804642443078D05401333F2212
S113070013405A425A41891801340136013DA74227
S11307108FD3002DECD1BA4667468CE7002045B054
S11307203CBC90469946A246AB46F0BD0E204042E2
S1130730F5E70E204042F2E70000C0FF1AA5FFFFD4
S113074059040000C5050000044BDA69F821490189
S11307500A40DA6101221A617047C0460010004065
S11307608A220C4B1A7518003821883A435C1342CC
S1130770FCD108491022CB681A42FCD0054A137DEB
S113078080210B431375100048390E22435C134239
S1130790FCD17047000C004070478023DB059B7838
S11307A00322134098420CD08022D205FF23937178
S11307B0937803218B430840184390709379002B5E
S11307C0FCD07047024B034A5A6005221A607047F6
S11307D010E000E0FFFFFF0070B50B0E5E1EF6B2E6
S11307E0002B13D034000E4A0E4D80204002556079
S11307F0956013680342FCD0013CE4B2FF2CF6D1AF
S11308003306F61A084B9C4661447118044B596030
S113081099601900802252020B681342FCD070BD0B
S113082010E000E0FFFFFF00010000FFF0B5DE462E
S113083057464E464546E0B58C4CA5448C488D4BF6
S1130840984704000A208C4B9847202710258B4B8F
S113085010330293894B10330393B84690E000237E
S11308600093864B202286494BA8864EB04702202F
S1130870814FB847C023DB059B4680235B03994621
S11308805A4693610023220021004BA87E4EB047B4
S11308904B465A4653610220B8470220B84780238A
S11308A09B035A469361002322008021C9037748A1
S11308B0774EB047002800D0D6E0C027FF0580233C
S11308C09B0399467B6102206B4EB0470220B047E0
S11308D00220B0474B46BB61002322008021C9039C
S11308E06A486C4EB047002821D1C027FF058023F9
S11308F09B037B610220604B9B4698470123009336
S1130900039B20225E4904A85E4EB0470220D847CC
S113091080235B039946BB6100232200210004A8C5
S11309205D4EB0474B467B610220D84724E07DE012
S1130930C027FF0580239B037B6102204E4B9B460F
S1130940984701230093029B20224D4904A84D4E51
S1130950B0470220D84780235B039946BB612B0034
S11309602200210004A84C4EB0474B467B61022074
S1130970D8473F4B98455AD8103510239C46E0443D
S11309800023002D00D16AE7E35401339D42FBD1DB
S113099000230093394B202239494BA8394EB047E4
S11309A00220354FB847C023DB059B4680235B03F9
S11309B099465A4693612B00220021004BA8324EDF
S11309C0B0474B465A4653610220B8470220B84705
S11309D080239B035A4693612B0022008021C90384
S11309E02A482B4EB04700283ED180229203C023D0
S11309F0DB055A610220204EB0470220B047002395
S1130A00FE22E25401339D42FBD802201A4B984740
S1130A1080229203C023DB059A612B0022008021EF
S1130A20C9031A481B4EB047002881D0FEE72000B6
S1130A301A4B98470A20104B9847C023DB05022124
S1130A4098229950802252029A61802252039A611C
S1130A50802292039A6193239B009D443CBC904660
S1130A609946A246AB46F0BDFEE7C046B4FDFFFF83
S1130A7070170000611C0000250300000000002026
S1130A805C1E0000ED0A000065100000B4000020A8
S1130A90FD050000C5050000B9160000751C000026
S1130AA010B5034B9847034B9847002010BDC04630
S1130AB0150100002D08000010B500280ED00029F3
S1130AC005D0F8301022074B9847002010BDF830AD
S1130AD010220021044B98470020F7E7AD20404244
S1130AE0F4E7C046891C00009B1C0000F0B5DE46FC
S1130AF057464E464546E0B585B0070014000193BD
S1130B00002800D1A3E208239A43102A2CD0202CD9
S1130B1000D09FE2F423C450A608B21D043BC25087
S1130B2005002200B74B98472A00B1006918B64B5C
S1130B309C46B64E1020A946A0461468230A654672
S1130B402B40240234402343C34108C28A42F4D1D7
S1130B504D464446182C60D0202C00D1BDE0102C0A
S1130B600FD0AD20404240E1F423C450A608B21D8A
S1130B70043BC25005002200A24B9847002ED3D15B
S1130B80E8E7A34E90239946A94429003400FF20A6
S1130B90FF231B029846FF231B049C464B46A94691
S1130BA0BA460093CA68030013409B00E3189F6A87
S1130BB043461F4008CE0D686B407B40170E01373B
S1130BC0FF37BF00E719BF6A07407B40170C074097
S1130BD08025AD00AB465F44BF00E719BF6A3F0EF6
S1130BE03F067B40170A07400135FF35AB465F449B
S1130BF0BF00E719BF6A65462F407B400B614D6813
S1130C006B404B618D686B408B615340CB61009BA3
S1130C10994200D1E0E01031C4E77D4EA823994603
S1130C20A94429003400FF20FF231B029846FF2318
S1130C301B049C464B460295BB4600934A6903003D
S1130C4013409B00E3189F6A43461F4008CE0D687B
S1130C506B407B40170E7D1CFF35AD00AA46A244B5
S1130C605546AD6A2F0007407B40150C2F00074006
S1130C70BA468025AD00A946CA445546AD00AA46E9
S1130C80A2445546AD6A2D0E2D066B40150A2F0061
S1130C900740BA46C025AD00A946CA445546AD0032
S1130CA0AA46A2445546AD6A2F0065462F407B40B4
S1130CB08B614D686B40CB618D686B400B62CD6876
S1130CC06B404B62009DA94200D195E00D696B40D9
S1130CD08B625340CB621831B0E74D4B9946C02329
S1130CE09C46AC4463462C00CC46FF26FF221202ED
S1130CF09346FF22120492464A46C8460295039739
S1130D001F000092E169009A08CA009222685340C9
S1130D1032000A4092006244926A584602405340AC
S1130D200A0E0132FF3292006244926A324053400A
S1130D300A0C32408020800081464A44920062447A
S1130D40926A120E120653400A0A32400130FF30F2
S1130D5081464A4492006244926A5046024053409B
S1130D602362626853406362A2685340A362E268EC
S1130D705340E362BC4242D01A0C32404A449200CF
S1130D804244926A50460240180A3040800040446F
S1130D90806A5D462840024320694240180E80253F
S1130DA0AD00A946484480004044806A000E000615
S1130DB033400133FF339B0043449B6A3340184361
S1130DC04240226363695A406263A3695A40A26342
S1130DD05140E163203495E74D4657460E9B012B65
S1130DE01AD0019938000B4B984705B03CBC90468B
S1130DF09946A246AB46F0BD029D5F46EEE7029DD2
S1130E00039FEBE7891C0000FF00FF0000FF00FFC9
S1130E107C1E0000B90A0000EF33FC58A40019D06E
S1130E202A00A300EB18002110681E6816601860E1
S1130E3050685E685660586090689E6896609860D6
S1130E40D068DE68D660D86004311032103B601A76
S1130E508142E9D3F023FB58012BC2D901247F49F5
S1130E607F4AFF23F0208246BC46270010352868BD
S1130E70040E0134FF34A4001419A46A1C40A40015
S1130E80A04688441C0004400134FF34A400141913
S1130E90A46A1C40C026B600B1464C44A4000C19F8
S1130EA04646B66AA46A6640040C1C400134FF340A
S1130EB0A4001419A46A1C400134FF34A4000C19C2
S1130EC0A46A7440000A18400130FF3080001018F2
S1130ED0806A18408026B600B04640448000081856
S1130EE0806A44402C606868040E0134FF34A40016
S1130EF01419A46A1C40A400A04688441C000440A1
S1130F000134FF34A4001419A46A1C404C44A40006
S1130F100C194646B66AA46A6640040C1C400134A7
S1130F20FF34A4001419A46A1C400134FF34A40043
S1130F300C19A46A7440000A18400130FF30800084
S1130F401018806A18408026B600B04640448000DD
S1130F500818806A44406C60A868040E0134FF34A9
S1130F60A4001419A46A1C40A400A04688441C00D0
S1130F7004400134FF34A4001419A46A1C404C44F6
S1130F80A4000C194646B66AA46A6640040C1C40C8
S1130F900134FF34A4001419A46A1C400134FF3442
S1130FA0A4000C19A46A7440000A18400130FF30F0
S1130FB080001018806A18408026B600B04640446D
S1130FC080000818806A4440AC60E868040E01346C
S1130FD0FF34A4001419A46A1C40A400A046884449
S1130FE01C0004400134FF34A4001419A46A1C40FA
S1130FF04C44A4000C194646B66AA46A6640040C24
S11310001C400134FF34A4001419A46A1C400134A8
S1131010FF34A4000C19A46A7440000A184001307B
S1131020FF3080001018806A18408026B600B04651
S1131030404480000818806A4440EC6001376046F0
S113104054460059874200D210E76746C9E6AD20EE
S11310504042CAE6AD204042C7E6C0467C2E0000AE
S11310607C1E0000F0B5DE4657464E464546E0B5C8
S113107093B00190069102921B09002800D107E366
S1131080002900D107E3002A00D107E35A1E059284
S1131090002B00D105E3ED4E21E000230499029CCE
S11310A0CA5CE05C4240CA540133102BF8D1F023EF
S11310B0019AD4586408631E062B23D9102204997C
S11310C0069C2000E24B9847230010330693029BB2
S11310D010330293059B5A1E059200D2D0E2019B65
S11310E0F8331A0004930298030013439B07D4D1E6
S11310F000231100CA58C4586240CA500433102B4C
S1131100F8D1D4E7042204990EA8D14B9847019D45
S11311102B00FC331900089304220FA8CC4B9847EA
S11311202B000133FF3309930422190010A8C84B84
S1131130984701956A1DFF3211000A92042211A8F2
S1131140C34FB8470E9A0F9D1099100AC14B18400F
S11311501202C14FB9463A4002431027FA4101989E
S1131160006842409346280A18402D024A4615401A
S11311702843F841019D6A6850400D0A1D40090248
S11311804A4611400D43FD4101998A685540119A20
S1131190110A194013024A4613401943F941019BAD
S11311A0DB6800934B409C4604215A462023013BB4
S11311B0002BFCD101390029F8D1934601998A46C4
S11311C0640154440794A14A9146FF275A46039464
S11311D0110E8900494463463B40C024A400A34641
S11311E05B449B004B44896A9B6A594053461B6984
S11311F05940030C3B400133FF339B004B449B6A33
S113120059402B0A3B40013CFF3CA3465B449B00F6
S11312104B449B6A59400091030E9B004B443C0095
S11312201440C02189008B465C44A4004C449B6A52
S1131230A46A6340514649694B402C0C3C4001343C
S1131240FF34A4004C44A46A634061460C0A3C4049
S1131250802189008B465C44A4004C44A46A63400A
S11312602C0EA4004C44A3463C0004400131FF3141
S113127088464444A4004C445946896AA46A4C40B4
S11312805146896961408B4661460C0C3C400134EF
S1131290FF34A4004C44A46A594661408B46140AA6
S11312A03C408021890088464444A4004C44A46AFC
S11312B059464C406146090E89008C46CC443D4059
S11312C0C021890088464544AD004D446146896A81
S11312D0AD6A4D405146C9696940150C3D40013520
S11312E0FF35AD004D44AA6A4A40000A38408021C7
S11312F089008C46604480004844806A4240944699
S113130020229046C244039A924500D1A6E0009957
S11313100A0E9200B21860463840C02189008846FF
S1131320404480003018926A806A424051460968FD
S11313304A40180C38400130FF3080003018806A71
S11313404240200A38408021890088464044800079
S11313503018806A4240180E800030183D00009911
S11313600D40C021890088464544AD007519806A46
S1131370AD6A6840514649684840250C3D400135F6
S1131380FF35AD007519AD6A684061460D0A3D40F0
S11313908021890088464544AD007519AD6A6840CE
S11313A0250EAD00AB46B3443D001D400131FF3175
S11313B088464544AD0075195946896AAD6A4D4061
S11313C05146896869408B4661460D0C3D400135A4
S11313D0FF35AD007519AD6A594669408B460099D1
S11313E00D0A3D408021890088464544AD007519A9
S11313F0AD6A59464D406146090E89008C46B44495
S11314003C40C021890088464444A4003419614604
S1131410896AA46A4C405146C96861408C46009967
S11314200C0C3C400134FF34A4003419A16A644616
S113143061401B0A3B408024A400A44663449B00F3
S1131440F3189B6A59408C46C2E6C0467C1E0000D5
S1131450891C0000FF00FF0000FF00FF994692482E
S1131460FF22654615400135FF35AD004519AD6ACB
S11314701540079F3B685D40230A13409B00984634
S1131480804443469B6A9846FF231B021900434647
S113149007910B405D404B4603931B0C1340984649
S11314A0C0239B009946C84443469B009846804409
S11314B043469B6A9946FF231B049B464B46594669
S11314C00B409946009B1B0E984680239B009A462E
S11314D0D04443469B009846804443469B6A1B0E77
S11314E01B0698464B4641460B436B400B93150035
S11314F0009B1D400135FF35AD004519AD6A15400F
S113150079680B006B4061460D0A1540AD00451922
S1131510AD6A07990D405D40210C0B0013409846BD
S1131520C02189008946C8444146890088468044D0
S11315304146896A0B0059460B400399090E8846B7
S1131540D04441468900884680444146896A090E50
S113155009060B436B400C93150003990D400135AC
S1131560FF35AD004519AD6A1540B9680D910B0002
S11315706B409846009B1D0A1540AD004519AD6AA5
S113158007990D4041464D406146090C0B0013403C
S11315909846C02189008946C84441468900884646
S11315A080444146896A0B0059460B40210E884607
S11315B0D04441468900884680444146896A090EE0
S11315C009060B436B40994614400134FF34A400D0
S11315D00419A46A1440FD686C4003990B0A134073
S11315E09B00C3189D6A07990D406540009B190C28
S11315F01140C02292008B189B00C3189B6A5A4664
S113160013406246120E524492008018846A240EDB
S113161024061C436C400B9B1A0A24490A401B02F3
S11316202348034013431022D3410E930C9D2B0AED
S11316300B402D0205402B43D3410F934B461B0A0D
S11316400B404D462D0205402B43D3411093230AF2
S11316501940240220400143D14111910C3A0EA9B2
S11316600498144CA04704220FA90898A047042208
S113167010A90998A047042211A90A98A0471DE5BA
S1131680002013B03CBC90469946A246AB46F0BD40
S1131690AD204042F5E7AD204042F2E7AD204042A4
S11316A0EFE70020EDE7C0467C1E0000FF00FF00CE
S11316B000FF00FF891C0000F0B5DE4657464E4689
S11316C04546E0B58FB001908B460492002800D1C6
S11316D08EE25946002900D18DE2002A00D18DE224
S11316E00F221A40079200D08BE21B095A1E069261
S11316F0002B00D188E2CE4CCE4B283309930291C3
S11317004DE2042205990AA8CB4B9847019E31006B
S11317100D31FF3104220BA8C74B9847310011311A
S1131720FF3104220CA8C44B9847019631001531AF
S1131730FF3104220DA8C04B98470A980B990C9AC4
S1131740060ABE4B1E400002BD4FB9463840064350
S11317501027FE410198006846400096080A184088
S113176009024E4631400843F84101994E687040E1
S1131770110A194012024E4632401143F941019AAE
S1131780966871400D9E320A1A4033024E46334029
S11317901A43FA41019BDB680393534098460422A1
S11317A0009E2023013B002BFCD1013A002AF8D1F2
S11317B00096019A93466D015D4408959C4B9A46A8
S11317C0FF2743460395009E320E920052443D008B
S11317D00540C026B600B4466544AD005544926A3F
S11317E0AD6A6A405D462D696A401D0C3D40013575
S11317F0FF35AD005544AD6A6A400D0A3D40013ED7
S1131800FF3EB4466544AD005544AD6A6A40050EDA
S1131810AD005544AC463D000D400136FF36B1469F
S11318204D44AD0055446646B66AAD6A75405E46A1
S113183076696E40B446009E350C3D400135FF3557
S1131840AD005544AD6A66466E40B4461D0A3D403F
S11318508026B600B1464D44AD005544AD6A664697
S11318606E40B4460D0EAD005544A9463D001D40E2
S1131870C026B600B0464544AD0055444E46B66A4F
S1131880AD6A75405E46B6696E40050C3D40013553
S1131890FF35AD005544AD6A6E40B146009E350A31
S11318A03D408026B600B0464544AD005544AD6A7F
S11318B04E4675401B0E9B0053449946009E3E4085
S11318C0C0239B00F3189B0053444E46B66A9B6AA0
S11318D05E405B46DB695E400B0C3B400133FF33EB
S11318E09B005344996A7140030A3B4043449B0064
S11318F05344986A484020239846C344039B9B451D
S113190000D19FE0110E8900611863463B40C02658
S1131910B600B04643449B00E3188E6A9B6A5E405F
S11319205B461B685E40030C3B400133FF339B0066
S1131930E3189B6A5E402B0A3B408021890088465D
S113194043449B00E3189B6A5E400096030E9B0091
S1131950E31839001140C026B600B046414489005E
S113196061189B6A896A4B405946C9684B40290CE7
S113197039400131FF3189006118896A4B40614661
S1131980090A3940013EFF3EB046414489006118CE
S1131990896A4B40290E89008946A14439000140D7
S11319A00136FF36B0464144890061184E46B66A96
S11319B0896A71405E46B6684E406146090C3940FA
S11319C00131FF3189006118896A4E40B146110A1C
S11319D039408026B600B046414489006118896ABE
S11319E04E4671406646360EB600B446A4443D40A9
S11319F0C026B600B0464544AD0065196646B66AD1
S1131A00AD6A75405E4676687540120C3A40013204
S1131A10FF329200A218926A5540020A3A4080208E
S1131A208000844662449200A218906A6840CAE624
S1131A307C2E00007C3E0000891C0000FF00FF009B
S1131A4000FF00FF92460300FF2061460140099F0A
S1131A507E5C089A11684E405146090E795C09066D
S1131A6071401E0C0640BE5D360471402E0A0640CD
S1131A70BE5D360271408B4606002E40BE5D1100ED
S1131A805268724091466246160EBE5D36064A465C
S1131A9056405246120C0240BA5C120456401A0ACE
S1131AA00240BA5C12027240914606001E40BE5DBE
S1131AB08A68009272402E0EBE5D3606564062461B
S1131AC0120C0240BA5C1204724090465246160A46
S1131AD00640BE5D36024246564052460240BA5C5B
S1131AE0C9684A401B0EFB5C1B065A402D0C05407E
S1131AF07B5D1B045A4063461B0A18403B5C1B0277
S1131B005A405B46180A414D28401B0240490B408D
S1131B1003431020C3410A934B461B0A2B404F46F4
S1131B203F020F403B43C3410B93330A2B40360221
S1131B300E403343C3410C93130A1D40120211405B
S1131B402943C1410D9104220AA9029E3000314D5E
S1131B50A847301D04220BA9A847300008300422EE
S1131B600CA9A84730000C3004220DA9A84727E08F
S1131B70079B0299CA5CC55C6A40CA540133102BA6
S1131B80F8D110220599234B9847029B10330293F6
S1131B90049B10330493069B5A1E069220D3019D86
S1131BA02B000933FF331800059310220499194BB5
S1131BB09847F023ED586D086B1E062B00D8A0E55E
S1131BC00198F83002990B0003439B07D0D10023FE
S1131BD0CA58C5586A40CA500433102BF8D1D0E70C
S1131BE000200FB03CBC90469946A246AB46F0BDDF
S1131BF0AD204042F5E7AD204042F2E7AD2040423F
S1131C00EFE7AD204042ECE70020EAE7FF00FF00E9
S1131C1000FF00FF891C000070B500260C4D0D4C20
S1131C20641BA410A64209D1002602F0EBF90A4D68
S1131C300A4C641BA410A64205D170BDB300EB5836
S1131C4098470136EEE7B300EB5898470136F2E7C0
S1131C50104000001040000010400000144000003C
S1131C6010B5034B0100186800F06AF810BDC046B7
S1131C702000002010B5034B0100186800F016F88E
S1131C8010BDC04620000020002310B59A4200D1A8
S1131C9010BDCC5CC4540133F8E7030082189342AE
S1131CA000D1704719700133F9E7000070B50500E1
S1131CB0002910D00C1F2368002B00DAE418280038
S1131CC000F0AEF81D4A1368002B05D16360146060
S1131CD0280000F0A6F870BDA34209D92168601855
S1131CE08342F3D118685B6841182160EEE7130062
S1131CF05A68002A01D0A242F9D919685818A0429A
S1131D000BD120680918581819608242E0D1106874
S1131D105268411819605A60DAE7A04202D90C23CC
S1131D202B60D5E721686018824203D1106852689D
S1131D304118216062605C60CAE7C046AC000020C4
S1131D40032370B5CD1C9D43083506000C2D1ED20F
S1131D500C25A9421DD8300000F062F8254A146809
S1131D602100002919D1244C2368002B03D1300011
S1131D7000F044F820602900300000F03FF8431CD4
S1131D802CD10C233000336000F04BF803E0002D1D
S1131D90DFDA0C233360002070BD0B685B1B1AD4A0
S1131DA00B2B03D90B60CC18256003E08C420ED1B9
S1131DB063681360300000F034F8200007220B3011
S1131DC0231D9043C31AE7D05A42E250E4E74B681C
S1131DD063600C00EEE70C004968C2E70323C41CEF
S1131DE09C43A042E0D0211A300000F007F8431CC5
S1131DF0DAD1C6E7AC000020B0000020002370B5A3
S1131E00064C050008002360FEF7D0FA431C03D1FA
S1131E102368002B00D02B6070BDC046D00000208A
S1131E20704770472E2E2F68616C2F7372632F6872
S1131E30616C5F666C6173682E6300002E2E2F68E0
S1131E40706C2F6E766D6374726C2F68706C5F6E3D
S1131E50766D6374726C2E6300000000603DEB10BD
S1131E6015CA71BE2B73AEF0857D77811F352C07A3
S1131E703B6108D72D9810A30914DFF4000000017A
S1131E800000000200000004000000080000001030
S1131E900000002000000040000000800000001B43
S1131EA000000036A56363C6847C7CF8997777EEDE
S1131EB08D7B7BF60DF2F2FFBD6B6BD6B16F6FDEDF
S1131EC054C5C5915030306003010102A96767CE43
S1131ED07D2B2B5619FEFEE762D7D7B5E6ABAB4D8B
S1131EE09A7676EC45CACA8F9D82821F40C9C989F9
S1131EF0877D7DFA15FAFAEFEB5959B2C947478E37
S1131F000BF0F0FBECADAD4167D4D4B3FDA2A25FFE
S1131F10EAAFAF45BF9C9C23F7A4A453967272E426
S1131F205BC0C09BC2B7B7751CFDFDE1AE93933D8A
S1131F306A26264C5A36366C413F3F7E02F7F7F547
S1131F404FCCCC835C343468F4A5A55134E5E5D199
S1131F5008F1F1F9937171E273D8D8AB533131625E
S1131F603F15152A0C04040852C7C7956523234658
S1131F705EC3C39D28181830A19696370F05050A2D
S1131F80B59A9A2F0907070E361212249B80801BDC
S1131F903DE2E2DF26EBEBCD6927274ECDB2B27FDF
S1131FA09F7575EA1B0909129E83831D742C2C5896
S1131FB02E1A1A342D1B1B36B26E6EDCEE5A5AB42E
S1131FC0FBA0A05BF65252A44D3B3B7661D6D6B73C
S1131FD0CEB3B37D7B2929523EE3E3DD712F2F5E1F
S1131FE097848413F55353A668D1D1B90000000037
S1131FF02CEDEDC1602020401FFCFCE3C8B1B17999
S1132000ED5B5BB6BE6A6AD446CBCB8DD9BEBE67E8
S11320104B393972DE4A4A94D44C4C98E85858B03B
S11320204ACFCF856BD0D0BB2AEFEFC5E5AAAA4F24
S113203016FBFBEDC5434386D74D4D9A55333366A6
S113204094858511CF45458A10F9F9E90602020401
S1132050817F7FFEF05050A0443C3C78BA9F9F257E
S1132060E3A8A84BF35151A2FEA3A35DC040408056
S11320708A8F8F05AD92923FBC9D9D214838387060
S113208004F5F5F1DFBCBC63C1B6B67775DADAAF37
S113209063212142301010201AFFFFE50EF3F3FDF7
S11320A06DD2D2BF4CCDCD81140C0C183513132630
S11320B02FECECC3E15F5FBEA2979735CC44448814
S11320C03917172E57C4C493F2A7A755827E7EFCF6
S11320D0473D3D7AAC6464C8E75D5DBA2B1919329B
S11320E0957373E6A06060C098818119D14F4F9EAB
S11320F07FDCDCA3662222447E2A2A54AB90903BE8
S11321008388880BCA46468C29EEEEC7D3B8B86BD1
S11321103C14142879DEDEA7E25E5EBC1D0B0B16B0
S113212076DBDBAD3BE0E0DB563232644E3A3A74A8
S11321301E0A0A14DB4949920A06060C6C24244838
S1132140E45C5CB85DC2C29F6ED3D3BDEFACAC435C
S1132150A66262C4A8919139A495953137E4E4D379
S11321608B7979F232E7E7D543C8C88B5937376E94
S1132170B76D6DDA8C8D8D0164D5D5B1D24E4E9C80
S1132180E0A9A949B46C6CD8FA5656AC07F4F4F338
S113219025EAEACFAF6565CA8E7A7AF4E9AEAE472E
S11321A018080810D5BABA6F887878F06F25254AD0
S11321B0722E2E5C241C1C38F1A6A657C7B4B47327
S11321C051C6C69723E8E8CB7CDDDDA19C7474E896
S11321D0211F1F3EDD4B4B96DCBDBD61868B8B0DF5
S11321E0858A8A0F907070E0423E3E7CC4B5B5711A
S11321F0AA6666CCD84848900503030601F6F6F7AC
S1132200120E0E1CA36161C25F35356AF95757AED1
S1132210D0B9B9699186861758C1C199271D1D3A4D
S1132220B99E9E2738E1E1D913F8F8EBB398982BBF
S113223033111122BB6969D270D9D9A9898E8E074D
S1132240A7949433B69B9B2D221E1E3C9287871520
S113225020E9E9C949CECE87FF5555AA78282850E8
S11322607ADFDFA58F8C8C03F8A1A15980898909B5
S1132270170D0D1ADABFBF6531E6E6D7C6424284B0
S1132280B86868D0C3414182B0999929772D2D5AF5
S1132290110F0F1ECBB0B07BFC5454A8D6BBBB6D42
S11322A03A16162C6363C6A57C7CF8847777EE997E
S11322B07B7BF68DF2F2FF0D6B6BD6BD6F6FDEB1DB
S11322C0C5C5915430306050010102036767CEA93F
S11322D02B2B567DFEFEE719D7D7B562ABAB4DE687
S11322E07676EC9ACACA8F4582821F9DC9C98940F5
S11322F07D7DFA87FAFAEF155959B2EB47478EC933
S1132300F0F0FB0BADAD41ECD4D4B367A2A25FFDFA
S1132310AFAF45EA9C9C23BFA4A453F77272E49622
S1132320C0C09B5BB7B775C2FDFDE11C93933DAE86
S113233026264C6A36366C5A3F3F7E41F7F7F50243
S1132340CCCC834F3434685CA5A551F4E5E5D13495
S1132350F1F1F9087171E293D8D8AB73313162535A
S113236015152A3F0404080CC7C795522323466554
S1132370C3C39D5E18183028969637A105050A0F29
S11323809A9A2FB507070E091212243680801B9BD8
S1132390E2E2DF3DEBEBCD2627274E69B2B27FCDDB
S11323A07575EA9F0909121B83831D9E2C2C587492
S11323B01A1A342E1B1B362D6E6EDCB25A5AB4EE2A
S11323C0A0A05BFB5252A4F63B3B764DD6D6B76138
S11323D0B3B37DCE2929527BE3E3DD3E2F2F5E711B
S11323E0848413975353A6F5D1D1B9680000000033
S11323F0EDEDC12C20204060FCFCE31FB1B179C895
S11324005B5BB6ED6A6AD4BECBCB8D46BEBE67D9E4
S11324103939724B4A4A94DE4C4C98D45858B0E837
S1132420CFCF854AD0D0BB6BEFEFC52AAAAA4FE520
S1132430FBFBED16434386C54D4D9AD733336655A2
S11324408585119445458ACFF9F9E91002020406FD
S11324507F7FFE815050A0F03C3C78449F9F25BA7A
S1132460A8A84BE35151A2F3A3A35DFE404080C052
S11324708F8F058A92923FAD9D9D21BC383870485C
S1132480F5F5F104BCBC63DFB6B677C1DADAAF7533
S11324902121426310102030FFFFE51AF3F3FD0EF3
S11324A0D2D2BF6DCDCD814C0C0C1814131326352C
S11324B0ECECC32F5F5FBEE1979735A2444488CC10
S11324C017172E39C4C49357A7A755F27E7EFC82F2
S11324D03D3D7A476464C8AC5D5DBAE71919322B97
S11324E07373E6956060C0A0818119984F4F9ED1A7
S11324F0DCDCA37F222244662A2A547E90903BABE4
S113250088880B8346468CCAEEEEC729B8B86BD3CD
S11325101414283CDEDEA7795E5EBCE20B0B161DAC
S1132520DBDBAD76E0E0DB3B323264563A3A744EA4
S11325300A0A141E494992DB06060C0A2424486C34
S11325405C5CB8E4C2C29F5DD3D3BD6EACAC43EF58
S11325506262C4A6919139A8959531A4E4E4D33775
S11325607979F28BE7E7D532C8C88B4337376E5990
S11325706D6DDAB78D8D018CD5D5B1644E4E9CD27C
S1132580A9A949E06C6CD8B45656ACFAF4F4F30734
S1132590EAEACF256565CAAF7A7AF48EAEAE47E92A
S11325A008081018BABA6FD57878F08825254A6FCC
S11325B02E2E5C721C1C3824A6A657F1B4B473C723
S11325C0C6C69751E8E8CB23DDDDA17C7474E89C92
S11325D01F1F3E214B4B96DDBDBD61DC8B8B0D86F1
S11325E08A8A0F857070E0903E3E7C42B5B571C416
S11325F06666CCAA484890D803030605F6F6F701A8
S11326000E0E1C126161C2A335356A5F5757AEF9CD
S1132610B9B969D086861791C1C199581D1D3A2749
S11326209E9E27B9E1E1D938F8F8EB1398982BB3BB
S1132630111122336969D2BBD9D9A9708E8E078949
S1132640949433A79B9B2DB61E1E3C22878715921C
S1132650E9E9C920CECE87495555AAFF28285078E4
S1132660DFDFA57A8C8C038FA1A159F889890980B1
S11326700D0D1A17BFBF65DAE6E6D731424284C6AC
S11326806868D0B8414182C3999929B02D2D5A77F1
S11326900F0F1E11B0B07BCB5454A8FCBBBB6DD63E
S11326A016162C3A63C6A5637CF8847C77EE99777A
S11326B07BF68D7BF2FF0DF26BD6BD6B6FDEB16FD7
S11326C0C59154C5306050300102030167CEA9673B
S11326D02B567D2BFEE719FED7B562D7AB4DE6AB83
S11326E076EC9A76CA8F45CA821F9D82C98940C9F1
S11326F07DFA877DFAEF15FA59B2EB59478EC9472F
S1132700F0FB0BF0AD41ECADD4B367D4A25FFDA2F6
S1132710AF45EAAF9C23BF9CA453F7A472E496721E
S1132720C09B5BC0B775C2B7FDE11CFD933DAE9382
S1132730264C6A26366C5A363F7E413FF7F502F73F
S1132740CC834FCC34685C34A551F4A5E5D134E591
S1132750F1F908F171E29371D8AB73D83162533156
S1132760152A3F1504080C04C79552C72346652350
S1132770C39D5EC3183028189637A196050A0F0525
S11327809A2FB59A070E090712243612801B9B80D4
S1132790E2DF3DE2EBCD26EB274E6927B27FCDB2D7
S11327A075EA9F7509121B09831D9E832C58742C8E
S11327B01A342E1A1B362D1B6EDCB26E5AB4EE5A26
S11327C0A05BFBA052A4F6523B764D3BD6B761D634
S11327D0B37DCEB329527B29E3DD3EE32F5E712F17
S11327E08413978453A6F553D1B968D1000000002F
S11327F0EDC12CED20406020FCE31FFCB179C8B191
S11328005BB6ED5B6AD4BE6ACB8D46CBBE67D9BEE0
S113281039724B394A94DE4A4C98D44C58B0E85833
S1132820CF854ACFD0BB6BD0EFC52AEFAA4FE5AA1C
S1132830FBED16FB4386C5434D9AD74D336655339E
S113284085119485458ACF45F9E910F902040602F9
S11328507FFE817F50A0F0503C78443C9F25BA9F76
S1132860A84BE3A851A2F351A35DFEA34080C0404E
S11328708F058A8F923FAD929D21BC9D3870483858
S1132880F5F104F5BC63DFBCB677C1B6DAAF75DA2F
S11328902142632110203010FFE51AFFF3FD0EF3EF
S11328A0D2BF6DD2CD814CCD0C18140C1326351328
S11328B0ECC32FEC5FBEE15F9735A2974488CC440C
S11328C0172E3917C49357C4A755F2A77EFC827EEE
S11328D03D7A473D64C8AC645DBAE75D19322B1993
S11328E073E6957360C0A060811998814F9ED14FA3
S11328F0DCA37FDC224466222A547E2A903BAB90E0
S1132900880B8388468CCA46EEC729EEB86BD3B8C9
S113291014283C14DEA779DE5EBCE25E0B161D0BA8
S1132920DBAD76DBE0DB3BE0326456323A744E3AA0
S11329300A141E0A4992DB49060C0A0624486C2430
S11329405CB8E45CC29F5DC2D3BD6ED3AC43EFAC54
S113295062C4A6629139A8919531A495E4D337E471
S113296079F28B79E7D532E7C88B43C8376E59378C
S11329706DDAB76D8D018C8DD5B164D54E9CD24E78
S1132980A949E0A96CD8B46C56ACFA56F4F307F430
S1132990EACF25EA65CAAF657AF48E7AAE47E9AE26
S11329A008101808BA6FD5BA78F08878254A6F25C8
S11329B02E5C722E1C38241CA657F1A6B473C7B41F
S11329C0C69751C6E8CB23E8DDA17CDD74E89C748E
S11329D01F3E211F4B96DD4BBD61DCBD8B0D868BED
S11329E08A0F858A70E090703E7C423EB571C4B512
S11329F066CCAA664890D84803060503F6F701F6A4
S1132A000E1C120E61C2A361356A5F3557AEF957C9
S1132A10B969D0B986179186C19958C11D3A271D45
S1132A209E27B99EE1D938E1F8EB13F8982BB398B7
S1132A301122331169D2BB69D9A970D98E07898E45
S1132A409433A7949B2DB69B1E3C221E8715928718
S1132A50E9C920E9CE8749CE55AAFF5528507828E0
S1132A60DFA57ADF8C038F8CA159F8A189098089AD
S1132A700D1A170DBF65DABFE6D731E64284C642A8
S1132A8068D0B8684182C3419929B0992D5A772DED
S1132A900F1E110FB07BCBB054A8FC54BB6DD6BB3A
S1132AA0162C3A16C6A56363F8847C7CEE99777776
S1132AB0F68D7B7BFF0DF2F2D6BD6B6BDEB16F6FD3
S1132AC09154C5C56050303002030101CEA9676737
S1132AD0567D2B2BE719FEFEB562D7D74DE6ABAB7F
S1132AE0EC9A76768F45CACA1F9D82828940C9C9ED
S1132AF0FA877D7DEF15FAFAB2EB59598EC947472B
S1132B00FB0BF0F041ECADADB367D4D45FFDA2A2F2
S1132B1045EAAFAF23BF9C9C53F7A4A4E49672721A
S1132B209B5BC0C075C2B7B7E11CFDFD3DAE93937E
S1132B304C6A26266C5A36367E413F3FF502F7F73B
S1132B40834FCCCC685C343451F4A5A5D134E5E58D
S1132B50F908F1F1E2937171AB73D8D86253313152
S1132B602A3F1515080C04049552C7C7466523234C
S1132B709D5EC3C33028181837A196960A0F050521
S1132B802FB59A9A0E090707243612121B9B8080D0
S1132B90DF3DE2E2CD26EBEB4E6927277FCDB2B2D3
S1132BA0EA9F7575121B09091D9E838358742C2C8A
S1132BB0342E1A1A362D1B1BDCB26E6EB4EE5A5A22
S1132BC05BFBA0A0A4F65252764D3B3BB761D6D630
S1132BD07DCEB3B3527B2929DD3EE3E35E712F2F13
S1132BE013978484A6F55353B968D1D1000000002B
S1132BF0C12CEDED40602020E31FFCFC79C8B1B18D
S1132C00B6ED5B5BD4BE6A6A8D46CBCB67D9BEBEDC
S1132C10724B393994DE4A4A98D44C4CB0E858582F
S1132C20854ACFCFBB6BD0D0C52AEFEF4FE5AAAA18
S1132C30ED16FBFB86C543439AD74D4D665533339A
S1132C40119485858ACF4545E910F9F904060202F5
S1132C50FE817F7FA0F0505078443C3C25BA9F9F72
S1132C604BE3A8A8A2F351515DFEA3A380C040404A
S1132C70058A8F8F3FAD929221BC9D9D7048383854
S1132C80F104F5F563DFBCBC77C1B6B6AF75DADA2B
S1132C904263212120301010E51AFFFFFD0EF3F3EB
S1132CA0BF6DD2D2814CCDCD18140C0C2635131324
S1132CB0C32FECECBEE15F5F35A2979788CC444408
S1132CC02E3917179357C4C455F2A7A7FC827E7EEA
S1132CD07A473D3DC8AC6464BAE75D5D322B19198F
S1132CE0E6957373C0A06060199881819ED14F4F9F
S1132CF0A37FDCDC44662222547E2A2A3BAB9090DC
S1132D000B8388888CCA4646C729EEEE6BD3B8B8C5
S1132D10283C1414A779DEDEBCE25E5E161D0B0BA4
S1132D20AD76DBDBDB3BE0E064563232744E3A3A9C
S1132D30141E0A0A92DB49490C0A0606486C24242C
S1132D40B8E45C5C9F5DC2C2BD6ED3D343EFACAC50
S1132D50C4A6626239A8919131A49595D337E4E46D
S1132D60F28B7979D532E7E78B43C8C86E59373788
S1132D70DAB76D6D018C8D8DB164D5D59CD24E4E74
S1132D8049E0A9A9D8B46C6CACFA5656F307F4F42C
S1132D90CF25EAEACAAF6565F48E7A7A47E9AEAE22
S1132DA0101808086FD5BABAF08878784A6F2525C4
S1132DB05C722E2E38241C1C57F1A6A673C7B4B41B
S1132DC09751C6C6CB23E8E8A17CDDDDE89C74748A
S1132DD03E211F1F96DD4B4B61DCBDBD0D868B8BE9
S1132DE00F858A8AE09070707C423E3E71C4B5B50E
S1132DF0CCAA666690D8484806050303F701F6F6A0
S1132E001C120E0EC2A361616A5F3535AEF95757C5
S1132E1069D0B9B9179186869958C1C13A271D1D41
S1132E2027B99E9ED938E1E1EB13F8F82BB39898B3
S1132E3022331111D2BB6969A970D9D907898E8E41
S1132E4033A794942DB69B9B3C221E1E1592878714
S1132E50C920E9E98749CECEAAFF555550782828DC
S1132E60A57ADFDF038F8C8C59F8A1A109808989A9
S1132E701A170D0D65DABFBFD731E6E684C64242A4
S1132E80D0B8686882C3414129B099995A772D2DE9
S1132E901E110F0F7BCBB0B0A8FC54546DD6BBBB36
S1132EA02C3A161650A7F4515365417EC3A4171A41
S1132EB0965E273ACB6BAB3BF1459D1FAB58FAAC02
S1132EC09303E34B55FA3020F66D76AD9176CC88BA
S1132ED0254C02F5FCD7E54FD7CB2AC580443526CF
S1132EE08FA362B5495AB1DE671BBA25980EEA452D
S1132EF0E1C0FE5D02752FC312F04C81A397468D8D
S1132F00C6F9D36BE75F8F03959C9215EB7A6DBF7F
S1132F10DA5952952D83BED4D32174582969E049D6
S1132F2044C8C98E6A89C27578798EF46B3E589903
S1132F30DD71B927B64FE1BE17AD88F066AC20C984
S1132F40B43ACE7D184ADF6382311AE56033519773
S1132F50457F5362E07764B184AE6BBB1CA081FEF5
S1132F60942B08F95868487019FD458F876CDE94D6
S1132F70B7F87B5223D373ABE2024B72578F1FE334
S1132F802AAB55660728EBB203C2B52F9A7BC586D8
S1132F90A50837D3F2872830B2A5BF23BA6A030243
S1132FA05C8216ED2B1CCF8A92B479A7F0F207F35A
S1132FB0A1E2694ECDF4DA65D5BE05061F6234D1AF
S1132FC08AFEA6C49D532E34A055F3A232E18A058D
S1132FD075EBF6A439EC830BAAEF6040069F715E93
S1132FE051106EBDF98A213E3D06DD96AE053EDDEB
S1132FF046BDE64DB58D5491055DC4716FD406048C
S1133000FF15506024FB981997E9BDD6CC4340893D
S1133010779ED967BD42E8B0888B8907385B19E78A
S1133020DBEEC879470A7CA1E90F427CC91E84F80B
S1133030000000008386800948ED2B32AC70111E1D
S11330404E725A6CFBFF0EFD5638850F1ED5AE3DF1
S113305027392D3664D90F0A21A65C68D1545B9BAD
S11330603A2E3624B1670A0C0FE75793D296EEB482
S11330709E919B1B4FC5C080A220DC61694B775A8F
S1133080161A121C0ABA93E2E52AA0C043E0223CB5
S11330901D171B120B0D090EADC78BF2B9A8B62D67
S11330A0C8A91E148519F1574C0775AFBBDD99EEFD
S11330B0FD607FA39F2601F7BCF5725CC53B6644A7
S11330C0347EFB5B7629438BDCC623CB68FCEDB6F0
S11330D063F1E4B8CADC31D7108563424022971308
S11330E02011C6847D244A85F83DBBD21132F9AE45
S11330F06DA129C74B2F9E1DF330B2DCEC52860D17
S1133100D0E3C1776C16B32B99B970A9FA4894111E
S11331102264E947C48CFCA81A3FF0A0D82C7D5641
S1133120EF903322C74E4987C1D138D9FEA2CA8C49
S1133130360BD498CF81F5A628DE7AA5268EB7DA89
S1133140A4BFAD3FE49D3A2C0D9278509BCC5F6AAE
S113315062467E54C2138DF6E8B8D8905EF7392ED5
S1133160F5AFC382BE805D9F7C93D069A92DD56FD6
S1133170B31225CF3B99ACC8A77D18106E639CE8A9
S11331807BBB3BDB097826CDF418596E01B79AEC6A
S1133190A89A4F83656E95E67EE6FFAA08CFBC2108
S11331A0E6E815EFD99BE7BACE366F4AD4099FEA11
S11331B0D67CB029AFB2A43131233F2A3094A5C6BE
S11331C0C066A23537BC4E74A6CA82FCB0D090E06B
S11331D015D8A7334A9804F1F7DAEC410E50CD7FA5
S11331E02FF691178DD64D764DB0EF43544DAACCA2
S11331F0DF0496E4E3B5D19E1B886A4CB81F2CC14A
S11332007F51654604EA5E9D5D358C01737487FACF
S11332102E410BFB5A1D67B352D2DB92335610E991
S11332201347D66D8C61D79A7A0CA1378E14F8594E
S1133230893C13EBEE27A9CE35C961B7EDE51CE156
S11332403CB1477A59DFD29C3F73F25579CE1418BA
S1133250BF37C773EACDF7535BAAFD5F146F3DDF39
S113326086DB447881F3AFCA3EC468B92C34243871
S11332705F40A3C272C31D160C25E2BC8B493C28D7
S113328041950DFF7101A839DEB30C089CE4B4D854
S113329090C156646184CB7B70B632D5745C6C4843
S11332A04257B8D0A7F4515065417E53A4171AC3AE
S11332B05E273A966BAB3BCB459D1FF158FAACABFE
S11332C003E34B93FA3020556D76ADF676CC8891B6
S11332D04C02F525D7E54FFCCB2AC5D744352680CB
S11332E0A362B58F5AB1DE491BBA25670EEA459829
S11332F0C0FE5DE1752FC302F04C811297468DA389
S1133300F9D36BC65F8F03E79C9215957A6DBFEB7B
S1133310595295DA83BED42D217458D369E04929D2
S1133320C8C98E4489C2756A798EF4783E58996BFF
S113333071B927DD4FE1BEB6AD88F017AC20C96680
S11333403ACE7DB44ADF6318311AE582335197606F
S11333507F5362457764B1E0AE6BBB84A081FE1CF1
S11333602B08F99468487058FD458F196CDE9487D2
S1133370F87B52B7D373AB23024B72E28F1FE35730
S1133380AB55662A28EBB207C2B52F037BC5869AD4
S11333900837D3A5872830F2A5BF23B26A0302BA3F
S11333A08216ED5C1CCF8A2BB479A792F207F3F056
S11333B0E2694EA1F4DA65CDBE0506D56234D11FAB
S11333C0FEA6C48A532E349D55F3A2A0E18A053289
S11333D0EBF6A475EC830B39EF6040AA9F715E068F
S11333E0106EBD518A213EF906DD963D053EDDAEE7
S11333F0BDE64D468D5491B55DC47105D406046F88
S1133400155060FFFB981924E9BDD697434089CC39
S11334109ED9677742E8B0BD8B8907885B19E73886
S1133420EEC879DB0A7CA1470F427CE91E84F8C907
S11334300000000086800983ED2B324870111EAC19
S1133440725A6C4EFF0EFDFB38850F56D5AE3D1EED
S1133450392D3627D90F0A64A65C6821545B9BD1A9
S11334602E36243A670A0CB1E757930F96EEB4D27E
S1133470919B1B9EC5C0804F20DC61A24B775A698B
S11334801A121C16BA93E20A2AA0C0E5E0223C43B1
S1133490171B121D0D090E0BC78BF2ADA8B62DB963
S11334A0A91E14C819F157850775AF4CDD99EEBBF9
S11334B0607FA3FD2601F79FF5725CBC3B6644C5A3
S11334C07EFB5B3429438B76C623CBDCFCEDB668EC
S11334D0F1E4B863DC31D7CA856342102297134004
S11334E011C68420244A857D3DBBD2F832F9AE1141
S11334F0A129C76D2F9E1D4B30B2DCF352860DEC13
S1133500E3C177D016B32B6CB970A999489411FA1A
S113351064E947228CFCA8C43FF0A01A2C7D56D83D
S1133520903322EF4E4987C7D138D9C1A2CA8CFE45
S11335300BD4983681F5A6CFDE7AA5288EB7DA2685
S1133540BFAD3FA49D3A2CE49278500DCC5F6A9BAA
S1133550467E5462138DF6C2B8D890E8F7392E5ED1
S1133560AFC382F5805D9FBE93D0697C2DD56FA9D2
S11335701225CFB399ACC83B7D1810A7639CE86EA5
S1133580BB3BDB7B7826CD0918596EF4B79AEC0166
S11335909A4F83A86E95E665E6FFAA7ECFBC210804
S11335A0E815EFE69BE7BAD9366F4ACE099FEAD40D
S11335B07CB029D6B2A431AF233F2A3194A5C630BA
S11335C066A235C0BC4E7437CA82FCA6D090E0B067
S11335D0D8A733159804F14ADAEC41F750CD7F0EA1
S11335E0F691172FD64D768DB0EF434D4DAACC549E
S11335F00496E4DFB5D19EE3886A4C1B1F2CC1B846
S11336005165467FEA5E9D04358C015D7487FA73CB
S1133610410BFB2E1D67B35AD2DB92525610E9338D
S113362047D66D1361D79A8C0CA1377A14F8598E4A
S11336303C13EB8927A9CEEEC961B735E51CE1ED52
S1133640B1477A3CDFD29C5973F2553FCE141879B6
S113365037C773BFCDF753EAAAFD5F5B6F3DDF1435
S1133660DB447886F3AFCA81C468B93E3424382C6D
S113367040A3C25FC31D167225E2BC0C493C288BD3
S1133680950DFF4101A83971B30C08DEE4B4D89C50
S1133690C156649084CB7B61B632D5705C6C48743F
S11336A057B8D042F45150A7417E5365171AC3A4AA
S11336B0273A965EAB3BCB6B9D1FF145FAACAB58FA
S11336C0E34B9303302055FA76ADF66DCC889176B2
S11336D002F5254CE54FFCD72AC5D7CB35268044C7
S11336E062B58FA3B1DE495ABA25671BEA45980E25
S11336F0FE5DE1C02FC302754C8112F0468DA39785
S1133700D36BC6F98F03E75F9215959C6DBFEB7A77
S11337105295DA59BED42D837458D321E0492969CE
S1133720C98E44C8C2756A898EF4787958996B3EFB
S1133730B927DD71E1BEB64F88F017AD20C966AC7C
S1133740CE7DB43ADF63184A1AE58231519760336B
S11337505362457F64B1E0776BBB84AE81FE1CA0ED
S113376008F9942B48705868458F19FDDE94876CCE
S11337707B52B7F873AB23D34B72E2021FE3578F2C
S113378055662AABEBB20728B52F03C2C5869A7BD0
S113379037D3A5082830F287BF23B2A50302BA6A3B
S11337A016ED5C82CF8A2B1C79A792B407F3F0F252
S11337B0694EA1E2DA65CDF40506D5BE34D11F62A7
S11337C0A6C48AFE2E349D53F3A2A0558A0532E185
S11337D0F6A475EB830B39EC6040AAEF715E069F8B
S11337E06EBD5110213EF98ADD963D063EDDAE05E3
S11337F0E64D46BD5491B58DC471055D06046FD484
S11338005060FF15981924FBBDD697E94089CC4335
S1133810D967779EE8B0BD428907888B19E7385B82
S1133820C879DBEE7CA1470A427CE90F84F8C91E03
S113383000000000800983862B3248ED111EAC7015
S11338405A6C4E720EFDFBFF850F5638AE3D1ED5E9
S11338502D3627390F0A64D95C6821A65B9BD154A5
S113386036243A2E0A0CB16757930FE7EEB4D2967A
S11338709B1B9E91C0804FC5DC61A220775A694B87
S1133880121C161A93E20ABAA0C0E52A223C43E0AD
S11338901B121D17090E0B0D8BF2ADC7B62DB9A85F
S11338A01E14C8A9F157851975AF4C0799EEBBDDF5
S11338B07FA3FD6001F79F26725CBCF56644C53B9F
S11338C0FB5B347E438B762923CBDCC6EDB668FCE8
S11338D0E4B863F131D7CADC634210859713402200
S11338E0C68420114A857D24BBD2F83DF9AE11323D
S11338F029C76DA19E1D4B2FB2DCF330860DEC520F
S1133900C177D0E3B32B6C1670A999B99411FA4816
S1133910E9472264FCA8C48CF0A01A3F7D56D82C39
S11339203322EF904987C74E38D9C1D1CA8CFEA241
S1133930D498360BF5A6CF817AA528DEB7DA268E81
S1133940AD3FA4BF3A2CE49D78500D925F6A9BCCA6
S11339507E5462468DF6C213D890E8B8392E5EF7CD
S1133960C382F5AF5D9FBE80D0697C93D56FA92DCE
S113397025CFB312ACC83B991810A77D9CE86E63A1
S11339803BDB7BBB26CD0978596EF4189AEC01B762
S11339904F83A89A95E6656EFFAA7EE6BC2108CF00
S11339A015EFE6E8E7BAD99B6F4ACE369FEAD40909
S11339B0B029D67CA431AFB23F2A3123A5C63094B6
S11339C0A235C0664E7437BC82FCA6CA90E0B0D063
S11339D0A73315D804F14A98EC41F7DACD7F0E509D
S11339E091172FF64D768DD6EF434DB0AACC544D9A
S11339F096E4DF04D19EE3B56A4C1B882CC1B81F42
S1133A0065467F515E9D04EA8C015D3587FA7374C7
S1133A100BFB2E4167B35A1DDB9252D210E9335689
S1133A20D66D1347D79A8C61A1377A0CF8598E1446
S1133A3013EB893CA9CEEE2761B735C91CE1EDE54E
S1133A40477A3CB1D29C59DFF2553F73141879CEB2
S1133A50C773BF37F753EACDFD5F5BAA3DDF146F31
S1133A60447886DBAFCA81F368B93EC424382C3469
S1133A70A3C25F401D1672C3E2BC0C253C288B49CF
S1133A800DFF4195A83971010C08DEB3B4D89CE44C
S1133A90566490C1CB7B618432D570B66C48745C3B
S1133AA0B8D042575150A7F47E5365411AC3A417A6
S1133AB03A965E273BCB6BAB1FF1459DACAB58FAF6
S1133AC04B9303E32055FA30ADF66D76889176CCAE
S1133AD0F5254C024FFCD7E5C5D7CB2A26804435C3
S1133AE0B58FA362DE495AB125671BBA45980EEA21
S1133AF05DE1C0FEC302752F8112F04C8DA3974681
S1133B006BC6F9D303E75F8F15959C92BFEB7A6D73
S1133B1095DA5952D42D83BE58D32174492969E0CA
S1133B208E44C8C9756A89C2F478798E996B3E58F7
S1133B3027DD71B9BEB64FE1F017AD88C966AC2078
S1133B407DB43ACE63184ADFE582311A9760335167
S1133B5062457F53B1E07764BB84AE6BFE1CA081E9
S1133B60F9942B08705868488F19FD4594876CDECA
S1133B7052B7F87BAB23D37372E2024BE3578F1F28
S1133B80662AAB55B20728EB2F03C2B5869A7BC5CC
S1133B90D3A5083730F2872823B2A5BF02BA6A0337
S1133BA0ED5C82168A2B1CCFA792B479F3F0F2074E
S1133BB04EA1E26965CDF4DA06D5BE05D11F6234A3
S1133BC0C48AFEA6349D532EA2A055F30532E18A81
S1133BD0A475EBF60B39EC8340AAEF605E069F7187
S1133BE0BD51106E3EF98A21963D06DDDDAE053EDF
S1133BF04D46BDE691B58D5471055DC4046FD40680
S1133C0060FF15501924FB98D697E9BD89CC434031
S1133C1067779ED9B0BD42E807888B89E7385B197E
S1133C2079DBEEC8A1470A7C7CE90F42F8C91E84FF
S1133C3000000000098386803248ED2B1EAC701111
S1133C406C4E725AFDFBFF0E0F5638853D1ED5AEE5
S1133C503627392D0A64D90F6821A65C9BD1545BA1
S1133C60243A2E360CB1670A930FE757B4D296EE76
S1133C701B9E919B804FC5C061A220DC5A694B7783
S1133C801C161A12E20ABA93C0E52AA03C43E022A9
S1133C90121D171B0E0B0D09F2ADC78B2DB9A8B65B
S1133CA014C8A91E578519F1AF4C0775EEBBDD99F1
S1133CB0A3FD607FF79F26015CBCF57244C53B669B
S1133CC05B347EFB8B762943CBDCC623B668FCEDE4
S1133CD0B863F1E4D7CADC314210856313402297FC
S1133CE0842011C6857D244AD2F83DBBAE1132F939
S1133CF0C76DA1291D4B2F9EDCF330B20DEC52860B
S1133D0077D0E3C12B6C16B3A999B97011FA489412
S1133D10472264E9A8C48CFCA01A3FF056D82C7D35
S1133D2022EF903387C74E49D9C1D1388CFEA2CA3D
S1133D3098360BD4A6CF81F5A528DE7ADA268EB77D
S1133D403FA4BFAD2CE49D3A500D92786A9BCC5FA2
S1133D505462467EF6C2138D90E8B8D82E5EF739C9
S1133D6082F5AFC39FBE805D697C93D06FA92DD5CA
S1133D70CFB31225C83B99AC10A77D18E86E639C9D
S1133D80DB7BBB3BCD0978266EF41859EC01B79A5E
S1133D9083A89A4FE6656E95AA7EE6FF2108CFBCFC
S1133DA0EFE6E815BAD99BE74ACE366FEAD4099F05
S1133DB029D67CB031AFB2A42A31233FC63094A5B2
S1133DC035C066A27437BC4EFCA6CA82E0B0D0905F
S1133DD03315D8A7F14A980441F7DAEC7F0E50CD99
S1133DE0172FF691768DD64D434DB0EFCC544DAA96
S1133DF0E4DF04969EE3B5D14C1B886AC1B81F2C3E
S1133E00467F51659D04EA5E015D358CFA737487C3
S1133E10FB2E410BB35A1D679252D2DBE933561085
S1133E206D1347D69A8C61D7377A0CA1598E14F842
S1133E30EB893C13CEEE27A9B735C961E1EDE51C4A
S1133E407A3CB1479C59DFD2553F73F21879CE14AE
S1133E5073BF37C753EACDF75F5BAAFDDF146F3D2D
S1133E607886DB44CA81F3AFB93EC468382C342465
S1133E70C25F40A31672C31DBC0C25E2288B493CCB
S1133E80FF41950D397101A808DEB30CD89CE4B448
S1133E906490C1567B6184CBD570B63248745C6C37
S1133EA0D04257B852096AD53036A538BF40A39ED0
S1133EB081F3D7FB7CE339829B2FFF87348E434405
S1133EC0C4DEE9CB547B9432A6C2233DEE4C950B61
S1133ED042FAC34E082EA16628D924B2765BA249C1
S1133EE06D8BD12572F8F66486689816D4A45CCCE0
S1133EF05D65B6926C704850FDEDB9DA5E154657B3
S1133F00A78D9D8490D8AB008CBCD30AF7E45805E8
S1133F10B8B34506D02C1E8FCA3F0F02C1AFBD03F4
S1133F2001138A6B3A9111414F67DCEA97F2CFCEC5
S1133F30F0B4E67396AC7422E7AD3585E2F937E860
S1133F401C75DF6E47F11A711D29C5896FB7620EA2
S1133F50AA18BE1BFC563E4BC6D279209ADBC0FE83
S1133F6078CD5AF41FDDA8338807C731B112105930
S1133F702780EC5F60517FA919B54A0D2DE57A9F22
S1133F8093C99CEFA0E03B4DAE2AF5B0C8EBBB3C17
S1133F9083539961172B047EBA77D626E16914639B
S1133FA055210C7D0000000000000000000000000E
S1133FB000000000000000000000000000000000FD
S1133FC000000000000000000000000000000000ED
S1133FD000000000000000000000000000000000DD
S1133FE000000000000000000000000000000000CD
S1133FF000000000000000000000000000000000BD
S113400000000000F8B5C046F8BC08BC9E467047E6
S1134010DD000000F8B5C046F8BC08BC9E467047F9
S1074020B5000000E3
S1134024000102030405060708090A0B0C0D0E0F10
S1134034000102030405060708090A0B0C0D0E0F00
S11340442400002000000000C43F0000E43F0000FE
S1134054A43F000000000000000000000000000075
S11340640000000000000000000000000000000048
S11340740000000000000000000000000000000038
S11340840000000000000000000000000000000028
S11340940000000000000000000000000000000018
S10740A40000000014
S9030000FC
