S01F00004145532D3132385F6D626564544C535F6C6962726172792E7372656326
S1130000E82200202D010000290100002901000040
S113001000000000000000000000000000000000DC
S113002000000000000000000000000029010000A2
S11300300000000000000000290100002901000068
S11300402901000029010000290100002901000004
S11300509105000029010000290100002901000088
S113006029010000290100002901000029010000E4
S113007029010000290100002901000029010000D4
S113008029010000290100002901000029010000C4
S113009029010000290100002901000029010000B4
S11300A029010000290100002901000029010000A4
S11300B00000000010B5064C2378002B07D1054B37
S11300C0002B02D0044800E000BF0123237010BDC0
S11300D068000020000000002C410000084B10B50F
S11300E0002B03D00749084800E000BF0748036815
S11300F0002B00D110BD064B002BFBD09847F9E72D
S1130100000000006C0000202C4100002C41000085
S11301100000000010B5024B9847024B984710BDF1
S11301200D02000059020000FEE7000010B51A4A53
S11301301A4B9A4211D01A00194B9A420DD2194AFD
S113014003339B1A9B0801339B0000221348124976
S11301508C58845004329A42FAD1134A134B9A426F
S11301600AD2D34311495B1803218B4304339B18F0
S1130170002102C29342FCD10D4AFF210D4B8B4357
S113018093600D4A53687F390B4353600B4B984778
S11301900B4B9847FEE7C0462C41000000000020AE
S11301A0680000200400002068000020E80200200D
S11301B000ED00E000000000004000417116000066
S11301C0310A0000034A116980235B000B43136169
S11301D07047C0460004004010B5034B98470349DC
S11301E00348044B984710BDC5010000004000417E
S11301F0C80200205D03000010B50248024B984776
S113020010BDC04610E000E01103000010B50D4B16
S11302109847C023DB058022D20094215A500C3920
S11302205A50094BA82209499950C02109069950EE
S1130230CA215A5C012082435A54054B9847054B06
S1130240984710BDD9030000002800400004004076
S1130250D9010000F9010000F0B5C64600B5C0227E
S1130260D2050223942153508021490251618027F1
S11302707F03576180208003804650618826935114
S11302801C4BA8201C4D1D50C0252D061D509160EF
S11302908021C9059962194C9C6297609962184F34
S11302A09F6244469460996216499962C127DC5D55
S11302B001218C43DC55713FDC5D8C43DC550437F4
S11302C0DC5D8C43DC550137DC5D8C43DC558024DC
S11302D0E4004337D45194510B4A1A501D50223034
S11302E01A5C8A431A54C038084B984704BC904699
S11302F0F0BDC0460028004002000040010000C0DC
S1130300100000C0200000C00004004025030000CD
S113031010B5024B1860024B984710BD84000020B2
S1130320C107000010B5044B1C68044B984701003A
S11303302000034B984710BD84000020D103000027
S1130340D507000010B54369002B00D0984710BDB5
S113035010B58369002B00D0984710BD70B5050017
S11303600C00002812D00800431E9841C0B2382265
S11303700749084B984721002800074B9847002855
S113038003D1064B2B60064B6B6070BD0020EEE77B
S1130390C0170000A5030000E104000045030000AD
S11303A051030000002800D100BE70470300064A34
S11303B01268002A04D0044A1068C31813607047F6
S11303C00249014A1160F6E788000020E822002073
S11303D0FA231B015843704710B5094B5A685A60F9
S11303E00220084B9847084B9847084B9847084BFE
S11303F09847084B9847FF20074B984710BDC046C5
S11304000040004197070000450700005D07000019
S113041041040000950700001D040000C30707D530
S1130420044A054B1A621900044A4B681342FCD172
S11304307047C0460601010000180040FD07000097
S1130440034B08229A71043A5A71033A1A7170479D
S113045000040040F8B504000D0017001E0001233D
S11304604B4001201840C52252001949194B9847A6
S113047068080122237D1342FCD0174B23800122FC
S1130480237D1342FCD02023FF332383002E0ED080
S11304901F3BFF3B290099430023FD5CAAB23E2B7E
S11304A010D90A8002339BB202319E42F5D8012250
S11304B0237D1342FCD0E061084B069A13439BB2A0
S11304C02380F8BDFA18527812022A43E9E7C0469D
S11304D0D8170000A503000044A5FFFF00A5FFFFF7
S11304E070B505000C0000281DD0104BC8184342FD
S11304F05841C0B246220E490E4B98472C6162689F
S11305009E23134063600C4B1D600C4B1022802112
S11305105A50BFF34F8FBFF36F8F0131FF315A50E1
S11305201A60002070BD0020E4E7C04600C0FFBE92
S1130530D8170000A50300008C00002000E100E0B3
S113054070B54C0805690126287D3042FCD0202076
S1130550FF3028830020CD0705D5013401308143C5
S11305600988090A1170984211D212186400241AD9
S11305705D1E03E002300232834208D92118098843
S113058089B211708542F5D9090A5170F2E770BD3C
S113059010B50A4B186803691A7DD20704D503689D
S11305A0002B00D0984710BD1A7D9207FBD502227C
S11305B01A754368002BF6D09847F4E78C000020A6
S11305C070B50B4C0D198024A401A5420AD8084C1F
S11305D01C1964188025AD01AC4206D8054CA0470F
S11305E0002070BD0E204042FBE70E204042F8E799
S11305F00000C0FF41050000F0B5DE4657464E46F8
S11306004546E0B5C5B0834616001D00494BCA18DF
S113061080239B019A4200D986E0464BEB185B1875
S113062080229201934200D981E00C002FE0BA4667
S113063067465B461A690121137D0B42FCD02023D7
S1130640FF3313834B465B08D3613B4B13804B460C
S1130650A04603972A004D46B1465E4693461F00C6
S11306607A1B04AB9C4662441C2300932433390058
S11306703069324CA0474037039BBB42F0D144461B
S11306805D46B3464E462B19013B9A4544D2FF239F
S113069022009A4391464B449A4680235B004B4484
S11306A09846170042460392A0464C46B1465E4621
S11306B0AB463A1B04AB9C466244402339003000ED
S11306C01F4DA8474037039B9F42F2D15D46B34676
S11306D04E46A14644464B46E31A99093F2213402D
S11306E05445A6D8002DA4D0BC4657468A0104A878
S11306F0804642443078D05401333F2213405A425A
S11307005A41891801340136013DA7428FD3002D87
S1130710ECD1BA4667468CE7002045B03CBC904615
S11307209946A246AB46F0BD0E204042F5E70E20A6
S11307304042F2E70000C0FF1AA5FFFF5504000085
S1130740C1050000044BDA69F82149010A40DA6165
S113075001221A617047C0460010004082220C4BEF
S11307601A7518003821803A435C1342FCD10849B9
S11307701022CB681A42FCD0054A137D80210B431A
S11307801375100048390E22435C1342FCD17047A4
S1130790000C004070478023DB059B780322134044
S11307A098420CD08022D205FF23937193780321C1
S11307B08B430840184390709379002BFCD070470A
S11307C0024B034A5A6005221A60704710E000E0A9
S11307D0FFFFFF0070B50B0E5E1EF6B2002B13D0A8
S11307E034000E4A0E4D8020400255609560136817
S11307F00342FCD0013CE4B2FF2CF6D13306F61AD6
S1130800084B9C4661447118044B59609960190067
S1130810802252020B681342FCD070BD10E000E04D
S1130820FFFFFF00010000FFF0B5D6464F464646E5
S1130830C0B582B0724C802221007248724B984736
S11308408022210071481830714B98477148724BCF
S1130850984782460A20714B984710276B4B1833F0
S11308600193554617E0FEE723002200002101987A
S1130870C84701361034AE42F6D1454680225203B1
S1130880C023DB055A610220644B98471037BC2310
S11308905B019F4276D00023002F00D189E0EB5406
S11308A00133BB42FBD102205C4B984780225203A8
S11308B0C023DB059A613B09984612D02C00002620
S11308C0574B99464346A8461D00230022000121A8
S11308D04C48C84701361034AE42F6D12B00454689
S11308E09846C024E40580235B03636102204B4ED9
S11308F0B0470220B04780239B03A3613B002A003A
S11309008021C9034748484CA047002800D076E01E
S113091080229203C023DB055A6102203F4CA0478A
S11309200220A0472B00E919FE221A7001338B42E2
S1130930FBD10220394B984780229203C023DB0568
S11309409A613B002A008021C9033648374CA047EE
S1130950002888D1C024E40580239B03636102201E
S11309602E4EB0470220B04780235B03A361434669
S1130970002B83D02C000026294B99464346A846D9
S11309801D0071E70A20254B9847C023DB0502218F
S113099098229950802252029A61802252039A61CD
S11309A0802292039A6102B01CBC90469946A246EA
S11309B0F0BD0220194EB047C024E40580235B0338
S11309C0A36163610220B0470220B04780239B03E8
S11309D0A3613B002A008021C9031248124CA0479E
S11309E000280BD180229203C023DB055A61022028
S11309F00A4CA0470220A047B8469AE7FFE7FEE763
S1130A00F817000090000020710A000090010020F7
S1130A10210C000070170000B91600002503000027
S1130A2039160000C8020020F9050000C1050000C5
S1130A3010B5034B9847034B9847002010BDC046A0
S1130A40150100002908000010B58C225200002175
S1130A50014B984710BDC046CD16000010B50028C4
S1130A6003D08C214900014B984710BD5D1600004E
S1130A70F0B5C64600B5C02A2AD080235B009A424E
S1130A8029D0802A04D02020404204BC9046F0BDE6
S1130A90F63B036004000834446052092700002632
S1130AA04B781B028D782D042B430D782B43CD7886
S1130AB02D062B4308C7013604319642F0D3036850
S1130AC00C2B34D00E2B61D00A2B07D00020DCE78E
S1130AD00C230360DEE70E230360DBE74F4DA830F1
S1130AE0FF212A002832E66808CD27687B40370AB0
S1130AF00F40D75D7B40370ED75D3F047B400F002E
S1130B003740D75D3F067B40370C0F40D75D3F022F
S1130B107B40236167687B406361A7687B40A36176
S1130B207340E36110348442DDD10020ADE73B4ED5
S1130B30C830FF2531002831626908CE27687B4020
S1130B40170A2F40CF5D7B40170ECF5D3F047B40DB
S1130B502F001740CF5D3F067B40170C2F40CF5D21
S1130B603F027B40A36167687B40E361A7687B40E9
S1130B702362E7687B40636227697B40A36253403A
S1130B80E36218348442D7D100207EE7234EE82361
S1130B9098468044FF2532002832E16908CE206857
S1130BA043400F0A2F40D75D7B400F0ED75D3F04B3
S1130BB07B402F000F40D75D3F067B400F0C2F403A
S1130BC0D75D3F027B402362606843406362A06854
S1130BD04340A362E0684340E3622F001F40D75DB7
S1130BE020694740180E105C00064740180A284048
S1130BF0105C000247401B0C2B40D35C1B047B4061
S1130C002363606943406363A0694340A36359401D
S1130C10E1632034A045C0D1002036E70818000065
S1130C20F0B5DE4657464E464546E0B5CDB0040025
S1130C300D00160006A8444B984723000833636050
S1130C403200290006A8414B98470390002870D130
S1130C50069B1A00049323601B0119000593079B4C
S1130C608C4663441968A1605968E1609968216100
S1130C7018218C46A44461460191D8686061013A08
S1130C809346103B02931E006746002A44DD304B16
S1130C909A46FF252F4C28342F4B99462F4B9846C4
S1130CA02F4B009308E0103701235B429C46E3443A
S1130CB0103E5B46002B22D0002173582A001A40B4
S1130CC0A25C92005244180E205C80004844926A50
S1130CD0806A4240180A2840205C80004044806AB0
S1130CE042401B0C2B40E35C9B0000988446634409
S1130CF09B6A5A407A5004311029DED1D3E7059B10
S1130D00103B019A94469C4463460193049B1B0147
S1130D10029AD31A10330293029B1A680092019A22
S1130D20009911605968516099689160DB6800937B
S1130D30D36006A80B4B984703984DB03CBC904633
S1130D409946A246AB46F0BD490A0000710A00006C
S1130D500819000008180000081D00000821000000
S1130D60082500005D0A0000F0B5DE4657464E46F1
S1130D704546E0B589B0069245684B781B028A78EF
S1130D80120413430A781343CA78120613432A68D9
S1130D905A4001924B791B028A79120413430A794F
S1130DA01343CA79120613436A6853404C7A2402E7
S1130DB08A7A120414430A7A1443CA7A1206144330
S1130DC0AA6854404A7B12028E7B360432430E7B5F
S1130DD03243C97B09060A4310218C46AC44614660
S1130DE067460591E9684A4001684910079101394D
S1130DF0081E0491296900DCF0E0EE498A46FF26CA
S1130E00ED498946ED498846ED498C46019D280007
S1130E10304080005044110E89004944806A896A38
S1130E20484039684840190A314089004144896A78
S1130E304840210C314089006144896A484002904D
S1130E4031001940890051442D0EAD004D44896A8A
S1130E50AD6A694078684140250A3540AD00454493
S1130E60AD6A6940150C3540AD006544AD6A694012
S1130E700391310021408D00AB46D3441D0EAD00DB
S1130E804D445846806AAD6A4540B8684540100AEA
S1130E900100314088008346C3445846806A454077
S1130EA00199080C304080008346E3445846806A28
S1130EB04540324092005244240EA4004C44926AAD
S1130EC0A46A6240F86842400C0A3440A4004444D6
S1130ED0A46A62401B0C33409B0063449B6A5A40E3
S1130EE03300029C23409B005344140EA4004C4442
S1130EF09B6AA46A634039694B400398040A3440EE
S1130F00A4004444A46A63402C0C3440A400644408
S1130F10A46A63400193330003409B005344029945
S1130F200C0EA4004C449B6AA46A634079694B404C
S1130F302C0A3440A4004444A46A6340140C344092
S1130F40A4006444A46A634034002C40A4005444C4
S1130F50A346040EA4004C445946896AA46A4C4032
S1130F60B9694C40110A314089008B46C344594643
S1130F70896A4C400298010C314089008B46E34455
S1130F805946896A4C403240920052442D0EAD00BD
S1130F904D44926AAD6A6A40F9694A40000A304099
S1130FA080004044856A6A400399090C31408900F5
S1130FB06144896A4A400499013908000491396AF4
S1130FC02037002800D021E707987E4DAC466044C6
S1130FD04001059DAC4684446046059075488046B2
S1130FE0FF20019E0640B6004644734DAC46150EE4
S1130FF0AD006544B66AAD6A754069406F4DA94657
S11310001D0A0540AD004D44AD6A69406C4F250C86
S11310100540AD007D19AD6A69408A4605001D4052
S1131020AD004544019E310E89006144AD6A896A70
S11310304D40059949684D40210A014089004944C1
S1131040896A4D40110C014089007918896A4D4024
S1131050AB4606002640B6004644190E890061449A
S1131060B66A896A4E40059DA9684E40110A01403E
S113107089004944896A4E400199090C014089005C
S11310807918896A7140024092004244240EA400F7
S11310906444926AA46A5440EA6802925440019EED
S11310A0320A024092004A44966A74401B0C034080
S11310B09B00FF18BE6A6640B04652460240424B4F
S11310C028339C5C2A695440320E9A5C12065440C0
S11310D05A46120A02409A5C120254400A0C024018
S11310E09A5C1204544002005E4632409F5C6A6976
S11310F057405246120E9A5C120657400A0A0240A2
S11311009A5C120257404246120C02409A5C120446
S1131110574002000A409A5CAE69019656405A460E
S1131120120E9A5C120672404646360A06409E5DCE
S1131130360272405646360C06409E5D36047240B6
S1131140464606409E5DED696E40090E595C0906EF
S11311504E405146090A0140595C090271405D46FE
S11311602D0C28401B5C1B044B4006980470210A7C
S11311704170210C8170240EC4700771390A4171C9
S1131180390C81713F0EC7710272110A4172110C40
S11311908172120EC27203731A0A42731A0C82739A
S11311A01B0EC373002009B03CBC90469946A2466E
S11311B0AB46F0BD08290000082D000008310000EE
S11311C008350000FFFFFF0708180000F0B5DE46F1
S11311D057464E464546E0B589B0069245684B7879
S11311E01B028A78120413430A781343CA7812063E
S11311F013432A685A4002924B791B028A791204DB
S113120013430A791343CA79120613436A68534095
S11312104A7A12028C7A240422430C7A2243CC7A2E
S113122024062243AC6862404C7B24028E7B360445
S113123034430E7B3443C97B090621431024A4465E
S1131240AC44644667460594EC686140006840100D
S113125007900138041E0390286900DCF4E0F0488C
S11312608246FF26EF488146EF488046EF48844691
S11312700193029C3440A4005444019B180E800046
S11312804844A56A806A45403B685D40080A30408E
S113129080004044806A4540100C30408000604427
S11312A0806A45403000019B184080005044140E71
S11312B0A4004C44806AA46A60407B685840029C45
S11312C0240A3440A4004444A46A60400C0C344012
S11312D0A4006444A46A6040049034001440A40050
S11312E0A346D3440C0EA4004C445B469B6AA46AF8
S11312F05C40BB685C40019B1B0A180030408300C3
S11313009B46C3445B469B6A5C400298030C334093
S11313109B009B46E3445B469B6A5C4031408900EA
S11313205144030E9B009B46CB44896A5B469B6AEF
S11313305940FB685940120A324092004244926A72
S11313405140019B1B0C33409B0063449B6A5940F2
S113135033002B409B0053440498020E92004A44ED
S11313609B6A926A53403A6953400A0A3240920097
S11313704244926A5340220C324092006244926A80
S113138053400293330003409B005344220E9200C7
S11313904A449B6A926A53407A6953402A0A32400B
S11313A092004244926A53400A0C324092006244D2
S11313B0926A534001933200224092005244934671
S11313C00A0E92004A445B469B6A926A5A40BB6981
S11313D05A40030A33409B009B46C3445B469B6AC6
S11313E05A402B0C33409B009B46E3445B469B6A6C
S11313F05A403140890051442D0EAD004D44896A54
S1131400AD6A6940FB695940240A3440A40044444D
S1131410A56A6940000C304080006044806A414005
S11314200398013804000390386A2037002C00D058
S11314301FE7019B079C7E4DAC4664446401059DF7
S1131440AC46A44464460594754CA046FF24029E11
S11314502640B6004644734DAC461D0EAD006544AF
S1131460B66AAD6A754068406F4DA9460D0A2540BD
S1131470AD004D44AD6A68406C4F150C2540AD007D
S11314807D19AD6A6840824625001D40AD00454483
S1131490100E80006044AD6A806A4540059840683B
S11314A04540029E300A204080004844806A4540FE
S11314B0080C204080003818806A4540AB4626005E
S11314C01640B6004644080E80006044B66A806A3E
S11314D04640059DA8684640180A204080004844BC
S11314E0806A46400298000C204080003818806AC8
S11314F07040214089004144029E360EB600664485
S1131500896AB66A7140EE687140120A22409200FC
S11315104A44966A71401B0C23409B00FF18BE6A24
S11315204E40B04652462240424B2833995C2A69C9
S113153051405A46120E9A5C12065140320A224019
S11315409A5C12025140020C22409A5C12045140EF
S113155022005E4632409F5C6A695740020E9A5CE4
S1131560120657405246120A22409A5C1202574011
S11315704246120C22409A5C120457402200024058
S11315809A5CAE69019656404246120E9A5C120667
S113159072405E46360A26409E5D360272405646CA
S11315A0360C26409E5D36047240464626409E5DBB
S11315B0ED696E4055462D0E5D5D2D066E40000AA8
S11315C02040185C000270405D462D0C2C401B5DD1
S11315D01B044340069C2170080A6070080CA0702C
S11315E0090EE1702771390A6171390CA1713F0E3E
S11315F0E7712272110A6172110CA172120EE27269
S113160023731A0A62731A0CA2731B0EE37300206D
S113161009B03CBC90469946A246AB46F0BDC046D4
S113162008190000081D000008210000082500001A
S1131630FFFFFF070839000010B51400012904D08A
S11316401A002100034B984710BD1A002100024BD9
S11316509847F9E7CD110000690D000010B50A00A4
S1131660024B1B680021984710BDC04600000020B3
S113167070B500260C4D0D4C641BA410A64209D174
S1131680002602F043FD0A4D0A4C641BA410A64236
S113169005D170BDB300EB5898470136EEE7B300AF
S11316A0EB5898470136F2E7184100001841000052
S11316B0184100001C41000010B5034B01001868DC
S11316C000F00CF810BDC04604000020030082188E
S11316D0934200D1704719700133F9E7032370B5C1
S11316E0CD1C9D43083506000C2D1ED20C25A942A5
S11316F01DD8300000F062F8254A14682100002942
S113170019D1244C2368002B03D1300000F044F895
S113171020602900300000F03FF8431C2CD10C233A
S11317203000336000F04BF803E0002DDFDA0C23C7
S11317303360002070BD0B685B1B1AD40B2B03D9DC
S11317400B60CC18256003E08C420ED163681360F3
S1131750300000F034F8200007220B30231D9043A2
S1131760C31AE7D05A42E250E4E74B6863600C00C6
S1131770EEE70C004968C2E70323C41C9C43A04263
S1131780E0D0211A300000F007F8431CDAD1C6E794
S1131790C0020020C4020020002370B5064C0500DE
S11317A008002360FEF702FE431C03D12368002BCC
S11317B000D02B6070BDC046E40200207047704723
S11317C02E2E2F68616C2F7372632F68616C5F66B5
S11317D06C6173682E6300002E2E2F68706C2F6E60
S11317E0766D6374726C2F68706C5F6E766D637463
S11317F0726C2E6300000000603DEB1015CA71BED0
S11318002B73AEF0857D778101000000020000009B
S11318100400000008000000100000002000000088
S113182040000000800000001B00000036000000A3
S1131830637C777BF26B6FC53001672BFED7AB7689
S1131840CA82C97DFA5947F0ADD4A2AF9CA472C034
S1131850B7FD9326363FF7CC34A5E5F171D83115A1
S113186004C723C31896059A071280E2EB27B275C2
S113187009832C1A1B6E5AA0523BD6B329E32F843A
S113188053D100ED20FCB15B6ACBBE394A4C58CF32
S1131890D0EFAAFB434D338545F9027F503C9FA806
S11318A051A3408F929D38F5BCB6DA2110FFF3D2D4
S11318B0CD0C13EC5F974417C4A77E3D645D197388
S11318C060814FDC222A908846EEB814DE5E0BDB82
S11318D0E0323A0A4906245CC2D3AC629195E479B9
S11318E0E7C8376D8DD54EA96C56F4EA657AAE0813
S11318F0BA78252E1CA6B4C6E8DD741F4BBD8B8AAE
S1131900703EB5664803F60E613557B986C11D9E13
S1131910E1F8981169D98E949B1E87E9CE5528DF8A
S11319208CA1890DBFE6426841992D0FB054BB16B6
S113193051F4A7507E4165531A17A4C33A275E9603
S11319403BAB6BCB1F9D45F1ACFA58AB4BE3039318
S11319502030FA55AD766DF688CC7691F5024C259B
S11319604FE5D7FCC52ACBD726354480B562A38F73
S1131970DEB15A4925BA1B6745EA0E985DFEC0E1FF
S1131980C32F7502814CF0128D4697A36BD3F9C611
S1131990038F5FE715929C95BF6D7AEB955259DAE8
S11319A0D4BE832D587421D349E069298EC9C84413
S11319B075C2896AF48E797899583E6B27B971DDBE
S11319C0BEE14FB6F088AD17C920AC667DCE3AB4FF
S11319D063DF4A18E51A31829751336062537F45B9
S11319E0B16477E0BB6BAE84FE81A01CF9082B9434
S11319F0704868588F45FD1994DE6C87527BF8B7A0
S1131A00AB73D323724B02E2E31F8F576655AB2AA5
S1131A10B2EB28072FB5C20386C57B9AD33708A536
S1131A20302887F223BFA5B202036ABAED16825C9E
S1131A308ACF1C2BA779B492F307F2F04E69E2A186
S1131A4065DAF4CD0605BED5D134621FC4A6FE8A7C
S1131A50342E539DA2F355A0058AE132A4F6EB750A
S1131A600B83EC394060EFAA5E719F06BD6E105186
S1131A703E218AF996DD063DDD3E05AE4DE6BD46C6
S1131A8091548DB571C45D050406D46F605015FF83
S1131A901998FB24D6BDE997894043CC67D99E7732
S1131AA0B0E842BD07898B88E7195B3879C8EEDB5B
S1131AB0A17C0A477C420FE9F8841EC9000000009B
S1131AC009808683322BED481E1170AC6C5A724E1D
S1131AD0FD0EFFFB0F8538563DAED51E362D39273A
S1131AE00A0FD964685CA6219B5B54D124362E3A34
S1131AF00C0A67B19357E70FB4EE96D21B9B919EE5
S1131B0080C0C54F61DC20A25A774B691C121A169B
S1131B10E293BA0AC0A02AE53C22E043121B171D37
S1131B200E090D0BF28BC7AD2DB6A8B9141EA9C8AA
S1131B3057F11985AF75074CEE99DDBBA37F60FDA6
S1131B40F701269F5C72F5BC44663BC55BFB7E34A3
S1131B508B432976CB23C6DCB6EDFC68B8E4F1638D
S1131B60D731DCCA426385101397224084C6112002
S1131B70854A247DD2BB3DF8AEF93211C729A16D47
S1131B801D9E2F4BDCB230F30D8652EC77C1E3D0AF
S1131B902BB3166CA970B999119448FA47E96422D9
S1131BA0A8FC8CC4A0F03F1A567D2CD8223390EFA9
S1131BB087494EC7D938D1C18CCAA2FE98D40B36F6
S1131BC0A6F581CFA57ADE28DAB78E263FADBFA46D
S1131BD02C3A9DE45078920D6A5FCC9B547E466209
S1131BE0F68D13C290D8B8E82E39F75E82C3AFF5EC
S1131BF09F5D80BE69D0937C6FD52DA9CF2512B38C
S1131C00C8AC993B10187DA7E89C636EDB3BBB7B9B
S1131C10CD2678096E5918F4EC9AB701834F9AA827
S1131C20E6956E65AAFFE67E21BCCF08EF15E8E6CF
S1131C30BAE79BD94A6F36CEEA9F09D429B07CD63D
S1131C4031A4B2AF2A3F2331C6A5943035A266C071
S1131C50744EBC37FC82CAA6E090D0B033A7D81526
S1131C60F104984A41ECDAF77FCD500E1791F62F24
S1131C70764DD68D43EFB04DCCAA4D54E49604DF97
S1131C809ED1B5E34C6A881BC12C1FB84665517FB1
S1131C909D5EEA04018C355DFA877473FB0B412E5B
S1131CA0B3671D5A92DBD252E91056336DD64713EF
S1131CB09AD7618C37A10C7A59F8148EEB133C89AE
S1131CC0CEA927EEB761C935E11CE5ED7A47B13CF1
S1131CD09CD2DF5955F2733F1814CE7973C737BFBE
S1131CE053F7CDEA5FFDAA5BDF3D6F147844DB86D2
S1131CF0CAAFF381B968C43E3824342CC2A3405F10
S1131D00161DC372BCE2250C283C498BFF0D95417E
S1131D1039A80171080CB3DED8B4E49C6456C190B0
S1131D207BCB8461D532B670486C5C74D0B85742B2
S1131D30F4A750514165537E17A4C31A275E963AFF
S1131D40AB6BCB3B9D45F11FFA58ABACE303934B14
S1131D5030FA5520766DF6ADCC769188024C25F597
S1131D60E5D7FC4F2ACBD7C53544802662A38FB56F
S1131D70B15A49DEBA1B6725EA0E9845FEC0E15DFB
S1131D802F7502C34CF012814697A38DD3F9C66B0D
S1131D908F5FE703929C95156D7AEBBF5259DA95E4
S1131DA0BE832DD47421D358E0692949C9C8448E0F
S1131DB0C2896A758E7978F4583E6B99B971DD27BA
S1131DC0E14FB6BE88AD17F020AC66C9CE3AB47DFB
S1131DD0DF4A18631A3182E551336097537F4562B5
S1131DE06477E0B16BAE84BB81A01CFE082B94F930
S1131DF04868587045FD198FDE6C87947BF8B7529C
S1131E0073D323AB4B02E2721F8F57E355AB2A66A1
S1131E10EB2807B2B5C2032FC57B9A863708A5D332
S1131E202887F230BFA5B223036ABA0216825CED9A
S1131E30CF1C2B8A79B492A707F2F0F369E2A14E82
S1131E40DAF4CD6505BED50634621FD1A6FE8AC478
S1131E502E539D34F355A0A28AE13205F6EB75A406
S1131E6083EC390B60EFAA40719F065E6E1051BD82
S1131E70218AF93EDD063D963E05AEDDE6BD464DC2
S1131E80548DB591C45D057106D46F045015FF607F
S1131E9098FB2419BDE997D64043CC89D99E77672E
S1131EA0E842BDB0898B8807195B38E7C8EEDB7957
S1131EB07C0A47A1420FE97C841EC9F80000000097
S1131EC0808683092BED48321170AC1E5A724E6C19
S1131ED00EFFFBFD8538560FAED51E3D2D39273636
S1131EE00FD9640A5CA621685B54D19B362E3A2430
S1131EF00A67B10C57E70F93EE96D2B49B919E1BE1
S1131F00C0C54F80DC20A261774B695A121A161C97
S1131F1093BA0AE2A02AE5C022E0433C1B171D1233
S1131F20090D0B0E8BC7ADF2B6A8B92D1EA9C814A6
S1131F30F119855775074CAF99DDBBEE7F60FDA3A2
S1131F4001269FF772F5BC5C663BC544FB7E345B9F
S1131F504329768B23C6DCCBEDFC68B6E4F163B889
S1131F6031DCCAD76385104297224013C6112084FE
S1131F704A247D85BB3DF8D2F93211AE29A16DC743
S1131F809E2F4B1DB230F3DC8652EC0DC1E3D077AB
S1131F90B3166C2B70B999A99448FA11E9642247D5
S1131FA0FC8CC4A8F03F1AA07D2CD8563390EF22A5
S1131FB0494EC78738D1C1D9CAA2FE8CD40B3698F2
S1131FC0F581CFA67ADE28A5B78E26DAADBFA43F69
S1131FD03A9DE42C78920D505FCC9B6A7E46625405
S1131FE08D13C2F6D8B8E89039F75E2EC3AFF582E8
S1131FF05D80BE9FD0937C69D52DA96F2512B3CF88
S1132000AC993BC8187DA7109C636EE83BBB7BDB97
S1132010267809CD5918F46E9AB701EC4F9AA88323
S1132020956E65E6FFE67EAABCCF082115E8E6EFCB
S1132030E79BD9BA6F36CE4A9F09D4EAB07CD62939
S1132040A4B2AF313F23312AA59430C6A266C0356D
S11320504EBC377482CAA6FC90D0B0E0A7D8153322
S113206004984AF1ECDAF741CD500E7F91F62F1720
S11320704DD68D76EFB04D43AA4D54CC9604DFE493
S1132080D1B5E39E6A881B4C2C1FB8C165517F46AD
S11320905EEA049D8C355D01877473FA0B412EFB57
S11320A0671D5AB3DBD25292105633E9D647136DEB
S11320B0D7618C9AA10C7A37F8148E59133C89EBAA
S11320C0A927EECE61C935B71CE5EDE147B13C7AED
S11320D0D2DF599CF2733F5514CE7918C737BF73BA
S11320E0F7CDEA53FDAA5B5F3D6F14DF44DB8678CE
S11320F0AFF381CA68C43EB924342C38A3405FC20C
S11321001DC37216E2250CBC3C498B280D9541FF7A
S1132110A80171390CB3DE08B4E49CD856C19064AC
S1132120CB84617B32B670D56C5C7448B85742D0AE
S11321305051F4A7537E4165C31A17A4963A275EFB
S1132140CB3BAB6BF11F9D45ABACFA58934BE30310
S1132150552030FAF6AD766D9188CC7625F5024C93
S1132160FC4FE5D7D7C52ACB802635448FB562A36B
S113217049DEB15A6725BA1B9845EA0EE15DFEC0F7
S113218002C32F7512814CF0A38D4697C66BD3F909
S1132190E7038F5F9515929CEBBF6D7ADA955259E0
S11321A02DD4BE83D35874212949E069448EC9C80B
S11321B06A75C28978F48E796B99583EDD27B971B6
S11321C0B6BEE14F17F088AD66C920ACB47DCE3AF7
S11321D01863DF4A82E51A31609751334562537FB1
S11321E0E0B1647784BB6BAE1CFE81A094F9082B2C
S11321F058704868198F45FD8794DE6CB7527BF898
S113220023AB73D3E2724B0257E31F8F2A6655AB9D
S113221007B2EB28032FB5C29A86C57BA5D337082E
S1132220F2302887B223BFA5BA02036A5CED168296
S11322302B8ACF1C92A779B4F0F307F2A14E69E27E
S1132240CD65DAF4D50605BE1FD134628AC4A6FE74
S11322509D342E53A0A2F35532058AE175A4F6EB02
S1132260390B83ECAA4060EF065E719F51BD6E107E
S1132270F93E218A3D96DD06AEDD3E05464DE6BDBE
S1132280B591548D0571C45D6F0406D4FF6050157B
S1132290241998FB97D6BDE9CC8940437767D99E2A
S11322A0BDB0E8428807898B38E7195BDB79C8EE53
S11322B047A17C0AE97C420FC9F8841E0000000093
S11322C08309808648322BEDAC1E11704E6C5A7215
S11322D0FBFD0EFF560F85381E3DAED527362D3932
S11322E0640A0FD921685CA6D19B5B543A24362E2C
S11322F0B10C0A670F9357E7D2B4EE969E1B9B91DD
S11323004F80C0C5A261DC20695A774B161C121A93
S11323100AE293BAE5C0A02A433C22E01D121B172F
S11323200B0E090DADF28BC7B92DB6A8C8141EA9A2
S11323308557F1194CAF7507BBEE99DDFDA37F609E
S11323409FF70126BC5C72F5C544663B345BFB7E9B
S1132350768B4329DCCB23C668B6EDFC63B8E4F185
S1132360CAD731DC10426385401397222084C611FA
S11323707D854A24F8D2BB3D11AEF9326DC729A13F
S11323804B1D9E2FF3DCB230EC0D8652D077C1E3A7
S11323906C2BB31699A970B9FA1194482247E964D1
S11323A0C4A8FC8C1AA0F03FD8567D2CEF223390A1
S11323B0C787494EC1D938D1FE8CCAA23698D40BEE
S11323C0CFA6F58128A57ADE26DAB78EA43FADBF65
S11323D0E42C3A9D0D5078929B6A5FCC62547E4601
S11323E0C2F68D13E890D8B85E2E39F7F582C3AFE4
S11323F0BE9F5D807C69D093A96FD52DB3CF251284
S11324003BC8AC99A710187D6EE89C637BDB3BBB93
S113241009CD2678F46E591801EC9AB7A8834F9A1F
S113242065E6956E7EAAFFE60821BCCFE6EF15E8C7
S1132430D9BAE79BCE4A6F36D4EA9F09D629B07C35
S1132440AF31A4B2312A3F2330C6A594C035A26669
S113245037744EBCA6FC82CAB0E090D01533A7D81E
S11324604AF10498F741ECDA0E7FCD502F1791F61C
S11324708D764DD64D43EFB054CCAA4DDFE496048F
S1132480E39ED1B51B4C6A88B8C12C1F7F466551A9
S1132490049D5EEA5D018C3573FA87742EFB0B4153
S11324A05AB3671D5292DBD233E91056136DD647E7
S11324B08C9AD7617A37A10C8E59F81489EB133CA6
S11324C0EECEA92735B761C9EDE11CE53C7A47B1E9
S11324D0599CD2DF3F55F273791814CEBF73C737B6
S11324E0EA53F7CD5B5FFDAA14DF3D6F867844DBCA
S11324F081CAAFF33EB968C42C3824345FC2A34008
S113250072161DC30CBCE2258B283C4941FF0D9576
S11325107139A801DE080CB39CD8B4E4906456C1A8
S1132520617BCB8470D532B674486C5C42D0B857AA
S1132530A75051F465537E41A4C31A175E963A27F7
S11325406BCB3BAB45F11F9D58ABACFA03934BE30C
S1132550FA5520306DF6AD76769188CC4C25F5028F
S1132560D7FC4FE5CBD7C52A44802635A38FB56267
S11325705A49DEB11B6725BA0E9845EAC0E15DFEF3
S11325807502C32FF012814C97A38D46F9C66BD305
S11325905FE7038F9C9515927AEBBF6D59DA9552DC
S11325A0832DD4BE21D35874692949E0C8448EC907
S11325B0896A75C27978F48E3E6B995871DD27B9B2
S11325C04FB6BEE1AD17F088AC66C9203AB47DCEF3
S11325D04A1863DF3182E51A336097517F456253AD
S11325E077E0B164AE84BB6BA01CFE812B94F90828
S11325F068587048FD198F456C8794DEF8B7527B94
S1132600D323AB7302E2724B8F57E31FAB2A665599
S11326102807B2EBC2032FB57B9A86C508A5D3372A
S113262087F23028A5B223BF6ABA0203825CED1692
S11326301C2B8ACFB492A779F2F0F307E2A14E697A
S1132640F4CD65DABED50605621FD134FE8AC4A670
S1132650539D342E55A0A2F3E132058AEB75A4F6FE
S1132660EC390B83EFAA40609F065E711051BD6E7A
S11326708AF93E21063D96DD05AEDD3EBD464DE6BA
S11326808DB591545D0571C4D46F040615FF605077
S1132690FB241998E997D6BD43CC89409E7767D926
S11326A042BDB0E88B8807895B38E719EEDB79C84F
S11326B00A47A17C0FE97C421EC9F884000000008F
S11326C086830980ED48322B70AC1E11724E6C5A11
S11326D0FFFBFD0E38560F85D51E3DAE3927362D2E
S11326E0D9640A0FA621685C54D19B5B2E3A243628
S11326F067B10C0AE70F935796D2B4EE919E1B9BD9
S1132700C54F80C020A261DC4B695A771A161C128F
S1132710BA0AE2932AE5C0A0E0433C22171D121B2B
S11327200D0B0E09C7ADF28BA8B92DB6A9C8141E9E
S1132730198557F1074CAF75DDBBEE9960FDA37F9A
S1132740269FF701F5BC5C723BC544667E345BFB97
S113275029768B43C6DCCB23FC68B6EDF163B8E481
S1132760DCCAD7318510426322401397112084C6F6
S1132770247D854A3DF8D2BB3211AEF9A16DC7293B
S11327802F4B1D9E30F3DCB252EC0D86E3D077C1A3
S1132790166C2BB3B999A97048FA1194642247E9CD
S11327A08CC4A8FC3F1AA0F02CD8567D90EF22339D
S11327B04EC78749D1C1D938A2FE8CCA0B3698D4EA
S11327C081CFA6F5DE28A57A8E26DAB7BFA43FAD61
S11327D09DE42C3A920D5078CC9B6A5F4662547EFD
S11327E013C2F68DB8E890D8F75E2E39AFF582C3E0
S11327F080BE9F5D937C69D02DA96FD512B3CF2580
S1132800993BC8AC7DA71018636EE89CBB7BDB3B8F
S11328107809CD2618F46E59B701EC9A9AA8834F1B
S11328206E65E695E67EAAFFCF0821BCE8E6EF15C3
S11328309BD9BAE736CE4A6F09D4EA9F7CD629B031
S1132840B2AF31A423312A3F9430C6A566C035A265
S1132850BC37744ECAA6FC82D0B0E090D81533A71A
S1132860984AF104DAF741EC500E7FCDF62F179118
S1132870D68D764DB04D43EF4D54CCAA04DFE4968B
S1132880B5E39ED1881B4C6A1FB8C12C517F4665A5
S1132890EA049D5E355D018C7473FA87412EFB0B4F
S11328A01D5AB367D25292DB5633E91047136DD6E3
S11328B0618C9AD70C7A37A1148E59F83C89EB13A2
S11328C027EECEA9C935B761E5EDE11CB13C7A47E5
S11328D0DF599CD2733F55F2CE79181437BF73C7B2
S11328E0CDEA53F7AA5B5FFD6F14DF3DDB867844C6
S11328F0F381CAAFC43EB968342C3824405FC2A304
S1132900C372161D250CBCE2498B283C9541FF0D72
S1132910017139A8B3DE080CE49CD8B4C1906456A4
S113292084617BCBB670D5325C74486C5742D0B8A6
S1132930C66363A5F87C7C84EE777799F67B7B8D00
S1132940FFF2F20DD66B6BBDDE6F6FB191C5C5544E
S11329506030305002010103CE6767A9562B2B7DEE
S1132960E7FEFE19B5D7D7624DABABE6EC76769AA7
S11329708FCACA451F82829D89C9C940FA7D7D8755
S1132980EFFAFA15B25959EB8E4747C9FBF0F00B31
S113299041ADADECB3D4D4675FA2A2FD45AFAFEABD
S11329A0239C9CBF53A4A4F7E47272969BC0C05BA3
S11329B075B7B7C2E1FDFD1C3D9393AE4C26266A64
S11329C06C36365A7E3F3F41F5F7F70283CCCC4F45
S11329D06834345C51A5A5F4D1E5E534F9F1F10886
S11329E0E2717193ABD8D873623131532A15153F14
S11329F00804040C95C7C752462323659DC3C35ED0
S1132A0030181828379696A10A05050F2F9A9AB5FB
S1132A100E070709241212361B80809BDFE2E23D79
S1132A20CDEBEB264E2727697FB2B2CDEA75759FB1
S1132A301209091B1D83839E582C2C74341A1A2ED8
S1132A40361B1B2DDC6E6EB2B45A5AEE5BA0A0FB93
S1132A50A45252F6763B3B4DB7D6D6617DB3B3CE86
S1132A605229297BDDE3E33E5E2F2F711384849783
S1132A70A65353F5B9D1D16800000000C1EDED2C87
S1132A8040202060E3FCFC1F79B1B1C8B65B5BED6C
S1132A90D46A6ABE8DCBCB4667BEBED97239394B78
S1132AA0944A4ADE984C4CD4B05858E885CFCF4A63
S1132AB0BBD0D06BC5EFEF2A4FAAAAE5EDFBFB16FE
S1132AC0864343C59A4D4DD7663333551185859456
S1132AD08A4545CFE9F9F91004020206FE7F7F8199
S1132AE0A05050F0783C3C44259F9FBA4BA8A8E3E3
S1132AF0A25151F35DA3A3FE804040C0058F8F8A8D
S1132B003F9292AD219D9DBC70383848F1F5F50493
S1132B1063BCBCDF77B6B6C1AFDADA754221216394
S1132B2020101030E5FFFF1AFDF3F30EBFD2D26D73
S1132B3081CDCD4C180C0C1426131335C3ECEC2F9B
S1132B40BE5F5FE1359797A2884444CC2E171739AE
S1132B5093C4C45755A7A7F2FC7E7E827A3D3D47B5
S1132B60C86464ACBA5D5DE73219192BE6737395DA
S1132B70C06060A0198181989E4F4FD1A3DCDC7F97
S1132B8044222266542A2A7E3B9090AB0B88888389
S1132B908C4646CAC7EEEE296BB8B8D32814143C49
S1132BA0A7DEDE79BC5E5EE2160B0B1DADDBDB76C9
S1132BB0DBE0E03B64323256743A3A4E140A0A1EA1
S1132BC0924949DB0C06060A4824246CB85C5CE490
S1132BD09FC2C25DBDD3D36E43ACACEFC46262A6E8
S1132BE0399191A8319595A4D3E4E437F279798B9E
S1132BF0D5E7E7328BC8C8436E373759DA6D6DB7FE
S1132C00018D8D8CB1D5D5649C4E4ED249A9A9E0D5
S1132C10D86C6CB4AC5656FAF3F4F407CFEAEA2550
S1132C20CA6565AFF47A7A8E47AEAEE91008081823
S1132C306FBABAD5F07878884A25256F5C2E2E7243
S1132C40381C1C2457A6A6F173B4B4C797C6C65142
S1132C50CBE8E823A1DDDD7CE874749C3E1F1F21D2
S1132C60964B4BDD61BDBDDC0D8B8B860F8A8A854F
S1132C70E07070907C3E3E4271B5B5C4CC6666AAE5
S1132C80904848D806030305F7F6F6011C0E0E1209
S1132C90C26161A36A35355FAE5757F969B9B9D0D6
S1132CA01786869199C1C1583A1D1D27279E9EB942
S1132CB0D9E1E138EBF8F8132B9898B322111133CA
S1132CC0D26969BBA9D9D970078E8E89339494A728
S1132CD02D9B9BB63C1E1E2215878792C9E9E920CD
S1132CE087CECE49AA5555FF50282878A5DFDF7A2C
S1132CF0038C8C8F59A1A1F8098989801A0D0D17AD
S1132D0065BFBFDAD7E6E631844242C6D06868B808
S1132D10824141C3299999B05A2D2D771E0F0F1165
S1132D207BB0B0CBA85454FC6DBBBBD62C16163A62
S1132D306363A5C67C7C84F8777799EE7B7B8DF6FC
S1132D40F2F20DFF6B6BBDD66F6FB1DEC5C554914A
S1132D5030305060010103026767A9CE2B2B7D56EA
S1132D60FEFE19E7D7D762B5ABABE64D76769AECA3
S1132D70CACA458F82829D1FC9C940897D7D87FA51
S1132D80FAFA15EF5959EBB24747C98EF0F00BFB2D
S1132D90ADADEC41D4D467B3A2A2FD5FAFAFEA45B9
S1132DA09C9CBF23A4A4F753727296E4C0C05B9B9F
S1132DB0B7B7C275FDFD1CE19393AE3D26266A4C60
S1132DC036365A6C3F3F417EF7F702F5CCCC4F8341
S1132DD034345C68A5A5F451E5E534D1F1F108F982
S1132DE0717193E2D8D873AB3131536215153F2A10
S1132DF004040C08C7C7529523236546C3C35E9DCC
S1132E00181828309696A13705050F0A9A9AB52FF7
S1132E100707090E1212362480809B1BE2E23DDF75
S1132E20EBEB26CD2727694EB2B2CD7F75759FEAAD
S1132E3009091B1283839E1D2C2C74581A1A2E34D4
S1132E401B1B2D366E6EB2DC5A5AEEB4A0A0FB5B8F
S1132E505252F6A43B3B4D76D6D661B7B3B3CE7D82
S1132E6029297B52E3E33EDD2F2F715E848497137F
S1132E705353F5A6D1D168B900000000EDED2CC183
S1132E8020206040FCFC1FE3B1B1C8795B5BEDB668
S1132E906A6ABED4CBCB468DBEBED96739394B7274
S1132EA04A4ADE944C4CD4985858E8B0CFCF4A855F
S1132EB0D0D06BBBEFEF2AC5AAAAE54FFBFB16EDFA
S1132EC04343C5864D4DD79A333355668585941152
S1132ED04545CF8AF9F910E9020206047F7F81FE95
S1132EE05050F0A03C3C44789F9FBA25A8A8E34BDF
S1132EF05151F3A2A3A3FE5D4040C0808F8F8A0589
S1132F009292AD3F9D9DBC2138384870F5F504F18F
S1132F10BCBCDF63B6B6C177DADA75AF2121634290
S1132F2010103020FFFF1AE5F3F30EFDD2D26DBF6F
S1132F30CDCD4C810C0C141813133526ECEC2FC397
S1132F405F5FE1BE9797A2354444CC881717392EAA
S1132F50C4C45793A7A7F2557E7E82FC3D3D477AB1
S1132F606464ACC85D5DE7BA19192B32737395E6D6
S1132F706060A0C0818198194F4FD19EDCDC7FA393
S1132F80222266442A2A7E549090AB3B8888830B85
S1132F904646CA8CEEEE29C7B8B8D36B14143C2845
S1132FA0DEDE79A75E5EE2BC0B0B1D16DBDB76ADC5
S1132FB0E0E03BDB323256643A3A4E740A0A1E149D
S1132FC04949DB9206060A0C24246C485C5CE4B88C
S1132FD0C2C25D9FD3D36EBDACACEF436262A6C4E4
S1132FE09191A8399595A431E4E437D379798BF29A
S1132FF0E7E732D5C8C8438B3737596E6D6DB7DAFA
S11330008D8D8C01D5D564B14E4ED29CA9A9E049D1
S11330106C6CB4D85656FAACF4F407F3EAEA25CF4C
S11330206565AFCA7A7A8EF4AEAEE947080818101F
S1133030BABAD56F787888F025256F4A2E2E725C3F
S11330401C1C2438A6A6F157B4B4C773C6C651973E
S1133050E8E823CBDDDD7CA174749CE81F1F213ECE
S11330604B4BDD96BDBDDC618B8B860D8A8A850F4B
S1133070707090E03E3E427CB5B5C4716666AACCE1
S11330804848D89003030506F6F601F70E0E121C05
S11330906161A3C235355F6A5757F9AEB9B9D069D2
S11330A086869117C1C158991D1D273A9E9EB9273E
S11330B0E1E138D9F8F813EB9898B32B11113322C6
S11330C06969BBD2D9D970A98E8E89079494A73324
S11330D09B9BB62D1E1E223C87879215E9E920C9C9
S11330E0CECE49875555FFAA28287850DFDF7AA528
S11330F08C8C8F03A1A1F859898980090D0D171AA9
S1133100BFBFDA65E6E631D74242C6846868B8D004
S11331104141C3829999B0292D2D775A0F0F111E61
S1133120B0B0CB7B5454FCA8BBBBD66D16163A2C5E
S1133130A5C6636384F87C7C99EE77778DF67B7BF8
S11331400DFFF2F2BDD66B6BB1DE6F6F5491C5C546
S11331505060303003020101A9CE67677D562B2BE6
S113316019E7FEFE62B5D7D7E64DABAB9AEC76769F
S1133170458FCACA9D1F82824089C9C987FA7D7D4D
S113318015EFFAFAEBB25959C98E47470BFBF0F029
S1133190EC41ADAD67B3D4D4FD5FA2A2EA45AFAFB5
S11331A0BF239C9CF753A4A496E472725B9BC0C09B
S11331B0C275B7B71CE1FDFDAE3D93936A4C26265C
S11331C05A6C3636417E3F3F02F5F7F74F83CCCC3D
S11331D05C683434F451A5A534D1E5E508F9F1F17E
S11331E093E2717173ABD8D8536231313F2A15150C
S11331F00C0804045295C7C7654623235E9DC3C3C8
S113320028301818A13796960F0A0505B52F9A9AF3
S1133210090E0707362412129B1B80803DDFE2E271
S113322026CDEBEB694E2727CD7FB2B29FEA7575A9
S11332301B1209099E1D838374582C2C2E341A1AD0
S11332402D361B1BB2DC6E6EEEB45A5AFB5BA0A08B
S1133250F6A452524D763B3B61B7D6D6CE7DB3B37E
S11332607B5229293EDDE3E3715E2F2F971384847B
S1133270F5A6535368B9D1D1000000002CC1EDED7F
S1133280604020201FE3FCFCC879B1B1EDB65B5B64
S1133290BED46A6A468DCBCBD967BEBE4B72393970
S11332A0DE944A4AD4984C4CE8B058584A85CFCF5B
S11332B06BBBD0D02AC5EFEFE54FAAAA16EDFBFBF6
S11332C0C5864343D79A4D4D55663333941185854E
S11332D0CF8A454510E9F9F90604020281FE7F7F91
S11332E0F0A0505044783C3CBA259F9FE34BA8A8DB
S11332F0F3A25151FE5DA3A3C08040408A058F8F85
S1133300AD3F9292BC219D9D4870383804F1F5F58B
S1133310DF63BCBCC177B6B675AFDADA634221218C
S1133320302010101AE5FFFF0EFDF3F36DBFD2D26B
S11333304C81CDCD14180C0C352613132FC3ECEC93
S1133340E1BE5F5FA2359797CC884444392E1717A6
S11333505793C4C4F255A7A782FC7E7E477A3D3DAD
S1133360ACC86464E7BA5D5D2B32191995E67373D2
S1133370A0C0606098198181D19E4F4F7FA3DCDC8F
S1133380664422227E542A2AAB3B9090830B888881
S1133390CA8C464629C7EEEED36BB8B83C28141441
S11333A079A7DEDEE2BC5E5E1D160B0B76ADDBDBC1
S11333B03BDBE0E0566432324E743A3A1E140A0A99
S11333C0DB9249490A0C06066C482424E4B85C5C88
S11333D05D9FC2C26EBDD3D3EF43ACACA6C46262E0
S11333E0A8399191A431959537D3E4E48BF2797996
S11333F032D5E7E7438BC8C8596E3737B7DA6D6DF6
S11334008C018D8D64B1D5D5D29C4E4EE049A9A9CD
S1133410B4D86C6CFAAC565607F3F4F425CFEAEA48
S1133420AFCA65658EF47A7AE947AEAE181008081B
S1133430D56FBABA88F078786F4A2525725C2E2E3B
S113344024381C1CF157A6A6C773B4B45197C6C63A
S113345023CBE8E87CA1DDDD9CE87474213E1F1FCA
S1133460DD964B4BDC61BDBD860D8B8B850F8A8A47
S113347090E07070427C3E3EC471B5B5AACC6666DD
S1133480D89048480506030301F7F6F6121C0E0E01
S1133490A3C261615F6A3535F9AE5757D069B9B9CE
S11334A0911786865899C1C1273A1D1DB9279E9E3A
S11334B038D9E1E113EBF8F8B32B989833221111C2
S11334C0BBD2696970A9D9D989078E8EA733949420
S11334D0B62D9B9B223C1E1E9215878720C9E9E9C5
S11334E04987CECEFFAA5555785028287AA5DFDF24
S11334F08F038C8CF859A1A180098989171A0D0DA5
S1133500DA65BFBF31D7E6E6C6844242B8D0686800
S1133510C3824141B0299999775A2D2D111E0F0F5D
S1133520CB7BB0B0FCA85454D66DBBBB3A2C16165A
S113353063A5C6637C84F87C7799EE777B8DF67BF4
S1133540F20DFFF26BBDD66B6FB1DE6FC55491C542
S1133550305060300103020167A9CE672B7D562BE2
S1133560FE19E7FED762B5D7ABE64DAB769AEC769B
S1133570CA458FCA829D1F82C94089C97D87FA7D49
S1133580FA15EFFA59EBB25947C98E47F00BFBF025
S1133590ADEC41ADD467B3D4A2FD5FA2AFEA45AFB1
S11335A09CBF239CA4F753A47296E472C05B9BC097
S11335B0B7C275B7FD1CE1FD93AE3D93266A4C2658
S11335C0365A6C363F417E3FF702F5F7CC4F83CC39
S11335D0345C6834A5F451A5E534D1E5F108F9F17A
S11335E07193E271D873ABD831536231153F2A1508
S11335F0040C0804C75295C723654623C35E9DC3C4
S11336001828301896A13796050F0A059AB52F9AEF
S113361007090E0712362412809B1B80E23DDFE26D
S1133620EB26CDEB27694E27B2CD7FB2759FEA75A5
S1133630091B1209839E1D832C74582C1A2E341ACC
S11336401B2D361B6EB2DC6E5AEEB45AA0FB5BA087
S113365052F6A4523B4D763BD661B7D6B3CE7DB37A
S1133660297B5229E33EDDE32F715E2F8497138477
S113367053F5A653D168B9D100000000ED2CC1ED7B
S113368020604020FC1FE3FCB1C879B15BEDB65B60
S11336906ABED46ACB468DCBBED967BE394B72396C
S11336A04ADE944A4CD4984C58E8B058CF4A85CF57
S11336B0D06BBBD0EF2AC5EFAAE54FAAFB16EDFBF2
S11336C043C586434DD79A4D33556633859411854A
S11336D045CF8A45F910E9F9020604027F81FE7F8D
S11336E050F0A0503C44783C9FBA259FA8E34BA8D7
S11336F051F3A251A3FE5DA340C080408F8A058F81
S113370092AD3F929DBC219D38487038F504F1F587
S1133710BCDF63BCB6C177B6DA75AFDA2163422188
S113372010302010FF1AE5FFF30EFDF3D26DBFD267
S1133730CD4C81CD0C14180C13352613EC2FC3EC8F
S11337405FE1BE5F97A2359744CC884417392E17A2
S1133750C45793C4A7F255A77E82FC7E3D477A3DA9
S113376064ACC8645DE7BA5D192B32197395E673CE
S113377060A0C060819819814FD19E4FDC7FA3DC8B
S1133780226644222A7E542A90AB3B9088830B887D
S113379046CA8C46EE29C7EEB8D36BB8143C28143D
S11337A0DE79A7DE5EE2BC5E0B1D160BDB76ADDBBD
S11337B0E03BDBE0325664323A4E743A0A1E140A95
S11337C049DB9249060A0C06246C48245CE4B85C84
S11337D0C25D9FC2D36EBDD3ACEF43AC62A6C462DC
S11337E091A8399195A43195E437D3E4798BF27992
S11337F0E732D5E7C8438BC837596E376DB7DA6DF2
S11338008D8C018DD564B1D54ED29C4EA9E049A9C9
S11338106CB4D86C56FAAC56F407F3F4EA25CFEA44
S113382065AFCA657A8EF47AAEE947AE0818100817
S1133830BAD56FBA7888F078256F4A252E725C2E37
S11338401C24381CA6F157A6B4C773B4C65197C636
S1133850E823CBE8DD7CA1DD749CE8741F213E1FC6
S11338604BDD964BBDDC61BD8B860D8B8A850F8A43
S11338707090E0703E427C3EB5C471B566AACC66D9
S113388048D8904803050603F601F7F60E121C0EFD
S113389061A3C261355F6A3557F9AE57B9D069B9CA
S11338A086911786C15899C11D273A1D9EB9279E36
S11338B0E138D9E1F813EBF898B32B9811332211BE
S11338C069BBD269D970A9D98E89078E94A733941C
S11338D09BB62D9B1E223C1E87921587E920C9E9C1
S11338E0CE4987CE55FFAA5528785028DF7AA5DF20
S11338F08C8F038CA1F859A1898009890D171A0DA1
S1133900BFDA65BFE631D7E642C6844268B8D068FC
S113391041C3824199B029992D775A2D0F111E0F59
S1133920B0CB7BB054FCA854BBD66DBB163A2C1656
S113393052096AD53036A538BF40A39E81F3D7FB20
S11339407CE339829B2FFF87348E4344C4DEE9CB6A
S1133950547B9432A6C2233DEE4C950B42FAC34EDF
S1133960082EA16628D924B2765BA2496D8BD12595
S113397072F8F66486689816D4A45CCC5D65B69239
S11339806C704850FDEDB9DA5E154657A78D9D84DD
S113399090D8AB008CBCD30AF7E45805B8B34506FD
S11339A0D02C1E8FCA3F0F02C1AFBD0301138A6B17
S11339B03A9111414F67DCEA97F2CFCEF0B4E67347
S11339C096AC7422E7AD3585E2F937E81C75DF6EF5
S11339D047F11A711D29C5896FB7620EAA18BE1B5B
S11339E0FC563E4BC6D279209ADBC0FE78CD5AF401
S11339F01FDDA8338807C731B11210592780EC5F47
S1133A0060517FA919B54A0D2DE57A9F93C99CEFA2
S1133A10A0E03B4DAE2AF5B0C8EBBB3C83539961A3
S1133A20172B047EBA77D626E169146355210C7DE1
S1133A306BC1BEE22E409F96E93D7E117393172A17
S1133A40AE2D8A571E03AC9C9EB76FAC45AF8E510A
S1133A5030C81C46A35CE411E5FBC1191A0A52EFF5
S1133A60F69F2445DF4F9B17AD2B417BE66C371047
S1133A706BC1BEE22E409F96E93D7E117393172AD7
S1133A80AE2D8A571E03AC9C9EB76FAC45AF8E51CA
S1133A9030C81C46A35CE411E5FBC1191A0A52EFB5
S1133AA0F69F2445DF4F9B17AD2B417BE66C371007
S1133AB044416AC2D1F53C583303917E6BE9EBE093
S1133AC048E31E9E256718F29229319C19F15BA4E4
S1133AD0058CCFFDBBCB382D1F6F56585D8A4ADE4F
S1133AE0C34C052CC0DA8D73451AFE5F03BE297FD3
S1133AF0F3F6752AE8D7831138F041560631B1142C
S1133B008B79EECC93A0EE5DFF30B4EA21636DA413
S1133B10FACA37E0B0C85373DF706E73F7C9AF8663
S1133B205DF678DD17BA4E75B61768C6ADEF7C7BC7
S1133B304804E1818FE6297519A3E88C57310413F1
S1133B408A05FC5E095AF4848A08D328D3688E3D1A
S1133B507BD966D53AD8C1BB85D2ADFAE87BB1042E
S1133B60FE3C53653E2F45B56FCD88B2CC898FF0AE
S1133B70000102030405060708090A0B0C0D0E0FC9
S1133B802B7E151628AED2A6ABF7158809CF4F3C6D
S1133B900000000000000000000000000000000021
S1133BA08E73B0F7DA0E6452C810F32B809079E567
S1133BB062F8EAD2522C6B7B000000000000000087
S1133BC0603DEB1015CA71BE2B73AEF0857D778115
S1133BD01F352C073B6108D72D9810A30914DFF477
S1133BE03B3FD92EB72DAD20333449F8E83CFB4A8E
S1133BF0C8A64537A0B3A93FCDE3CDAD9F1CE58B47
S1133C0026751F67A3CBB140B1808CF187A4F4DF84
S1133C10C04B05357C5D1C0EEAC4C66F9FF7F2E607
S1133C20CDC80D6FDDF18CAB34C25909C99A41740A
S1133C3067CE7F7F81173621961A2B70171D3D7A28
S1133C402E1E8A1DD59B88B1C8E60FED1EFAC4C985
S1133C50C05F9F9CA9834FA042AE8FBA584B09FF07
S1133C60DC7E84BFDA79164B7ECD8486985D38601D
S1133C7039FFED143B28B1C832113C6331E5407B78
S1133C80DF10132415E54B92A13ED0A8267AE2F961
S1133C9075A385741AB9CEF82031623D55B1E4712B
S1133CA0000102030405060708090A0B0C0D0E0F98
S1133CB02B7E151628AED2A6ABF7158809CF4F3C3C
S1133CC000000000000000000000000000000000F0
S1133CD08E73B0F7DA0E6452C810F32B809079E536
S1133CE062F8EAD2522C6B7B000000000000000056
S1133CF0603DEB1015CA71BE2B73AEF0857D7781E4
S1133D001F352C073B6108D72D9810A30914DFF445
S1133D103B3FD92EB72DAD20333449F8E83CFB4A5C
S1133D207789508D16918F03F53C52DAC54ED8250C
S1133D309740051E9C5FECF64344F7A82260EDCC47
S1133D40304C6528F659C77866A510D9C1D6AE5E41
S1133D50CDC80D6FDDF18CAB34C25909C99A4174D9
S1133D60FCC28B8D4C63837C09E81700C1100401ED
S1133D708D9A9AEAC0F6596F559C6D4DAF59A5F2CC
S1133D806D9F200857CA6C3E9CAC524BD9ACC92AD3
S1133D90DC7E84BFDA79164B7ECD8486985D3860EC
S1133DA04FEBDC6740D20B3AC88F6AD82A4FB08DEC
S1133DB071AB47A086E86EEDF39D1C5BBA97C4080F
S1133DC00126141D67F37BE8538F5A8BE740E48484
S1133DD000000030000000000000000000000001AE
S1133DE0006CB6DBC0543B59DA48D90B0000000123
S1133DF000E0017B27777F3F4A1786F0000000012F
S1133E00AE6852F8121067CC4BF7A5765577F39E3F
S1133E107E24067817FAE0D743D6CE1F3253916337
S1133E207691BE035E5020A8AC6E618529F9A0DCB2
S1133E30100000002000000024000000E4095D4F91
S1133E40B7A7B3792D6175A3261311B8000000003C
S1133E50000000000000000000000000000000005E
S1133E600000000000000000000000005104A10652
S1133E70168A72D9790D41EE8EDAD388EB2E1EFCA8
S1133E8046DA57C8FCE630DF9141BE280000000046
S1133E90000000000000000000000000C1CF48A89E
S1133EA09F2FFDD9CF4652E9EFDB72D74540A42BB3
S1133EB0DE6D7836D59A5CEAAEF3105325B2072F3F
S1133EC000000000000000000000000053696E675D
S1133ED06C6520626C6F636B206D7367000000007B
S1133EE000000000000000000000000000000000CE
S1133EF000000000000000000000000000010203B8
S1133F000405060708090A0B0C0D0E0F10111213F5
S1133F101415161718191A1B1C1D1E1F000000006B
S1133F200000000000000000000000000001020387
S1133F300405060708090A0B0C0D0E0F10111213C5
S1133F401415161718191A1B1C1D1E1F20212223B5
S1133F50000000000000000000000000000000005D
S1133F60000000000000000000000000000000004D
S1133F7000000000000000000000000011111111F9
S1133F8011111111111111111111111122222222D9
S1133F90222222222222222222222222FFFEFDFC8F
S1133FA0FBFAF9F8F7F6F5F4F3F2F1F02222222203
S1133FB02222222222222222222222220000000065
S1133FC00000000000000000000000003333333321
S1133FD033000000000000000000000033333333DE
S1133FE0330000000000000000000000917CF69EF9
S1133FF0BD68B2EC9B9FE9A3EADDA692CD43D2F55E
S11340009598ED858C02C2652FBF922EC454185E1C
S11340106A16936E39334038ACEF838BFB186FFF0D
S11340207480ADC4289382ECD6D394F0AF85336BFF
S1134030597AFC1A900B2EB21EC949D292DF4C0455
S11340407E0B21532186A5971A227A89000000004D
S1134050000000000000000000000000000000005C
S1134060000000000000000000000000444444443C
S113407044444444444444444444444444444444FC
S113408044444444444444444444444444444444EC
S113409044444444444444444444444444444444DC
S11340A044444444444444444444444400000000DC
S11340B000000000000000000000000000000000FC
S11340C000000000000000000000000000000000EC
S11340D000000000000000000000000000000000DC
S11340E000000000000000000000000000000000CC
S11340F000000000000000000000000000000000BC
S1134100000000000000000000000000F8B5C046F8
S1134110F8BC08BC9E467047DD000000F8B5C046F8
S10F4120F8BC08BC9E467047B5000000C7
S113412CCD1600000800002000000000CC40000068
S113413CEC400000AC400000000000000000000057
S113414C000000000000000000000000000000005F
S113415C000000000000000000000000000000004F
S113416C000000000000000000000000000000003F
S113417C000000000000000000000000000000002F
S10B418C000000000000000027
S9030000FC
